{
	"Allowance.sol": {
		"main": {
			"abi": [
				{
					"inputs": [],
					"stateMutability": "nonpayable",
					"type": "constructor"
				},
				{
					"anonymous": false,
					"inputs": [
						{
							"indexed": false,
							"internalType": "address",
							"name": "_to",
							"type": "address"
						},
						{
							"indexed": false,
							"internalType": "uint256",
							"name": "_amount",
							"type": "uint256"
						},
						{
							"indexed": false,
							"internalType": "string",
							"name": "_description",
							"type": "string"
						}
					],
					"name": "log",
					"type": "event"
				},
				{
					"inputs": [],
					"name": "BALANCE",
					"outputs": [
						{
							"internalType": "uint256",
							"name": "",
							"type": "uint256"
						}
					],
					"stateMutability": "view",
					"type": "function"
				},
				{
					"inputs": [
						{
							"internalType": "address",
							"name": "_to",
							"type": "address"
						},
						{
							"internalType": "uint256",
							"name": "_amount",
							"type": "uint256"
						}
					],
					"name": "addAllowance",
					"outputs": [],
					"stateMutability": "nonpayable",
					"type": "function"
				},
				{
					"inputs": [
						{
							"internalType": "address",
							"name": "",
							"type": "address"
						}
					],
					"name": "allowance",
					"outputs": [
						{
							"internalType": "uint256",
							"name": "",
							"type": "uint256"
						}
					],
					"stateMutability": "view",
					"type": "function"
				},
				{
					"inputs": [
						{
							"internalType": "address payable",
							"name": "_to",
							"type": "address"
						},
						{
							"internalType": "uint256",
							"name": "_amount",
							"type": "uint256"
						},
						{
							"internalType": "string",
							"name": "_description",
							"type": "string"
						}
					],
					"name": "withdrawMoney",
					"outputs": [],
					"stateMutability": "nonpayable",
					"type": "function"
				},
				{
					"stateMutability": "payable",
					"type": "receive"
				}
			],
			"devdoc": {
				"kind": "dev",
				"methods": {},
				"version": 1
			},
			"evm": {
				"assembly": "    /* \"Allowance.sol\":59:1423  contract main{\r... */\n  mstore(0x40, 0x80)\n    /* \"Allowance.sol\":160:210  constructor(){\r... */\n  callvalue\n  dup1\n  iszero\n  tag_1\n  jumpi\n  0x00\n  dup1\n  revert\ntag_1:\n  pop\n    /* \"Allowance.sol\":192:202  msg.sender */\n  caller\n    /* \"Allowance.sol\":184:189  owner */\n  0x00\n  dup1\n    /* \"Allowance.sol\":184:202  owner = msg.sender */\n  0x0100\n  exp\n  dup2\n  sload\n  dup2\n  0xffffffffffffffffffffffffffffffffffffffff\n  mul\n  not\n  and\n  swap1\n  dup4\n  0xffffffffffffffffffffffffffffffffffffffff\n  and\n  mul\n  or\n  swap1\n  sstore\n  pop\n    /* \"Allowance.sol\":59:1423  contract main{\r... */\n  dataSize(sub_0)\n  dup1\n  dataOffset(sub_0)\n  0x00\n  codecopy\n  0x00\n  return\nstop\n\nsub_0: assembly {\n        /* \"Allowance.sol\":59:1423  contract main{\r... */\n      mstore(0x40, 0x80)\n      jumpi(tag_1, lt(calldatasize, 0x04))\n      shr(0xe0, calldataload(0x00))\n      dup1\n      0x15e9977e\n      eq\n      tag_3\n      jumpi\n      dup1\n      0x3495e901\n      eq\n      tag_4\n      jumpi\n      dup1\n      0x3e5beab9\n      eq\n      tag_5\n      jumpi\n      dup1\n      0xf3c40c4b\n      eq\n      tag_6\n      jumpi\n      jump(tag_2)\n    tag_1:\n      jumpi(tag_2, calldatasize)\n      stop\n    tag_2:\n      0x00\n      dup1\n      revert\n        /* \"Allowance.sol\":1327:1418  function BALANCE() public view returns(uint){\r... */\n    tag_3:\n      callvalue\n      dup1\n      iszero\n      tag_9\n      jumpi\n      0x00\n      dup1\n      revert\n    tag_9:\n      pop\n      tag_10\n      tag_11\n      jump\t// in\n    tag_10:\n      mload(0x40)\n      tag_12\n      swap2\n      swap1\n      tag_13\n      jump\t// in\n    tag_12:\n      mload(0x40)\n      dup1\n      swap2\n      sub\n      swap1\n      return\n        /* \"Allowance.sol\":949:1315  function withdrawMoney(address payable _to, uint _amount, string memory _description) public ownerOrAllowed(_amount) {\r... */\n    tag_4:\n      callvalue\n      dup1\n      iszero\n      tag_14\n      jumpi\n      0x00\n      dup1\n      revert\n    tag_14:\n      pop\n      tag_15\n      0x04\n      dup1\n      calldatasize\n      sub\n      dup2\n      add\n      swap1\n      tag_16\n      swap2\n      swap1\n      tag_17\n      jump\t// in\n    tag_16:\n      tag_18\n      jump\t// in\n    tag_15:\n      stop\n        /* \"Allowance.sol\":109:151  mapping (address => uint) public allowance */\n    tag_5:\n      callvalue\n      dup1\n      iszero\n      tag_19\n      jumpi\n      0x00\n      dup1\n      revert\n    tag_19:\n      pop\n      tag_20\n      0x04\n      dup1\n      calldatasize\n      sub\n      dup2\n      add\n      swap1\n      tag_21\n      swap2\n      swap1\n      tag_22\n      jump\t// in\n    tag_21:\n      tag_23\n      jump\t// in\n    tag_20:\n      mload(0x40)\n      tag_24\n      swap2\n      swap1\n      tag_13\n      jump\t// in\n    tag_24:\n      mload(0x40)\n      dup1\n      swap2\n      sub\n      swap1\n      return\n        /* \"Allowance.sol\":780:939  function addAllowance(address _to, uint _amount) public onlyOwner {\r... */\n    tag_6:\n      callvalue\n      dup1\n      iszero\n      tag_25\n      jumpi\n      0x00\n      dup1\n      revert\n    tag_25:\n      pop\n      tag_26\n      0x04\n      dup1\n      calldatasize\n      sub\n      dup2\n      add\n      swap1\n      tag_27\n      swap2\n      swap1\n      tag_28\n      jump\t// in\n    tag_27:\n      tag_29\n      jump\t// in\n    tag_26:\n      stop\n        /* \"Allowance.sol\":1327:1418  function BALANCE() public view returns(uint){\r... */\n    tag_11:\n        /* \"Allowance.sol\":1366:1370  uint */\n      0x00\n        /* \"Allowance.sol\":1389:1410  address(this).balance */\n      selfbalance\n        /* \"Allowance.sol\":1382:1410  return address(this).balance */\n      swap1\n      pop\n        /* \"Allowance.sol\":1327:1418  function BALANCE() public view returns(uint){\r... */\n      swap1\n      jump\t// out\n        /* \"Allowance.sol\":949:1315  function withdrawMoney(address payable _to, uint _amount, string memory _description) public ownerOrAllowed(_amount) {\r... */\n    tag_18:\n        /* \"Allowance.sol\":1057:1064  _amount */\n      dup2\n        /* \"Allowance.sol\":529:538  isOwner() */\n      tag_32\n        /* \"Allowance.sol\":529:536  isOwner */\n      tag_33\n        /* \"Allowance.sol\":529:538  isOwner() */\n      jump\t// in\n    tag_32:\n        /* \"Allowance.sol\":529:574  isOwner() || allowance[msg.sender] >= _amount */\n      dup1\n      tag_34\n      jumpi\n      pop\n        /* \"Allowance.sol\":567:574  _amount */\n      dup1\n        /* \"Allowance.sol\":542:551  allowance */\n      0x01\n        /* \"Allowance.sol\":542:563  allowance[msg.sender] */\n      0x00\n        /* \"Allowance.sol\":552:562  msg.sender */\n      caller\n        /* \"Allowance.sol\":542:563  allowance[msg.sender] */\n      0xffffffffffffffffffffffffffffffffffffffff\n      and\n      0xffffffffffffffffffffffffffffffffffffffff\n      and\n      dup2\n      mstore\n      0x20\n      add\n      swap1\n      dup2\n      mstore\n      0x20\n      add\n      0x00\n      keccak256\n      sload\n        /* \"Allowance.sol\":542:574  allowance[msg.sender] >= _amount */\n      lt\n      iszero\n        /* \"Allowance.sol\":529:574  isOwner() || allowance[msg.sender] >= _amount */\n    tag_34:\n        /* \"Allowance.sol\":521:591  require(isOwner() || allowance[msg.sender] >= _amount, \"Not Allowed\" ) */\n      tag_35\n      jumpi\n      mload(0x40)\n      0x08c379a000000000000000000000000000000000000000000000000000000000\n      dup2\n      mstore\n      0x04\n      add\n      tag_36\n      swap1\n      tag_37\n      jump\t// in\n    tag_36:\n      mload(0x40)\n      dup1\n      swap2\n      sub\n      swap1\n      revert\n    tag_35:\n        /* \"Allowance.sol\":1082:1113  log(_to, _amount, _description) */\n      0xa1f2e8aa7ff0c088860d7b3f0d1dc288d8e8a07808525cc31a5691f1bc0e149d\n        /* \"Allowance.sol\":1086:1089  _to */\n      dup5\n        /* \"Allowance.sol\":1091:1098  _amount */\n      dup5\n        /* \"Allowance.sol\":1100:1112  _description */\n      dup5\n        /* \"Allowance.sol\":1082:1113  log(_to, _amount, _description) */\n      mload(0x40)\n      tag_39\n      swap4\n      swap3\n      swap2\n      swap1\n      tag_40\n      jump\t// in\n    tag_39:\n      mload(0x40)\n      dup1\n      swap2\n      sub\n      swap1\n      log1\n        /* \"Allowance.sol\":1157:1164  _amount */\n      dup3\n        /* \"Allowance.sol\":1132:1153  address(this).balance */\n      selfbalance\n        /* \"Allowance.sol\":1132:1164  address(this).balance >= _amount */\n      lt\n      iszero\n        /* \"Allowance.sol\":1124:1184  require(address(this).balance >= _amount, \"No enough funds\") */\n      tag_41\n      jumpi\n      mload(0x40)\n      0x08c379a000000000000000000000000000000000000000000000000000000000\n      dup2\n      mstore\n      0x04\n      add\n      tag_42\n      swap1\n      tag_43\n      jump\t// in\n    tag_42:\n      mload(0x40)\n      dup1\n      swap2\n      sub\n      swap1\n      revert\n    tag_41:\n        /* \"Allowance.sol\":1211:1216  false */\n      0x00\n        /* \"Allowance.sol\":1198:1216  isOwner() == false */\n      iszero\n      iszero\n        /* \"Allowance.sol\":1198:1207  isOwner() */\n      tag_44\n        /* \"Allowance.sol\":1198:1205  isOwner */\n      tag_33\n        /* \"Allowance.sol\":1198:1207  isOwner() */\n      jump\t// in\n    tag_44:\n        /* \"Allowance.sol\":1198:1216  isOwner() == false */\n      iszero\n      iszero\n      eq\n        /* \"Allowance.sol\":1195:1276  if(isOwner() == false){\r... */\n      iszero\n      tag_45\n      jumpi\n        /* \"Allowance.sol\":1257:1264  _amount */\n      dup3\n        /* \"Allowance.sol\":1232:1241  allowance */\n      0x01\n        /* \"Allowance.sol\":1232:1253  allowance[msg.sender] */\n      0x00\n        /* \"Allowance.sol\":1242:1252  msg.sender */\n      caller\n        /* \"Allowance.sol\":1232:1253  allowance[msg.sender] */\n      0xffffffffffffffffffffffffffffffffffffffff\n      and\n      0xffffffffffffffffffffffffffffffffffffffff\n      and\n      dup2\n      mstore\n      0x20\n      add\n      swap1\n      dup2\n      mstore\n      0x20\n      add\n      0x00\n      keccak256\n      0x00\n        /* \"Allowance.sol\":1232:1264  allowance[msg.sender] -= _amount */\n      dup3\n      dup3\n      sload\n      tag_46\n      swap2\n      swap1\n      tag_47\n      jump\t// in\n    tag_46:\n      swap3\n      pop\n      pop\n      dup2\n      swap1\n      sstore\n      pop\n        /* \"Allowance.sol\":1195:1276  if(isOwner() == false){\r... */\n    tag_45:\n        /* \"Allowance.sol\":1286:1289  _to */\n      dup4\n        /* \"Allowance.sol\":1286:1298  _to.transfer */\n      0xffffffffffffffffffffffffffffffffffffffff\n      and\n        /* \"Allowance.sol\":1286:1307  _to.transfer(_amount) */\n      0x08fc\n        /* \"Allowance.sol\":1299:1306  _amount */\n      dup5\n        /* \"Allowance.sol\":1286:1307  _to.transfer(_amount) */\n      swap1\n      dup2\n      iszero\n      mul\n      swap1\n      mload(0x40)\n      0x00\n      mload(0x40)\n      dup1\n      dup4\n      sub\n      dup2\n      dup6\n      dup9\n      dup9\n      call\n      swap4\n      pop\n      pop\n      pop\n      pop\n      iszero\n      dup1\n      iszero\n      tag_49\n      jumpi\n      returndatasize\n      0x00\n      dup1\n      returndatacopy\n      revert(0x00, returndatasize)\n    tag_49:\n      pop\n        /* \"Allowance.sol\":949:1315  function withdrawMoney(address payable _to, uint _amount, string memory _description) public ownerOrAllowed(_amount) {\r... */\n      pop\n      pop\n      pop\n      pop\n      jump\t// out\n        /* \"Allowance.sol\":109:151  mapping (address => uint) public allowance */\n    tag_23:\n      mstore(0x20, 0x01)\n      dup1\n      0x00\n      mstore\n      keccak256(0x00, 0x40)\n      0x00\n      swap2\n      pop\n      swap1\n      pop\n      sload\n      dup2\n      jump\t// out\n        /* \"Allowance.sol\":780:939  function addAllowance(address _to, uint _amount) public onlyOwner {\r... */\n    tag_29:\n        /* \"Allowance.sol\":413:423  msg.sender */\n      caller\n        /* \"Allowance.sol\":404:423  owner == msg.sender */\n      0xffffffffffffffffffffffffffffffffffffffff\n      and\n        /* \"Allowance.sol\":404:409  owner */\n      0x00\n      dup1\n      sload\n      swap1\n      0x0100\n      exp\n      swap1\n      div\n      0xffffffffffffffffffffffffffffffffffffffff\n      and\n        /* \"Allowance.sol\":404:423  owner == msg.sender */\n      0xffffffffffffffffffffffffffffffffffffffff\n      and\n      eq\n        /* \"Allowance.sol\":396:445  require(owner == msg.sender, \"You are not owner\") */\n      tag_51\n      jumpi\n      mload(0x40)\n      0x08c379a000000000000000000000000000000000000000000000000000000000\n      dup2\n      mstore\n      0x04\n      add\n      tag_52\n      swap1\n      tag_53\n      jump\t// in\n    tag_52:\n      mload(0x40)\n      dup1\n      swap2\n      sub\n      swap1\n      revert\n    tag_51:\n        /* \"Allowance.sol\":872:877  owner */\n      0x00\n      dup1\n      sload\n      swap1\n      0x0100\n      exp\n      swap1\n      div\n      0xffffffffffffffffffffffffffffffffffffffff\n      and\n        /* \"Allowance.sol\":865:877  _to != owner */\n      0xffffffffffffffffffffffffffffffffffffffff\n      and\n        /* \"Allowance.sol\":865:868  _to */\n      dup3\n        /* \"Allowance.sol\":865:877  _to != owner */\n      0xffffffffffffffffffffffffffffffffffffffff\n      and\n      eq\n      iszero\n        /* \"Allowance.sol\":857:895  require(_to != owner, \"You are owner\") */\n      tag_55\n      jumpi\n      mload(0x40)\n      0x08c379a000000000000000000000000000000000000000000000000000000000\n      dup2\n      mstore\n      0x04\n      add\n      tag_56\n      swap1\n      tag_57\n      jump\t// in\n    tag_56:\n      mload(0x40)\n      dup1\n      swap2\n      sub\n      swap1\n      revert\n    tag_55:\n        /* \"Allowance.sol\":924:931  _amount */\n      dup1\n        /* \"Allowance.sol\":906:915  allowance */\n      0x01\n        /* \"Allowance.sol\":906:920  allowance[_to] */\n      0x00\n        /* \"Allowance.sol\":916:919  _to */\n      dup5\n        /* \"Allowance.sol\":906:920  allowance[_to] */\n      0xffffffffffffffffffffffffffffffffffffffff\n      and\n      0xffffffffffffffffffffffffffffffffffffffff\n      and\n      dup2\n      mstore\n      0x20\n      add\n      swap1\n      dup2\n      mstore\n      0x20\n      add\n      0x00\n      keccak256\n      0x00\n        /* \"Allowance.sol\":906:931  allowance[_to] += _amount */\n      dup3\n      dup3\n      sload\n      tag_58\n      swap2\n      swap1\n      tag_59\n      jump\t// in\n    tag_58:\n      swap3\n      pop\n      pop\n      dup2\n      swap1\n      sstore\n      pop\n        /* \"Allowance.sol\":780:939  function addAllowance(address _to, uint _amount) public onlyOwner {\r... */\n      pop\n      pop\n      jump\t// out\n        /* \"Allowance.sol\":625:772  function isOwner() private view returns(bool){\r... */\n    tag_33:\n        /* \"Allowance.sol\":665:669  bool */\n      0x00\n        /* \"Allowance.sol\":693:703  msg.sender */\n      caller\n        /* \"Allowance.sol\":684:703  owner == msg.sender */\n      0xffffffffffffffffffffffffffffffffffffffff\n      and\n        /* \"Allowance.sol\":684:689  owner */\n      0x00\n      dup1\n      sload\n      swap1\n      0x0100\n      exp\n      swap1\n      div\n      0xffffffffffffffffffffffffffffffffffffffff\n      and\n        /* \"Allowance.sol\":684:703  owner == msg.sender */\n      0xffffffffffffffffffffffffffffffffffffffff\n      and\n      eq\n        /* \"Allowance.sol\":681:742  if(owner == msg.sender){\r... */\n      iszero\n      tag_61\n      jumpi\n        /* \"Allowance.sol\":726:730  true */\n      0x01\n        /* \"Allowance.sol\":719:730  return true */\n      swap1\n      pop\n      jump(tag_60)\n        /* \"Allowance.sol\":681:742  if(owner == msg.sender){\r... */\n    tag_61:\n        /* \"Allowance.sol\":759:764  false */\n      0x00\n        /* \"Allowance.sol\":752:764  return false */\n      swap1\n      pop\n        /* \"Allowance.sol\":625:772  function isOwner() private view returns(bool){\r... */\n    tag_60:\n      swap1\n      jump\t// out\n        /* \"#utility.yul\":7:419   */\n    tag_63:\n        /* \"#utility.yul\":85:90   */\n      0x00\n        /* \"#utility.yul\":110:176   */\n      tag_65\n        /* \"#utility.yul\":126:175   */\n      tag_66\n        /* \"#utility.yul\":168:174   */\n      dup5\n        /* \"#utility.yul\":126:175   */\n      tag_67\n      jump\t// in\n    tag_66:\n        /* \"#utility.yul\":110:176   */\n      tag_68\n      jump\t// in\n    tag_65:\n        /* \"#utility.yul\":101:176   */\n      swap1\n      pop\n        /* \"#utility.yul\":199:205   */\n      dup3\n        /* \"#utility.yul\":192:197   */\n      dup2\n        /* \"#utility.yul\":185:206   */\n      mstore\n        /* \"#utility.yul\":237:241   */\n      0x20\n        /* \"#utility.yul\":230:235   */\n      dup2\n        /* \"#utility.yul\":226:242   */\n      add\n        /* \"#utility.yul\":275:278   */\n      dup5\n        /* \"#utility.yul\":266:272   */\n      dup5\n        /* \"#utility.yul\":261:264   */\n      dup5\n        /* \"#utility.yul\":257:273   */\n      add\n        /* \"#utility.yul\":254:279   */\n      gt\n        /* \"#utility.yul\":251:363   */\n      iszero\n      tag_69\n      jumpi\n        /* \"#utility.yul\":282:361   */\n      tag_70\n      tag_71\n      jump\t// in\n    tag_70:\n        /* \"#utility.yul\":251:363   */\n    tag_69:\n        /* \"#utility.yul\":372:413   */\n      tag_72\n        /* \"#utility.yul\":406:412   */\n      dup5\n        /* \"#utility.yul\":401:404   */\n      dup3\n        /* \"#utility.yul\":396:399   */\n      dup6\n        /* \"#utility.yul\":372:413   */\n      tag_73\n      jump\t// in\n    tag_72:\n        /* \"#utility.yul\":91:419   */\n      pop\n        /* \"#utility.yul\":7:419   */\n      swap4\n      swap3\n      pop\n      pop\n      pop\n      jump\t// out\n        /* \"#utility.yul\":425:564   */\n    tag_74:\n        /* \"#utility.yul\":471:476   */\n      0x00\n        /* \"#utility.yul\":509:515   */\n      dup2\n        /* \"#utility.yul\":496:516   */\n      calldataload\n        /* \"#utility.yul\":487:516   */\n      swap1\n      pop\n        /* \"#utility.yul\":525:558   */\n      tag_76\n        /* \"#utility.yul\":552:557   */\n      dup2\n        /* \"#utility.yul\":525:558   */\n      tag_77\n      jump\t// in\n    tag_76:\n        /* \"#utility.yul\":425:564   */\n      swap3\n      swap2\n      pop\n      pop\n      jump\t// out\n        /* \"#utility.yul\":570:725   */\n    tag_78:\n        /* \"#utility.yul\":624:629   */\n      0x00\n        /* \"#utility.yul\":662:668   */\n      dup2\n        /* \"#utility.yul\":649:669   */\n      calldataload\n        /* \"#utility.yul\":640:669   */\n      swap1\n      pop\n        /* \"#utility.yul\":678:719   */\n      tag_80\n        /* \"#utility.yul\":713:718   */\n      dup2\n        /* \"#utility.yul\":678:719   */\n      tag_81\n      jump\t// in\n    tag_80:\n        /* \"#utility.yul\":570:725   */\n      swap3\n      swap2\n      pop\n      pop\n      jump\t// out\n        /* \"#utility.yul\":745:1085   */\n    tag_82:\n        /* \"#utility.yul\":801:806   */\n      0x00\n        /* \"#utility.yul\":850:853   */\n      dup3\n        /* \"#utility.yul\":843:847   */\n      0x1f\n        /* \"#utility.yul\":835:841   */\n      dup4\n        /* \"#utility.yul\":831:848   */\n      add\n        /* \"#utility.yul\":827:854   */\n      slt\n        /* \"#utility.yul\":817:939   */\n      tag_84\n      jumpi\n        /* \"#utility.yul\":858:937   */\n      tag_85\n      tag_86\n      jump\t// in\n    tag_85:\n        /* \"#utility.yul\":817:939   */\n    tag_84:\n        /* \"#utility.yul\":975:981   */\n      dup2\n        /* \"#utility.yul\":962:982   */\n      calldataload\n        /* \"#utility.yul\":1000:1079   */\n      tag_87\n        /* \"#utility.yul\":1075:1078   */\n      dup5\n        /* \"#utility.yul\":1067:1073   */\n      dup3\n        /* \"#utility.yul\":1060:1064   */\n      0x20\n        /* \"#utility.yul\":1052:1058   */\n      dup7\n        /* \"#utility.yul\":1048:1065   */\n      add\n        /* \"#utility.yul\":1000:1079   */\n      tag_63\n      jump\t// in\n    tag_87:\n        /* \"#utility.yul\":991:1079   */\n      swap2\n      pop\n        /* \"#utility.yul\":807:1085   */\n      pop\n        /* \"#utility.yul\":745:1085   */\n      swap3\n      swap2\n      pop\n      pop\n      jump\t// out\n        /* \"#utility.yul\":1091:1230   */\n    tag_88:\n        /* \"#utility.yul\":1137:1142   */\n      0x00\n        /* \"#utility.yul\":1175:1181   */\n      dup2\n        /* \"#utility.yul\":1162:1182   */\n      calldataload\n        /* \"#utility.yul\":1153:1182   */\n      swap1\n      pop\n        /* \"#utility.yul\":1191:1224   */\n      tag_90\n        /* \"#utility.yul\":1218:1223   */\n      dup2\n        /* \"#utility.yul\":1191:1224   */\n      tag_91\n      jump\t// in\n    tag_90:\n        /* \"#utility.yul\":1091:1230   */\n      swap3\n      swap2\n      pop\n      pop\n      jump\t// out\n        /* \"#utility.yul\":1236:1565   */\n    tag_22:\n        /* \"#utility.yul\":1295:1301   */\n      0x00\n        /* \"#utility.yul\":1344:1346   */\n      0x20\n        /* \"#utility.yul\":1332:1341   */\n      dup3\n        /* \"#utility.yul\":1323:1330   */\n      dup5\n        /* \"#utility.yul\":1319:1342   */\n      sub\n        /* \"#utility.yul\":1315:1347   */\n      slt\n        /* \"#utility.yul\":1312:1431   */\n      iszero\n      tag_93\n      jumpi\n        /* \"#utility.yul\":1350:1429   */\n      tag_94\n      tag_95\n      jump\t// in\n    tag_94:\n        /* \"#utility.yul\":1312:1431   */\n    tag_93:\n        /* \"#utility.yul\":1470:1471   */\n      0x00\n        /* \"#utility.yul\":1495:1548   */\n      tag_96\n        /* \"#utility.yul\":1540:1547   */\n      dup5\n        /* \"#utility.yul\":1531:1537   */\n      dup3\n        /* \"#utility.yul\":1520:1529   */\n      dup6\n        /* \"#utility.yul\":1516:1538   */\n      add\n        /* \"#utility.yul\":1495:1548   */\n      tag_74\n      jump\t// in\n    tag_96:\n        /* \"#utility.yul\":1485:1548   */\n      swap2\n      pop\n        /* \"#utility.yul\":1441:1558   */\n      pop\n        /* \"#utility.yul\":1236:1565   */\n      swap3\n      swap2\n      pop\n      pop\n      jump\t// out\n        /* \"#utility.yul\":1571:2386   */\n    tag_17:\n        /* \"#utility.yul\":1666:1672   */\n      0x00\n        /* \"#utility.yul\":1674:1680   */\n      dup1\n        /* \"#utility.yul\":1682:1688   */\n      0x00\n        /* \"#utility.yul\":1731:1733   */\n      0x60\n        /* \"#utility.yul\":1719:1728   */\n      dup5\n        /* \"#utility.yul\":1710:1717   */\n      dup7\n        /* \"#utility.yul\":1706:1729   */\n      sub\n        /* \"#utility.yul\":1702:1734   */\n      slt\n        /* \"#utility.yul\":1699:1818   */\n      iszero\n      tag_98\n      jumpi\n        /* \"#utility.yul\":1737:1816   */\n      tag_99\n      tag_95\n      jump\t// in\n    tag_99:\n        /* \"#utility.yul\":1699:1818   */\n    tag_98:\n        /* \"#utility.yul\":1857:1858   */\n      0x00\n        /* \"#utility.yul\":1882:1943   */\n      tag_100\n        /* \"#utility.yul\":1935:1942   */\n      dup7\n        /* \"#utility.yul\":1926:1932   */\n      dup3\n        /* \"#utility.yul\":1915:1924   */\n      dup8\n        /* \"#utility.yul\":1911:1933   */\n      add\n        /* \"#utility.yul\":1882:1943   */\n      tag_78\n      jump\t// in\n    tag_100:\n        /* \"#utility.yul\":1872:1943   */\n      swap4\n      pop\n        /* \"#utility.yul\":1828:1953   */\n      pop\n        /* \"#utility.yul\":1992:1994   */\n      0x20\n        /* \"#utility.yul\":2018:2071   */\n      tag_101\n        /* \"#utility.yul\":2063:2070   */\n      dup7\n        /* \"#utility.yul\":2054:2060   */\n      dup3\n        /* \"#utility.yul\":2043:2052   */\n      dup8\n        /* \"#utility.yul\":2039:2061   */\n      add\n        /* \"#utility.yul\":2018:2071   */\n      tag_88\n      jump\t// in\n    tag_101:\n        /* \"#utility.yul\":2008:2071   */\n      swap3\n      pop\n        /* \"#utility.yul\":1963:2081   */\n      pop\n        /* \"#utility.yul\":2148:2150   */\n      0x40\n        /* \"#utility.yul\":2137:2146   */\n      dup5\n        /* \"#utility.yul\":2133:2151   */\n      add\n        /* \"#utility.yul\":2120:2152   */\n      calldataload\n        /* \"#utility.yul\":2179:2197   */\n      0xffffffffffffffff\n        /* \"#utility.yul\":2171:2177   */\n      dup2\n        /* \"#utility.yul\":2168:2198   */\n      gt\n        /* \"#utility.yul\":2165:2282   */\n      iszero\n      tag_102\n      jumpi\n        /* \"#utility.yul\":2201:2280   */\n      tag_103\n      tag_104\n      jump\t// in\n    tag_103:\n        /* \"#utility.yul\":2165:2282   */\n    tag_102:\n        /* \"#utility.yul\":2306:2369   */\n      tag_105\n        /* \"#utility.yul\":2361:2368   */\n      dup7\n        /* \"#utility.yul\":2352:2358   */\n      dup3\n        /* \"#utility.yul\":2341:2350   */\n      dup8\n        /* \"#utility.yul\":2337:2359   */\n      add\n        /* \"#utility.yul\":2306:2369   */\n      tag_82\n      jump\t// in\n    tag_105:\n        /* \"#utility.yul\":2296:2369   */\n      swap2\n      pop\n        /* \"#utility.yul\":2091:2379   */\n      pop\n        /* \"#utility.yul\":1571:2386   */\n      swap3\n      pop\n      swap3\n      pop\n      swap3\n      jump\t// out\n        /* \"#utility.yul\":2392:2866   */\n    tag_28:\n        /* \"#utility.yul\":2460:2466   */\n      0x00\n        /* \"#utility.yul\":2468:2474   */\n      dup1\n        /* \"#utility.yul\":2517:2519   */\n      0x40\n        /* \"#utility.yul\":2505:2514   */\n      dup4\n        /* \"#utility.yul\":2496:2503   */\n      dup6\n        /* \"#utility.yul\":2492:2515   */\n      sub\n        /* \"#utility.yul\":2488:2520   */\n      slt\n        /* \"#utility.yul\":2485:2604   */\n      iszero\n      tag_107\n      jumpi\n        /* \"#utility.yul\":2523:2602   */\n      tag_108\n      tag_95\n      jump\t// in\n    tag_108:\n        /* \"#utility.yul\":2485:2604   */\n    tag_107:\n        /* \"#utility.yul\":2643:2644   */\n      0x00\n        /* \"#utility.yul\":2668:2721   */\n      tag_109\n        /* \"#utility.yul\":2713:2720   */\n      dup6\n        /* \"#utility.yul\":2704:2710   */\n      dup3\n        /* \"#utility.yul\":2693:2702   */\n      dup7\n        /* \"#utility.yul\":2689:2711   */\n      add\n        /* \"#utility.yul\":2668:2721   */\n      tag_74\n      jump\t// in\n    tag_109:\n        /* \"#utility.yul\":2658:2721   */\n      swap3\n      pop\n        /* \"#utility.yul\":2614:2731   */\n      pop\n        /* \"#utility.yul\":2770:2772   */\n      0x20\n        /* \"#utility.yul\":2796:2849   */\n      tag_110\n        /* \"#utility.yul\":2841:2848   */\n      dup6\n        /* \"#utility.yul\":2832:2838   */\n      dup3\n        /* \"#utility.yul\":2821:2830   */\n      dup7\n        /* \"#utility.yul\":2817:2839   */\n      add\n        /* \"#utility.yul\":2796:2849   */\n      tag_88\n      jump\t// in\n    tag_110:\n        /* \"#utility.yul\":2786:2849   */\n      swap2\n      pop\n        /* \"#utility.yul\":2741:2859   */\n      pop\n        /* \"#utility.yul\":2392:2866   */\n      swap3\n      pop\n      swap3\n      swap1\n      pop\n      jump\t// out\n        /* \"#utility.yul\":2872:3019   */\n    tag_111:\n        /* \"#utility.yul\":2967:3012   */\n      tag_113\n        /* \"#utility.yul\":3006:3011   */\n      dup2\n        /* \"#utility.yul\":2967:3012   */\n      tag_114\n      jump\t// in\n    tag_113:\n        /* \"#utility.yul\":2962:2965   */\n      dup3\n        /* \"#utility.yul\":2955:3013   */\n      mstore\n        /* \"#utility.yul\":2872:3019   */\n      pop\n      pop\n      jump\t// out\n        /* \"#utility.yul\":3025:3389   */\n    tag_115:\n        /* \"#utility.yul\":3113:3116   */\n      0x00\n        /* \"#utility.yul\":3141:3180   */\n      tag_117\n        /* \"#utility.yul\":3174:3179   */\n      dup3\n        /* \"#utility.yul\":3141:3180   */\n      tag_118\n      jump\t// in\n    tag_117:\n        /* \"#utility.yul\":3196:3267   */\n      tag_119\n        /* \"#utility.yul\":3260:3266   */\n      dup2\n        /* \"#utility.yul\":3255:3258   */\n      dup6\n        /* \"#utility.yul\":3196:3267   */\n      tag_120\n      jump\t// in\n    tag_119:\n        /* \"#utility.yul\":3189:3267   */\n      swap4\n      pop\n        /* \"#utility.yul\":3276:3328   */\n      tag_121\n        /* \"#utility.yul\":3321:3327   */\n      dup2\n        /* \"#utility.yul\":3316:3319   */\n      dup6\n        /* \"#utility.yul\":3309:3313   */\n      0x20\n        /* \"#utility.yul\":3302:3307   */\n      dup7\n        /* \"#utility.yul\":3298:3314   */\n      add\n        /* \"#utility.yul\":3276:3328   */\n      tag_122\n      jump\t// in\n    tag_121:\n        /* \"#utility.yul\":3353:3382   */\n      tag_123\n        /* \"#utility.yul\":3375:3381   */\n      dup2\n        /* \"#utility.yul\":3353:3382   */\n      tag_124\n      jump\t// in\n    tag_123:\n        /* \"#utility.yul\":3348:3351   */\n      dup5\n        /* \"#utility.yul\":3344:3383   */\n      add\n        /* \"#utility.yul\":3337:3383   */\n      swap2\n      pop\n        /* \"#utility.yul\":3117:3389   */\n      pop\n        /* \"#utility.yul\":3025:3389   */\n      swap3\n      swap2\n      pop\n      pop\n      jump\t// out\n        /* \"#utility.yul\":3395:3761   */\n    tag_125:\n        /* \"#utility.yul\":3537:3540   */\n      0x00\n        /* \"#utility.yul\":3558:3625   */\n      tag_127\n        /* \"#utility.yul\":3622:3624   */\n      0x0f\n        /* \"#utility.yul\":3617:3620   */\n      dup4\n        /* \"#utility.yul\":3558:3625   */\n      tag_120\n      jump\t// in\n    tag_127:\n        /* \"#utility.yul\":3551:3625   */\n      swap2\n      pop\n        /* \"#utility.yul\":3634:3727   */\n      tag_128\n        /* \"#utility.yul\":3723:3726   */\n      dup3\n        /* \"#utility.yul\":3634:3727   */\n      tag_129\n      jump\t// in\n    tag_128:\n        /* \"#utility.yul\":3752:3754   */\n      0x20\n        /* \"#utility.yul\":3747:3750   */\n      dup3\n        /* \"#utility.yul\":3743:3755   */\n      add\n        /* \"#utility.yul\":3736:3755   */\n      swap1\n      pop\n        /* \"#utility.yul\":3395:3761   */\n      swap2\n      swap1\n      pop\n      jump\t// out\n        /* \"#utility.yul\":3767:4133   */\n    tag_130:\n        /* \"#utility.yul\":3909:3912   */\n      0x00\n        /* \"#utility.yul\":3930:3997   */\n      tag_132\n        /* \"#utility.yul\":3994:3996   */\n      0x0d\n        /* \"#utility.yul\":3989:3992   */\n      dup4\n        /* \"#utility.yul\":3930:3997   */\n      tag_120\n      jump\t// in\n    tag_132:\n        /* \"#utility.yul\":3923:3997   */\n      swap2\n      pop\n        /* \"#utility.yul\":4006:4099   */\n      tag_133\n        /* \"#utility.yul\":4095:4098   */\n      dup3\n        /* \"#utility.yul\":4006:4099   */\n      tag_134\n      jump\t// in\n    tag_133:\n        /* \"#utility.yul\":4124:4126   */\n      0x20\n        /* \"#utility.yul\":4119:4122   */\n      dup3\n        /* \"#utility.yul\":4115:4127   */\n      add\n        /* \"#utility.yul\":4108:4127   */\n      swap1\n      pop\n        /* \"#utility.yul\":3767:4133   */\n      swap2\n      swap1\n      pop\n      jump\t// out\n        /* \"#utility.yul\":4139:4505   */\n    tag_135:\n        /* \"#utility.yul\":4281:4284   */\n      0x00\n        /* \"#utility.yul\":4302:4369   */\n      tag_137\n        /* \"#utility.yul\":4366:4368   */\n      0x0b\n        /* \"#utility.yul\":4361:4364   */\n      dup4\n        /* \"#utility.yul\":4302:4369   */\n      tag_120\n      jump\t// in\n    tag_137:\n        /* \"#utility.yul\":4295:4369   */\n      swap2\n      pop\n        /* \"#utility.yul\":4378:4471   */\n      tag_138\n        /* \"#utility.yul\":4467:4470   */\n      dup3\n        /* \"#utility.yul\":4378:4471   */\n      tag_139\n      jump\t// in\n    tag_138:\n        /* \"#utility.yul\":4496:4498   */\n      0x20\n        /* \"#utility.yul\":4491:4494   */\n      dup3\n        /* \"#utility.yul\":4487:4499   */\n      add\n        /* \"#utility.yul\":4480:4499   */\n      swap1\n      pop\n        /* \"#utility.yul\":4139:4505   */\n      swap2\n      swap1\n      pop\n      jump\t// out\n        /* \"#utility.yul\":4511:4877   */\n    tag_140:\n        /* \"#utility.yul\":4653:4656   */\n      0x00\n        /* \"#utility.yul\":4674:4741   */\n      tag_142\n        /* \"#utility.yul\":4738:4740   */\n      0x11\n        /* \"#utility.yul\":4733:4736   */\n      dup4\n        /* \"#utility.yul\":4674:4741   */\n      tag_120\n      jump\t// in\n    tag_142:\n        /* \"#utility.yul\":4667:4741   */\n      swap2\n      pop\n        /* \"#utility.yul\":4750:4843   */\n      tag_143\n        /* \"#utility.yul\":4839:4842   */\n      dup3\n        /* \"#utility.yul\":4750:4843   */\n      tag_144\n      jump\t// in\n    tag_143:\n        /* \"#utility.yul\":4868:4870   */\n      0x20\n        /* \"#utility.yul\":4863:4866   */\n      dup3\n        /* \"#utility.yul\":4859:4871   */\n      add\n        /* \"#utility.yul\":4852:4871   */\n      swap1\n      pop\n        /* \"#utility.yul\":4511:4877   */\n      swap2\n      swap1\n      pop\n      jump\t// out\n        /* \"#utility.yul\":4883:5001   */\n    tag_145:\n        /* \"#utility.yul\":4970:4994   */\n      tag_147\n        /* \"#utility.yul\":4988:4993   */\n      dup2\n        /* \"#utility.yul\":4970:4994   */\n      tag_148\n      jump\t// in\n    tag_147:\n        /* \"#utility.yul\":4965:4968   */\n      dup3\n        /* \"#utility.yul\":4958:4995   */\n      mstore\n        /* \"#utility.yul\":4883:5001   */\n      pop\n      pop\n      jump\t// out\n        /* \"#utility.yul\":5007:5556   */\n    tag_40:\n        /* \"#utility.yul\":5184:5188   */\n      0x00\n        /* \"#utility.yul\":5222:5224   */\n      0x60\n        /* \"#utility.yul\":5211:5220   */\n      dup3\n        /* \"#utility.yul\":5207:5225   */\n      add\n        /* \"#utility.yul\":5199:5225   */\n      swap1\n      pop\n        /* \"#utility.yul\":5235:5314   */\n      tag_150\n        /* \"#utility.yul\":5311:5312   */\n      0x00\n        /* \"#utility.yul\":5300:5309   */\n      dup4\n        /* \"#utility.yul\":5296:5313   */\n      add\n        /* \"#utility.yul\":5287:5293   */\n      dup7\n        /* \"#utility.yul\":5235:5314   */\n      tag_111\n      jump\t// in\n    tag_150:\n        /* \"#utility.yul\":5324:5396   */\n      tag_151\n        /* \"#utility.yul\":5392:5394   */\n      0x20\n        /* \"#utility.yul\":5381:5390   */\n      dup4\n        /* \"#utility.yul\":5377:5395   */\n      add\n        /* \"#utility.yul\":5368:5374   */\n      dup6\n        /* \"#utility.yul\":5324:5396   */\n      tag_145\n      jump\t// in\n    tag_151:\n        /* \"#utility.yul\":5443:5452   */\n      dup2\n        /* \"#utility.yul\":5437:5441   */\n      dup2\n        /* \"#utility.yul\":5433:5453   */\n      sub\n        /* \"#utility.yul\":5428:5430   */\n      0x40\n        /* \"#utility.yul\":5417:5426   */\n      dup4\n        /* \"#utility.yul\":5413:5431   */\n      add\n        /* \"#utility.yul\":5406:5454   */\n      mstore\n        /* \"#utility.yul\":5471:5549   */\n      tag_152\n        /* \"#utility.yul\":5544:5548   */\n      dup2\n        /* \"#utility.yul\":5535:5541   */\n      dup5\n        /* \"#utility.yul\":5471:5549   */\n      tag_115\n      jump\t// in\n    tag_152:\n        /* \"#utility.yul\":5463:5549   */\n      swap1\n      pop\n        /* \"#utility.yul\":5007:5556   */\n      swap5\n      swap4\n      pop\n      pop\n      pop\n      pop\n      jump\t// out\n        /* \"#utility.yul\":5562:5981   */\n    tag_43:\n        /* \"#utility.yul\":5728:5732   */\n      0x00\n        /* \"#utility.yul\":5766:5768   */\n      0x20\n        /* \"#utility.yul\":5755:5764   */\n      dup3\n        /* \"#utility.yul\":5751:5769   */\n      add\n        /* \"#utility.yul\":5743:5769   */\n      swap1\n      pop\n        /* \"#utility.yul\":5815:5824   */\n      dup2\n        /* \"#utility.yul\":5809:5813   */\n      dup2\n        /* \"#utility.yul\":5805:5825   */\n      sub\n        /* \"#utility.yul\":5801:5802   */\n      0x00\n        /* \"#utility.yul\":5790:5799   */\n      dup4\n        /* \"#utility.yul\":5786:5803   */\n      add\n        /* \"#utility.yul\":5779:5826   */\n      mstore\n        /* \"#utility.yul\":5843:5974   */\n      tag_154\n        /* \"#utility.yul\":5969:5973   */\n      dup2\n        /* \"#utility.yul\":5843:5974   */\n      tag_125\n      jump\t// in\n    tag_154:\n        /* \"#utility.yul\":5835:5974   */\n      swap1\n      pop\n        /* \"#utility.yul\":5562:5981   */\n      swap2\n      swap1\n      pop\n      jump\t// out\n        /* \"#utility.yul\":5987:6406   */\n    tag_57:\n        /* \"#utility.yul\":6153:6157   */\n      0x00\n        /* \"#utility.yul\":6191:6193   */\n      0x20\n        /* \"#utility.yul\":6180:6189   */\n      dup3\n        /* \"#utility.yul\":6176:6194   */\n      add\n        /* \"#utility.yul\":6168:6194   */\n      swap1\n      pop\n        /* \"#utility.yul\":6240:6249   */\n      dup2\n        /* \"#utility.yul\":6234:6238   */\n      dup2\n        /* \"#utility.yul\":6230:6250   */\n      sub\n        /* \"#utility.yul\":6226:6227   */\n      0x00\n        /* \"#utility.yul\":6215:6224   */\n      dup4\n        /* \"#utility.yul\":6211:6228   */\n      add\n        /* \"#utility.yul\":6204:6251   */\n      mstore\n        /* \"#utility.yul\":6268:6399   */\n      tag_156\n        /* \"#utility.yul\":6394:6398   */\n      dup2\n        /* \"#utility.yul\":6268:6399   */\n      tag_130\n      jump\t// in\n    tag_156:\n        /* \"#utility.yul\":6260:6399   */\n      swap1\n      pop\n        /* \"#utility.yul\":5987:6406   */\n      swap2\n      swap1\n      pop\n      jump\t// out\n        /* \"#utility.yul\":6412:6831   */\n    tag_37:\n        /* \"#utility.yul\":6578:6582   */\n      0x00\n        /* \"#utility.yul\":6616:6618   */\n      0x20\n        /* \"#utility.yul\":6605:6614   */\n      dup3\n        /* \"#utility.yul\":6601:6619   */\n      add\n        /* \"#utility.yul\":6593:6619   */\n      swap1\n      pop\n        /* \"#utility.yul\":6665:6674   */\n      dup2\n        /* \"#utility.yul\":6659:6663   */\n      dup2\n        /* \"#utility.yul\":6655:6675   */\n      sub\n        /* \"#utility.yul\":6651:6652   */\n      0x00\n        /* \"#utility.yul\":6640:6649   */\n      dup4\n        /* \"#utility.yul\":6636:6653   */\n      add\n        /* \"#utility.yul\":6629:6676   */\n      mstore\n        /* \"#utility.yul\":6693:6824   */\n      tag_158\n        /* \"#utility.yul\":6819:6823   */\n      dup2\n        /* \"#utility.yul\":6693:6824   */\n      tag_135\n      jump\t// in\n    tag_158:\n        /* \"#utility.yul\":6685:6824   */\n      swap1\n      pop\n        /* \"#utility.yul\":6412:6831   */\n      swap2\n      swap1\n      pop\n      jump\t// out\n        /* \"#utility.yul\":6837:7256   */\n    tag_53:\n        /* \"#utility.yul\":7003:7007   */\n      0x00\n        /* \"#utility.yul\":7041:7043   */\n      0x20\n        /* \"#utility.yul\":7030:7039   */\n      dup3\n        /* \"#utility.yul\":7026:7044   */\n      add\n        /* \"#utility.yul\":7018:7044   */\n      swap1\n      pop\n        /* \"#utility.yul\":7090:7099   */\n      dup2\n        /* \"#utility.yul\":7084:7088   */\n      dup2\n        /* \"#utility.yul\":7080:7100   */\n      sub\n        /* \"#utility.yul\":7076:7077   */\n      0x00\n        /* \"#utility.yul\":7065:7074   */\n      dup4\n        /* \"#utility.yul\":7061:7078   */\n      add\n        /* \"#utility.yul\":7054:7101   */\n      mstore\n        /* \"#utility.yul\":7118:7249   */\n      tag_160\n        /* \"#utility.yul\":7244:7248   */\n      dup2\n        /* \"#utility.yul\":7118:7249   */\n      tag_140\n      jump\t// in\n    tag_160:\n        /* \"#utility.yul\":7110:7249   */\n      swap1\n      pop\n        /* \"#utility.yul\":6837:7256   */\n      swap2\n      swap1\n      pop\n      jump\t// out\n        /* \"#utility.yul\":7262:7484   */\n    tag_13:\n        /* \"#utility.yul\":7355:7359   */\n      0x00\n        /* \"#utility.yul\":7393:7395   */\n      0x20\n        /* \"#utility.yul\":7382:7391   */\n      dup3\n        /* \"#utility.yul\":7378:7396   */\n      add\n        /* \"#utility.yul\":7370:7396   */\n      swap1\n      pop\n        /* \"#utility.yul\":7406:7477   */\n      tag_162\n        /* \"#utility.yul\":7474:7475   */\n      0x00\n        /* \"#utility.yul\":7463:7472   */\n      dup4\n        /* \"#utility.yul\":7459:7476   */\n      add\n        /* \"#utility.yul\":7450:7456   */\n      dup5\n        /* \"#utility.yul\":7406:7477   */\n      tag_145\n      jump\t// in\n    tag_162:\n        /* \"#utility.yul\":7262:7484   */\n      swap3\n      swap2\n      pop\n      pop\n      jump\t// out\n        /* \"#utility.yul\":7490:7619   */\n    tag_68:\n        /* \"#utility.yul\":7524:7530   */\n      0x00\n        /* \"#utility.yul\":7551:7571   */\n      tag_164\n      tag_165\n      jump\t// in\n    tag_164:\n        /* \"#utility.yul\":7541:7571   */\n      swap1\n      pop\n        /* \"#utility.yul\":7580:7613   */\n      tag_166\n        /* \"#utility.yul\":7608:7612   */\n      dup3\n        /* \"#utility.yul\":7600:7606   */\n      dup3\n        /* \"#utility.yul\":7580:7613   */\n      tag_167\n      jump\t// in\n    tag_166:\n        /* \"#utility.yul\":7490:7619   */\n      swap2\n      swap1\n      pop\n      jump\t// out\n        /* \"#utility.yul\":7625:7700   */\n    tag_165:\n        /* \"#utility.yul\":7658:7664   */\n      0x00\n        /* \"#utility.yul\":7691:7693   */\n      0x40\n        /* \"#utility.yul\":7685:7694   */\n      mload\n        /* \"#utility.yul\":7675:7694   */\n      swap1\n      pop\n        /* \"#utility.yul\":7625:7700   */\n      swap1\n      jump\t// out\n        /* \"#utility.yul\":7706:8014   */\n    tag_67:\n        /* \"#utility.yul\":7768:7772   */\n      0x00\n        /* \"#utility.yul\":7858:7876   */\n      0xffffffffffffffff\n        /* \"#utility.yul\":7850:7856   */\n      dup3\n        /* \"#utility.yul\":7847:7877   */\n      gt\n        /* \"#utility.yul\":7844:7900   */\n      iszero\n      tag_170\n      jumpi\n        /* \"#utility.yul\":7880:7898   */\n      tag_171\n      tag_172\n      jump\t// in\n    tag_171:\n        /* \"#utility.yul\":7844:7900   */\n    tag_170:\n        /* \"#utility.yul\":7918:7947   */\n      tag_173\n        /* \"#utility.yul\":7940:7946   */\n      dup3\n        /* \"#utility.yul\":7918:7947   */\n      tag_124\n      jump\t// in\n    tag_173:\n        /* \"#utility.yul\":7910:7947   */\n      swap1\n      pop\n        /* \"#utility.yul\":8002:8006   */\n      0x20\n        /* \"#utility.yul\":7996:8000   */\n      dup2\n        /* \"#utility.yul\":7992:8007   */\n      add\n        /* \"#utility.yul\":7984:8007   */\n      swap1\n      pop\n        /* \"#utility.yul\":7706:8014   */\n      swap2\n      swap1\n      pop\n      jump\t// out\n        /* \"#utility.yul\":8020:8119   */\n    tag_118:\n        /* \"#utility.yul\":8072:8078   */\n      0x00\n        /* \"#utility.yul\":8106:8111   */\n      dup2\n        /* \"#utility.yul\":8100:8112   */\n      mload\n        /* \"#utility.yul\":8090:8112   */\n      swap1\n      pop\n        /* \"#utility.yul\":8020:8119   */\n      swap2\n      swap1\n      pop\n      jump\t// out\n        /* \"#utility.yul\":8125:8294   */\n    tag_120:\n        /* \"#utility.yul\":8209:8220   */\n      0x00\n        /* \"#utility.yul\":8243:8249   */\n      dup3\n        /* \"#utility.yul\":8238:8241   */\n      dup3\n        /* \"#utility.yul\":8231:8250   */\n      mstore\n        /* \"#utility.yul\":8283:8287   */\n      0x20\n        /* \"#utility.yul\":8278:8281   */\n      dup3\n        /* \"#utility.yul\":8274:8288   */\n      add\n        /* \"#utility.yul\":8259:8288   */\n      swap1\n      pop\n        /* \"#utility.yul\":8125:8294   */\n      swap3\n      swap2\n      pop\n      pop\n      jump\t// out\n        /* \"#utility.yul\":8300:8605   */\n    tag_59:\n        /* \"#utility.yul\":8340:8343   */\n      0x00\n        /* \"#utility.yul\":8359:8379   */\n      tag_177\n        /* \"#utility.yul\":8377:8378   */\n      dup3\n        /* \"#utility.yul\":8359:8379   */\n      tag_148\n      jump\t// in\n    tag_177:\n        /* \"#utility.yul\":8354:8379   */\n      swap2\n      pop\n        /* \"#utility.yul\":8393:8413   */\n      tag_178\n        /* \"#utility.yul\":8411:8412   */\n      dup4\n        /* \"#utility.yul\":8393:8413   */\n      tag_148\n      jump\t// in\n    tag_178:\n        /* \"#utility.yul\":8388:8413   */\n      swap3\n      pop\n        /* \"#utility.yul\":8547:8548   */\n      dup3\n        /* \"#utility.yul\":8479:8545   */\n      0xffffffffffffffffffffffffffffffffffffffffffffffffffffffffffffffff\n        /* \"#utility.yul\":8475:8549   */\n      sub\n        /* \"#utility.yul\":8472:8473   */\n      dup3\n        /* \"#utility.yul\":8469:8550   */\n      gt\n        /* \"#utility.yul\":8466:8573   */\n      iszero\n      tag_179\n      jumpi\n        /* \"#utility.yul\":8553:8571   */\n      tag_180\n      tag_181\n      jump\t// in\n    tag_180:\n        /* \"#utility.yul\":8466:8573   */\n    tag_179:\n        /* \"#utility.yul\":8597:8598   */\n      dup3\n        /* \"#utility.yul\":8594:8595   */\n      dup3\n        /* \"#utility.yul\":8590:8599   */\n      add\n        /* \"#utility.yul\":8583:8599   */\n      swap1\n      pop\n        /* \"#utility.yul\":8300:8605   */\n      swap3\n      swap2\n      pop\n      pop\n      jump\t// out\n        /* \"#utility.yul\":8611:8802   */\n    tag_47:\n        /* \"#utility.yul\":8651:8655   */\n      0x00\n        /* \"#utility.yul\":8671:8691   */\n      tag_183\n        /* \"#utility.yul\":8689:8690   */\n      dup3\n        /* \"#utility.yul\":8671:8691   */\n      tag_148\n      jump\t// in\n    tag_183:\n        /* \"#utility.yul\":8666:8691   */\n      swap2\n      pop\n        /* \"#utility.yul\":8705:8725   */\n      tag_184\n        /* \"#utility.yul\":8723:8724   */\n      dup4\n        /* \"#utility.yul\":8705:8725   */\n      tag_148\n      jump\t// in\n    tag_184:\n        /* \"#utility.yul\":8700:8725   */\n      swap3\n      pop\n        /* \"#utility.yul\":8744:8745   */\n      dup3\n        /* \"#utility.yul\":8741:8742   */\n      dup3\n        /* \"#utility.yul\":8738:8746   */\n      lt\n        /* \"#utility.yul\":8735:8769   */\n      iszero\n      tag_185\n      jumpi\n        /* \"#utility.yul\":8749:8767   */\n      tag_186\n      tag_181\n      jump\t// in\n    tag_186:\n        /* \"#utility.yul\":8735:8769   */\n    tag_185:\n        /* \"#utility.yul\":8794:8795   */\n      dup3\n        /* \"#utility.yul\":8791:8792   */\n      dup3\n        /* \"#utility.yul\":8787:8796   */\n      sub\n        /* \"#utility.yul\":8779:8796   */\n      swap1\n      pop\n        /* \"#utility.yul\":8611:8802   */\n      swap3\n      swap2\n      pop\n      pop\n      jump\t// out\n        /* \"#utility.yul\":8808:8904   */\n    tag_187:\n        /* \"#utility.yul\":8845:8852   */\n      0x00\n        /* \"#utility.yul\":8874:8898   */\n      tag_189\n        /* \"#utility.yul\":8892:8897   */\n      dup3\n        /* \"#utility.yul\":8874:8898   */\n      tag_190\n      jump\t// in\n    tag_189:\n        /* \"#utility.yul\":8863:8898   */\n      swap1\n      pop\n        /* \"#utility.yul\":8808:8904   */\n      swap2\n      swap1\n      pop\n      jump\t// out\n        /* \"#utility.yul\":8910:9014   */\n    tag_191:\n        /* \"#utility.yul\":8955:8962   */\n      0x00\n        /* \"#utility.yul\":8984:9008   */\n      tag_193\n        /* \"#utility.yul\":9002:9007   */\n      dup3\n        /* \"#utility.yul\":8984:9008   */\n      tag_190\n      jump\t// in\n    tag_193:\n        /* \"#utility.yul\":8973:9008   */\n      swap1\n      pop\n        /* \"#utility.yul\":8910:9014   */\n      swap2\n      swap1\n      pop\n      jump\t// out\n        /* \"#utility.yul\":9020:9146   */\n    tag_190:\n        /* \"#utility.yul\":9057:9064   */\n      0x00\n        /* \"#utility.yul\":9097:9139   */\n      0xffffffffffffffffffffffffffffffffffffffff\n        /* \"#utility.yul\":9090:9095   */\n      dup3\n        /* \"#utility.yul\":9086:9140   */\n      and\n        /* \"#utility.yul\":9075:9140   */\n      swap1\n      pop\n        /* \"#utility.yul\":9020:9146   */\n      swap2\n      swap1\n      pop\n      jump\t// out\n        /* \"#utility.yul\":9152:9229   */\n    tag_148:\n        /* \"#utility.yul\":9189:9196   */\n      0x00\n        /* \"#utility.yul\":9218:9223   */\n      dup2\n        /* \"#utility.yul\":9207:9223   */\n      swap1\n      pop\n        /* \"#utility.yul\":9152:9229   */\n      swap2\n      swap1\n      pop\n      jump\t// out\n        /* \"#utility.yul\":9235:9369   */\n    tag_114:\n        /* \"#utility.yul\":9293:9302   */\n      0x00\n        /* \"#utility.yul\":9326:9363   */\n      tag_197\n        /* \"#utility.yul\":9357:9362   */\n      dup3\n        /* \"#utility.yul\":9326:9363   */\n      tag_198\n      jump\t// in\n    tag_197:\n        /* \"#utility.yul\":9313:9363   */\n      swap1\n      pop\n        /* \"#utility.yul\":9235:9369   */\n      swap2\n      swap1\n      pop\n      jump\t// out\n        /* \"#utility.yul\":9375:9501   */\n    tag_198:\n        /* \"#utility.yul\":9425:9434   */\n      0x00\n        /* \"#utility.yul\":9458:9495   */\n      tag_200\n        /* \"#utility.yul\":9489:9494   */\n      dup3\n        /* \"#utility.yul\":9458:9495   */\n      tag_201\n      jump\t// in\n    tag_200:\n        /* \"#utility.yul\":9445:9495   */\n      swap1\n      pop\n        /* \"#utility.yul\":9375:9501   */\n      swap2\n      swap1\n      pop\n      jump\t// out\n        /* \"#utility.yul\":9507:9620   */\n    tag_201:\n        /* \"#utility.yul\":9557:9566   */\n      0x00\n        /* \"#utility.yul\":9590:9614   */\n      tag_203\n        /* \"#utility.yul\":9608:9613   */\n      dup3\n        /* \"#utility.yul\":9590:9614   */\n      tag_190\n      jump\t// in\n    tag_203:\n        /* \"#utility.yul\":9577:9614   */\n      swap1\n      pop\n        /* \"#utility.yul\":9507:9620   */\n      swap2\n      swap1\n      pop\n      jump\t// out\n        /* \"#utility.yul\":9626:9780   */\n    tag_73:\n        /* \"#utility.yul\":9710:9716   */\n      dup3\n        /* \"#utility.yul\":9705:9708   */\n      dup2\n        /* \"#utility.yul\":9700:9703   */\n      dup4\n        /* \"#utility.yul\":9687:9717   */\n      calldatacopy\n        /* \"#utility.yul\":9772:9773   */\n      0x00\n        /* \"#utility.yul\":9763:9769   */\n      dup4\n        /* \"#utility.yul\":9758:9761   */\n      dup4\n        /* \"#utility.yul\":9754:9770   */\n      add\n        /* \"#utility.yul\":9747:9774   */\n      mstore\n        /* \"#utility.yul\":9626:9780   */\n      pop\n      pop\n      pop\n      jump\t// out\n        /* \"#utility.yul\":9786:10093   */\n    tag_122:\n        /* \"#utility.yul\":9854:9855   */\n      0x00\n        /* \"#utility.yul\":9864:9977   */\n    tag_206:\n        /* \"#utility.yul\":9878:9884   */\n      dup4\n        /* \"#utility.yul\":9875:9876   */\n      dup2\n        /* \"#utility.yul\":9872:9885   */\n      lt\n        /* \"#utility.yul\":9864:9977   */\n      iszero\n      tag_208\n      jumpi\n        /* \"#utility.yul\":9963:9964   */\n      dup1\n        /* \"#utility.yul\":9958:9961   */\n      dup3\n        /* \"#utility.yul\":9954:9965   */\n      add\n        /* \"#utility.yul\":9948:9966   */\n      mload\n        /* \"#utility.yul\":9944:9945   */\n      dup2\n        /* \"#utility.yul\":9939:9942   */\n      dup5\n        /* \"#utility.yul\":9935:9946   */\n      add\n        /* \"#utility.yul\":9928:9967   */\n      mstore\n        /* \"#utility.yul\":9900:9902   */\n      0x20\n        /* \"#utility.yul\":9897:9898   */\n      dup2\n        /* \"#utility.yul\":9893:9903   */\n      add\n        /* \"#utility.yul\":9888:9903   */\n      swap1\n      pop\n        /* \"#utility.yul\":9864:9977   */\n      jump(tag_206)\n    tag_208:\n        /* \"#utility.yul\":9995:10001   */\n      dup4\n        /* \"#utility.yul\":9992:9993   */\n      dup2\n        /* \"#utility.yul\":9989:10002   */\n      gt\n        /* \"#utility.yul\":9986:10087   */\n      iszero\n      tag_209\n      jumpi\n        /* \"#utility.yul\":10075:10076   */\n      0x00\n        /* \"#utility.yul\":10066:10072   */\n      dup5\n        /* \"#utility.yul\":10061:10064   */\n      dup5\n        /* \"#utility.yul\":10057:10073   */\n      add\n        /* \"#utility.yul\":10050:10077   */\n      mstore\n        /* \"#utility.yul\":9986:10087   */\n    tag_209:\n        /* \"#utility.yul\":9835:10093   */\n      pop\n        /* \"#utility.yul\":9786:10093   */\n      pop\n      pop\n      pop\n      jump\t// out\n        /* \"#utility.yul\":10099:10380   */\n    tag_167:\n        /* \"#utility.yul\":10182:10209   */\n      tag_211\n        /* \"#utility.yul\":10204:10208   */\n      dup3\n        /* \"#utility.yul\":10182:10209   */\n      tag_124\n      jump\t// in\n    tag_211:\n        /* \"#utility.yul\":10174:10180   */\n      dup2\n        /* \"#utility.yul\":10170:10210   */\n      add\n        /* \"#utility.yul\":10312:10318   */\n      dup2\n        /* \"#utility.yul\":10300:10310   */\n      dup2\n        /* \"#utility.yul\":10297:10319   */\n      lt\n        /* \"#utility.yul\":10276:10294   */\n      0xffffffffffffffff\n        /* \"#utility.yul\":10264:10274   */\n      dup3\n        /* \"#utility.yul\":10261:10295   */\n      gt\n        /* \"#utility.yul\":10258:10320   */\n      or\n        /* \"#utility.yul\":10255:10343   */\n      iszero\n      tag_212\n      jumpi\n        /* \"#utility.yul\":10323:10341   */\n      tag_213\n      tag_172\n      jump\t// in\n    tag_213:\n        /* \"#utility.yul\":10255:10343   */\n    tag_212:\n        /* \"#utility.yul\":10363:10373   */\n      dup1\n        /* \"#utility.yul\":10359:10361   */\n      0x40\n        /* \"#utility.yul\":10352:10374   */\n      mstore\n        /* \"#utility.yul\":10142:10380   */\n      pop\n        /* \"#utility.yul\":10099:10380   */\n      pop\n      pop\n      jump\t// out\n        /* \"#utility.yul\":10386:10566   */\n    tag_181:\n        /* \"#utility.yul\":10434:10511   */\n      0x4e487b7100000000000000000000000000000000000000000000000000000000\n        /* \"#utility.yul\":10431:10432   */\n      0x00\n        /* \"#utility.yul\":10424:10512   */\n      mstore\n        /* \"#utility.yul\":10531:10535   */\n      0x11\n        /* \"#utility.yul\":10528:10529   */\n      0x04\n        /* \"#utility.yul\":10521:10536   */\n      mstore\n        /* \"#utility.yul\":10555:10559   */\n      0x24\n        /* \"#utility.yul\":10552:10553   */\n      0x00\n        /* \"#utility.yul\":10545:10560   */\n      revert\n        /* \"#utility.yul\":10572:10752   */\n    tag_172:\n        /* \"#utility.yul\":10620:10697   */\n      0x4e487b7100000000000000000000000000000000000000000000000000000000\n        /* \"#utility.yul\":10617:10618   */\n      0x00\n        /* \"#utility.yul\":10610:10698   */\n      mstore\n        /* \"#utility.yul\":10717:10721   */\n      0x41\n        /* \"#utility.yul\":10714:10715   */\n      0x04\n        /* \"#utility.yul\":10707:10722   */\n      mstore\n        /* \"#utility.yul\":10741:10745   */\n      0x24\n        /* \"#utility.yul\":10738:10739   */\n      0x00\n        /* \"#utility.yul\":10731:10746   */\n      revert\n        /* \"#utility.yul\":10758:10875   */\n    tag_86:\n        /* \"#utility.yul\":10867:10868   */\n      0x00\n        /* \"#utility.yul\":10864:10865   */\n      dup1\n        /* \"#utility.yul\":10857:10869   */\n      revert\n        /* \"#utility.yul\":10881:10998   */\n    tag_71:\n        /* \"#utility.yul\":10990:10991   */\n      0x00\n        /* \"#utility.yul\":10987:10988   */\n      dup1\n        /* \"#utility.yul\":10980:10992   */\n      revert\n        /* \"#utility.yul\":11004:11121   */\n    tag_104:\n        /* \"#utility.yul\":11113:11114   */\n      0x00\n        /* \"#utility.yul\":11110:11111   */\n      dup1\n        /* \"#utility.yul\":11103:11115   */\n      revert\n        /* \"#utility.yul\":11127:11244   */\n    tag_95:\n        /* \"#utility.yul\":11236:11237   */\n      0x00\n        /* \"#utility.yul\":11233:11234   */\n      dup1\n        /* \"#utility.yul\":11226:11238   */\n      revert\n        /* \"#utility.yul\":11250:11352   */\n    tag_124:\n        /* \"#utility.yul\":11291:11297   */\n      0x00\n        /* \"#utility.yul\":11342:11344   */\n      0x1f\n        /* \"#utility.yul\":11338:11345   */\n      not\n        /* \"#utility.yul\":11333:11335   */\n      0x1f\n        /* \"#utility.yul\":11326:11331   */\n      dup4\n        /* \"#utility.yul\":11322:11336   */\n      add\n        /* \"#utility.yul\":11318:11346   */\n      and\n        /* \"#utility.yul\":11308:11346   */\n      swap1\n      pop\n        /* \"#utility.yul\":11250:11352   */\n      swap2\n      swap1\n      pop\n      jump\t// out\n        /* \"#utility.yul\":11358:11523   */\n    tag_129:\n        /* \"#utility.yul\":11498:11515   */\n      0x4e6f20656e6f7567682066756e64730000000000000000000000000000000000\n        /* \"#utility.yul\":11494:11495   */\n      0x00\n        /* \"#utility.yul\":11486:11492   */\n      dup3\n        /* \"#utility.yul\":11482:11496   */\n      add\n        /* \"#utility.yul\":11475:11516   */\n      mstore\n        /* \"#utility.yul\":11358:11523   */\n      pop\n      jump\t// out\n        /* \"#utility.yul\":11529:11692   */\n    tag_134:\n        /* \"#utility.yul\":11669:11684   */\n      0x596f7520617265206f776e657200000000000000000000000000000000000000\n        /* \"#utility.yul\":11665:11666   */\n      0x00\n        /* \"#utility.yul\":11657:11663   */\n      dup3\n        /* \"#utility.yul\":11653:11667   */\n      add\n        /* \"#utility.yul\":11646:11685   */\n      mstore\n        /* \"#utility.yul\":11529:11692   */\n      pop\n      jump\t// out\n        /* \"#utility.yul\":11698:11859   */\n    tag_139:\n        /* \"#utility.yul\":11838:11851   */\n      0x4e6f7420416c6c6f776564000000000000000000000000000000000000000000\n        /* \"#utility.yul\":11834:11835   */\n      0x00\n        /* \"#utility.yul\":11826:11832   */\n      dup3\n        /* \"#utility.yul\":11822:11836   */\n      add\n        /* \"#utility.yul\":11815:11852   */\n      mstore\n        /* \"#utility.yul\":11698:11859   */\n      pop\n      jump\t// out\n        /* \"#utility.yul\":11865:12032   */\n    tag_144:\n        /* \"#utility.yul\":12005:12024   */\n      0x596f7520617265206e6f74206f776e6572000000000000000000000000000000\n        /* \"#utility.yul\":12001:12002   */\n      0x00\n        /* \"#utility.yul\":11993:11999   */\n      dup3\n        /* \"#utility.yul\":11989:12003   */\n      add\n        /* \"#utility.yul\":11982:12025   */\n      mstore\n        /* \"#utility.yul\":11865:12032   */\n      pop\n      jump\t// out\n        /* \"#utility.yul\":12038:12160   */\n    tag_77:\n        /* \"#utility.yul\":12111:12135   */\n      tag_226\n        /* \"#utility.yul\":12129:12134   */\n      dup2\n        /* \"#utility.yul\":12111:12135   */\n      tag_187\n      jump\t// in\n    tag_226:\n        /* \"#utility.yul\":12104:12109   */\n      dup2\n        /* \"#utility.yul\":12101:12136   */\n      eq\n        /* \"#utility.yul\":12091:12154   */\n      tag_227\n      jumpi\n        /* \"#utility.yul\":12150:12151   */\n      0x00\n        /* \"#utility.yul\":12147:12148   */\n      dup1\n        /* \"#utility.yul\":12140:12152   */\n      revert\n        /* \"#utility.yul\":12091:12154   */\n    tag_227:\n        /* \"#utility.yul\":12038:12160   */\n      pop\n      jump\t// out\n        /* \"#utility.yul\":12166:12304   */\n    tag_81:\n        /* \"#utility.yul\":12247:12279   */\n      tag_229\n        /* \"#utility.yul\":12273:12278   */\n      dup2\n        /* \"#utility.yul\":12247:12279   */\n      tag_191\n      jump\t// in\n    tag_229:\n        /* \"#utility.yul\":12240:12245   */\n      dup2\n        /* \"#utility.yul\":12237:12280   */\n      eq\n        /* \"#utility.yul\":12227:12298   */\n      tag_230\n      jumpi\n        /* \"#utility.yul\":12294:12295   */\n      0x00\n        /* \"#utility.yul\":12291:12292   */\n      dup1\n        /* \"#utility.yul\":12284:12296   */\n      revert\n        /* \"#utility.yul\":12227:12298   */\n    tag_230:\n        /* \"#utility.yul\":12166:12304   */\n      pop\n      jump\t// out\n        /* \"#utility.yul\":12310:12432   */\n    tag_91:\n        /* \"#utility.yul\":12383:12407   */\n      tag_232\n        /* \"#utility.yul\":12401:12406   */\n      dup2\n        /* \"#utility.yul\":12383:12407   */\n      tag_148\n      jump\t// in\n    tag_232:\n        /* \"#utility.yul\":12376:12381   */\n      dup2\n        /* \"#utility.yul\":12373:12408   */\n      eq\n        /* \"#utility.yul\":12363:12426   */\n      tag_233\n      jumpi\n        /* \"#utility.yul\":12422:12423   */\n      0x00\n        /* \"#utility.yul\":12419:12420   */\n      dup1\n        /* \"#utility.yul\":12412:12424   */\n      revert\n        /* \"#utility.yul\":12363:12426   */\n    tag_233:\n        /* \"#utility.yul\":12310:12432   */\n      pop\n      jump\t// out\n\n    auxdata: 0xa264697066735822122076417543435243f2ffc4542ec47a9c0dbf0c6680a0272e0c91d5c676465608fb64736f6c63430008070033\n}\n",
				"bytecode": {
					"linkReferences": {},
					"object": "608060405234801561001057600080fd5b50336000806101000a81548173ffffffffffffffffffffffffffffffffffffffff021916908373ffffffffffffffffffffffffffffffffffffffff160217905550610bab806100606000396000f3fe6080604052600436106100435760003560e01c806315e9977e1461004f5780633495e9011461007a5780633e5beab9146100a3578063f3c40c4b146100e05761004a565b3661004a57005b600080fd5b34801561005b57600080fd5b50610064610109565b60405161007191906107fb565b60405180910390f35b34801561008657600080fd5b506100a1600480360381019061009c91906105ab565b610111565b005b3480156100af57600080fd5b506100ca60048036038101906100c5919061057e565b6102d9565b6040516100d791906107fb565b60405180910390f35b3480156100ec57600080fd5b506101076004803603810190610102919061061a565b6102f1565b005b600047905090565b8161011a610468565b80610164575080600160003373ffffffffffffffffffffffffffffffffffffffff1673ffffffffffffffffffffffffffffffffffffffff1681526020019081526020016000205410155b6101a3576040517f08c379a000000000000000000000000000000000000000000000000000000000815260040161019a906107bb565b60405180910390fd5b7fa1f2e8aa7ff0c088860d7b3f0d1dc288d8e8a07808525cc31a5691f1bc0e149d8484846040516101d69392919061073d565b60405180910390a182471015610221576040517f08c379a00000000000000000000000000000000000000000000000000000000081526004016102189061077b565b60405180910390fd5b6000151561022d610468565b1515141561028c5782600160003373ffffffffffffffffffffffffffffffffffffffff1673ffffffffffffffffffffffffffffffffffffffff168152602001908152602001600020600082825461028491906108de565b925050819055505b8373ffffffffffffffffffffffffffffffffffffffff166108fc849081150290604051600060405180830381858888f193505050501580156102d2573d6000803e3d6000fd5b5050505050565b60016020528060005260406000206000915090505481565b3373ffffffffffffffffffffffffffffffffffffffff1660008054906101000a900473ffffffffffffffffffffffffffffffffffffffff1673ffffffffffffffffffffffffffffffffffffffff161461037f576040517f08c379a0000000000000000000000000000000000000000000000000000000008152600401610376906107db565b60405180910390fd5b60008054906101000a900473ffffffffffffffffffffffffffffffffffffffff1673ffffffffffffffffffffffffffffffffffffffff168273ffffffffffffffffffffffffffffffffffffffff16141561040e576040517f08c379a00000000000000000000000000000000000000000000000000000000081526004016104059061079b565b60405180910390fd5b80600160008473ffffffffffffffffffffffffffffffffffffffff1673ffffffffffffffffffffffffffffffffffffffff168152602001908152602001600020600082825461045d9190610888565b925050819055505050565b60003373ffffffffffffffffffffffffffffffffffffffff1660008054906101000a900473ffffffffffffffffffffffffffffffffffffffff1673ffffffffffffffffffffffffffffffffffffffff1614156104c757600190506104cc565b600090505b90565b60006104e26104dd8461083b565b610816565b9050828152602081018484840111156104fe576104fd610a6c565b5b610509848285610996565b509392505050565b60008135905061052081610b30565b92915050565b60008135905061053581610b47565b92915050565b600082601f8301126105505761054f610a67565b5b81356105608482602086016104cf565b91505092915050565b60008135905061057881610b5e565b92915050565b60006020828403121561059457610593610a76565b5b60006105a284828501610511565b91505092915050565b6000806000606084860312156105c4576105c3610a76565b5b60006105d286828701610526565b93505060206105e386828701610569565b925050604084013567ffffffffffffffff81111561060457610603610a71565b5b6106108682870161053b565b9150509250925092565b6000806040838503121561063157610630610a76565b5b600061063f85828601610511565b925050602061065085828601610569565b9150509250929050565b61066381610960565b82525050565b60006106748261086c565b61067e8185610877565b935061068e8185602086016109a5565b61069781610a7b565b840191505092915050565b60006106af600f83610877565b91506106ba82610a8c565b602082019050919050565b60006106d2600d83610877565b91506106dd82610ab5565b602082019050919050565b60006106f5600b83610877565b915061070082610ade565b602082019050919050565b6000610718601183610877565b915061072382610b07565b602082019050919050565b61073781610956565b82525050565b6000606082019050610752600083018661065a565b61075f602083018561072e565b81810360408301526107718184610669565b9050949350505050565b60006020820190508181036000830152610794816106a2565b9050919050565b600060208201905081810360008301526107b4816106c5565b9050919050565b600060208201905081810360008301526107d4816106e8565b9050919050565b600060208201905081810360008301526107f48161070b565b9050919050565b6000602082019050610810600083018461072e565b92915050565b6000610820610831565b905061082c82826109d8565b919050565b6000604051905090565b600067ffffffffffffffff82111561085657610855610a38565b5b61085f82610a7b565b9050602081019050919050565b600081519050919050565b600082825260208201905092915050565b600061089382610956565b915061089e83610956565b9250827fffffffffffffffffffffffffffffffffffffffffffffffffffffffffffffffff038211156108d3576108d2610a09565b5b828201905092915050565b60006108e982610956565b91506108f483610956565b92508282101561090757610906610a09565b5b828203905092915050565b600061091d82610936565b9050919050565b600061092f82610936565b9050919050565b600073ffffffffffffffffffffffffffffffffffffffff82169050919050565b6000819050919050565b600061096b82610972565b9050919050565b600061097d82610984565b9050919050565b600061098f82610936565b9050919050565b82818337600083830152505050565b60005b838110156109c35780820151818401526020810190506109a8565b838111156109d2576000848401525b50505050565b6109e182610a7b565b810181811067ffffffffffffffff82111715610a00576109ff610a38565b5b80604052505050565b7f4e487b7100000000000000000000000000000000000000000000000000000000600052601160045260246000fd5b7f4e487b7100000000000000000000000000000000000000000000000000000000600052604160045260246000fd5b600080fd5b600080fd5b600080fd5b600080fd5b6000601f19601f8301169050919050565b7f4e6f20656e6f7567682066756e64730000000000000000000000000000000000600082015250565b7f596f7520617265206f776e657200000000000000000000000000000000000000600082015250565b7f4e6f7420416c6c6f776564000000000000000000000000000000000000000000600082015250565b7f596f7520617265206e6f74206f776e6572000000000000000000000000000000600082015250565b610b3981610912565b8114610b4457600080fd5b50565b610b5081610924565b8114610b5b57600080fd5b50565b610b6781610956565b8114610b7257600080fd5b5056fea264697066735822122076417543435243f2ffc4542ec47a9c0dbf0c6680a0272e0c91d5c676465608fb64736f6c63430008070033",
					"opcodes": "PUSH1 0x80 PUSH1 0x40 MSTORE CALLVALUE DUP1 ISZERO PUSH2 0x10 JUMPI PUSH1 0x0 DUP1 REVERT JUMPDEST POP CALLER PUSH1 0x0 DUP1 PUSH2 0x100 EXP DUP2 SLOAD DUP2 PUSH20 0xFFFFFFFFFFFFFFFFFFFFFFFFFFFFFFFFFFFFFFFF MUL NOT AND SWAP1 DUP4 PUSH20 0xFFFFFFFFFFFFFFFFFFFFFFFFFFFFFFFFFFFFFFFF AND MUL OR SWAP1 SSTORE POP PUSH2 0xBAB DUP1 PUSH2 0x60 PUSH1 0x0 CODECOPY PUSH1 0x0 RETURN INVALID PUSH1 0x80 PUSH1 0x40 MSTORE PUSH1 0x4 CALLDATASIZE LT PUSH2 0x43 JUMPI PUSH1 0x0 CALLDATALOAD PUSH1 0xE0 SHR DUP1 PUSH4 0x15E9977E EQ PUSH2 0x4F JUMPI DUP1 PUSH4 0x3495E901 EQ PUSH2 0x7A JUMPI DUP1 PUSH4 0x3E5BEAB9 EQ PUSH2 0xA3 JUMPI DUP1 PUSH4 0xF3C40C4B EQ PUSH2 0xE0 JUMPI PUSH2 0x4A JUMP JUMPDEST CALLDATASIZE PUSH2 0x4A JUMPI STOP JUMPDEST PUSH1 0x0 DUP1 REVERT JUMPDEST CALLVALUE DUP1 ISZERO PUSH2 0x5B JUMPI PUSH1 0x0 DUP1 REVERT JUMPDEST POP PUSH2 0x64 PUSH2 0x109 JUMP JUMPDEST PUSH1 0x40 MLOAD PUSH2 0x71 SWAP2 SWAP1 PUSH2 0x7FB JUMP JUMPDEST PUSH1 0x40 MLOAD DUP1 SWAP2 SUB SWAP1 RETURN JUMPDEST CALLVALUE DUP1 ISZERO PUSH2 0x86 JUMPI PUSH1 0x0 DUP1 REVERT JUMPDEST POP PUSH2 0xA1 PUSH1 0x4 DUP1 CALLDATASIZE SUB DUP2 ADD SWAP1 PUSH2 0x9C SWAP2 SWAP1 PUSH2 0x5AB JUMP JUMPDEST PUSH2 0x111 JUMP JUMPDEST STOP JUMPDEST CALLVALUE DUP1 ISZERO PUSH2 0xAF JUMPI PUSH1 0x0 DUP1 REVERT JUMPDEST POP PUSH2 0xCA PUSH1 0x4 DUP1 CALLDATASIZE SUB DUP2 ADD SWAP1 PUSH2 0xC5 SWAP2 SWAP1 PUSH2 0x57E JUMP JUMPDEST PUSH2 0x2D9 JUMP JUMPDEST PUSH1 0x40 MLOAD PUSH2 0xD7 SWAP2 SWAP1 PUSH2 0x7FB JUMP JUMPDEST PUSH1 0x40 MLOAD DUP1 SWAP2 SUB SWAP1 RETURN JUMPDEST CALLVALUE DUP1 ISZERO PUSH2 0xEC JUMPI PUSH1 0x0 DUP1 REVERT JUMPDEST POP PUSH2 0x107 PUSH1 0x4 DUP1 CALLDATASIZE SUB DUP2 ADD SWAP1 PUSH2 0x102 SWAP2 SWAP1 PUSH2 0x61A JUMP JUMPDEST PUSH2 0x2F1 JUMP JUMPDEST STOP JUMPDEST PUSH1 0x0 SELFBALANCE SWAP1 POP SWAP1 JUMP JUMPDEST DUP2 PUSH2 0x11A PUSH2 0x468 JUMP JUMPDEST DUP1 PUSH2 0x164 JUMPI POP DUP1 PUSH1 0x1 PUSH1 0x0 CALLER PUSH20 0xFFFFFFFFFFFFFFFFFFFFFFFFFFFFFFFFFFFFFFFF AND PUSH20 0xFFFFFFFFFFFFFFFFFFFFFFFFFFFFFFFFFFFFFFFF AND DUP2 MSTORE PUSH1 0x20 ADD SWAP1 DUP2 MSTORE PUSH1 0x20 ADD PUSH1 0x0 KECCAK256 SLOAD LT ISZERO JUMPDEST PUSH2 0x1A3 JUMPI PUSH1 0x40 MLOAD PUSH32 0x8C379A000000000000000000000000000000000000000000000000000000000 DUP2 MSTORE PUSH1 0x4 ADD PUSH2 0x19A SWAP1 PUSH2 0x7BB JUMP JUMPDEST PUSH1 0x40 MLOAD DUP1 SWAP2 SUB SWAP1 REVERT JUMPDEST PUSH32 0xA1F2E8AA7FF0C088860D7B3F0D1DC288D8E8A07808525CC31A5691F1BC0E149D DUP5 DUP5 DUP5 PUSH1 0x40 MLOAD PUSH2 0x1D6 SWAP4 SWAP3 SWAP2 SWAP1 PUSH2 0x73D JUMP JUMPDEST PUSH1 0x40 MLOAD DUP1 SWAP2 SUB SWAP1 LOG1 DUP3 SELFBALANCE LT ISZERO PUSH2 0x221 JUMPI PUSH1 0x40 MLOAD PUSH32 0x8C379A000000000000000000000000000000000000000000000000000000000 DUP2 MSTORE PUSH1 0x4 ADD PUSH2 0x218 SWAP1 PUSH2 0x77B JUMP JUMPDEST PUSH1 0x40 MLOAD DUP1 SWAP2 SUB SWAP1 REVERT JUMPDEST PUSH1 0x0 ISZERO ISZERO PUSH2 0x22D PUSH2 0x468 JUMP JUMPDEST ISZERO ISZERO EQ ISZERO PUSH2 0x28C JUMPI DUP3 PUSH1 0x1 PUSH1 0x0 CALLER PUSH20 0xFFFFFFFFFFFFFFFFFFFFFFFFFFFFFFFFFFFFFFFF AND PUSH20 0xFFFFFFFFFFFFFFFFFFFFFFFFFFFFFFFFFFFFFFFF AND DUP2 MSTORE PUSH1 0x20 ADD SWAP1 DUP2 MSTORE PUSH1 0x20 ADD PUSH1 0x0 KECCAK256 PUSH1 0x0 DUP3 DUP3 SLOAD PUSH2 0x284 SWAP2 SWAP1 PUSH2 0x8DE JUMP JUMPDEST SWAP3 POP POP DUP2 SWAP1 SSTORE POP JUMPDEST DUP4 PUSH20 0xFFFFFFFFFFFFFFFFFFFFFFFFFFFFFFFFFFFFFFFF AND PUSH2 0x8FC DUP5 SWAP1 DUP2 ISZERO MUL SWAP1 PUSH1 0x40 MLOAD PUSH1 0x0 PUSH1 0x40 MLOAD DUP1 DUP4 SUB DUP2 DUP6 DUP9 DUP9 CALL SWAP4 POP POP POP POP ISZERO DUP1 ISZERO PUSH2 0x2D2 JUMPI RETURNDATASIZE PUSH1 0x0 DUP1 RETURNDATACOPY RETURNDATASIZE PUSH1 0x0 REVERT JUMPDEST POP POP POP POP POP JUMP JUMPDEST PUSH1 0x1 PUSH1 0x20 MSTORE DUP1 PUSH1 0x0 MSTORE PUSH1 0x40 PUSH1 0x0 KECCAK256 PUSH1 0x0 SWAP2 POP SWAP1 POP SLOAD DUP2 JUMP JUMPDEST CALLER PUSH20 0xFFFFFFFFFFFFFFFFFFFFFFFFFFFFFFFFFFFFFFFF AND PUSH1 0x0 DUP1 SLOAD SWAP1 PUSH2 0x100 EXP SWAP1 DIV PUSH20 0xFFFFFFFFFFFFFFFFFFFFFFFFFFFFFFFFFFFFFFFF AND PUSH20 0xFFFFFFFFFFFFFFFFFFFFFFFFFFFFFFFFFFFFFFFF AND EQ PUSH2 0x37F JUMPI PUSH1 0x40 MLOAD PUSH32 0x8C379A000000000000000000000000000000000000000000000000000000000 DUP2 MSTORE PUSH1 0x4 ADD PUSH2 0x376 SWAP1 PUSH2 0x7DB JUMP JUMPDEST PUSH1 0x40 MLOAD DUP1 SWAP2 SUB SWAP1 REVERT JUMPDEST PUSH1 0x0 DUP1 SLOAD SWAP1 PUSH2 0x100 EXP SWAP1 DIV PUSH20 0xFFFFFFFFFFFFFFFFFFFFFFFFFFFFFFFFFFFFFFFF AND PUSH20 0xFFFFFFFFFFFFFFFFFFFFFFFFFFFFFFFFFFFFFFFF AND DUP3 PUSH20 0xFFFFFFFFFFFFFFFFFFFFFFFFFFFFFFFFFFFFFFFF AND EQ ISZERO PUSH2 0x40E JUMPI PUSH1 0x40 MLOAD PUSH32 0x8C379A000000000000000000000000000000000000000000000000000000000 DUP2 MSTORE PUSH1 0x4 ADD PUSH2 0x405 SWAP1 PUSH2 0x79B JUMP JUMPDEST PUSH1 0x40 MLOAD DUP1 SWAP2 SUB SWAP1 REVERT JUMPDEST DUP1 PUSH1 0x1 PUSH1 0x0 DUP5 PUSH20 0xFFFFFFFFFFFFFFFFFFFFFFFFFFFFFFFFFFFFFFFF AND PUSH20 0xFFFFFFFFFFFFFFFFFFFFFFFFFFFFFFFFFFFFFFFF AND DUP2 MSTORE PUSH1 0x20 ADD SWAP1 DUP2 MSTORE PUSH1 0x20 ADD PUSH1 0x0 KECCAK256 PUSH1 0x0 DUP3 DUP3 SLOAD PUSH2 0x45D SWAP2 SWAP1 PUSH2 0x888 JUMP JUMPDEST SWAP3 POP POP DUP2 SWAP1 SSTORE POP POP POP JUMP JUMPDEST PUSH1 0x0 CALLER PUSH20 0xFFFFFFFFFFFFFFFFFFFFFFFFFFFFFFFFFFFFFFFF AND PUSH1 0x0 DUP1 SLOAD SWAP1 PUSH2 0x100 EXP SWAP1 DIV PUSH20 0xFFFFFFFFFFFFFFFFFFFFFFFFFFFFFFFFFFFFFFFF AND PUSH20 0xFFFFFFFFFFFFFFFFFFFFFFFFFFFFFFFFFFFFFFFF AND EQ ISZERO PUSH2 0x4C7 JUMPI PUSH1 0x1 SWAP1 POP PUSH2 0x4CC JUMP JUMPDEST PUSH1 0x0 SWAP1 POP JUMPDEST SWAP1 JUMP JUMPDEST PUSH1 0x0 PUSH2 0x4E2 PUSH2 0x4DD DUP5 PUSH2 0x83B JUMP JUMPDEST PUSH2 0x816 JUMP JUMPDEST SWAP1 POP DUP3 DUP2 MSTORE PUSH1 0x20 DUP2 ADD DUP5 DUP5 DUP5 ADD GT ISZERO PUSH2 0x4FE JUMPI PUSH2 0x4FD PUSH2 0xA6C JUMP JUMPDEST JUMPDEST PUSH2 0x509 DUP5 DUP3 DUP6 PUSH2 0x996 JUMP JUMPDEST POP SWAP4 SWAP3 POP POP POP JUMP JUMPDEST PUSH1 0x0 DUP2 CALLDATALOAD SWAP1 POP PUSH2 0x520 DUP2 PUSH2 0xB30 JUMP JUMPDEST SWAP3 SWAP2 POP POP JUMP JUMPDEST PUSH1 0x0 DUP2 CALLDATALOAD SWAP1 POP PUSH2 0x535 DUP2 PUSH2 0xB47 JUMP JUMPDEST SWAP3 SWAP2 POP POP JUMP JUMPDEST PUSH1 0x0 DUP3 PUSH1 0x1F DUP4 ADD SLT PUSH2 0x550 JUMPI PUSH2 0x54F PUSH2 0xA67 JUMP JUMPDEST JUMPDEST DUP2 CALLDATALOAD PUSH2 0x560 DUP5 DUP3 PUSH1 0x20 DUP7 ADD PUSH2 0x4CF JUMP JUMPDEST SWAP2 POP POP SWAP3 SWAP2 POP POP JUMP JUMPDEST PUSH1 0x0 DUP2 CALLDATALOAD SWAP1 POP PUSH2 0x578 DUP2 PUSH2 0xB5E JUMP JUMPDEST SWAP3 SWAP2 POP POP JUMP JUMPDEST PUSH1 0x0 PUSH1 0x20 DUP3 DUP5 SUB SLT ISZERO PUSH2 0x594 JUMPI PUSH2 0x593 PUSH2 0xA76 JUMP JUMPDEST JUMPDEST PUSH1 0x0 PUSH2 0x5A2 DUP5 DUP3 DUP6 ADD PUSH2 0x511 JUMP JUMPDEST SWAP2 POP POP SWAP3 SWAP2 POP POP JUMP JUMPDEST PUSH1 0x0 DUP1 PUSH1 0x0 PUSH1 0x60 DUP5 DUP7 SUB SLT ISZERO PUSH2 0x5C4 JUMPI PUSH2 0x5C3 PUSH2 0xA76 JUMP JUMPDEST JUMPDEST PUSH1 0x0 PUSH2 0x5D2 DUP7 DUP3 DUP8 ADD PUSH2 0x526 JUMP JUMPDEST SWAP4 POP POP PUSH1 0x20 PUSH2 0x5E3 DUP7 DUP3 DUP8 ADD PUSH2 0x569 JUMP JUMPDEST SWAP3 POP POP PUSH1 0x40 DUP5 ADD CALLDATALOAD PUSH8 0xFFFFFFFFFFFFFFFF DUP2 GT ISZERO PUSH2 0x604 JUMPI PUSH2 0x603 PUSH2 0xA71 JUMP JUMPDEST JUMPDEST PUSH2 0x610 DUP7 DUP3 DUP8 ADD PUSH2 0x53B JUMP JUMPDEST SWAP2 POP POP SWAP3 POP SWAP3 POP SWAP3 JUMP JUMPDEST PUSH1 0x0 DUP1 PUSH1 0x40 DUP4 DUP6 SUB SLT ISZERO PUSH2 0x631 JUMPI PUSH2 0x630 PUSH2 0xA76 JUMP JUMPDEST JUMPDEST PUSH1 0x0 PUSH2 0x63F DUP6 DUP3 DUP7 ADD PUSH2 0x511 JUMP JUMPDEST SWAP3 POP POP PUSH1 0x20 PUSH2 0x650 DUP6 DUP3 DUP7 ADD PUSH2 0x569 JUMP JUMPDEST SWAP2 POP POP SWAP3 POP SWAP3 SWAP1 POP JUMP JUMPDEST PUSH2 0x663 DUP2 PUSH2 0x960 JUMP JUMPDEST DUP3 MSTORE POP POP JUMP JUMPDEST PUSH1 0x0 PUSH2 0x674 DUP3 PUSH2 0x86C JUMP JUMPDEST PUSH2 0x67E DUP2 DUP6 PUSH2 0x877 JUMP JUMPDEST SWAP4 POP PUSH2 0x68E DUP2 DUP6 PUSH1 0x20 DUP7 ADD PUSH2 0x9A5 JUMP JUMPDEST PUSH2 0x697 DUP2 PUSH2 0xA7B JUMP JUMPDEST DUP5 ADD SWAP2 POP POP SWAP3 SWAP2 POP POP JUMP JUMPDEST PUSH1 0x0 PUSH2 0x6AF PUSH1 0xF DUP4 PUSH2 0x877 JUMP JUMPDEST SWAP2 POP PUSH2 0x6BA DUP3 PUSH2 0xA8C JUMP JUMPDEST PUSH1 0x20 DUP3 ADD SWAP1 POP SWAP2 SWAP1 POP JUMP JUMPDEST PUSH1 0x0 PUSH2 0x6D2 PUSH1 0xD DUP4 PUSH2 0x877 JUMP JUMPDEST SWAP2 POP PUSH2 0x6DD DUP3 PUSH2 0xAB5 JUMP JUMPDEST PUSH1 0x20 DUP3 ADD SWAP1 POP SWAP2 SWAP1 POP JUMP JUMPDEST PUSH1 0x0 PUSH2 0x6F5 PUSH1 0xB DUP4 PUSH2 0x877 JUMP JUMPDEST SWAP2 POP PUSH2 0x700 DUP3 PUSH2 0xADE JUMP JUMPDEST PUSH1 0x20 DUP3 ADD SWAP1 POP SWAP2 SWAP1 POP JUMP JUMPDEST PUSH1 0x0 PUSH2 0x718 PUSH1 0x11 DUP4 PUSH2 0x877 JUMP JUMPDEST SWAP2 POP PUSH2 0x723 DUP3 PUSH2 0xB07 JUMP JUMPDEST PUSH1 0x20 DUP3 ADD SWAP1 POP SWAP2 SWAP1 POP JUMP JUMPDEST PUSH2 0x737 DUP2 PUSH2 0x956 JUMP JUMPDEST DUP3 MSTORE POP POP JUMP JUMPDEST PUSH1 0x0 PUSH1 0x60 DUP3 ADD SWAP1 POP PUSH2 0x752 PUSH1 0x0 DUP4 ADD DUP7 PUSH2 0x65A JUMP JUMPDEST PUSH2 0x75F PUSH1 0x20 DUP4 ADD DUP6 PUSH2 0x72E JUMP JUMPDEST DUP2 DUP2 SUB PUSH1 0x40 DUP4 ADD MSTORE PUSH2 0x771 DUP2 DUP5 PUSH2 0x669 JUMP JUMPDEST SWAP1 POP SWAP5 SWAP4 POP POP POP POP JUMP JUMPDEST PUSH1 0x0 PUSH1 0x20 DUP3 ADD SWAP1 POP DUP2 DUP2 SUB PUSH1 0x0 DUP4 ADD MSTORE PUSH2 0x794 DUP2 PUSH2 0x6A2 JUMP JUMPDEST SWAP1 POP SWAP2 SWAP1 POP JUMP JUMPDEST PUSH1 0x0 PUSH1 0x20 DUP3 ADD SWAP1 POP DUP2 DUP2 SUB PUSH1 0x0 DUP4 ADD MSTORE PUSH2 0x7B4 DUP2 PUSH2 0x6C5 JUMP JUMPDEST SWAP1 POP SWAP2 SWAP1 POP JUMP JUMPDEST PUSH1 0x0 PUSH1 0x20 DUP3 ADD SWAP1 POP DUP2 DUP2 SUB PUSH1 0x0 DUP4 ADD MSTORE PUSH2 0x7D4 DUP2 PUSH2 0x6E8 JUMP JUMPDEST SWAP1 POP SWAP2 SWAP1 POP JUMP JUMPDEST PUSH1 0x0 PUSH1 0x20 DUP3 ADD SWAP1 POP DUP2 DUP2 SUB PUSH1 0x0 DUP4 ADD MSTORE PUSH2 0x7F4 DUP2 PUSH2 0x70B JUMP JUMPDEST SWAP1 POP SWAP2 SWAP1 POP JUMP JUMPDEST PUSH1 0x0 PUSH1 0x20 DUP3 ADD SWAP1 POP PUSH2 0x810 PUSH1 0x0 DUP4 ADD DUP5 PUSH2 0x72E JUMP JUMPDEST SWAP3 SWAP2 POP POP JUMP JUMPDEST PUSH1 0x0 PUSH2 0x820 PUSH2 0x831 JUMP JUMPDEST SWAP1 POP PUSH2 0x82C DUP3 DUP3 PUSH2 0x9D8 JUMP JUMPDEST SWAP2 SWAP1 POP JUMP JUMPDEST PUSH1 0x0 PUSH1 0x40 MLOAD SWAP1 POP SWAP1 JUMP JUMPDEST PUSH1 0x0 PUSH8 0xFFFFFFFFFFFFFFFF DUP3 GT ISZERO PUSH2 0x856 JUMPI PUSH2 0x855 PUSH2 0xA38 JUMP JUMPDEST JUMPDEST PUSH2 0x85F DUP3 PUSH2 0xA7B JUMP JUMPDEST SWAP1 POP PUSH1 0x20 DUP2 ADD SWAP1 POP SWAP2 SWAP1 POP JUMP JUMPDEST PUSH1 0x0 DUP2 MLOAD SWAP1 POP SWAP2 SWAP1 POP JUMP JUMPDEST PUSH1 0x0 DUP3 DUP3 MSTORE PUSH1 0x20 DUP3 ADD SWAP1 POP SWAP3 SWAP2 POP POP JUMP JUMPDEST PUSH1 0x0 PUSH2 0x893 DUP3 PUSH2 0x956 JUMP JUMPDEST SWAP2 POP PUSH2 0x89E DUP4 PUSH2 0x956 JUMP JUMPDEST SWAP3 POP DUP3 PUSH32 0xFFFFFFFFFFFFFFFFFFFFFFFFFFFFFFFFFFFFFFFFFFFFFFFFFFFFFFFFFFFFFFFF SUB DUP3 GT ISZERO PUSH2 0x8D3 JUMPI PUSH2 0x8D2 PUSH2 0xA09 JUMP JUMPDEST JUMPDEST DUP3 DUP3 ADD SWAP1 POP SWAP3 SWAP2 POP POP JUMP JUMPDEST PUSH1 0x0 PUSH2 0x8E9 DUP3 PUSH2 0x956 JUMP JUMPDEST SWAP2 POP PUSH2 0x8F4 DUP4 PUSH2 0x956 JUMP JUMPDEST SWAP3 POP DUP3 DUP3 LT ISZERO PUSH2 0x907 JUMPI PUSH2 0x906 PUSH2 0xA09 JUMP JUMPDEST JUMPDEST DUP3 DUP3 SUB SWAP1 POP SWAP3 SWAP2 POP POP JUMP JUMPDEST PUSH1 0x0 PUSH2 0x91D DUP3 PUSH2 0x936 JUMP JUMPDEST SWAP1 POP SWAP2 SWAP1 POP JUMP JUMPDEST PUSH1 0x0 PUSH2 0x92F DUP3 PUSH2 0x936 JUMP JUMPDEST SWAP1 POP SWAP2 SWAP1 POP JUMP JUMPDEST PUSH1 0x0 PUSH20 0xFFFFFFFFFFFFFFFFFFFFFFFFFFFFFFFFFFFFFFFF DUP3 AND SWAP1 POP SWAP2 SWAP1 POP JUMP JUMPDEST PUSH1 0x0 DUP2 SWAP1 POP SWAP2 SWAP1 POP JUMP JUMPDEST PUSH1 0x0 PUSH2 0x96B DUP3 PUSH2 0x972 JUMP JUMPDEST SWAP1 POP SWAP2 SWAP1 POP JUMP JUMPDEST PUSH1 0x0 PUSH2 0x97D DUP3 PUSH2 0x984 JUMP JUMPDEST SWAP1 POP SWAP2 SWAP1 POP JUMP JUMPDEST PUSH1 0x0 PUSH2 0x98F DUP3 PUSH2 0x936 JUMP JUMPDEST SWAP1 POP SWAP2 SWAP1 POP JUMP JUMPDEST DUP3 DUP2 DUP4 CALLDATACOPY PUSH1 0x0 DUP4 DUP4 ADD MSTORE POP POP POP JUMP JUMPDEST PUSH1 0x0 JUMPDEST DUP4 DUP2 LT ISZERO PUSH2 0x9C3 JUMPI DUP1 DUP3 ADD MLOAD DUP2 DUP5 ADD MSTORE PUSH1 0x20 DUP2 ADD SWAP1 POP PUSH2 0x9A8 JUMP JUMPDEST DUP4 DUP2 GT ISZERO PUSH2 0x9D2 JUMPI PUSH1 0x0 DUP5 DUP5 ADD MSTORE JUMPDEST POP POP POP POP JUMP JUMPDEST PUSH2 0x9E1 DUP3 PUSH2 0xA7B JUMP JUMPDEST DUP2 ADD DUP2 DUP2 LT PUSH8 0xFFFFFFFFFFFFFFFF DUP3 GT OR ISZERO PUSH2 0xA00 JUMPI PUSH2 0x9FF PUSH2 0xA38 JUMP JUMPDEST JUMPDEST DUP1 PUSH1 0x40 MSTORE POP POP POP JUMP JUMPDEST PUSH32 0x4E487B7100000000000000000000000000000000000000000000000000000000 PUSH1 0x0 MSTORE PUSH1 0x11 PUSH1 0x4 MSTORE PUSH1 0x24 PUSH1 0x0 REVERT JUMPDEST PUSH32 0x4E487B7100000000000000000000000000000000000000000000000000000000 PUSH1 0x0 MSTORE PUSH1 0x41 PUSH1 0x4 MSTORE PUSH1 0x24 PUSH1 0x0 REVERT JUMPDEST PUSH1 0x0 DUP1 REVERT JUMPDEST PUSH1 0x0 DUP1 REVERT JUMPDEST PUSH1 0x0 DUP1 REVERT JUMPDEST PUSH1 0x0 DUP1 REVERT JUMPDEST PUSH1 0x0 PUSH1 0x1F NOT PUSH1 0x1F DUP4 ADD AND SWAP1 POP SWAP2 SWAP1 POP JUMP JUMPDEST PUSH32 0x4E6F20656E6F7567682066756E64730000000000000000000000000000000000 PUSH1 0x0 DUP3 ADD MSTORE POP JUMP JUMPDEST PUSH32 0x596F7520617265206F776E657200000000000000000000000000000000000000 PUSH1 0x0 DUP3 ADD MSTORE POP JUMP JUMPDEST PUSH32 0x4E6F7420416C6C6F776564000000000000000000000000000000000000000000 PUSH1 0x0 DUP3 ADD MSTORE POP JUMP JUMPDEST PUSH32 0x596F7520617265206E6F74206F776E6572000000000000000000000000000000 PUSH1 0x0 DUP3 ADD MSTORE POP JUMP JUMPDEST PUSH2 0xB39 DUP2 PUSH2 0x912 JUMP JUMPDEST DUP2 EQ PUSH2 0xB44 JUMPI PUSH1 0x0 DUP1 REVERT JUMPDEST POP JUMP JUMPDEST PUSH2 0xB50 DUP2 PUSH2 0x924 JUMP JUMPDEST DUP2 EQ PUSH2 0xB5B JUMPI PUSH1 0x0 DUP1 REVERT JUMPDEST POP JUMP JUMPDEST PUSH2 0xB67 DUP2 PUSH2 0x956 JUMP JUMPDEST DUP2 EQ PUSH2 0xB72 JUMPI PUSH1 0x0 DUP1 REVERT JUMPDEST POP JUMP INVALID LOG2 PUSH5 0x6970667358 0x22 SLT KECCAK256 PUSH23 0x417543435243F2FFC4542EC47A9C0DBF0C6680A0272E0C SWAP2 0xD5 0xC6 PUSH23 0x465608FB64736F6C634300080700330000000000000000 "
				},
				"gasEstimates": {
					"creation": {
						"codeDepositCost": "597400",
						"executionCost": "24898",
						"totalCost": "622298"
					},
					"external": {
						"BALANCE()": "317",
						"addAllowance(address,uint256)": "infinite",
						"allowance(address)": "2836",
						"withdrawMoney(address,uint256,string)": "infinite"
					},
					"internal": {
						"isOwner()": "2204"
					}
				},
				"methodIdentifiers": {
					"BALANCE()": "15e9977e",
					"addAllowance(address,uint256)": "f3c40c4b",
					"allowance(address)": "3e5beab9",
					"withdrawMoney(address,uint256,string)": "3495e901"
				}
			},
			"storageLayout": {
				"storage": [
					{
						"astId": 3,
						"contract": "Allowance.sol:main",
						"label": "owner",
						"offset": 0,
						"slot": "0",
						"type": "t_address"
					},
					{
						"astId": 7,
						"contract": "Allowance.sol:main",
						"label": "allowance",
						"offset": 0,
						"slot": "1",
						"type": "t_mapping(t_address,t_uint256)"
					}
				],
				"types": {
					"t_address": {
						"encoding": "inplace",
						"label": "address",
						"numberOfBytes": "20"
					},
					"t_mapping(t_address,t_uint256)": {
						"encoding": "mapping",
						"key": "t_address",
						"label": "mapping(address => uint256)",
						"numberOfBytes": "32",
						"value": "t_uint256"
					},
					"t_uint256": {
						"encoding": "inplace",
						"label": "uint256",
						"numberOfBytes": "32"
					}
				}
			},
			"userdoc": {
				"kind": "user",
				"methods": {},
				"version": 1
			}
		}
	}
}