{
	"Allowance.sol": {
		"main": {
			"abi": [
				{
					"inputs": [],
					"stateMutability": "nonpayable",
					"type": "constructor"
				},
				{
					"anonymous": false,
					"inputs": [
						{
							"indexed": false,
							"internalType": "address",
							"name": "_to",
							"type": "address"
						},
						{
							"indexed": false,
							"internalType": "uint256",
							"name": "_amount",
							"type": "uint256"
						},
						{
							"indexed": false,
							"internalType": "string",
							"name": "_description",
							"type": "string"
						}
					],
					"name": "log",
					"type": "event"
				},
				{
					"inputs": [],
					"name": "BALANCE",
					"outputs": [
						{
							"internalType": "uint256",
							"name": "",
							"type": "uint256"
						}
					],
					"stateMutability": "view",
					"type": "function"
				},
				{
					"inputs": [
						{
							"internalType": "address",
							"name": "_to",
							"type": "address"
						},
						{
							"internalType": "uint256",
							"name": "_amount",
							"type": "uint256"
						}
					],
					"name": "addAllowance",
					"outputs": [],
					"stateMutability": "nonpayable",
					"type": "function"
				},
				{
					"inputs": [
						{
							"internalType": "address",
							"name": "_to",
							"type": "address"
						},
						{
							"internalType": "uint256",
							"name": "_amount",
							"type": "uint256"
						},
						{
							"internalType": "string",
							"name": "_description",
							"type": "string"
						}
					],
					"name": "withDrawMoney",
					"outputs": [],
					"stateMutability": "nonpayable",
					"type": "function"
				},
				{
					"stateMutability": "payable",
					"type": "receive"
				}
			],
			"devdoc": {
				"kind": "dev",
				"methods": {},
				"version": 1
			},
			"evm": {
				"assembly": "    /* \"Allowance.sol\":59:1306  contract main{\r... */\n  mstore(0x40, 0x80)\n    /* \"Allowance.sol\":153:203  constructor(){\r... */\n  callvalue\n  dup1\n  iszero\n  tag_1\n  jumpi\n  0x00\n  dup1\n  revert\ntag_1:\n  pop\n    /* \"Allowance.sol\":185:195  msg.sender */\n  caller\n    /* \"Allowance.sol\":177:182  owner */\n  0x00\n  dup1\n    /* \"Allowance.sol\":177:195  owner = msg.sender */\n  0x0100\n  exp\n  dup2\n  sload\n  dup2\n  0xffffffffffffffffffffffffffffffffffffffff\n  mul\n  not\n  and\n  swap1\n  dup4\n  0xffffffffffffffffffffffffffffffffffffffff\n  and\n  mul\n  or\n  swap1\n  sstore\n  pop\n    /* \"Allowance.sol\":59:1306  contract main{\r... */\n  dataSize(sub_0)\n  dup1\n  dataOffset(sub_0)\n  0x00\n  codecopy\n  0x00\n  return\nstop\n\nsub_0: assembly {\n        /* \"Allowance.sol\":59:1306  contract main{\r... */\n      mstore(0x40, 0x80)\n      jumpi(tag_1, lt(calldatasize, 0x04))\n      shr(0xe0, calldataload(0x00))\n      dup1\n      0x15e9977e\n      eq\n      tag_3\n      jumpi\n      dup1\n      0x8d942a80\n      eq\n      tag_4\n      jumpi\n      dup1\n      0xf3c40c4b\n      eq\n      tag_5\n      jumpi\n      jump(tag_2)\n    tag_1:\n      jumpi(tag_2, calldatasize)\n      stop\n    tag_2:\n      0x00\n      dup1\n      revert\n        /* \"Allowance.sol\":1210:1301  function BALANCE() public view returns(uint){\r... */\n    tag_3:\n      callvalue\n      dup1\n      iszero\n      tag_8\n      jumpi\n      0x00\n      dup1\n      revert\n    tag_8:\n      pop\n      tag_9\n      tag_10\n      jump\t// in\n    tag_9:\n      mload(0x40)\n      tag_11\n      swap2\n      swap1\n      tag_12\n      jump\t// in\n    tag_11:\n      mload(0x40)\n      dup1\n      swap2\n      sub\n      swap1\n      return\n        /* \"Allowance.sol\":872:1198  function withDrawMoney(address _to, uint _amount, string memory _description) public ownerOrAllowed(_amount) {\r... */\n    tag_4:\n      callvalue\n      dup1\n      iszero\n      tag_13\n      jumpi\n      0x00\n      dup1\n      revert\n    tag_13:\n      pop\n      tag_14\n      0x04\n      dup1\n      calldatasize\n      sub\n      dup2\n      add\n      swap1\n      tag_15\n      swap2\n      swap1\n      tag_16\n      jump\t// in\n    tag_15:\n      tag_17\n      jump\t// in\n    tag_14:\n      stop\n        /* \"Allowance.sol\":752:862  function addAllowance(address _to, uint _amount) public onlyOwner {\r... */\n    tag_5:\n      callvalue\n      dup1\n      iszero\n      tag_18\n      jumpi\n      0x00\n      dup1\n      revert\n    tag_18:\n      pop\n      tag_19\n      0x04\n      dup1\n      calldatasize\n      sub\n      dup2\n      add\n      swap1\n      tag_20\n      swap2\n      swap1\n      tag_21\n      jump\t// in\n    tag_20:\n      tag_22\n      jump\t// in\n    tag_19:\n      stop\n        /* \"Allowance.sol\":1210:1301  function BALANCE() public view returns(uint){\r... */\n    tag_10:\n        /* \"Allowance.sol\":1249:1253  uint */\n      0x00\n        /* \"Allowance.sol\":1272:1293  address(this).balance */\n      selfbalance\n        /* \"Allowance.sol\":1265:1293  return address(this).balance */\n      swap1\n      pop\n        /* \"Allowance.sol\":1210:1301  function BALANCE() public view returns(uint){\r... */\n      swap1\n      jump\t// out\n        /* \"Allowance.sol\":872:1198  function withDrawMoney(address _to, uint _amount, string memory _description) public ownerOrAllowed(_amount) {\r... */\n    tag_17:\n        /* \"Allowance.sol\":972:979  _amount */\n      dup2\n        /* \"Allowance.sol\":501:510  isOwner() */\n      tag_25\n        /* \"Allowance.sol\":501:508  isOwner */\n      tag_26\n        /* \"Allowance.sol\":501:510  isOwner() */\n      jump\t// in\n    tag_25:\n        /* \"Allowance.sol\":501:546  isOwner() || allowance[msg.sender] >= _amount */\n      dup1\n      tag_27\n      jumpi\n      pop\n        /* \"Allowance.sol\":539:546  _amount */\n      dup1\n        /* \"Allowance.sol\":514:523  allowance */\n      0x01\n        /* \"Allowance.sol\":514:535  allowance[msg.sender] */\n      0x00\n        /* \"Allowance.sol\":524:534  msg.sender */\n      caller\n        /* \"Allowance.sol\":514:535  allowance[msg.sender] */\n      0xffffffffffffffffffffffffffffffffffffffff\n      and\n      0xffffffffffffffffffffffffffffffffffffffff\n      and\n      dup2\n      mstore\n      0x20\n      add\n      swap1\n      dup2\n      mstore\n      0x20\n      add\n      0x00\n      keccak256\n      sload\n        /* \"Allowance.sol\":514:546  allowance[msg.sender] >= _amount */\n      lt\n      iszero\n        /* \"Allowance.sol\":501:546  isOwner() || allowance[msg.sender] >= _amount */\n    tag_27:\n        /* \"Allowance.sol\":493:563  require(isOwner() || allowance[msg.sender] >= _amount, \"Not Allowed\" ) */\n      tag_28\n      jumpi\n      mload(0x40)\n      0x08c379a000000000000000000000000000000000000000000000000000000000\n      dup2\n      mstore\n      0x04\n      add\n      tag_29\n      swap1\n      tag_30\n      jump\t// in\n    tag_29:\n      mload(0x40)\n      dup1\n      swap2\n      sub\n      swap1\n      revert\n    tag_28:\n        /* \"Allowance.sol\":997:1028  log(_to, _amount, _description) */\n      0xa1f2e8aa7ff0c088860d7b3f0d1dc288d8e8a07808525cc31a5691f1bc0e149d\n        /* \"Allowance.sol\":1001:1004  _to */\n      dup5\n        /* \"Allowance.sol\":1006:1013  _amount */\n      dup5\n        /* \"Allowance.sol\":1015:1027  _description */\n      dup5\n        /* \"Allowance.sol\":997:1028  log(_to, _amount, _description) */\n      mload(0x40)\n      tag_32\n      swap4\n      swap3\n      swap2\n      swap1\n      tag_33\n      jump\t// in\n    tag_32:\n      mload(0x40)\n      dup1\n      swap2\n      sub\n      swap1\n      log1\n        /* \"Allowance.sol\":1072:1079  _amount */\n      dup3\n        /* \"Allowance.sol\":1047:1068  address(this).balance */\n      selfbalance\n        /* \"Allowance.sol\":1047:1079  address(this).balance >= _amount */\n      lt\n      iszero\n        /* \"Allowance.sol\":1039:1099  require(address(this).balance >= _amount, \"No enough funds\") */\n      tag_34\n      jumpi\n      mload(0x40)\n      0x08c379a000000000000000000000000000000000000000000000000000000000\n      dup2\n      mstore\n      0x04\n      add\n      tag_35\n      swap1\n      tag_36\n      jump\t// in\n    tag_35:\n      mload(0x40)\n      dup1\n      swap2\n      sub\n      swap1\n      revert\n    tag_34:\n        /* \"Allowance.sol\":1126:1131  false */\n      0x00\n        /* \"Allowance.sol\":1113:1131  isOwner() == false */\n      iszero\n      iszero\n        /* \"Allowance.sol\":1113:1122  isOwner() */\n      tag_37\n        /* \"Allowance.sol\":1113:1120  isOwner */\n      tag_26\n        /* \"Allowance.sol\":1113:1122  isOwner() */\n      jump\t// in\n    tag_37:\n        /* \"Allowance.sol\":1113:1131  isOwner() == false */\n      iszero\n      iszero\n      eq\n        /* \"Allowance.sol\":1110:1191  if(isOwner() == false){\r... */\n      iszero\n      tag_38\n      jumpi\n        /* \"Allowance.sol\":1172:1179  _amount */\n      dup3\n        /* \"Allowance.sol\":1147:1156  allowance */\n      0x01\n        /* \"Allowance.sol\":1147:1168  allowance[msg.sender] */\n      0x00\n        /* \"Allowance.sol\":1157:1167  msg.sender */\n      caller\n        /* \"Allowance.sol\":1147:1168  allowance[msg.sender] */\n      0xffffffffffffffffffffffffffffffffffffffff\n      and\n      0xffffffffffffffffffffffffffffffffffffffff\n      and\n      dup2\n      mstore\n      0x20\n      add\n      swap1\n      dup2\n      mstore\n      0x20\n      add\n      0x00\n      keccak256\n      0x00\n        /* \"Allowance.sol\":1147:1179  allowance[msg.sender] -= _amount */\n      dup3\n      dup3\n      sload\n      tag_39\n      swap2\n      swap1\n      tag_40\n      jump\t// in\n    tag_39:\n      swap3\n      pop\n      pop\n      dup2\n      swap1\n      sstore\n      pop\n        /* \"Allowance.sol\":1110:1191  if(isOwner() == false){\r... */\n    tag_38:\n        /* \"Allowance.sol\":872:1198  function withDrawMoney(address _to, uint _amount, string memory _description) public ownerOrAllowed(_amount) {\r... */\n      pop\n      pop\n      pop\n      pop\n      jump\t// out\n        /* \"Allowance.sol\":752:862  function addAllowance(address _to, uint _amount) public onlyOwner {\r... */\n    tag_22:\n        /* \"Allowance.sol\":385:395  msg.sender */\n      caller\n        /* \"Allowance.sol\":376:395  owner == msg.sender */\n      0xffffffffffffffffffffffffffffffffffffffff\n      and\n        /* \"Allowance.sol\":376:381  owner */\n      0x00\n      dup1\n      sload\n      swap1\n      0x0100\n      exp\n      swap1\n      div\n      0xffffffffffffffffffffffffffffffffffffffff\n      and\n        /* \"Allowance.sol\":376:395  owner == msg.sender */\n      0xffffffffffffffffffffffffffffffffffffffff\n      and\n      eq\n        /* \"Allowance.sol\":368:417  require(owner == msg.sender, \"You are not owner\") */\n      tag_42\n      jumpi\n      mload(0x40)\n      0x08c379a000000000000000000000000000000000000000000000000000000000\n      dup2\n      mstore\n      0x04\n      add\n      tag_43\n      swap1\n      tag_44\n      jump\t// in\n    tag_43:\n      mload(0x40)\n      dup1\n      swap2\n      sub\n      swap1\n      revert\n    tag_42:\n        /* \"Allowance.sol\":847:854  _amount */\n      dup1\n        /* \"Allowance.sol\":829:838  allowance */\n      0x01\n        /* \"Allowance.sol\":829:843  allowance[_to] */\n      0x00\n        /* \"Allowance.sol\":839:842  _to */\n      dup5\n        /* \"Allowance.sol\":829:843  allowance[_to] */\n      0xffffffffffffffffffffffffffffffffffffffff\n      and\n      0xffffffffffffffffffffffffffffffffffffffff\n      and\n      dup2\n      mstore\n      0x20\n      add\n      swap1\n      dup2\n      mstore\n      0x20\n      add\n      0x00\n      keccak256\n      0x00\n        /* \"Allowance.sol\":829:854  allowance[_to] += _amount */\n      dup3\n      dup3\n      sload\n      tag_46\n      swap2\n      swap1\n      tag_47\n      jump\t// in\n    tag_46:\n      swap3\n      pop\n      pop\n      dup2\n      swap1\n      sstore\n      pop\n        /* \"Allowance.sol\":752:862  function addAllowance(address _to, uint _amount) public onlyOwner {\r... */\n      pop\n      pop\n      jump\t// out\n        /* \"Allowance.sol\":597:744  function isOwner() private view returns(bool){\r... */\n    tag_26:\n        /* \"Allowance.sol\":637:641  bool */\n      0x00\n        /* \"Allowance.sol\":665:675  msg.sender */\n      caller\n        /* \"Allowance.sol\":656:675  owner == msg.sender */\n      0xffffffffffffffffffffffffffffffffffffffff\n      and\n        /* \"Allowance.sol\":656:661  owner */\n      0x00\n      dup1\n      sload\n      swap1\n      0x0100\n      exp\n      swap1\n      div\n      0xffffffffffffffffffffffffffffffffffffffff\n      and\n        /* \"Allowance.sol\":656:675  owner == msg.sender */\n      0xffffffffffffffffffffffffffffffffffffffff\n      and\n      eq\n        /* \"Allowance.sol\":653:714  if(owner == msg.sender){\r... */\n      iszero\n      tag_49\n      jumpi\n        /* \"Allowance.sol\":698:702  true */\n      0x01\n        /* \"Allowance.sol\":691:702  return true */\n      swap1\n      pop\n      jump(tag_48)\n        /* \"Allowance.sol\":653:714  if(owner == msg.sender){\r... */\n    tag_49:\n        /* \"Allowance.sol\":731:736  false */\n      0x00\n        /* \"Allowance.sol\":724:736  return false */\n      swap1\n      pop\n        /* \"Allowance.sol\":597:744  function isOwner() private view returns(bool){\r... */\n    tag_48:\n      swap1\n      jump\t// out\n        /* \"#utility.yul\":7:419   */\n    tag_51:\n        /* \"#utility.yul\":85:90   */\n      0x00\n        /* \"#utility.yul\":110:176   */\n      tag_53\n        /* \"#utility.yul\":126:175   */\n      tag_54\n        /* \"#utility.yul\":168:174   */\n      dup5\n        /* \"#utility.yul\":126:175   */\n      tag_55\n      jump\t// in\n    tag_54:\n        /* \"#utility.yul\":110:176   */\n      tag_56\n      jump\t// in\n    tag_53:\n        /* \"#utility.yul\":101:176   */\n      swap1\n      pop\n        /* \"#utility.yul\":199:205   */\n      dup3\n        /* \"#utility.yul\":192:197   */\n      dup2\n        /* \"#utility.yul\":185:206   */\n      mstore\n        /* \"#utility.yul\":237:241   */\n      0x20\n        /* \"#utility.yul\":230:235   */\n      dup2\n        /* \"#utility.yul\":226:242   */\n      add\n        /* \"#utility.yul\":275:278   */\n      dup5\n        /* \"#utility.yul\":266:272   */\n      dup5\n        /* \"#utility.yul\":261:264   */\n      dup5\n        /* \"#utility.yul\":257:273   */\n      add\n        /* \"#utility.yul\":254:279   */\n      gt\n        /* \"#utility.yul\":251:363   */\n      iszero\n      tag_57\n      jumpi\n        /* \"#utility.yul\":282:361   */\n      tag_58\n      tag_59\n      jump\t// in\n    tag_58:\n        /* \"#utility.yul\":251:363   */\n    tag_57:\n        /* \"#utility.yul\":372:413   */\n      tag_60\n        /* \"#utility.yul\":406:412   */\n      dup5\n        /* \"#utility.yul\":401:404   */\n      dup3\n        /* \"#utility.yul\":396:399   */\n      dup6\n        /* \"#utility.yul\":372:413   */\n      tag_61\n      jump\t// in\n    tag_60:\n        /* \"#utility.yul\":91:419   */\n      pop\n        /* \"#utility.yul\":7:419   */\n      swap4\n      swap3\n      pop\n      pop\n      pop\n      jump\t// out\n        /* \"#utility.yul\":425:564   */\n    tag_62:\n        /* \"#utility.yul\":471:476   */\n      0x00\n        /* \"#utility.yul\":509:515   */\n      dup2\n        /* \"#utility.yul\":496:516   */\n      calldataload\n        /* \"#utility.yul\":487:516   */\n      swap1\n      pop\n        /* \"#utility.yul\":525:558   */\n      tag_64\n        /* \"#utility.yul\":552:557   */\n      dup2\n        /* \"#utility.yul\":525:558   */\n      tag_65\n      jump\t// in\n    tag_64:\n        /* \"#utility.yul\":425:564   */\n      swap3\n      swap2\n      pop\n      pop\n      jump\t// out\n        /* \"#utility.yul\":584:924   */\n    tag_66:\n        /* \"#utility.yul\":640:645   */\n      0x00\n        /* \"#utility.yul\":689:692   */\n      dup3\n        /* \"#utility.yul\":682:686   */\n      0x1f\n        /* \"#utility.yul\":674:680   */\n      dup4\n        /* \"#utility.yul\":670:687   */\n      add\n        /* \"#utility.yul\":666:693   */\n      slt\n        /* \"#utility.yul\":656:778   */\n      tag_68\n      jumpi\n        /* \"#utility.yul\":697:776   */\n      tag_69\n      tag_70\n      jump\t// in\n    tag_69:\n        /* \"#utility.yul\":656:778   */\n    tag_68:\n        /* \"#utility.yul\":814:820   */\n      dup2\n        /* \"#utility.yul\":801:821   */\n      calldataload\n        /* \"#utility.yul\":839:918   */\n      tag_71\n        /* \"#utility.yul\":914:917   */\n      dup5\n        /* \"#utility.yul\":906:912   */\n      dup3\n        /* \"#utility.yul\":899:903   */\n      0x20\n        /* \"#utility.yul\":891:897   */\n      dup7\n        /* \"#utility.yul\":887:904   */\n      add\n        /* \"#utility.yul\":839:918   */\n      tag_51\n      jump\t// in\n    tag_71:\n        /* \"#utility.yul\":830:918   */\n      swap2\n      pop\n        /* \"#utility.yul\":646:924   */\n      pop\n        /* \"#utility.yul\":584:924   */\n      swap3\n      swap2\n      pop\n      pop\n      jump\t// out\n        /* \"#utility.yul\":930:1069   */\n    tag_72:\n        /* \"#utility.yul\":976:981   */\n      0x00\n        /* \"#utility.yul\":1014:1020   */\n      dup2\n        /* \"#utility.yul\":1001:1021   */\n      calldataload\n        /* \"#utility.yul\":992:1021   */\n      swap1\n      pop\n        /* \"#utility.yul\":1030:1063   */\n      tag_74\n        /* \"#utility.yul\":1057:1062   */\n      dup2\n        /* \"#utility.yul\":1030:1063   */\n      tag_75\n      jump\t// in\n    tag_74:\n        /* \"#utility.yul\":930:1069   */\n      swap3\n      swap2\n      pop\n      pop\n      jump\t// out\n        /* \"#utility.yul\":1075:1549   */\n    tag_21:\n        /* \"#utility.yul\":1143:1149   */\n      0x00\n        /* \"#utility.yul\":1151:1157   */\n      dup1\n        /* \"#utility.yul\":1200:1202   */\n      0x40\n        /* \"#utility.yul\":1188:1197   */\n      dup4\n        /* \"#utility.yul\":1179:1186   */\n      dup6\n        /* \"#utility.yul\":1175:1198   */\n      sub\n        /* \"#utility.yul\":1171:1203   */\n      slt\n        /* \"#utility.yul\":1168:1287   */\n      iszero\n      tag_77\n      jumpi\n        /* \"#utility.yul\":1206:1285   */\n      tag_78\n      tag_79\n      jump\t// in\n    tag_78:\n        /* \"#utility.yul\":1168:1287   */\n    tag_77:\n        /* \"#utility.yul\":1326:1327   */\n      0x00\n        /* \"#utility.yul\":1351:1404   */\n      tag_80\n        /* \"#utility.yul\":1396:1403   */\n      dup6\n        /* \"#utility.yul\":1387:1393   */\n      dup3\n        /* \"#utility.yul\":1376:1385   */\n      dup7\n        /* \"#utility.yul\":1372:1394   */\n      add\n        /* \"#utility.yul\":1351:1404   */\n      tag_62\n      jump\t// in\n    tag_80:\n        /* \"#utility.yul\":1341:1404   */\n      swap3\n      pop\n        /* \"#utility.yul\":1297:1414   */\n      pop\n        /* \"#utility.yul\":1453:1455   */\n      0x20\n        /* \"#utility.yul\":1479:1532   */\n      tag_81\n        /* \"#utility.yul\":1524:1531   */\n      dup6\n        /* \"#utility.yul\":1515:1521   */\n      dup3\n        /* \"#utility.yul\":1504:1513   */\n      dup7\n        /* \"#utility.yul\":1500:1522   */\n      add\n        /* \"#utility.yul\":1479:1532   */\n      tag_72\n      jump\t// in\n    tag_81:\n        /* \"#utility.yul\":1469:1532   */\n      swap2\n      pop\n        /* \"#utility.yul\":1424:1542   */\n      pop\n        /* \"#utility.yul\":1075:1549   */\n      swap3\n      pop\n      swap3\n      swap1\n      pop\n      jump\t// out\n        /* \"#utility.yul\":1555:2354   */\n    tag_16:\n        /* \"#utility.yul\":1642:1648   */\n      0x00\n        /* \"#utility.yul\":1650:1656   */\n      dup1\n        /* \"#utility.yul\":1658:1664   */\n      0x00\n        /* \"#utility.yul\":1707:1709   */\n      0x60\n        /* \"#utility.yul\":1695:1704   */\n      dup5\n        /* \"#utility.yul\":1686:1693   */\n      dup7\n        /* \"#utility.yul\":1682:1705   */\n      sub\n        /* \"#utility.yul\":1678:1710   */\n      slt\n        /* \"#utility.yul\":1675:1794   */\n      iszero\n      tag_83\n      jumpi\n        /* \"#utility.yul\":1713:1792   */\n      tag_84\n      tag_79\n      jump\t// in\n    tag_84:\n        /* \"#utility.yul\":1675:1794   */\n    tag_83:\n        /* \"#utility.yul\":1833:1834   */\n      0x00\n        /* \"#utility.yul\":1858:1911   */\n      tag_85\n        /* \"#utility.yul\":1903:1910   */\n      dup7\n        /* \"#utility.yul\":1894:1900   */\n      dup3\n        /* \"#utility.yul\":1883:1892   */\n      dup8\n        /* \"#utility.yul\":1879:1901   */\n      add\n        /* \"#utility.yul\":1858:1911   */\n      tag_62\n      jump\t// in\n    tag_85:\n        /* \"#utility.yul\":1848:1911   */\n      swap4\n      pop\n        /* \"#utility.yul\":1804:1921   */\n      pop\n        /* \"#utility.yul\":1960:1962   */\n      0x20\n        /* \"#utility.yul\":1986:2039   */\n      tag_86\n        /* \"#utility.yul\":2031:2038   */\n      dup7\n        /* \"#utility.yul\":2022:2028   */\n      dup3\n        /* \"#utility.yul\":2011:2020   */\n      dup8\n        /* \"#utility.yul\":2007:2029   */\n      add\n        /* \"#utility.yul\":1986:2039   */\n      tag_72\n      jump\t// in\n    tag_86:\n        /* \"#utility.yul\":1976:2039   */\n      swap3\n      pop\n        /* \"#utility.yul\":1931:2049   */\n      pop\n        /* \"#utility.yul\":2116:2118   */\n      0x40\n        /* \"#utility.yul\":2105:2114   */\n      dup5\n        /* \"#utility.yul\":2101:2119   */\n      add\n        /* \"#utility.yul\":2088:2120   */\n      calldataload\n        /* \"#utility.yul\":2147:2165   */\n      0xffffffffffffffff\n        /* \"#utility.yul\":2139:2145   */\n      dup2\n        /* \"#utility.yul\":2136:2166   */\n      gt\n        /* \"#utility.yul\":2133:2250   */\n      iszero\n      tag_87\n      jumpi\n        /* \"#utility.yul\":2169:2248   */\n      tag_88\n      tag_89\n      jump\t// in\n    tag_88:\n        /* \"#utility.yul\":2133:2250   */\n    tag_87:\n        /* \"#utility.yul\":2274:2337   */\n      tag_90\n        /* \"#utility.yul\":2329:2336   */\n      dup7\n        /* \"#utility.yul\":2320:2326   */\n      dup3\n        /* \"#utility.yul\":2309:2318   */\n      dup8\n        /* \"#utility.yul\":2305:2327   */\n      add\n        /* \"#utility.yul\":2274:2337   */\n      tag_66\n      jump\t// in\n    tag_90:\n        /* \"#utility.yul\":2264:2337   */\n      swap2\n      pop\n        /* \"#utility.yul\":2059:2347   */\n      pop\n        /* \"#utility.yul\":1555:2354   */\n      swap3\n      pop\n      swap3\n      pop\n      swap3\n      jump\t// out\n        /* \"#utility.yul\":2360:2478   */\n    tag_91:\n        /* \"#utility.yul\":2447:2471   */\n      tag_93\n        /* \"#utility.yul\":2465:2470   */\n      dup2\n        /* \"#utility.yul\":2447:2471   */\n      tag_94\n      jump\t// in\n    tag_93:\n        /* \"#utility.yul\":2442:2445   */\n      dup3\n        /* \"#utility.yul\":2435:2472   */\n      mstore\n        /* \"#utility.yul\":2360:2478   */\n      pop\n      pop\n      jump\t// out\n        /* \"#utility.yul\":2484:2848   */\n    tag_95:\n        /* \"#utility.yul\":2572:2575   */\n      0x00\n        /* \"#utility.yul\":2600:2639   */\n      tag_97\n        /* \"#utility.yul\":2633:2638   */\n      dup3\n        /* \"#utility.yul\":2600:2639   */\n      tag_98\n      jump\t// in\n    tag_97:\n        /* \"#utility.yul\":2655:2726   */\n      tag_99\n        /* \"#utility.yul\":2719:2725   */\n      dup2\n        /* \"#utility.yul\":2714:2717   */\n      dup6\n        /* \"#utility.yul\":2655:2726   */\n      tag_100\n      jump\t// in\n    tag_99:\n        /* \"#utility.yul\":2648:2726   */\n      swap4\n      pop\n        /* \"#utility.yul\":2735:2787   */\n      tag_101\n        /* \"#utility.yul\":2780:2786   */\n      dup2\n        /* \"#utility.yul\":2775:2778   */\n      dup6\n        /* \"#utility.yul\":2768:2772   */\n      0x20\n        /* \"#utility.yul\":2761:2766   */\n      dup7\n        /* \"#utility.yul\":2757:2773   */\n      add\n        /* \"#utility.yul\":2735:2787   */\n      tag_102\n      jump\t// in\n    tag_101:\n        /* \"#utility.yul\":2812:2841   */\n      tag_103\n        /* \"#utility.yul\":2834:2840   */\n      dup2\n        /* \"#utility.yul\":2812:2841   */\n      tag_104\n      jump\t// in\n    tag_103:\n        /* \"#utility.yul\":2807:2810   */\n      dup5\n        /* \"#utility.yul\":2803:2842   */\n      add\n        /* \"#utility.yul\":2796:2842   */\n      swap2\n      pop\n        /* \"#utility.yul\":2576:2848   */\n      pop\n        /* \"#utility.yul\":2484:2848   */\n      swap3\n      swap2\n      pop\n      pop\n      jump\t// out\n        /* \"#utility.yul\":2854:3220   */\n    tag_105:\n        /* \"#utility.yul\":2996:2999   */\n      0x00\n        /* \"#utility.yul\":3017:3084   */\n      tag_107\n        /* \"#utility.yul\":3081:3083   */\n      0x0f\n        /* \"#utility.yul\":3076:3079   */\n      dup4\n        /* \"#utility.yul\":3017:3084   */\n      tag_100\n      jump\t// in\n    tag_107:\n        /* \"#utility.yul\":3010:3084   */\n      swap2\n      pop\n        /* \"#utility.yul\":3093:3186   */\n      tag_108\n        /* \"#utility.yul\":3182:3185   */\n      dup3\n        /* \"#utility.yul\":3093:3186   */\n      tag_109\n      jump\t// in\n    tag_108:\n        /* \"#utility.yul\":3211:3213   */\n      0x20\n        /* \"#utility.yul\":3206:3209   */\n      dup3\n        /* \"#utility.yul\":3202:3214   */\n      add\n        /* \"#utility.yul\":3195:3214   */\n      swap1\n      pop\n        /* \"#utility.yul\":2854:3220   */\n      swap2\n      swap1\n      pop\n      jump\t// out\n        /* \"#utility.yul\":3226:3592   */\n    tag_110:\n        /* \"#utility.yul\":3368:3371   */\n      0x00\n        /* \"#utility.yul\":3389:3456   */\n      tag_112\n        /* \"#utility.yul\":3453:3455   */\n      0x0b\n        /* \"#utility.yul\":3448:3451   */\n      dup4\n        /* \"#utility.yul\":3389:3456   */\n      tag_100\n      jump\t// in\n    tag_112:\n        /* \"#utility.yul\":3382:3456   */\n      swap2\n      pop\n        /* \"#utility.yul\":3465:3558   */\n      tag_113\n        /* \"#utility.yul\":3554:3557   */\n      dup3\n        /* \"#utility.yul\":3465:3558   */\n      tag_114\n      jump\t// in\n    tag_113:\n        /* \"#utility.yul\":3583:3585   */\n      0x20\n        /* \"#utility.yul\":3578:3581   */\n      dup3\n        /* \"#utility.yul\":3574:3586   */\n      add\n        /* \"#utility.yul\":3567:3586   */\n      swap1\n      pop\n        /* \"#utility.yul\":3226:3592   */\n      swap2\n      swap1\n      pop\n      jump\t// out\n        /* \"#utility.yul\":3598:3964   */\n    tag_115:\n        /* \"#utility.yul\":3740:3743   */\n      0x00\n        /* \"#utility.yul\":3761:3828   */\n      tag_117\n        /* \"#utility.yul\":3825:3827   */\n      0x11\n        /* \"#utility.yul\":3820:3823   */\n      dup4\n        /* \"#utility.yul\":3761:3828   */\n      tag_100\n      jump\t// in\n    tag_117:\n        /* \"#utility.yul\":3754:3828   */\n      swap2\n      pop\n        /* \"#utility.yul\":3837:3930   */\n      tag_118\n        /* \"#utility.yul\":3926:3929   */\n      dup3\n        /* \"#utility.yul\":3837:3930   */\n      tag_119\n      jump\t// in\n    tag_118:\n        /* \"#utility.yul\":3955:3957   */\n      0x20\n        /* \"#utility.yul\":3950:3953   */\n      dup3\n        /* \"#utility.yul\":3946:3958   */\n      add\n        /* \"#utility.yul\":3939:3958   */\n      swap1\n      pop\n        /* \"#utility.yul\":3598:3964   */\n      swap2\n      swap1\n      pop\n      jump\t// out\n        /* \"#utility.yul\":3970:4088   */\n    tag_120:\n        /* \"#utility.yul\":4057:4081   */\n      tag_122\n        /* \"#utility.yul\":4075:4080   */\n      dup2\n        /* \"#utility.yul\":4057:4081   */\n      tag_123\n      jump\t// in\n    tag_122:\n        /* \"#utility.yul\":4052:4055   */\n      dup3\n        /* \"#utility.yul\":4045:4082   */\n      mstore\n        /* \"#utility.yul\":3970:4088   */\n      pop\n      pop\n      jump\t// out\n        /* \"#utility.yul\":4094:4627   */\n    tag_33:\n        /* \"#utility.yul\":4263:4267   */\n      0x00\n        /* \"#utility.yul\":4301:4303   */\n      0x60\n        /* \"#utility.yul\":4290:4299   */\n      dup3\n        /* \"#utility.yul\":4286:4304   */\n      add\n        /* \"#utility.yul\":4278:4304   */\n      swap1\n      pop\n        /* \"#utility.yul\":4314:4385   */\n      tag_125\n        /* \"#utility.yul\":4382:4383   */\n      0x00\n        /* \"#utility.yul\":4371:4380   */\n      dup4\n        /* \"#utility.yul\":4367:4384   */\n      add\n        /* \"#utility.yul\":4358:4364   */\n      dup7\n        /* \"#utility.yul\":4314:4385   */\n      tag_91\n      jump\t// in\n    tag_125:\n        /* \"#utility.yul\":4395:4467   */\n      tag_126\n        /* \"#utility.yul\":4463:4465   */\n      0x20\n        /* \"#utility.yul\":4452:4461   */\n      dup4\n        /* \"#utility.yul\":4448:4466   */\n      add\n        /* \"#utility.yul\":4439:4445   */\n      dup6\n        /* \"#utility.yul\":4395:4467   */\n      tag_120\n      jump\t// in\n    tag_126:\n        /* \"#utility.yul\":4514:4523   */\n      dup2\n        /* \"#utility.yul\":4508:4512   */\n      dup2\n        /* \"#utility.yul\":4504:4524   */\n      sub\n        /* \"#utility.yul\":4499:4501   */\n      0x40\n        /* \"#utility.yul\":4488:4497   */\n      dup4\n        /* \"#utility.yul\":4484:4502   */\n      add\n        /* \"#utility.yul\":4477:4525   */\n      mstore\n        /* \"#utility.yul\":4542:4620   */\n      tag_127\n        /* \"#utility.yul\":4615:4619   */\n      dup2\n        /* \"#utility.yul\":4606:4612   */\n      dup5\n        /* \"#utility.yul\":4542:4620   */\n      tag_95\n      jump\t// in\n    tag_127:\n        /* \"#utility.yul\":4534:4620   */\n      swap1\n      pop\n        /* \"#utility.yul\":4094:4627   */\n      swap5\n      swap4\n      pop\n      pop\n      pop\n      pop\n      jump\t// out\n        /* \"#utility.yul\":4633:5052   */\n    tag_36:\n        /* \"#utility.yul\":4799:4803   */\n      0x00\n        /* \"#utility.yul\":4837:4839   */\n      0x20\n        /* \"#utility.yul\":4826:4835   */\n      dup3\n        /* \"#utility.yul\":4822:4840   */\n      add\n        /* \"#utility.yul\":4814:4840   */\n      swap1\n      pop\n        /* \"#utility.yul\":4886:4895   */\n      dup2\n        /* \"#utility.yul\":4880:4884   */\n      dup2\n        /* \"#utility.yul\":4876:4896   */\n      sub\n        /* \"#utility.yul\":4872:4873   */\n      0x00\n        /* \"#utility.yul\":4861:4870   */\n      dup4\n        /* \"#utility.yul\":4857:4874   */\n      add\n        /* \"#utility.yul\":4850:4897   */\n      mstore\n        /* \"#utility.yul\":4914:5045   */\n      tag_129\n        /* \"#utility.yul\":5040:5044   */\n      dup2\n        /* \"#utility.yul\":4914:5045   */\n      tag_105\n      jump\t// in\n    tag_129:\n        /* \"#utility.yul\":4906:5045   */\n      swap1\n      pop\n        /* \"#utility.yul\":4633:5052   */\n      swap2\n      swap1\n      pop\n      jump\t// out\n        /* \"#utility.yul\":5058:5477   */\n    tag_30:\n        /* \"#utility.yul\":5224:5228   */\n      0x00\n        /* \"#utility.yul\":5262:5264   */\n      0x20\n        /* \"#utility.yul\":5251:5260   */\n      dup3\n        /* \"#utility.yul\":5247:5265   */\n      add\n        /* \"#utility.yul\":5239:5265   */\n      swap1\n      pop\n        /* \"#utility.yul\":5311:5320   */\n      dup2\n        /* \"#utility.yul\":5305:5309   */\n      dup2\n        /* \"#utility.yul\":5301:5321   */\n      sub\n        /* \"#utility.yul\":5297:5298   */\n      0x00\n        /* \"#utility.yul\":5286:5295   */\n      dup4\n        /* \"#utility.yul\":5282:5299   */\n      add\n        /* \"#utility.yul\":5275:5322   */\n      mstore\n        /* \"#utility.yul\":5339:5470   */\n      tag_131\n        /* \"#utility.yul\":5465:5469   */\n      dup2\n        /* \"#utility.yul\":5339:5470   */\n      tag_110\n      jump\t// in\n    tag_131:\n        /* \"#utility.yul\":5331:5470   */\n      swap1\n      pop\n        /* \"#utility.yul\":5058:5477   */\n      swap2\n      swap1\n      pop\n      jump\t// out\n        /* \"#utility.yul\":5483:5902   */\n    tag_44:\n        /* \"#utility.yul\":5649:5653   */\n      0x00\n        /* \"#utility.yul\":5687:5689   */\n      0x20\n        /* \"#utility.yul\":5676:5685   */\n      dup3\n        /* \"#utility.yul\":5672:5690   */\n      add\n        /* \"#utility.yul\":5664:5690   */\n      swap1\n      pop\n        /* \"#utility.yul\":5736:5745   */\n      dup2\n        /* \"#utility.yul\":5730:5734   */\n      dup2\n        /* \"#utility.yul\":5726:5746   */\n      sub\n        /* \"#utility.yul\":5722:5723   */\n      0x00\n        /* \"#utility.yul\":5711:5720   */\n      dup4\n        /* \"#utility.yul\":5707:5724   */\n      add\n        /* \"#utility.yul\":5700:5747   */\n      mstore\n        /* \"#utility.yul\":5764:5895   */\n      tag_133\n        /* \"#utility.yul\":5890:5894   */\n      dup2\n        /* \"#utility.yul\":5764:5895   */\n      tag_115\n      jump\t// in\n    tag_133:\n        /* \"#utility.yul\":5756:5895   */\n      swap1\n      pop\n        /* \"#utility.yul\":5483:5902   */\n      swap2\n      swap1\n      pop\n      jump\t// out\n        /* \"#utility.yul\":5908:6130   */\n    tag_12:\n        /* \"#utility.yul\":6001:6005   */\n      0x00\n        /* \"#utility.yul\":6039:6041   */\n      0x20\n        /* \"#utility.yul\":6028:6037   */\n      dup3\n        /* \"#utility.yul\":6024:6042   */\n      add\n        /* \"#utility.yul\":6016:6042   */\n      swap1\n      pop\n        /* \"#utility.yul\":6052:6123   */\n      tag_135\n        /* \"#utility.yul\":6120:6121   */\n      0x00\n        /* \"#utility.yul\":6109:6118   */\n      dup4\n        /* \"#utility.yul\":6105:6122   */\n      add\n        /* \"#utility.yul\":6096:6102   */\n      dup5\n        /* \"#utility.yul\":6052:6123   */\n      tag_120\n      jump\t// in\n    tag_135:\n        /* \"#utility.yul\":5908:6130   */\n      swap3\n      swap2\n      pop\n      pop\n      jump\t// out\n        /* \"#utility.yul\":6136:6265   */\n    tag_56:\n        /* \"#utility.yul\":6170:6176   */\n      0x00\n        /* \"#utility.yul\":6197:6217   */\n      tag_137\n      tag_138\n      jump\t// in\n    tag_137:\n        /* \"#utility.yul\":6187:6217   */\n      swap1\n      pop\n        /* \"#utility.yul\":6226:6259   */\n      tag_139\n        /* \"#utility.yul\":6254:6258   */\n      dup3\n        /* \"#utility.yul\":6246:6252   */\n      dup3\n        /* \"#utility.yul\":6226:6259   */\n      tag_140\n      jump\t// in\n    tag_139:\n        /* \"#utility.yul\":6136:6265   */\n      swap2\n      swap1\n      pop\n      jump\t// out\n        /* \"#utility.yul\":6271:6346   */\n    tag_138:\n        /* \"#utility.yul\":6304:6310   */\n      0x00\n        /* \"#utility.yul\":6337:6339   */\n      0x40\n        /* \"#utility.yul\":6331:6340   */\n      mload\n        /* \"#utility.yul\":6321:6340   */\n      swap1\n      pop\n        /* \"#utility.yul\":6271:6346   */\n      swap1\n      jump\t// out\n        /* \"#utility.yul\":6352:6660   */\n    tag_55:\n        /* \"#utility.yul\":6414:6418   */\n      0x00\n        /* \"#utility.yul\":6504:6522   */\n      0xffffffffffffffff\n        /* \"#utility.yul\":6496:6502   */\n      dup3\n        /* \"#utility.yul\":6493:6523   */\n      gt\n        /* \"#utility.yul\":6490:6546   */\n      iszero\n      tag_143\n      jumpi\n        /* \"#utility.yul\":6526:6544   */\n      tag_144\n      tag_145\n      jump\t// in\n    tag_144:\n        /* \"#utility.yul\":6490:6546   */\n    tag_143:\n        /* \"#utility.yul\":6564:6593   */\n      tag_146\n        /* \"#utility.yul\":6586:6592   */\n      dup3\n        /* \"#utility.yul\":6564:6593   */\n      tag_104\n      jump\t// in\n    tag_146:\n        /* \"#utility.yul\":6556:6593   */\n      swap1\n      pop\n        /* \"#utility.yul\":6648:6652   */\n      0x20\n        /* \"#utility.yul\":6642:6646   */\n      dup2\n        /* \"#utility.yul\":6638:6653   */\n      add\n        /* \"#utility.yul\":6630:6653   */\n      swap1\n      pop\n        /* \"#utility.yul\":6352:6660   */\n      swap2\n      swap1\n      pop\n      jump\t// out\n        /* \"#utility.yul\":6666:6765   */\n    tag_98:\n        /* \"#utility.yul\":6718:6724   */\n      0x00\n        /* \"#utility.yul\":6752:6757   */\n      dup2\n        /* \"#utility.yul\":6746:6758   */\n      mload\n        /* \"#utility.yul\":6736:6758   */\n      swap1\n      pop\n        /* \"#utility.yul\":6666:6765   */\n      swap2\n      swap1\n      pop\n      jump\t// out\n        /* \"#utility.yul\":6771:6940   */\n    tag_100:\n        /* \"#utility.yul\":6855:6866   */\n      0x00\n        /* \"#utility.yul\":6889:6895   */\n      dup3\n        /* \"#utility.yul\":6884:6887   */\n      dup3\n        /* \"#utility.yul\":6877:6896   */\n      mstore\n        /* \"#utility.yul\":6929:6933   */\n      0x20\n        /* \"#utility.yul\":6924:6927   */\n      dup3\n        /* \"#utility.yul\":6920:6934   */\n      add\n        /* \"#utility.yul\":6905:6934   */\n      swap1\n      pop\n        /* \"#utility.yul\":6771:6940   */\n      swap3\n      swap2\n      pop\n      pop\n      jump\t// out\n        /* \"#utility.yul\":6946:7251   */\n    tag_47:\n        /* \"#utility.yul\":6986:6989   */\n      0x00\n        /* \"#utility.yul\":7005:7025   */\n      tag_150\n        /* \"#utility.yul\":7023:7024   */\n      dup3\n        /* \"#utility.yul\":7005:7025   */\n      tag_123\n      jump\t// in\n    tag_150:\n        /* \"#utility.yul\":7000:7025   */\n      swap2\n      pop\n        /* \"#utility.yul\":7039:7059   */\n      tag_151\n        /* \"#utility.yul\":7057:7058   */\n      dup4\n        /* \"#utility.yul\":7039:7059   */\n      tag_123\n      jump\t// in\n    tag_151:\n        /* \"#utility.yul\":7034:7059   */\n      swap3\n      pop\n        /* \"#utility.yul\":7193:7194   */\n      dup3\n        /* \"#utility.yul\":7125:7191   */\n      0xffffffffffffffffffffffffffffffffffffffffffffffffffffffffffffffff\n        /* \"#utility.yul\":7121:7195   */\n      sub\n        /* \"#utility.yul\":7118:7119   */\n      dup3\n        /* \"#utility.yul\":7115:7196   */\n      gt\n        /* \"#utility.yul\":7112:7219   */\n      iszero\n      tag_152\n      jumpi\n        /* \"#utility.yul\":7199:7217   */\n      tag_153\n      tag_154\n      jump\t// in\n    tag_153:\n        /* \"#utility.yul\":7112:7219   */\n    tag_152:\n        /* \"#utility.yul\":7243:7244   */\n      dup3\n        /* \"#utility.yul\":7240:7241   */\n      dup3\n        /* \"#utility.yul\":7236:7245   */\n      add\n        /* \"#utility.yul\":7229:7245   */\n      swap1\n      pop\n        /* \"#utility.yul\":6946:7251   */\n      swap3\n      swap2\n      pop\n      pop\n      jump\t// out\n        /* \"#utility.yul\":7257:7448   */\n    tag_40:\n        /* \"#utility.yul\":7297:7301   */\n      0x00\n        /* \"#utility.yul\":7317:7337   */\n      tag_156\n        /* \"#utility.yul\":7335:7336   */\n      dup3\n        /* \"#utility.yul\":7317:7337   */\n      tag_123\n      jump\t// in\n    tag_156:\n        /* \"#utility.yul\":7312:7337   */\n      swap2\n      pop\n        /* \"#utility.yul\":7351:7371   */\n      tag_157\n        /* \"#utility.yul\":7369:7370   */\n      dup4\n        /* \"#utility.yul\":7351:7371   */\n      tag_123\n      jump\t// in\n    tag_157:\n        /* \"#utility.yul\":7346:7371   */\n      swap3\n      pop\n        /* \"#utility.yul\":7390:7391   */\n      dup3\n        /* \"#utility.yul\":7387:7388   */\n      dup3\n        /* \"#utility.yul\":7384:7392   */\n      lt\n        /* \"#utility.yul\":7381:7415   */\n      iszero\n      tag_158\n      jumpi\n        /* \"#utility.yul\":7395:7413   */\n      tag_159\n      tag_154\n      jump\t// in\n    tag_159:\n        /* \"#utility.yul\":7381:7415   */\n    tag_158:\n        /* \"#utility.yul\":7440:7441   */\n      dup3\n        /* \"#utility.yul\":7437:7438   */\n      dup3\n        /* \"#utility.yul\":7433:7442   */\n      sub\n        /* \"#utility.yul\":7425:7442   */\n      swap1\n      pop\n        /* \"#utility.yul\":7257:7448   */\n      swap3\n      swap2\n      pop\n      pop\n      jump\t// out\n        /* \"#utility.yul\":7454:7550   */\n    tag_94:\n        /* \"#utility.yul\":7491:7498   */\n      0x00\n        /* \"#utility.yul\":7520:7544   */\n      tag_161\n        /* \"#utility.yul\":7538:7543   */\n      dup3\n        /* \"#utility.yul\":7520:7544   */\n      tag_162\n      jump\t// in\n    tag_161:\n        /* \"#utility.yul\":7509:7544   */\n      swap1\n      pop\n        /* \"#utility.yul\":7454:7550   */\n      swap2\n      swap1\n      pop\n      jump\t// out\n        /* \"#utility.yul\":7556:7682   */\n    tag_162:\n        /* \"#utility.yul\":7593:7600   */\n      0x00\n        /* \"#utility.yul\":7633:7675   */\n      0xffffffffffffffffffffffffffffffffffffffff\n        /* \"#utility.yul\":7626:7631   */\n      dup3\n        /* \"#utility.yul\":7622:7676   */\n      and\n        /* \"#utility.yul\":7611:7676   */\n      swap1\n      pop\n        /* \"#utility.yul\":7556:7682   */\n      swap2\n      swap1\n      pop\n      jump\t// out\n        /* \"#utility.yul\":7688:7765   */\n    tag_123:\n        /* \"#utility.yul\":7725:7732   */\n      0x00\n        /* \"#utility.yul\":7754:7759   */\n      dup2\n        /* \"#utility.yul\":7743:7759   */\n      swap1\n      pop\n        /* \"#utility.yul\":7688:7765   */\n      swap2\n      swap1\n      pop\n      jump\t// out\n        /* \"#utility.yul\":7771:7925   */\n    tag_61:\n        /* \"#utility.yul\":7855:7861   */\n      dup3\n        /* \"#utility.yul\":7850:7853   */\n      dup2\n        /* \"#utility.yul\":7845:7848   */\n      dup4\n        /* \"#utility.yul\":7832:7862   */\n      calldatacopy\n        /* \"#utility.yul\":7917:7918   */\n      0x00\n        /* \"#utility.yul\":7908:7914   */\n      dup4\n        /* \"#utility.yul\":7903:7906   */\n      dup4\n        /* \"#utility.yul\":7899:7915   */\n      add\n        /* \"#utility.yul\":7892:7919   */\n      mstore\n        /* \"#utility.yul\":7771:7925   */\n      pop\n      pop\n      pop\n      jump\t// out\n        /* \"#utility.yul\":7931:8238   */\n    tag_102:\n        /* \"#utility.yul\":7999:8000   */\n      0x00\n        /* \"#utility.yul\":8009:8122   */\n    tag_167:\n        /* \"#utility.yul\":8023:8029   */\n      dup4\n        /* \"#utility.yul\":8020:8021   */\n      dup2\n        /* \"#utility.yul\":8017:8030   */\n      lt\n        /* \"#utility.yul\":8009:8122   */\n      iszero\n      tag_169\n      jumpi\n        /* \"#utility.yul\":8108:8109   */\n      dup1\n        /* \"#utility.yul\":8103:8106   */\n      dup3\n        /* \"#utility.yul\":8099:8110   */\n      add\n        /* \"#utility.yul\":8093:8111   */\n      mload\n        /* \"#utility.yul\":8089:8090   */\n      dup2\n        /* \"#utility.yul\":8084:8087   */\n      dup5\n        /* \"#utility.yul\":8080:8091   */\n      add\n        /* \"#utility.yul\":8073:8112   */\n      mstore\n        /* \"#utility.yul\":8045:8047   */\n      0x20\n        /* \"#utility.yul\":8042:8043   */\n      dup2\n        /* \"#utility.yul\":8038:8048   */\n      add\n        /* \"#utility.yul\":8033:8048   */\n      swap1\n      pop\n        /* \"#utility.yul\":8009:8122   */\n      jump(tag_167)\n    tag_169:\n        /* \"#utility.yul\":8140:8146   */\n      dup4\n        /* \"#utility.yul\":8137:8138   */\n      dup2\n        /* \"#utility.yul\":8134:8147   */\n      gt\n        /* \"#utility.yul\":8131:8232   */\n      iszero\n      tag_170\n      jumpi\n        /* \"#utility.yul\":8220:8221   */\n      0x00\n        /* \"#utility.yul\":8211:8217   */\n      dup5\n        /* \"#utility.yul\":8206:8209   */\n      dup5\n        /* \"#utility.yul\":8202:8218   */\n      add\n        /* \"#utility.yul\":8195:8222   */\n      mstore\n        /* \"#utility.yul\":8131:8232   */\n    tag_170:\n        /* \"#utility.yul\":7980:8238   */\n      pop\n        /* \"#utility.yul\":7931:8238   */\n      pop\n      pop\n      pop\n      jump\t// out\n        /* \"#utility.yul\":8244:8525   */\n    tag_140:\n        /* \"#utility.yul\":8327:8354   */\n      tag_172\n        /* \"#utility.yul\":8349:8353   */\n      dup3\n        /* \"#utility.yul\":8327:8354   */\n      tag_104\n      jump\t// in\n    tag_172:\n        /* \"#utility.yul\":8319:8325   */\n      dup2\n        /* \"#utility.yul\":8315:8355   */\n      add\n        /* \"#utility.yul\":8457:8463   */\n      dup2\n        /* \"#utility.yul\":8445:8455   */\n      dup2\n        /* \"#utility.yul\":8442:8464   */\n      lt\n        /* \"#utility.yul\":8421:8439   */\n      0xffffffffffffffff\n        /* \"#utility.yul\":8409:8419   */\n      dup3\n        /* \"#utility.yul\":8406:8440   */\n      gt\n        /* \"#utility.yul\":8403:8465   */\n      or\n        /* \"#utility.yul\":8400:8488   */\n      iszero\n      tag_173\n      jumpi\n        /* \"#utility.yul\":8468:8486   */\n      tag_174\n      tag_145\n      jump\t// in\n    tag_174:\n        /* \"#utility.yul\":8400:8488   */\n    tag_173:\n        /* \"#utility.yul\":8508:8518   */\n      dup1\n        /* \"#utility.yul\":8504:8506   */\n      0x40\n        /* \"#utility.yul\":8497:8519   */\n      mstore\n        /* \"#utility.yul\":8287:8525   */\n      pop\n        /* \"#utility.yul\":8244:8525   */\n      pop\n      pop\n      jump\t// out\n        /* \"#utility.yul\":8531:8711   */\n    tag_154:\n        /* \"#utility.yul\":8579:8656   */\n      0x4e487b7100000000000000000000000000000000000000000000000000000000\n        /* \"#utility.yul\":8576:8577   */\n      0x00\n        /* \"#utility.yul\":8569:8657   */\n      mstore\n        /* \"#utility.yul\":8676:8680   */\n      0x11\n        /* \"#utility.yul\":8673:8674   */\n      0x04\n        /* \"#utility.yul\":8666:8681   */\n      mstore\n        /* \"#utility.yul\":8700:8704   */\n      0x24\n        /* \"#utility.yul\":8697:8698   */\n      0x00\n        /* \"#utility.yul\":8690:8705   */\n      revert\n        /* \"#utility.yul\":8717:8897   */\n    tag_145:\n        /* \"#utility.yul\":8765:8842   */\n      0x4e487b7100000000000000000000000000000000000000000000000000000000\n        /* \"#utility.yul\":8762:8763   */\n      0x00\n        /* \"#utility.yul\":8755:8843   */\n      mstore\n        /* \"#utility.yul\":8862:8866   */\n      0x41\n        /* \"#utility.yul\":8859:8860   */\n      0x04\n        /* \"#utility.yul\":8852:8867   */\n      mstore\n        /* \"#utility.yul\":8886:8890   */\n      0x24\n        /* \"#utility.yul\":8883:8884   */\n      0x00\n        /* \"#utility.yul\":8876:8891   */\n      revert\n        /* \"#utility.yul\":8903:9020   */\n    tag_70:\n        /* \"#utility.yul\":9012:9013   */\n      0x00\n        /* \"#utility.yul\":9009:9010   */\n      dup1\n        /* \"#utility.yul\":9002:9014   */\n      revert\n        /* \"#utility.yul\":9026:9143   */\n    tag_59:\n        /* \"#utility.yul\":9135:9136   */\n      0x00\n        /* \"#utility.yul\":9132:9133   */\n      dup1\n        /* \"#utility.yul\":9125:9137   */\n      revert\n        /* \"#utility.yul\":9149:9266   */\n    tag_89:\n        /* \"#utility.yul\":9258:9259   */\n      0x00\n        /* \"#utility.yul\":9255:9256   */\n      dup1\n        /* \"#utility.yul\":9248:9260   */\n      revert\n        /* \"#utility.yul\":9272:9389   */\n    tag_79:\n        /* \"#utility.yul\":9381:9382   */\n      0x00\n        /* \"#utility.yul\":9378:9379   */\n      dup1\n        /* \"#utility.yul\":9371:9383   */\n      revert\n        /* \"#utility.yul\":9395:9497   */\n    tag_104:\n        /* \"#utility.yul\":9436:9442   */\n      0x00\n        /* \"#utility.yul\":9487:9489   */\n      0x1f\n        /* \"#utility.yul\":9483:9490   */\n      not\n        /* \"#utility.yul\":9478:9480   */\n      0x1f\n        /* \"#utility.yul\":9471:9476   */\n      dup4\n        /* \"#utility.yul\":9467:9481   */\n      add\n        /* \"#utility.yul\":9463:9491   */\n      and\n        /* \"#utility.yul\":9453:9491   */\n      swap1\n      pop\n        /* \"#utility.yul\":9395:9497   */\n      swap2\n      swap1\n      pop\n      jump\t// out\n        /* \"#utility.yul\":9503:9668   */\n    tag_109:\n        /* \"#utility.yul\":9643:9660   */\n      0x4e6f20656e6f7567682066756e64730000000000000000000000000000000000\n        /* \"#utility.yul\":9639:9640   */\n      0x00\n        /* \"#utility.yul\":9631:9637   */\n      dup3\n        /* \"#utility.yul\":9627:9641   */\n      add\n        /* \"#utility.yul\":9620:9661   */\n      mstore\n        /* \"#utility.yul\":9503:9668   */\n      pop\n      jump\t// out\n        /* \"#utility.yul\":9674:9835   */\n    tag_114:\n        /* \"#utility.yul\":9814:9827   */\n      0x4e6f7420416c6c6f776564000000000000000000000000000000000000000000\n        /* \"#utility.yul\":9810:9811   */\n      0x00\n        /* \"#utility.yul\":9802:9808   */\n      dup3\n        /* \"#utility.yul\":9798:9812   */\n      add\n        /* \"#utility.yul\":9791:9828   */\n      mstore\n        /* \"#utility.yul\":9674:9835   */\n      pop\n      jump\t// out\n        /* \"#utility.yul\":9841:10008   */\n    tag_119:\n        /* \"#utility.yul\":9981:10000   */\n      0x596f7520617265206e6f74206f776e6572000000000000000000000000000000\n        /* \"#utility.yul\":9977:9978   */\n      0x00\n        /* \"#utility.yul\":9969:9975   */\n      dup3\n        /* \"#utility.yul\":9965:9979   */\n      add\n        /* \"#utility.yul\":9958:10001   */\n      mstore\n        /* \"#utility.yul\":9841:10008   */\n      pop\n      jump\t// out\n        /* \"#utility.yul\":10014:10136   */\n    tag_65:\n        /* \"#utility.yul\":10087:10111   */\n      tag_186\n        /* \"#utility.yul\":10105:10110   */\n      dup2\n        /* \"#utility.yul\":10087:10111   */\n      tag_94\n      jump\t// in\n    tag_186:\n        /* \"#utility.yul\":10080:10085   */\n      dup2\n        /* \"#utility.yul\":10077:10112   */\n      eq\n        /* \"#utility.yul\":10067:10130   */\n      tag_187\n      jumpi\n        /* \"#utility.yul\":10126:10127   */\n      0x00\n        /* \"#utility.yul\":10123:10124   */\n      dup1\n        /* \"#utility.yul\":10116:10128   */\n      revert\n        /* \"#utility.yul\":10067:10130   */\n    tag_187:\n        /* \"#utility.yul\":10014:10136   */\n      pop\n      jump\t// out\n        /* \"#utility.yul\":10142:10264   */\n    tag_75:\n        /* \"#utility.yul\":10215:10239   */\n      tag_189\n        /* \"#utility.yul\":10233:10238   */\n      dup2\n        /* \"#utility.yul\":10215:10239   */\n      tag_123\n      jump\t// in\n    tag_189:\n        /* \"#utility.yul\":10208:10213   */\n      dup2\n        /* \"#utility.yul\":10205:10240   */\n      eq\n        /* \"#utility.yul\":10195:10258   */\n      tag_190\n      jumpi\n        /* \"#utility.yul\":10254:10255   */\n      0x00\n        /* \"#utility.yul\":10251:10252   */\n      dup1\n        /* \"#utility.yul\":10244:10256   */\n      revert\n        /* \"#utility.yul\":10195:10258   */\n    tag_190:\n        /* \"#utility.yul\":10142:10264   */\n      pop\n      jump\t// out\n\n    auxdata: 0xa264697066735822122049b7bf5f687776b3df7cb83fca55ec7013954583c488e5dbe577d6a0d47cfb5264736f6c63430008070033\n}\n",
				"bytecode": {
					"linkReferences": {},
					"object": "608060405234801561001057600080fd5b50336000806101000a81548173ffffffffffffffffffffffffffffffffffffffff021916908373ffffffffffffffffffffffffffffffffffffffff160217905550610968806100606000396000f3fe6080604052600436106100385760003560e01c806315e9977e146100445780638d942a801461006f578063f3c40c4b146100985761003f565b3661003f57005b600080fd5b34801561005057600080fd5b506100596100c1565b6040516100669190610640565b60405180910390f35b34801561007b57600080fd5b5061009660048036038101906100919190610473565b6100c9565b005b3480156100a457600080fd5b506100bf60048036038101906100ba9190610433565b61024a565b005b600047905090565b816100d2610332565b8061011c575080600160003373ffffffffffffffffffffffffffffffffffffffff1673ffffffffffffffffffffffffffffffffffffffff1681526020019081526020016000205410155b61015b576040517f08c379a000000000000000000000000000000000000000000000000000000000815260040161015290610600565b60405180910390fd5b7fa1f2e8aa7ff0c088860d7b3f0d1dc288d8e8a07808525cc31a5691f1bc0e149d84848460405161018e939291906105a2565b60405180910390a1824710156101d9576040517f08c379a00000000000000000000000000000000000000000000000000000000081526004016101d0906105e0565b60405180910390fd5b600015156101e5610332565b151514156102445782600160003373ffffffffffffffffffffffffffffffffffffffff1673ffffffffffffffffffffffffffffffffffffffff168152602001908152602001600020600082825461023c9190610723565b925050819055505b50505050565b3373ffffffffffffffffffffffffffffffffffffffff1660008054906101000a900473ffffffffffffffffffffffffffffffffffffffff1673ffffffffffffffffffffffffffffffffffffffff16146102d8576040517f08c379a00000000000000000000000000000000000000000000000000000000081526004016102cf90610620565b60405180910390fd5b80600160008473ffffffffffffffffffffffffffffffffffffffff1673ffffffffffffffffffffffffffffffffffffffff168152602001908152602001600020600082825461032791906106cd565b925050819055505050565b60003373ffffffffffffffffffffffffffffffffffffffff1660008054906101000a900473ffffffffffffffffffffffffffffffffffffffff1673ffffffffffffffffffffffffffffffffffffffff1614156103915760019050610396565b600090505b90565b60006103ac6103a784610680565b61065b565b9050828152602081018484840111156103c8576103c7610869565b5b6103d3848285610793565b509392505050565b6000813590506103ea81610904565b92915050565b600082601f83011261040557610404610864565b5b8135610415848260208601610399565b91505092915050565b60008135905061042d8161091b565b92915050565b6000806040838503121561044a57610449610873565b5b6000610458858286016103db565b92505060206104698582860161041e565b9150509250929050565b60008060006060848603121561048c5761048b610873565b5b600061049a868287016103db565b93505060206104ab8682870161041e565b925050604084013567ffffffffffffffff8111156104cc576104cb61086e565b5b6104d8868287016103f0565b9150509250925092565b6104eb81610757565b82525050565b60006104fc826106b1565b61050681856106bc565b93506105168185602086016107a2565b61051f81610878565b840191505092915050565b6000610537600f836106bc565b915061054282610889565b602082019050919050565b600061055a600b836106bc565b9150610565826108b2565b602082019050919050565b600061057d6011836106bc565b9150610588826108db565b602082019050919050565b61059c81610789565b82525050565b60006060820190506105b760008301866104e2565b6105c46020830185610593565b81810360408301526105d681846104f1565b9050949350505050565b600060208201905081810360008301526105f98161052a565b9050919050565b600060208201905081810360008301526106198161054d565b9050919050565b6000602082019050818103600083015261063981610570565b9050919050565b60006020820190506106556000830184610593565b92915050565b6000610665610676565b905061067182826107d5565b919050565b6000604051905090565b600067ffffffffffffffff82111561069b5761069a610835565b5b6106a482610878565b9050602081019050919050565b600081519050919050565b600082825260208201905092915050565b60006106d882610789565b91506106e383610789565b9250827fffffffffffffffffffffffffffffffffffffffffffffffffffffffffffffffff0382111561071857610717610806565b5b828201905092915050565b600061072e82610789565b915061073983610789565b92508282101561074c5761074b610806565b5b828203905092915050565b600061076282610769565b9050919050565b600073ffffffffffffffffffffffffffffffffffffffff82169050919050565b6000819050919050565b82818337600083830152505050565b60005b838110156107c05780820151818401526020810190506107a5565b838111156107cf576000848401525b50505050565b6107de82610878565b810181811067ffffffffffffffff821117156107fd576107fc610835565b5b80604052505050565b7f4e487b7100000000000000000000000000000000000000000000000000000000600052601160045260246000fd5b7f4e487b7100000000000000000000000000000000000000000000000000000000600052604160045260246000fd5b600080fd5b600080fd5b600080fd5b600080fd5b6000601f19601f8301169050919050565b7f4e6f20656e6f7567682066756e64730000000000000000000000000000000000600082015250565b7f4e6f7420416c6c6f776564000000000000000000000000000000000000000000600082015250565b7f596f7520617265206e6f74206f776e6572000000000000000000000000000000600082015250565b61090d81610757565b811461091857600080fd5b50565b61092481610789565b811461092f57600080fd5b5056fea264697066735822122049b7bf5f687776b3df7cb83fca55ec7013954583c488e5dbe577d6a0d47cfb5264736f6c63430008070033",
					"opcodes": "PUSH1 0x80 PUSH1 0x40 MSTORE CALLVALUE DUP1 ISZERO PUSH2 0x10 JUMPI PUSH1 0x0 DUP1 REVERT JUMPDEST POP CALLER PUSH1 0x0 DUP1 PUSH2 0x100 EXP DUP2 SLOAD DUP2 PUSH20 0xFFFFFFFFFFFFFFFFFFFFFFFFFFFFFFFFFFFFFFFF MUL NOT AND SWAP1 DUP4 PUSH20 0xFFFFFFFFFFFFFFFFFFFFFFFFFFFFFFFFFFFFFFFF AND MUL OR SWAP1 SSTORE POP PUSH2 0x968 DUP1 PUSH2 0x60 PUSH1 0x0 CODECOPY PUSH1 0x0 RETURN INVALID PUSH1 0x80 PUSH1 0x40 MSTORE PUSH1 0x4 CALLDATASIZE LT PUSH2 0x38 JUMPI PUSH1 0x0 CALLDATALOAD PUSH1 0xE0 SHR DUP1 PUSH4 0x15E9977E EQ PUSH2 0x44 JUMPI DUP1 PUSH4 0x8D942A80 EQ PUSH2 0x6F JUMPI DUP1 PUSH4 0xF3C40C4B EQ PUSH2 0x98 JUMPI PUSH2 0x3F JUMP JUMPDEST CALLDATASIZE PUSH2 0x3F JUMPI STOP JUMPDEST PUSH1 0x0 DUP1 REVERT JUMPDEST CALLVALUE DUP1 ISZERO PUSH2 0x50 JUMPI PUSH1 0x0 DUP1 REVERT JUMPDEST POP PUSH2 0x59 PUSH2 0xC1 JUMP JUMPDEST PUSH1 0x40 MLOAD PUSH2 0x66 SWAP2 SWAP1 PUSH2 0x640 JUMP JUMPDEST PUSH1 0x40 MLOAD DUP1 SWAP2 SUB SWAP1 RETURN JUMPDEST CALLVALUE DUP1 ISZERO PUSH2 0x7B JUMPI PUSH1 0x0 DUP1 REVERT JUMPDEST POP PUSH2 0x96 PUSH1 0x4 DUP1 CALLDATASIZE SUB DUP2 ADD SWAP1 PUSH2 0x91 SWAP2 SWAP1 PUSH2 0x473 JUMP JUMPDEST PUSH2 0xC9 JUMP JUMPDEST STOP JUMPDEST CALLVALUE DUP1 ISZERO PUSH2 0xA4 JUMPI PUSH1 0x0 DUP1 REVERT JUMPDEST POP PUSH2 0xBF PUSH1 0x4 DUP1 CALLDATASIZE SUB DUP2 ADD SWAP1 PUSH2 0xBA SWAP2 SWAP1 PUSH2 0x433 JUMP JUMPDEST PUSH2 0x24A JUMP JUMPDEST STOP JUMPDEST PUSH1 0x0 SELFBALANCE SWAP1 POP SWAP1 JUMP JUMPDEST DUP2 PUSH2 0xD2 PUSH2 0x332 JUMP JUMPDEST DUP1 PUSH2 0x11C JUMPI POP DUP1 PUSH1 0x1 PUSH1 0x0 CALLER PUSH20 0xFFFFFFFFFFFFFFFFFFFFFFFFFFFFFFFFFFFFFFFF AND PUSH20 0xFFFFFFFFFFFFFFFFFFFFFFFFFFFFFFFFFFFFFFFF AND DUP2 MSTORE PUSH1 0x20 ADD SWAP1 DUP2 MSTORE PUSH1 0x20 ADD PUSH1 0x0 KECCAK256 SLOAD LT ISZERO JUMPDEST PUSH2 0x15B JUMPI PUSH1 0x40 MLOAD PUSH32 0x8C379A000000000000000000000000000000000000000000000000000000000 DUP2 MSTORE PUSH1 0x4 ADD PUSH2 0x152 SWAP1 PUSH2 0x600 JUMP JUMPDEST PUSH1 0x40 MLOAD DUP1 SWAP2 SUB SWAP1 REVERT JUMPDEST PUSH32 0xA1F2E8AA7FF0C088860D7B3F0D1DC288D8E8A07808525CC31A5691F1BC0E149D DUP5 DUP5 DUP5 PUSH1 0x40 MLOAD PUSH2 0x18E SWAP4 SWAP3 SWAP2 SWAP1 PUSH2 0x5A2 JUMP JUMPDEST PUSH1 0x40 MLOAD DUP1 SWAP2 SUB SWAP1 LOG1 DUP3 SELFBALANCE LT ISZERO PUSH2 0x1D9 JUMPI PUSH1 0x40 MLOAD PUSH32 0x8C379A000000000000000000000000000000000000000000000000000000000 DUP2 MSTORE PUSH1 0x4 ADD PUSH2 0x1D0 SWAP1 PUSH2 0x5E0 JUMP JUMPDEST PUSH1 0x40 MLOAD DUP1 SWAP2 SUB SWAP1 REVERT JUMPDEST PUSH1 0x0 ISZERO ISZERO PUSH2 0x1E5 PUSH2 0x332 JUMP JUMPDEST ISZERO ISZERO EQ ISZERO PUSH2 0x244 JUMPI DUP3 PUSH1 0x1 PUSH1 0x0 CALLER PUSH20 0xFFFFFFFFFFFFFFFFFFFFFFFFFFFFFFFFFFFFFFFF AND PUSH20 0xFFFFFFFFFFFFFFFFFFFFFFFFFFFFFFFFFFFFFFFF AND DUP2 MSTORE PUSH1 0x20 ADD SWAP1 DUP2 MSTORE PUSH1 0x20 ADD PUSH1 0x0 KECCAK256 PUSH1 0x0 DUP3 DUP3 SLOAD PUSH2 0x23C SWAP2 SWAP1 PUSH2 0x723 JUMP JUMPDEST SWAP3 POP POP DUP2 SWAP1 SSTORE POP JUMPDEST POP POP POP POP JUMP JUMPDEST CALLER PUSH20 0xFFFFFFFFFFFFFFFFFFFFFFFFFFFFFFFFFFFFFFFF AND PUSH1 0x0 DUP1 SLOAD SWAP1 PUSH2 0x100 EXP SWAP1 DIV PUSH20 0xFFFFFFFFFFFFFFFFFFFFFFFFFFFFFFFFFFFFFFFF AND PUSH20 0xFFFFFFFFFFFFFFFFFFFFFFFFFFFFFFFFFFFFFFFF AND EQ PUSH2 0x2D8 JUMPI PUSH1 0x40 MLOAD PUSH32 0x8C379A000000000000000000000000000000000000000000000000000000000 DUP2 MSTORE PUSH1 0x4 ADD PUSH2 0x2CF SWAP1 PUSH2 0x620 JUMP JUMPDEST PUSH1 0x40 MLOAD DUP1 SWAP2 SUB SWAP1 REVERT JUMPDEST DUP1 PUSH1 0x1 PUSH1 0x0 DUP5 PUSH20 0xFFFFFFFFFFFFFFFFFFFFFFFFFFFFFFFFFFFFFFFF AND PUSH20 0xFFFFFFFFFFFFFFFFFFFFFFFFFFFFFFFFFFFFFFFF AND DUP2 MSTORE PUSH1 0x20 ADD SWAP1 DUP2 MSTORE PUSH1 0x20 ADD PUSH1 0x0 KECCAK256 PUSH1 0x0 DUP3 DUP3 SLOAD PUSH2 0x327 SWAP2 SWAP1 PUSH2 0x6CD JUMP JUMPDEST SWAP3 POP POP DUP2 SWAP1 SSTORE POP POP POP JUMP JUMPDEST PUSH1 0x0 CALLER PUSH20 0xFFFFFFFFFFFFFFFFFFFFFFFFFFFFFFFFFFFFFFFF AND PUSH1 0x0 DUP1 SLOAD SWAP1 PUSH2 0x100 EXP SWAP1 DIV PUSH20 0xFFFFFFFFFFFFFFFFFFFFFFFFFFFFFFFFFFFFFFFF AND PUSH20 0xFFFFFFFFFFFFFFFFFFFFFFFFFFFFFFFFFFFFFFFF AND EQ ISZERO PUSH2 0x391 JUMPI PUSH1 0x1 SWAP1 POP PUSH2 0x396 JUMP JUMPDEST PUSH1 0x0 SWAP1 POP JUMPDEST SWAP1 JUMP JUMPDEST PUSH1 0x0 PUSH2 0x3AC PUSH2 0x3A7 DUP5 PUSH2 0x680 JUMP JUMPDEST PUSH2 0x65B JUMP JUMPDEST SWAP1 POP DUP3 DUP2 MSTORE PUSH1 0x20 DUP2 ADD DUP5 DUP5 DUP5 ADD GT ISZERO PUSH2 0x3C8 JUMPI PUSH2 0x3C7 PUSH2 0x869 JUMP JUMPDEST JUMPDEST PUSH2 0x3D3 DUP5 DUP3 DUP6 PUSH2 0x793 JUMP JUMPDEST POP SWAP4 SWAP3 POP POP POP JUMP JUMPDEST PUSH1 0x0 DUP2 CALLDATALOAD SWAP1 POP PUSH2 0x3EA DUP2 PUSH2 0x904 JUMP JUMPDEST SWAP3 SWAP2 POP POP JUMP JUMPDEST PUSH1 0x0 DUP3 PUSH1 0x1F DUP4 ADD SLT PUSH2 0x405 JUMPI PUSH2 0x404 PUSH2 0x864 JUMP JUMPDEST JUMPDEST DUP2 CALLDATALOAD PUSH2 0x415 DUP5 DUP3 PUSH1 0x20 DUP7 ADD PUSH2 0x399 JUMP JUMPDEST SWAP2 POP POP SWAP3 SWAP2 POP POP JUMP JUMPDEST PUSH1 0x0 DUP2 CALLDATALOAD SWAP1 POP PUSH2 0x42D DUP2 PUSH2 0x91B JUMP JUMPDEST SWAP3 SWAP2 POP POP JUMP JUMPDEST PUSH1 0x0 DUP1 PUSH1 0x40 DUP4 DUP6 SUB SLT ISZERO PUSH2 0x44A JUMPI PUSH2 0x449 PUSH2 0x873 JUMP JUMPDEST JUMPDEST PUSH1 0x0 PUSH2 0x458 DUP6 DUP3 DUP7 ADD PUSH2 0x3DB JUMP JUMPDEST SWAP3 POP POP PUSH1 0x20 PUSH2 0x469 DUP6 DUP3 DUP7 ADD PUSH2 0x41E JUMP JUMPDEST SWAP2 POP POP SWAP3 POP SWAP3 SWAP1 POP JUMP JUMPDEST PUSH1 0x0 DUP1 PUSH1 0x0 PUSH1 0x60 DUP5 DUP7 SUB SLT ISZERO PUSH2 0x48C JUMPI PUSH2 0x48B PUSH2 0x873 JUMP JUMPDEST JUMPDEST PUSH1 0x0 PUSH2 0x49A DUP7 DUP3 DUP8 ADD PUSH2 0x3DB JUMP JUMPDEST SWAP4 POP POP PUSH1 0x20 PUSH2 0x4AB DUP7 DUP3 DUP8 ADD PUSH2 0x41E JUMP JUMPDEST SWAP3 POP POP PUSH1 0x40 DUP5 ADD CALLDATALOAD PUSH8 0xFFFFFFFFFFFFFFFF DUP2 GT ISZERO PUSH2 0x4CC JUMPI PUSH2 0x4CB PUSH2 0x86E JUMP JUMPDEST JUMPDEST PUSH2 0x4D8 DUP7 DUP3 DUP8 ADD PUSH2 0x3F0 JUMP JUMPDEST SWAP2 POP POP SWAP3 POP SWAP3 POP SWAP3 JUMP JUMPDEST PUSH2 0x4EB DUP2 PUSH2 0x757 JUMP JUMPDEST DUP3 MSTORE POP POP JUMP JUMPDEST PUSH1 0x0 PUSH2 0x4FC DUP3 PUSH2 0x6B1 JUMP JUMPDEST PUSH2 0x506 DUP2 DUP6 PUSH2 0x6BC JUMP JUMPDEST SWAP4 POP PUSH2 0x516 DUP2 DUP6 PUSH1 0x20 DUP7 ADD PUSH2 0x7A2 JUMP JUMPDEST PUSH2 0x51F DUP2 PUSH2 0x878 JUMP JUMPDEST DUP5 ADD SWAP2 POP POP SWAP3 SWAP2 POP POP JUMP JUMPDEST PUSH1 0x0 PUSH2 0x537 PUSH1 0xF DUP4 PUSH2 0x6BC JUMP JUMPDEST SWAP2 POP PUSH2 0x542 DUP3 PUSH2 0x889 JUMP JUMPDEST PUSH1 0x20 DUP3 ADD SWAP1 POP SWAP2 SWAP1 POP JUMP JUMPDEST PUSH1 0x0 PUSH2 0x55A PUSH1 0xB DUP4 PUSH2 0x6BC JUMP JUMPDEST SWAP2 POP PUSH2 0x565 DUP3 PUSH2 0x8B2 JUMP JUMPDEST PUSH1 0x20 DUP3 ADD SWAP1 POP SWAP2 SWAP1 POP JUMP JUMPDEST PUSH1 0x0 PUSH2 0x57D PUSH1 0x11 DUP4 PUSH2 0x6BC JUMP JUMPDEST SWAP2 POP PUSH2 0x588 DUP3 PUSH2 0x8DB JUMP JUMPDEST PUSH1 0x20 DUP3 ADD SWAP1 POP SWAP2 SWAP1 POP JUMP JUMPDEST PUSH2 0x59C DUP2 PUSH2 0x789 JUMP JUMPDEST DUP3 MSTORE POP POP JUMP JUMPDEST PUSH1 0x0 PUSH1 0x60 DUP3 ADD SWAP1 POP PUSH2 0x5B7 PUSH1 0x0 DUP4 ADD DUP7 PUSH2 0x4E2 JUMP JUMPDEST PUSH2 0x5C4 PUSH1 0x20 DUP4 ADD DUP6 PUSH2 0x593 JUMP JUMPDEST DUP2 DUP2 SUB PUSH1 0x40 DUP4 ADD MSTORE PUSH2 0x5D6 DUP2 DUP5 PUSH2 0x4F1 JUMP JUMPDEST SWAP1 POP SWAP5 SWAP4 POP POP POP POP JUMP JUMPDEST PUSH1 0x0 PUSH1 0x20 DUP3 ADD SWAP1 POP DUP2 DUP2 SUB PUSH1 0x0 DUP4 ADD MSTORE PUSH2 0x5F9 DUP2 PUSH2 0x52A JUMP JUMPDEST SWAP1 POP SWAP2 SWAP1 POP JUMP JUMPDEST PUSH1 0x0 PUSH1 0x20 DUP3 ADD SWAP1 POP DUP2 DUP2 SUB PUSH1 0x0 DUP4 ADD MSTORE PUSH2 0x619 DUP2 PUSH2 0x54D JUMP JUMPDEST SWAP1 POP SWAP2 SWAP1 POP JUMP JUMPDEST PUSH1 0x0 PUSH1 0x20 DUP3 ADD SWAP1 POP DUP2 DUP2 SUB PUSH1 0x0 DUP4 ADD MSTORE PUSH2 0x639 DUP2 PUSH2 0x570 JUMP JUMPDEST SWAP1 POP SWAP2 SWAP1 POP JUMP JUMPDEST PUSH1 0x0 PUSH1 0x20 DUP3 ADD SWAP1 POP PUSH2 0x655 PUSH1 0x0 DUP4 ADD DUP5 PUSH2 0x593 JUMP JUMPDEST SWAP3 SWAP2 POP POP JUMP JUMPDEST PUSH1 0x0 PUSH2 0x665 PUSH2 0x676 JUMP JUMPDEST SWAP1 POP PUSH2 0x671 DUP3 DUP3 PUSH2 0x7D5 JUMP JUMPDEST SWAP2 SWAP1 POP JUMP JUMPDEST PUSH1 0x0 PUSH1 0x40 MLOAD SWAP1 POP SWAP1 JUMP JUMPDEST PUSH1 0x0 PUSH8 0xFFFFFFFFFFFFFFFF DUP3 GT ISZERO PUSH2 0x69B JUMPI PUSH2 0x69A PUSH2 0x835 JUMP JUMPDEST JUMPDEST PUSH2 0x6A4 DUP3 PUSH2 0x878 JUMP JUMPDEST SWAP1 POP PUSH1 0x20 DUP2 ADD SWAP1 POP SWAP2 SWAP1 POP JUMP JUMPDEST PUSH1 0x0 DUP2 MLOAD SWAP1 POP SWAP2 SWAP1 POP JUMP JUMPDEST PUSH1 0x0 DUP3 DUP3 MSTORE PUSH1 0x20 DUP3 ADD SWAP1 POP SWAP3 SWAP2 POP POP JUMP JUMPDEST PUSH1 0x0 PUSH2 0x6D8 DUP3 PUSH2 0x789 JUMP JUMPDEST SWAP2 POP PUSH2 0x6E3 DUP4 PUSH2 0x789 JUMP JUMPDEST SWAP3 POP DUP3 PUSH32 0xFFFFFFFFFFFFFFFFFFFFFFFFFFFFFFFFFFFFFFFFFFFFFFFFFFFFFFFFFFFFFFFF SUB DUP3 GT ISZERO PUSH2 0x718 JUMPI PUSH2 0x717 PUSH2 0x806 JUMP JUMPDEST JUMPDEST DUP3 DUP3 ADD SWAP1 POP SWAP3 SWAP2 POP POP JUMP JUMPDEST PUSH1 0x0 PUSH2 0x72E DUP3 PUSH2 0x789 JUMP JUMPDEST SWAP2 POP PUSH2 0x739 DUP4 PUSH2 0x789 JUMP JUMPDEST SWAP3 POP DUP3 DUP3 LT ISZERO PUSH2 0x74C JUMPI PUSH2 0x74B PUSH2 0x806 JUMP JUMPDEST JUMPDEST DUP3 DUP3 SUB SWAP1 POP SWAP3 SWAP2 POP POP JUMP JUMPDEST PUSH1 0x0 PUSH2 0x762 DUP3 PUSH2 0x769 JUMP JUMPDEST SWAP1 POP SWAP2 SWAP1 POP JUMP JUMPDEST PUSH1 0x0 PUSH20 0xFFFFFFFFFFFFFFFFFFFFFFFFFFFFFFFFFFFFFFFF DUP3 AND SWAP1 POP SWAP2 SWAP1 POP JUMP JUMPDEST PUSH1 0x0 DUP2 SWAP1 POP SWAP2 SWAP1 POP JUMP JUMPDEST DUP3 DUP2 DUP4 CALLDATACOPY PUSH1 0x0 DUP4 DUP4 ADD MSTORE POP POP POP JUMP JUMPDEST PUSH1 0x0 JUMPDEST DUP4 DUP2 LT ISZERO PUSH2 0x7C0 JUMPI DUP1 DUP3 ADD MLOAD DUP2 DUP5 ADD MSTORE PUSH1 0x20 DUP2 ADD SWAP1 POP PUSH2 0x7A5 JUMP JUMPDEST DUP4 DUP2 GT ISZERO PUSH2 0x7CF JUMPI PUSH1 0x0 DUP5 DUP5 ADD MSTORE JUMPDEST POP POP POP POP JUMP JUMPDEST PUSH2 0x7DE DUP3 PUSH2 0x878 JUMP JUMPDEST DUP2 ADD DUP2 DUP2 LT PUSH8 0xFFFFFFFFFFFFFFFF DUP3 GT OR ISZERO PUSH2 0x7FD JUMPI PUSH2 0x7FC PUSH2 0x835 JUMP JUMPDEST JUMPDEST DUP1 PUSH1 0x40 MSTORE POP POP POP JUMP JUMPDEST PUSH32 0x4E487B7100000000000000000000000000000000000000000000000000000000 PUSH1 0x0 MSTORE PUSH1 0x11 PUSH1 0x4 MSTORE PUSH1 0x24 PUSH1 0x0 REVERT JUMPDEST PUSH32 0x4E487B7100000000000000000000000000000000000000000000000000000000 PUSH1 0x0 MSTORE PUSH1 0x41 PUSH1 0x4 MSTORE PUSH1 0x24 PUSH1 0x0 REVERT JUMPDEST PUSH1 0x0 DUP1 REVERT JUMPDEST PUSH1 0x0 DUP1 REVERT JUMPDEST PUSH1 0x0 DUP1 REVERT JUMPDEST PUSH1 0x0 DUP1 REVERT JUMPDEST PUSH1 0x0 PUSH1 0x1F NOT PUSH1 0x1F DUP4 ADD AND SWAP1 POP SWAP2 SWAP1 POP JUMP JUMPDEST PUSH32 0x4E6F20656E6F7567682066756E64730000000000000000000000000000000000 PUSH1 0x0 DUP3 ADD MSTORE POP JUMP JUMPDEST PUSH32 0x4E6F7420416C6C6F776564000000000000000000000000000000000000000000 PUSH1 0x0 DUP3 ADD MSTORE POP JUMP JUMPDEST PUSH32 0x596F7520617265206E6F74206F776E6572000000000000000000000000000000 PUSH1 0x0 DUP3 ADD MSTORE POP JUMP JUMPDEST PUSH2 0x90D DUP2 PUSH2 0x757 JUMP JUMPDEST DUP2 EQ PUSH2 0x918 JUMPI PUSH1 0x0 DUP1 REVERT JUMPDEST POP JUMP JUMPDEST PUSH2 0x924 DUP2 PUSH2 0x789 JUMP JUMPDEST DUP2 EQ PUSH2 0x92F JUMPI PUSH1 0x0 DUP1 REVERT JUMPDEST POP JUMP INVALID LOG2 PUSH5 0x6970667358 0x22 SLT KECCAK256 0x49 0xB7 0xBF 0x5F PUSH9 0x7776B3DF7CB83FCA55 0xEC PUSH17 0x13954583C488E5DBE577D6A0D47CFB5264 PUSH20 0x6F6C634300080700330000000000000000000000 "
				},
				"gasEstimates": {
					"creation": {
						"codeDepositCost": "481600",
						"executionCost": "24784",
						"totalCost": "506384"
					},
					"external": {
						"BALANCE()": "317",
						"addAllowance(address,uint256)": "infinite",
						"withDrawMoney(address,uint256,string)": "infinite"
					},
					"internal": {
						"isOwner()": "2204"
					}
				},
				"methodIdentifiers": {
					"BALANCE()": "15e9977e",
					"addAllowance(address,uint256)": "f3c40c4b",
					"withDrawMoney(address,uint256,string)": "8d942a80"
				}
			},
			"storageLayout": {
				"storage": [
					{
						"astId": 3,
						"contract": "Allowance.sol:main",
						"label": "owner",
						"offset": 0,
						"slot": "0",
						"type": "t_address"
					},
					{
						"astId": 7,
						"contract": "Allowance.sol:main",
						"label": "allowance",
						"offset": 0,
						"slot": "1",
						"type": "t_mapping(t_address,t_uint256)"
					}
				],
				"types": {
					"t_address": {
						"encoding": "inplace",
						"label": "address",
						"numberOfBytes": "20"
					},
					"t_mapping(t_address,t_uint256)": {
						"encoding": "mapping",
						"key": "t_address",
						"label": "mapping(address => uint256)",
						"numberOfBytes": "32",
						"value": "t_uint256"
					},
					"t_uint256": {
						"encoding": "inplace",
						"label": "uint256",
						"numberOfBytes": "32"
					}
				}
			},
			"userdoc": {
				"kind": "user",
				"methods": {},
				"version": 1
			}
		}
	}
}