{
	"Allowance.sol": {
		"main": {
			"abi": [
				{
					"inputs": [],
					"stateMutability": "nonpayable",
					"type": "constructor"
				},
				{
					"anonymous": false,
					"inputs": [
						{
							"indexed": false,
							"internalType": "address",
							"name": "_to",
							"type": "address"
						},
						{
							"indexed": false,
							"internalType": "uint256",
							"name": "_amount",
							"type": "uint256"
						},
						{
							"indexed": false,
							"internalType": "string",
							"name": "_description",
							"type": "string"
						}
					],
					"name": "log",
					"type": "event"
				},
				{
					"inputs": [],
					"name": "BALANCE",
					"outputs": [
						{
							"internalType": "uint256",
							"name": "",
							"type": "uint256"
						}
					],
					"stateMutability": "view",
					"type": "function"
				},
				{
					"inputs": [
						{
							"internalType": "address",
							"name": "_to",
							"type": "address"
						},
						{
							"internalType": "uint256",
							"name": "_amount",
							"type": "uint256"
						}
					],
					"name": "addAllowance",
					"outputs": [],
					"stateMutability": "nonpayable",
					"type": "function"
				},
				{
					"inputs": [
						{
							"internalType": "address payable",
							"name": "_to",
							"type": "address"
						},
						{
							"internalType": "uint256",
							"name": "_amount",
							"type": "uint256"
						},
						{
							"internalType": "string",
							"name": "_description",
							"type": "string"
						}
					],
					"name": "withdrawMoney",
					"outputs": [],
					"stateMutability": "nonpayable",
					"type": "function"
				},
				{
					"stateMutability": "payable",
					"type": "receive"
				}
			],
			"devdoc": {
				"kind": "dev",
				"methods": {},
				"version": 1
			},
			"evm": {
				"assembly": "    /* \"Allowance.sol\":59:1395  contract main{\r... */\n  mstore(0x40, 0x80)\n    /* \"Allowance.sol\":153:203  constructor(){\r... */\n  callvalue\n  dup1\n  iszero\n  tag_1\n  jumpi\n  0x00\n  dup1\n  revert\ntag_1:\n  pop\n    /* \"Allowance.sol\":185:195  msg.sender */\n  caller\n    /* \"Allowance.sol\":177:182  owner */\n  0x00\n  dup1\n    /* \"Allowance.sol\":177:195  owner = msg.sender */\n  0x0100\n  exp\n  dup2\n  sload\n  dup2\n  0xffffffffffffffffffffffffffffffffffffffff\n  mul\n  not\n  and\n  swap1\n  dup4\n  0xffffffffffffffffffffffffffffffffffffffff\n  and\n  mul\n  or\n  swap1\n  sstore\n  pop\n    /* \"Allowance.sol\":59:1395  contract main{\r... */\n  dataSize(sub_0)\n  dup1\n  dataOffset(sub_0)\n  0x00\n  codecopy\n  0x00\n  return\nstop\n\nsub_0: assembly {\n        /* \"Allowance.sol\":59:1395  contract main{\r... */\n      mstore(0x40, 0x80)\n      jumpi(tag_1, lt(calldatasize, 0x04))\n      shr(0xe0, calldataload(0x00))\n      dup1\n      0x15e9977e\n      eq\n      tag_3\n      jumpi\n      dup1\n      0x3495e901\n      eq\n      tag_4\n      jumpi\n      dup1\n      0xf3c40c4b\n      eq\n      tag_5\n      jumpi\n      jump(tag_2)\n    tag_1:\n      jumpi(tag_2, calldatasize)\n      stop\n    tag_2:\n      0x00\n      dup1\n      revert\n        /* \"Allowance.sol\":1299:1390  function BALANCE() public view returns(uint){\r... */\n    tag_3:\n      callvalue\n      dup1\n      iszero\n      tag_8\n      jumpi\n      0x00\n      dup1\n      revert\n    tag_8:\n      pop\n      tag_9\n      tag_10\n      jump\t// in\n    tag_9:\n      mload(0x40)\n      tag_11\n      swap2\n      swap1\n      tag_12\n      jump\t// in\n    tag_11:\n      mload(0x40)\n      dup1\n      swap2\n      sub\n      swap1\n      return\n        /* \"Allowance.sol\":921:1287  function withdrawMoney(address payable _to, uint _amount, string memory _description) public ownerOrAllowed(_amount) {\r... */\n    tag_4:\n      callvalue\n      dup1\n      iszero\n      tag_13\n      jumpi\n      0x00\n      dup1\n      revert\n    tag_13:\n      pop\n      tag_14\n      0x04\n      dup1\n      calldatasize\n      sub\n      dup2\n      add\n      swap1\n      tag_15\n      swap2\n      swap1\n      tag_16\n      jump\t// in\n    tag_15:\n      tag_17\n      jump\t// in\n    tag_14:\n      stop\n        /* \"Allowance.sol\":752:911  function addAllowance(address _to, uint _amount) public onlyOwner {\r... */\n    tag_5:\n      callvalue\n      dup1\n      iszero\n      tag_18\n      jumpi\n      0x00\n      dup1\n      revert\n    tag_18:\n      pop\n      tag_19\n      0x04\n      dup1\n      calldatasize\n      sub\n      dup2\n      add\n      swap1\n      tag_20\n      swap2\n      swap1\n      tag_21\n      jump\t// in\n    tag_20:\n      tag_22\n      jump\t// in\n    tag_19:\n      stop\n        /* \"Allowance.sol\":1299:1390  function BALANCE() public view returns(uint){\r... */\n    tag_10:\n        /* \"Allowance.sol\":1338:1342  uint */\n      0x00\n        /* \"Allowance.sol\":1361:1382  address(this).balance */\n      selfbalance\n        /* \"Allowance.sol\":1354:1382  return address(this).balance */\n      swap1\n      pop\n        /* \"Allowance.sol\":1299:1390  function BALANCE() public view returns(uint){\r... */\n      swap1\n      jump\t// out\n        /* \"Allowance.sol\":921:1287  function withdrawMoney(address payable _to, uint _amount, string memory _description) public ownerOrAllowed(_amount) {\r... */\n    tag_17:\n        /* \"Allowance.sol\":1029:1036  _amount */\n      dup2\n        /* \"Allowance.sol\":501:510  isOwner() */\n      tag_25\n        /* \"Allowance.sol\":501:508  isOwner */\n      tag_26\n        /* \"Allowance.sol\":501:510  isOwner() */\n      jump\t// in\n    tag_25:\n        /* \"Allowance.sol\":501:546  isOwner() || allowance[msg.sender] >= _amount */\n      dup1\n      tag_27\n      jumpi\n      pop\n        /* \"Allowance.sol\":539:546  _amount */\n      dup1\n        /* \"Allowance.sol\":514:523  allowance */\n      0x01\n        /* \"Allowance.sol\":514:535  allowance[msg.sender] */\n      0x00\n        /* \"Allowance.sol\":524:534  msg.sender */\n      caller\n        /* \"Allowance.sol\":514:535  allowance[msg.sender] */\n      0xffffffffffffffffffffffffffffffffffffffff\n      and\n      0xffffffffffffffffffffffffffffffffffffffff\n      and\n      dup2\n      mstore\n      0x20\n      add\n      swap1\n      dup2\n      mstore\n      0x20\n      add\n      0x00\n      keccak256\n      sload\n        /* \"Allowance.sol\":514:546  allowance[msg.sender] >= _amount */\n      lt\n      iszero\n        /* \"Allowance.sol\":501:546  isOwner() || allowance[msg.sender] >= _amount */\n    tag_27:\n        /* \"Allowance.sol\":493:563  require(isOwner() || allowance[msg.sender] >= _amount, \"Not Allowed\" ) */\n      tag_28\n      jumpi\n      mload(0x40)\n      0x08c379a000000000000000000000000000000000000000000000000000000000\n      dup2\n      mstore\n      0x04\n      add\n      tag_29\n      swap1\n      tag_30\n      jump\t// in\n    tag_29:\n      mload(0x40)\n      dup1\n      swap2\n      sub\n      swap1\n      revert\n    tag_28:\n        /* \"Allowance.sol\":1054:1085  log(_to, _amount, _description) */\n      0xa1f2e8aa7ff0c088860d7b3f0d1dc288d8e8a07808525cc31a5691f1bc0e149d\n        /* \"Allowance.sol\":1058:1061  _to */\n      dup5\n        /* \"Allowance.sol\":1063:1070  _amount */\n      dup5\n        /* \"Allowance.sol\":1072:1084  _description */\n      dup5\n        /* \"Allowance.sol\":1054:1085  log(_to, _amount, _description) */\n      mload(0x40)\n      tag_32\n      swap4\n      swap3\n      swap2\n      swap1\n      tag_33\n      jump\t// in\n    tag_32:\n      mload(0x40)\n      dup1\n      swap2\n      sub\n      swap1\n      log1\n        /* \"Allowance.sol\":1129:1136  _amount */\n      dup3\n        /* \"Allowance.sol\":1104:1125  address(this).balance */\n      selfbalance\n        /* \"Allowance.sol\":1104:1136  address(this).balance >= _amount */\n      lt\n      iszero\n        /* \"Allowance.sol\":1096:1156  require(address(this).balance >= _amount, \"No enough funds\") */\n      tag_34\n      jumpi\n      mload(0x40)\n      0x08c379a000000000000000000000000000000000000000000000000000000000\n      dup2\n      mstore\n      0x04\n      add\n      tag_35\n      swap1\n      tag_36\n      jump\t// in\n    tag_35:\n      mload(0x40)\n      dup1\n      swap2\n      sub\n      swap1\n      revert\n    tag_34:\n        /* \"Allowance.sol\":1183:1188  false */\n      0x00\n        /* \"Allowance.sol\":1170:1188  isOwner() == false */\n      iszero\n      iszero\n        /* \"Allowance.sol\":1170:1179  isOwner() */\n      tag_37\n        /* \"Allowance.sol\":1170:1177  isOwner */\n      tag_26\n        /* \"Allowance.sol\":1170:1179  isOwner() */\n      jump\t// in\n    tag_37:\n        /* \"Allowance.sol\":1170:1188  isOwner() == false */\n      iszero\n      iszero\n      eq\n        /* \"Allowance.sol\":1167:1248  if(isOwner() == false){\r... */\n      iszero\n      tag_38\n      jumpi\n        /* \"Allowance.sol\":1229:1236  _amount */\n      dup3\n        /* \"Allowance.sol\":1204:1213  allowance */\n      0x01\n        /* \"Allowance.sol\":1204:1225  allowance[msg.sender] */\n      0x00\n        /* \"Allowance.sol\":1214:1224  msg.sender */\n      caller\n        /* \"Allowance.sol\":1204:1225  allowance[msg.sender] */\n      0xffffffffffffffffffffffffffffffffffffffff\n      and\n      0xffffffffffffffffffffffffffffffffffffffff\n      and\n      dup2\n      mstore\n      0x20\n      add\n      swap1\n      dup2\n      mstore\n      0x20\n      add\n      0x00\n      keccak256\n      0x00\n        /* \"Allowance.sol\":1204:1236  allowance[msg.sender] -= _amount */\n      dup3\n      dup3\n      sload\n      tag_39\n      swap2\n      swap1\n      tag_40\n      jump\t// in\n    tag_39:\n      swap3\n      pop\n      pop\n      dup2\n      swap1\n      sstore\n      pop\n        /* \"Allowance.sol\":1167:1248  if(isOwner() == false){\r... */\n    tag_38:\n        /* \"Allowance.sol\":1258:1261  _to */\n      dup4\n        /* \"Allowance.sol\":1258:1270  _to.transfer */\n      0xffffffffffffffffffffffffffffffffffffffff\n      and\n        /* \"Allowance.sol\":1258:1279  _to.transfer(_amount) */\n      0x08fc\n        /* \"Allowance.sol\":1271:1278  _amount */\n      dup5\n        /* \"Allowance.sol\":1258:1279  _to.transfer(_amount) */\n      swap1\n      dup2\n      iszero\n      mul\n      swap1\n      mload(0x40)\n      0x00\n      mload(0x40)\n      dup1\n      dup4\n      sub\n      dup2\n      dup6\n      dup9\n      dup9\n      call\n      swap4\n      pop\n      pop\n      pop\n      pop\n      iszero\n      dup1\n      iszero\n      tag_42\n      jumpi\n      returndatasize\n      0x00\n      dup1\n      returndatacopy\n      revert(0x00, returndatasize)\n    tag_42:\n      pop\n        /* \"Allowance.sol\":921:1287  function withdrawMoney(address payable _to, uint _amount, string memory _description) public ownerOrAllowed(_amount) {\r... */\n      pop\n      pop\n      pop\n      pop\n      jump\t// out\n        /* \"Allowance.sol\":752:911  function addAllowance(address _to, uint _amount) public onlyOwner {\r... */\n    tag_22:\n        /* \"Allowance.sol\":385:395  msg.sender */\n      caller\n        /* \"Allowance.sol\":376:395  owner == msg.sender */\n      0xffffffffffffffffffffffffffffffffffffffff\n      and\n        /* \"Allowance.sol\":376:381  owner */\n      0x00\n      dup1\n      sload\n      swap1\n      0x0100\n      exp\n      swap1\n      div\n      0xffffffffffffffffffffffffffffffffffffffff\n      and\n        /* \"Allowance.sol\":376:395  owner == msg.sender */\n      0xffffffffffffffffffffffffffffffffffffffff\n      and\n      eq\n        /* \"Allowance.sol\":368:417  require(owner == msg.sender, \"You are not owner\") */\n      tag_44\n      jumpi\n      mload(0x40)\n      0x08c379a000000000000000000000000000000000000000000000000000000000\n      dup2\n      mstore\n      0x04\n      add\n      tag_45\n      swap1\n      tag_46\n      jump\t// in\n    tag_45:\n      mload(0x40)\n      dup1\n      swap2\n      sub\n      swap1\n      revert\n    tag_44:\n        /* \"Allowance.sol\":844:849  owner */\n      0x00\n      dup1\n      sload\n      swap1\n      0x0100\n      exp\n      swap1\n      div\n      0xffffffffffffffffffffffffffffffffffffffff\n      and\n        /* \"Allowance.sol\":837:849  _to != owner */\n      0xffffffffffffffffffffffffffffffffffffffff\n      and\n        /* \"Allowance.sol\":837:840  _to */\n      dup3\n        /* \"Allowance.sol\":837:849  _to != owner */\n      0xffffffffffffffffffffffffffffffffffffffff\n      and\n      eq\n      iszero\n        /* \"Allowance.sol\":829:867  require(_to != owner, \"You are owner\") */\n      tag_48\n      jumpi\n      mload(0x40)\n      0x08c379a000000000000000000000000000000000000000000000000000000000\n      dup2\n      mstore\n      0x04\n      add\n      tag_49\n      swap1\n      tag_50\n      jump\t// in\n    tag_49:\n      mload(0x40)\n      dup1\n      swap2\n      sub\n      swap1\n      revert\n    tag_48:\n        /* \"Allowance.sol\":896:903  _amount */\n      dup1\n        /* \"Allowance.sol\":878:887  allowance */\n      0x01\n        /* \"Allowance.sol\":878:892  allowance[_to] */\n      0x00\n        /* \"Allowance.sol\":888:891  _to */\n      dup5\n        /* \"Allowance.sol\":878:892  allowance[_to] */\n      0xffffffffffffffffffffffffffffffffffffffff\n      and\n      0xffffffffffffffffffffffffffffffffffffffff\n      and\n      dup2\n      mstore\n      0x20\n      add\n      swap1\n      dup2\n      mstore\n      0x20\n      add\n      0x00\n      keccak256\n      0x00\n        /* \"Allowance.sol\":878:903  allowance[_to] += _amount */\n      dup3\n      dup3\n      sload\n      tag_51\n      swap2\n      swap1\n      tag_52\n      jump\t// in\n    tag_51:\n      swap3\n      pop\n      pop\n      dup2\n      swap1\n      sstore\n      pop\n        /* \"Allowance.sol\":752:911  function addAllowance(address _to, uint _amount) public onlyOwner {\r... */\n      pop\n      pop\n      jump\t// out\n        /* \"Allowance.sol\":597:744  function isOwner() private view returns(bool){\r... */\n    tag_26:\n        /* \"Allowance.sol\":637:641  bool */\n      0x00\n        /* \"Allowance.sol\":665:675  msg.sender */\n      caller\n        /* \"Allowance.sol\":656:675  owner == msg.sender */\n      0xffffffffffffffffffffffffffffffffffffffff\n      and\n        /* \"Allowance.sol\":656:661  owner */\n      0x00\n      dup1\n      sload\n      swap1\n      0x0100\n      exp\n      swap1\n      div\n      0xffffffffffffffffffffffffffffffffffffffff\n      and\n        /* \"Allowance.sol\":656:675  owner == msg.sender */\n      0xffffffffffffffffffffffffffffffffffffffff\n      and\n      eq\n        /* \"Allowance.sol\":653:714  if(owner == msg.sender){\r... */\n      iszero\n      tag_54\n      jumpi\n        /* \"Allowance.sol\":698:702  true */\n      0x01\n        /* \"Allowance.sol\":691:702  return true */\n      swap1\n      pop\n      jump(tag_53)\n        /* \"Allowance.sol\":653:714  if(owner == msg.sender){\r... */\n    tag_54:\n        /* \"Allowance.sol\":731:736  false */\n      0x00\n        /* \"Allowance.sol\":724:736  return false */\n      swap1\n      pop\n        /* \"Allowance.sol\":597:744  function isOwner() private view returns(bool){\r... */\n    tag_53:\n      swap1\n      jump\t// out\n        /* \"#utility.yul\":7:419   */\n    tag_56:\n        /* \"#utility.yul\":85:90   */\n      0x00\n        /* \"#utility.yul\":110:176   */\n      tag_58\n        /* \"#utility.yul\":126:175   */\n      tag_59\n        /* \"#utility.yul\":168:174   */\n      dup5\n        /* \"#utility.yul\":126:175   */\n      tag_60\n      jump\t// in\n    tag_59:\n        /* \"#utility.yul\":110:176   */\n      tag_61\n      jump\t// in\n    tag_58:\n        /* \"#utility.yul\":101:176   */\n      swap1\n      pop\n        /* \"#utility.yul\":199:205   */\n      dup3\n        /* \"#utility.yul\":192:197   */\n      dup2\n        /* \"#utility.yul\":185:206   */\n      mstore\n        /* \"#utility.yul\":237:241   */\n      0x20\n        /* \"#utility.yul\":230:235   */\n      dup2\n        /* \"#utility.yul\":226:242   */\n      add\n        /* \"#utility.yul\":275:278   */\n      dup5\n        /* \"#utility.yul\":266:272   */\n      dup5\n        /* \"#utility.yul\":261:264   */\n      dup5\n        /* \"#utility.yul\":257:273   */\n      add\n        /* \"#utility.yul\":254:279   */\n      gt\n        /* \"#utility.yul\":251:363   */\n      iszero\n      tag_62\n      jumpi\n        /* \"#utility.yul\":282:361   */\n      tag_63\n      tag_64\n      jump\t// in\n    tag_63:\n        /* \"#utility.yul\":251:363   */\n    tag_62:\n        /* \"#utility.yul\":372:413   */\n      tag_65\n        /* \"#utility.yul\":406:412   */\n      dup5\n        /* \"#utility.yul\":401:404   */\n      dup3\n        /* \"#utility.yul\":396:399   */\n      dup6\n        /* \"#utility.yul\":372:413   */\n      tag_66\n      jump\t// in\n    tag_65:\n        /* \"#utility.yul\":91:419   */\n      pop\n        /* \"#utility.yul\":7:419   */\n      swap4\n      swap3\n      pop\n      pop\n      pop\n      jump\t// out\n        /* \"#utility.yul\":425:564   */\n    tag_67:\n        /* \"#utility.yul\":471:476   */\n      0x00\n        /* \"#utility.yul\":509:515   */\n      dup2\n        /* \"#utility.yul\":496:516   */\n      calldataload\n        /* \"#utility.yul\":487:516   */\n      swap1\n      pop\n        /* \"#utility.yul\":525:558   */\n      tag_69\n        /* \"#utility.yul\":552:557   */\n      dup2\n        /* \"#utility.yul\":525:558   */\n      tag_70\n      jump\t// in\n    tag_69:\n        /* \"#utility.yul\":425:564   */\n      swap3\n      swap2\n      pop\n      pop\n      jump\t// out\n        /* \"#utility.yul\":570:725   */\n    tag_71:\n        /* \"#utility.yul\":624:629   */\n      0x00\n        /* \"#utility.yul\":662:668   */\n      dup2\n        /* \"#utility.yul\":649:669   */\n      calldataload\n        /* \"#utility.yul\":640:669   */\n      swap1\n      pop\n        /* \"#utility.yul\":678:719   */\n      tag_73\n        /* \"#utility.yul\":713:718   */\n      dup2\n        /* \"#utility.yul\":678:719   */\n      tag_74\n      jump\t// in\n    tag_73:\n        /* \"#utility.yul\":570:725   */\n      swap3\n      swap2\n      pop\n      pop\n      jump\t// out\n        /* \"#utility.yul\":745:1085   */\n    tag_75:\n        /* \"#utility.yul\":801:806   */\n      0x00\n        /* \"#utility.yul\":850:853   */\n      dup3\n        /* \"#utility.yul\":843:847   */\n      0x1f\n        /* \"#utility.yul\":835:841   */\n      dup4\n        /* \"#utility.yul\":831:848   */\n      add\n        /* \"#utility.yul\":827:854   */\n      slt\n        /* \"#utility.yul\":817:939   */\n      tag_77\n      jumpi\n        /* \"#utility.yul\":858:937   */\n      tag_78\n      tag_79\n      jump\t// in\n    tag_78:\n        /* \"#utility.yul\":817:939   */\n    tag_77:\n        /* \"#utility.yul\":975:981   */\n      dup2\n        /* \"#utility.yul\":962:982   */\n      calldataload\n        /* \"#utility.yul\":1000:1079   */\n      tag_80\n        /* \"#utility.yul\":1075:1078   */\n      dup5\n        /* \"#utility.yul\":1067:1073   */\n      dup3\n        /* \"#utility.yul\":1060:1064   */\n      0x20\n        /* \"#utility.yul\":1052:1058   */\n      dup7\n        /* \"#utility.yul\":1048:1065   */\n      add\n        /* \"#utility.yul\":1000:1079   */\n      tag_56\n      jump\t// in\n    tag_80:\n        /* \"#utility.yul\":991:1079   */\n      swap2\n      pop\n        /* \"#utility.yul\":807:1085   */\n      pop\n        /* \"#utility.yul\":745:1085   */\n      swap3\n      swap2\n      pop\n      pop\n      jump\t// out\n        /* \"#utility.yul\":1091:1230   */\n    tag_81:\n        /* \"#utility.yul\":1137:1142   */\n      0x00\n        /* \"#utility.yul\":1175:1181   */\n      dup2\n        /* \"#utility.yul\":1162:1182   */\n      calldataload\n        /* \"#utility.yul\":1153:1182   */\n      swap1\n      pop\n        /* \"#utility.yul\":1191:1224   */\n      tag_83\n        /* \"#utility.yul\":1218:1223   */\n      dup2\n        /* \"#utility.yul\":1191:1224   */\n      tag_84\n      jump\t// in\n    tag_83:\n        /* \"#utility.yul\":1091:1230   */\n      swap3\n      swap2\n      pop\n      pop\n      jump\t// out\n        /* \"#utility.yul\":1236:2051   */\n    tag_16:\n        /* \"#utility.yul\":1331:1337   */\n      0x00\n        /* \"#utility.yul\":1339:1345   */\n      dup1\n        /* \"#utility.yul\":1347:1353   */\n      0x00\n        /* \"#utility.yul\":1396:1398   */\n      0x60\n        /* \"#utility.yul\":1384:1393   */\n      dup5\n        /* \"#utility.yul\":1375:1382   */\n      dup7\n        /* \"#utility.yul\":1371:1394   */\n      sub\n        /* \"#utility.yul\":1367:1399   */\n      slt\n        /* \"#utility.yul\":1364:1483   */\n      iszero\n      tag_86\n      jumpi\n        /* \"#utility.yul\":1402:1481   */\n      tag_87\n      tag_88\n      jump\t// in\n    tag_87:\n        /* \"#utility.yul\":1364:1483   */\n    tag_86:\n        /* \"#utility.yul\":1522:1523   */\n      0x00\n        /* \"#utility.yul\":1547:1608   */\n      tag_89\n        /* \"#utility.yul\":1600:1607   */\n      dup7\n        /* \"#utility.yul\":1591:1597   */\n      dup3\n        /* \"#utility.yul\":1580:1589   */\n      dup8\n        /* \"#utility.yul\":1576:1598   */\n      add\n        /* \"#utility.yul\":1547:1608   */\n      tag_71\n      jump\t// in\n    tag_89:\n        /* \"#utility.yul\":1537:1608   */\n      swap4\n      pop\n        /* \"#utility.yul\":1493:1618   */\n      pop\n        /* \"#utility.yul\":1657:1659   */\n      0x20\n        /* \"#utility.yul\":1683:1736   */\n      tag_90\n        /* \"#utility.yul\":1728:1735   */\n      dup7\n        /* \"#utility.yul\":1719:1725   */\n      dup3\n        /* \"#utility.yul\":1708:1717   */\n      dup8\n        /* \"#utility.yul\":1704:1726   */\n      add\n        /* \"#utility.yul\":1683:1736   */\n      tag_81\n      jump\t// in\n    tag_90:\n        /* \"#utility.yul\":1673:1736   */\n      swap3\n      pop\n        /* \"#utility.yul\":1628:1746   */\n      pop\n        /* \"#utility.yul\":1813:1815   */\n      0x40\n        /* \"#utility.yul\":1802:1811   */\n      dup5\n        /* \"#utility.yul\":1798:1816   */\n      add\n        /* \"#utility.yul\":1785:1817   */\n      calldataload\n        /* \"#utility.yul\":1844:1862   */\n      0xffffffffffffffff\n        /* \"#utility.yul\":1836:1842   */\n      dup2\n        /* \"#utility.yul\":1833:1863   */\n      gt\n        /* \"#utility.yul\":1830:1947   */\n      iszero\n      tag_91\n      jumpi\n        /* \"#utility.yul\":1866:1945   */\n      tag_92\n      tag_93\n      jump\t// in\n    tag_92:\n        /* \"#utility.yul\":1830:1947   */\n    tag_91:\n        /* \"#utility.yul\":1971:2034   */\n      tag_94\n        /* \"#utility.yul\":2026:2033   */\n      dup7\n        /* \"#utility.yul\":2017:2023   */\n      dup3\n        /* \"#utility.yul\":2006:2015   */\n      dup8\n        /* \"#utility.yul\":2002:2024   */\n      add\n        /* \"#utility.yul\":1971:2034   */\n      tag_75\n      jump\t// in\n    tag_94:\n        /* \"#utility.yul\":1961:2034   */\n      swap2\n      pop\n        /* \"#utility.yul\":1756:2044   */\n      pop\n        /* \"#utility.yul\":1236:2051   */\n      swap3\n      pop\n      swap3\n      pop\n      swap3\n      jump\t// out\n        /* \"#utility.yul\":2057:2531   */\n    tag_21:\n        /* \"#utility.yul\":2125:2131   */\n      0x00\n        /* \"#utility.yul\":2133:2139   */\n      dup1\n        /* \"#utility.yul\":2182:2184   */\n      0x40\n        /* \"#utility.yul\":2170:2179   */\n      dup4\n        /* \"#utility.yul\":2161:2168   */\n      dup6\n        /* \"#utility.yul\":2157:2180   */\n      sub\n        /* \"#utility.yul\":2153:2185   */\n      slt\n        /* \"#utility.yul\":2150:2269   */\n      iszero\n      tag_96\n      jumpi\n        /* \"#utility.yul\":2188:2267   */\n      tag_97\n      tag_88\n      jump\t// in\n    tag_97:\n        /* \"#utility.yul\":2150:2269   */\n    tag_96:\n        /* \"#utility.yul\":2308:2309   */\n      0x00\n        /* \"#utility.yul\":2333:2386   */\n      tag_98\n        /* \"#utility.yul\":2378:2385   */\n      dup6\n        /* \"#utility.yul\":2369:2375   */\n      dup3\n        /* \"#utility.yul\":2358:2367   */\n      dup7\n        /* \"#utility.yul\":2354:2376   */\n      add\n        /* \"#utility.yul\":2333:2386   */\n      tag_67\n      jump\t// in\n    tag_98:\n        /* \"#utility.yul\":2323:2386   */\n      swap3\n      pop\n        /* \"#utility.yul\":2279:2396   */\n      pop\n        /* \"#utility.yul\":2435:2437   */\n      0x20\n        /* \"#utility.yul\":2461:2514   */\n      tag_99\n        /* \"#utility.yul\":2506:2513   */\n      dup6\n        /* \"#utility.yul\":2497:2503   */\n      dup3\n        /* \"#utility.yul\":2486:2495   */\n      dup7\n        /* \"#utility.yul\":2482:2504   */\n      add\n        /* \"#utility.yul\":2461:2514   */\n      tag_81\n      jump\t// in\n    tag_99:\n        /* \"#utility.yul\":2451:2514   */\n      swap2\n      pop\n        /* \"#utility.yul\":2406:2524   */\n      pop\n        /* \"#utility.yul\":2057:2531   */\n      swap3\n      pop\n      swap3\n      swap1\n      pop\n      jump\t// out\n        /* \"#utility.yul\":2537:2684   */\n    tag_100:\n        /* \"#utility.yul\":2632:2677   */\n      tag_102\n        /* \"#utility.yul\":2671:2676   */\n      dup2\n        /* \"#utility.yul\":2632:2677   */\n      tag_103\n      jump\t// in\n    tag_102:\n        /* \"#utility.yul\":2627:2630   */\n      dup3\n        /* \"#utility.yul\":2620:2678   */\n      mstore\n        /* \"#utility.yul\":2537:2684   */\n      pop\n      pop\n      jump\t// out\n        /* \"#utility.yul\":2690:3054   */\n    tag_104:\n        /* \"#utility.yul\":2778:2781   */\n      0x00\n        /* \"#utility.yul\":2806:2845   */\n      tag_106\n        /* \"#utility.yul\":2839:2844   */\n      dup3\n        /* \"#utility.yul\":2806:2845   */\n      tag_107\n      jump\t// in\n    tag_106:\n        /* \"#utility.yul\":2861:2932   */\n      tag_108\n        /* \"#utility.yul\":2925:2931   */\n      dup2\n        /* \"#utility.yul\":2920:2923   */\n      dup6\n        /* \"#utility.yul\":2861:2932   */\n      tag_109\n      jump\t// in\n    tag_108:\n        /* \"#utility.yul\":2854:2932   */\n      swap4\n      pop\n        /* \"#utility.yul\":2941:2993   */\n      tag_110\n        /* \"#utility.yul\":2986:2992   */\n      dup2\n        /* \"#utility.yul\":2981:2984   */\n      dup6\n        /* \"#utility.yul\":2974:2978   */\n      0x20\n        /* \"#utility.yul\":2967:2972   */\n      dup7\n        /* \"#utility.yul\":2963:2979   */\n      add\n        /* \"#utility.yul\":2941:2993   */\n      tag_111\n      jump\t// in\n    tag_110:\n        /* \"#utility.yul\":3018:3047   */\n      tag_112\n        /* \"#utility.yul\":3040:3046   */\n      dup2\n        /* \"#utility.yul\":3018:3047   */\n      tag_113\n      jump\t// in\n    tag_112:\n        /* \"#utility.yul\":3013:3016   */\n      dup5\n        /* \"#utility.yul\":3009:3048   */\n      add\n        /* \"#utility.yul\":3002:3048   */\n      swap2\n      pop\n        /* \"#utility.yul\":2782:3054   */\n      pop\n        /* \"#utility.yul\":2690:3054   */\n      swap3\n      swap2\n      pop\n      pop\n      jump\t// out\n        /* \"#utility.yul\":3060:3426   */\n    tag_114:\n        /* \"#utility.yul\":3202:3205   */\n      0x00\n        /* \"#utility.yul\":3223:3290   */\n      tag_116\n        /* \"#utility.yul\":3287:3289   */\n      0x0f\n        /* \"#utility.yul\":3282:3285   */\n      dup4\n        /* \"#utility.yul\":3223:3290   */\n      tag_109\n      jump\t// in\n    tag_116:\n        /* \"#utility.yul\":3216:3290   */\n      swap2\n      pop\n        /* \"#utility.yul\":3299:3392   */\n      tag_117\n        /* \"#utility.yul\":3388:3391   */\n      dup3\n        /* \"#utility.yul\":3299:3392   */\n      tag_118\n      jump\t// in\n    tag_117:\n        /* \"#utility.yul\":3417:3419   */\n      0x20\n        /* \"#utility.yul\":3412:3415   */\n      dup3\n        /* \"#utility.yul\":3408:3420   */\n      add\n        /* \"#utility.yul\":3401:3420   */\n      swap1\n      pop\n        /* \"#utility.yul\":3060:3426   */\n      swap2\n      swap1\n      pop\n      jump\t// out\n        /* \"#utility.yul\":3432:3798   */\n    tag_119:\n        /* \"#utility.yul\":3574:3577   */\n      0x00\n        /* \"#utility.yul\":3595:3662   */\n      tag_121\n        /* \"#utility.yul\":3659:3661   */\n      0x0d\n        /* \"#utility.yul\":3654:3657   */\n      dup4\n        /* \"#utility.yul\":3595:3662   */\n      tag_109\n      jump\t// in\n    tag_121:\n        /* \"#utility.yul\":3588:3662   */\n      swap2\n      pop\n        /* \"#utility.yul\":3671:3764   */\n      tag_122\n        /* \"#utility.yul\":3760:3763   */\n      dup3\n        /* \"#utility.yul\":3671:3764   */\n      tag_123\n      jump\t// in\n    tag_122:\n        /* \"#utility.yul\":3789:3791   */\n      0x20\n        /* \"#utility.yul\":3784:3787   */\n      dup3\n        /* \"#utility.yul\":3780:3792   */\n      add\n        /* \"#utility.yul\":3773:3792   */\n      swap1\n      pop\n        /* \"#utility.yul\":3432:3798   */\n      swap2\n      swap1\n      pop\n      jump\t// out\n        /* \"#utility.yul\":3804:4170   */\n    tag_124:\n        /* \"#utility.yul\":3946:3949   */\n      0x00\n        /* \"#utility.yul\":3967:4034   */\n      tag_126\n        /* \"#utility.yul\":4031:4033   */\n      0x0b\n        /* \"#utility.yul\":4026:4029   */\n      dup4\n        /* \"#utility.yul\":3967:4034   */\n      tag_109\n      jump\t// in\n    tag_126:\n        /* \"#utility.yul\":3960:4034   */\n      swap2\n      pop\n        /* \"#utility.yul\":4043:4136   */\n      tag_127\n        /* \"#utility.yul\":4132:4135   */\n      dup3\n        /* \"#utility.yul\":4043:4136   */\n      tag_128\n      jump\t// in\n    tag_127:\n        /* \"#utility.yul\":4161:4163   */\n      0x20\n        /* \"#utility.yul\":4156:4159   */\n      dup3\n        /* \"#utility.yul\":4152:4164   */\n      add\n        /* \"#utility.yul\":4145:4164   */\n      swap1\n      pop\n        /* \"#utility.yul\":3804:4170   */\n      swap2\n      swap1\n      pop\n      jump\t// out\n        /* \"#utility.yul\":4176:4542   */\n    tag_129:\n        /* \"#utility.yul\":4318:4321   */\n      0x00\n        /* \"#utility.yul\":4339:4406   */\n      tag_131\n        /* \"#utility.yul\":4403:4405   */\n      0x11\n        /* \"#utility.yul\":4398:4401   */\n      dup4\n        /* \"#utility.yul\":4339:4406   */\n      tag_109\n      jump\t// in\n    tag_131:\n        /* \"#utility.yul\":4332:4406   */\n      swap2\n      pop\n        /* \"#utility.yul\":4415:4508   */\n      tag_132\n        /* \"#utility.yul\":4504:4507   */\n      dup3\n        /* \"#utility.yul\":4415:4508   */\n      tag_133\n      jump\t// in\n    tag_132:\n        /* \"#utility.yul\":4533:4535   */\n      0x20\n        /* \"#utility.yul\":4528:4531   */\n      dup3\n        /* \"#utility.yul\":4524:4536   */\n      add\n        /* \"#utility.yul\":4517:4536   */\n      swap1\n      pop\n        /* \"#utility.yul\":4176:4542   */\n      swap2\n      swap1\n      pop\n      jump\t// out\n        /* \"#utility.yul\":4548:4666   */\n    tag_134:\n        /* \"#utility.yul\":4635:4659   */\n      tag_136\n        /* \"#utility.yul\":4653:4658   */\n      dup2\n        /* \"#utility.yul\":4635:4659   */\n      tag_137\n      jump\t// in\n    tag_136:\n        /* \"#utility.yul\":4630:4633   */\n      dup3\n        /* \"#utility.yul\":4623:4660   */\n      mstore\n        /* \"#utility.yul\":4548:4666   */\n      pop\n      pop\n      jump\t// out\n        /* \"#utility.yul\":4672:5221   */\n    tag_33:\n        /* \"#utility.yul\":4849:4853   */\n      0x00\n        /* \"#utility.yul\":4887:4889   */\n      0x60\n        /* \"#utility.yul\":4876:4885   */\n      dup3\n        /* \"#utility.yul\":4872:4890   */\n      add\n        /* \"#utility.yul\":4864:4890   */\n      swap1\n      pop\n        /* \"#utility.yul\":4900:4979   */\n      tag_139\n        /* \"#utility.yul\":4976:4977   */\n      0x00\n        /* \"#utility.yul\":4965:4974   */\n      dup4\n        /* \"#utility.yul\":4961:4978   */\n      add\n        /* \"#utility.yul\":4952:4958   */\n      dup7\n        /* \"#utility.yul\":4900:4979   */\n      tag_100\n      jump\t// in\n    tag_139:\n        /* \"#utility.yul\":4989:5061   */\n      tag_140\n        /* \"#utility.yul\":5057:5059   */\n      0x20\n        /* \"#utility.yul\":5046:5055   */\n      dup4\n        /* \"#utility.yul\":5042:5060   */\n      add\n        /* \"#utility.yul\":5033:5039   */\n      dup6\n        /* \"#utility.yul\":4989:5061   */\n      tag_134\n      jump\t// in\n    tag_140:\n        /* \"#utility.yul\":5108:5117   */\n      dup2\n        /* \"#utility.yul\":5102:5106   */\n      dup2\n        /* \"#utility.yul\":5098:5118   */\n      sub\n        /* \"#utility.yul\":5093:5095   */\n      0x40\n        /* \"#utility.yul\":5082:5091   */\n      dup4\n        /* \"#utility.yul\":5078:5096   */\n      add\n        /* \"#utility.yul\":5071:5119   */\n      mstore\n        /* \"#utility.yul\":5136:5214   */\n      tag_141\n        /* \"#utility.yul\":5209:5213   */\n      dup2\n        /* \"#utility.yul\":5200:5206   */\n      dup5\n        /* \"#utility.yul\":5136:5214   */\n      tag_104\n      jump\t// in\n    tag_141:\n        /* \"#utility.yul\":5128:5214   */\n      swap1\n      pop\n        /* \"#utility.yul\":4672:5221   */\n      swap5\n      swap4\n      pop\n      pop\n      pop\n      pop\n      jump\t// out\n        /* \"#utility.yul\":5227:5646   */\n    tag_36:\n        /* \"#utility.yul\":5393:5397   */\n      0x00\n        /* \"#utility.yul\":5431:5433   */\n      0x20\n        /* \"#utility.yul\":5420:5429   */\n      dup3\n        /* \"#utility.yul\":5416:5434   */\n      add\n        /* \"#utility.yul\":5408:5434   */\n      swap1\n      pop\n        /* \"#utility.yul\":5480:5489   */\n      dup2\n        /* \"#utility.yul\":5474:5478   */\n      dup2\n        /* \"#utility.yul\":5470:5490   */\n      sub\n        /* \"#utility.yul\":5466:5467   */\n      0x00\n        /* \"#utility.yul\":5455:5464   */\n      dup4\n        /* \"#utility.yul\":5451:5468   */\n      add\n        /* \"#utility.yul\":5444:5491   */\n      mstore\n        /* \"#utility.yul\":5508:5639   */\n      tag_143\n        /* \"#utility.yul\":5634:5638   */\n      dup2\n        /* \"#utility.yul\":5508:5639   */\n      tag_114\n      jump\t// in\n    tag_143:\n        /* \"#utility.yul\":5500:5639   */\n      swap1\n      pop\n        /* \"#utility.yul\":5227:5646   */\n      swap2\n      swap1\n      pop\n      jump\t// out\n        /* \"#utility.yul\":5652:6071   */\n    tag_50:\n        /* \"#utility.yul\":5818:5822   */\n      0x00\n        /* \"#utility.yul\":5856:5858   */\n      0x20\n        /* \"#utility.yul\":5845:5854   */\n      dup3\n        /* \"#utility.yul\":5841:5859   */\n      add\n        /* \"#utility.yul\":5833:5859   */\n      swap1\n      pop\n        /* \"#utility.yul\":5905:5914   */\n      dup2\n        /* \"#utility.yul\":5899:5903   */\n      dup2\n        /* \"#utility.yul\":5895:5915   */\n      sub\n        /* \"#utility.yul\":5891:5892   */\n      0x00\n        /* \"#utility.yul\":5880:5889   */\n      dup4\n        /* \"#utility.yul\":5876:5893   */\n      add\n        /* \"#utility.yul\":5869:5916   */\n      mstore\n        /* \"#utility.yul\":5933:6064   */\n      tag_145\n        /* \"#utility.yul\":6059:6063   */\n      dup2\n        /* \"#utility.yul\":5933:6064   */\n      tag_119\n      jump\t// in\n    tag_145:\n        /* \"#utility.yul\":5925:6064   */\n      swap1\n      pop\n        /* \"#utility.yul\":5652:6071   */\n      swap2\n      swap1\n      pop\n      jump\t// out\n        /* \"#utility.yul\":6077:6496   */\n    tag_30:\n        /* \"#utility.yul\":6243:6247   */\n      0x00\n        /* \"#utility.yul\":6281:6283   */\n      0x20\n        /* \"#utility.yul\":6270:6279   */\n      dup3\n        /* \"#utility.yul\":6266:6284   */\n      add\n        /* \"#utility.yul\":6258:6284   */\n      swap1\n      pop\n        /* \"#utility.yul\":6330:6339   */\n      dup2\n        /* \"#utility.yul\":6324:6328   */\n      dup2\n        /* \"#utility.yul\":6320:6340   */\n      sub\n        /* \"#utility.yul\":6316:6317   */\n      0x00\n        /* \"#utility.yul\":6305:6314   */\n      dup4\n        /* \"#utility.yul\":6301:6318   */\n      add\n        /* \"#utility.yul\":6294:6341   */\n      mstore\n        /* \"#utility.yul\":6358:6489   */\n      tag_147\n        /* \"#utility.yul\":6484:6488   */\n      dup2\n        /* \"#utility.yul\":6358:6489   */\n      tag_124\n      jump\t// in\n    tag_147:\n        /* \"#utility.yul\":6350:6489   */\n      swap1\n      pop\n        /* \"#utility.yul\":6077:6496   */\n      swap2\n      swap1\n      pop\n      jump\t// out\n        /* \"#utility.yul\":6502:6921   */\n    tag_46:\n        /* \"#utility.yul\":6668:6672   */\n      0x00\n        /* \"#utility.yul\":6706:6708   */\n      0x20\n        /* \"#utility.yul\":6695:6704   */\n      dup3\n        /* \"#utility.yul\":6691:6709   */\n      add\n        /* \"#utility.yul\":6683:6709   */\n      swap1\n      pop\n        /* \"#utility.yul\":6755:6764   */\n      dup2\n        /* \"#utility.yul\":6749:6753   */\n      dup2\n        /* \"#utility.yul\":6745:6765   */\n      sub\n        /* \"#utility.yul\":6741:6742   */\n      0x00\n        /* \"#utility.yul\":6730:6739   */\n      dup4\n        /* \"#utility.yul\":6726:6743   */\n      add\n        /* \"#utility.yul\":6719:6766   */\n      mstore\n        /* \"#utility.yul\":6783:6914   */\n      tag_149\n        /* \"#utility.yul\":6909:6913   */\n      dup2\n        /* \"#utility.yul\":6783:6914   */\n      tag_129\n      jump\t// in\n    tag_149:\n        /* \"#utility.yul\":6775:6914   */\n      swap1\n      pop\n        /* \"#utility.yul\":6502:6921   */\n      swap2\n      swap1\n      pop\n      jump\t// out\n        /* \"#utility.yul\":6927:7149   */\n    tag_12:\n        /* \"#utility.yul\":7020:7024   */\n      0x00\n        /* \"#utility.yul\":7058:7060   */\n      0x20\n        /* \"#utility.yul\":7047:7056   */\n      dup3\n        /* \"#utility.yul\":7043:7061   */\n      add\n        /* \"#utility.yul\":7035:7061   */\n      swap1\n      pop\n        /* \"#utility.yul\":7071:7142   */\n      tag_151\n        /* \"#utility.yul\":7139:7140   */\n      0x00\n        /* \"#utility.yul\":7128:7137   */\n      dup4\n        /* \"#utility.yul\":7124:7141   */\n      add\n        /* \"#utility.yul\":7115:7121   */\n      dup5\n        /* \"#utility.yul\":7071:7142   */\n      tag_134\n      jump\t// in\n    tag_151:\n        /* \"#utility.yul\":6927:7149   */\n      swap3\n      swap2\n      pop\n      pop\n      jump\t// out\n        /* \"#utility.yul\":7155:7284   */\n    tag_61:\n        /* \"#utility.yul\":7189:7195   */\n      0x00\n        /* \"#utility.yul\":7216:7236   */\n      tag_153\n      tag_154\n      jump\t// in\n    tag_153:\n        /* \"#utility.yul\":7206:7236   */\n      swap1\n      pop\n        /* \"#utility.yul\":7245:7278   */\n      tag_155\n        /* \"#utility.yul\":7273:7277   */\n      dup3\n        /* \"#utility.yul\":7265:7271   */\n      dup3\n        /* \"#utility.yul\":7245:7278   */\n      tag_156\n      jump\t// in\n    tag_155:\n        /* \"#utility.yul\":7155:7284   */\n      swap2\n      swap1\n      pop\n      jump\t// out\n        /* \"#utility.yul\":7290:7365   */\n    tag_154:\n        /* \"#utility.yul\":7323:7329   */\n      0x00\n        /* \"#utility.yul\":7356:7358   */\n      0x40\n        /* \"#utility.yul\":7350:7359   */\n      mload\n        /* \"#utility.yul\":7340:7359   */\n      swap1\n      pop\n        /* \"#utility.yul\":7290:7365   */\n      swap1\n      jump\t// out\n        /* \"#utility.yul\":7371:7679   */\n    tag_60:\n        /* \"#utility.yul\":7433:7437   */\n      0x00\n        /* \"#utility.yul\":7523:7541   */\n      0xffffffffffffffff\n        /* \"#utility.yul\":7515:7521   */\n      dup3\n        /* \"#utility.yul\":7512:7542   */\n      gt\n        /* \"#utility.yul\":7509:7565   */\n      iszero\n      tag_159\n      jumpi\n        /* \"#utility.yul\":7545:7563   */\n      tag_160\n      tag_161\n      jump\t// in\n    tag_160:\n        /* \"#utility.yul\":7509:7565   */\n    tag_159:\n        /* \"#utility.yul\":7583:7612   */\n      tag_162\n        /* \"#utility.yul\":7605:7611   */\n      dup3\n        /* \"#utility.yul\":7583:7612   */\n      tag_113\n      jump\t// in\n    tag_162:\n        /* \"#utility.yul\":7575:7612   */\n      swap1\n      pop\n        /* \"#utility.yul\":7667:7671   */\n      0x20\n        /* \"#utility.yul\":7661:7665   */\n      dup2\n        /* \"#utility.yul\":7657:7672   */\n      add\n        /* \"#utility.yul\":7649:7672   */\n      swap1\n      pop\n        /* \"#utility.yul\":7371:7679   */\n      swap2\n      swap1\n      pop\n      jump\t// out\n        /* \"#utility.yul\":7685:7784   */\n    tag_107:\n        /* \"#utility.yul\":7737:7743   */\n      0x00\n        /* \"#utility.yul\":7771:7776   */\n      dup2\n        /* \"#utility.yul\":7765:7777   */\n      mload\n        /* \"#utility.yul\":7755:7777   */\n      swap1\n      pop\n        /* \"#utility.yul\":7685:7784   */\n      swap2\n      swap1\n      pop\n      jump\t// out\n        /* \"#utility.yul\":7790:7959   */\n    tag_109:\n        /* \"#utility.yul\":7874:7885   */\n      0x00\n        /* \"#utility.yul\":7908:7914   */\n      dup3\n        /* \"#utility.yul\":7903:7906   */\n      dup3\n        /* \"#utility.yul\":7896:7915   */\n      mstore\n        /* \"#utility.yul\":7948:7952   */\n      0x20\n        /* \"#utility.yul\":7943:7946   */\n      dup3\n        /* \"#utility.yul\":7939:7953   */\n      add\n        /* \"#utility.yul\":7924:7953   */\n      swap1\n      pop\n        /* \"#utility.yul\":7790:7959   */\n      swap3\n      swap2\n      pop\n      pop\n      jump\t// out\n        /* \"#utility.yul\":7965:8270   */\n    tag_52:\n        /* \"#utility.yul\":8005:8008   */\n      0x00\n        /* \"#utility.yul\":8024:8044   */\n      tag_166\n        /* \"#utility.yul\":8042:8043   */\n      dup3\n        /* \"#utility.yul\":8024:8044   */\n      tag_137\n      jump\t// in\n    tag_166:\n        /* \"#utility.yul\":8019:8044   */\n      swap2\n      pop\n        /* \"#utility.yul\":8058:8078   */\n      tag_167\n        /* \"#utility.yul\":8076:8077   */\n      dup4\n        /* \"#utility.yul\":8058:8078   */\n      tag_137\n      jump\t// in\n    tag_167:\n        /* \"#utility.yul\":8053:8078   */\n      swap3\n      pop\n        /* \"#utility.yul\":8212:8213   */\n      dup3\n        /* \"#utility.yul\":8144:8210   */\n      0xffffffffffffffffffffffffffffffffffffffffffffffffffffffffffffffff\n        /* \"#utility.yul\":8140:8214   */\n      sub\n        /* \"#utility.yul\":8137:8138   */\n      dup3\n        /* \"#utility.yul\":8134:8215   */\n      gt\n        /* \"#utility.yul\":8131:8238   */\n      iszero\n      tag_168\n      jumpi\n        /* \"#utility.yul\":8218:8236   */\n      tag_169\n      tag_170\n      jump\t// in\n    tag_169:\n        /* \"#utility.yul\":8131:8238   */\n    tag_168:\n        /* \"#utility.yul\":8262:8263   */\n      dup3\n        /* \"#utility.yul\":8259:8260   */\n      dup3\n        /* \"#utility.yul\":8255:8264   */\n      add\n        /* \"#utility.yul\":8248:8264   */\n      swap1\n      pop\n        /* \"#utility.yul\":7965:8270   */\n      swap3\n      swap2\n      pop\n      pop\n      jump\t// out\n        /* \"#utility.yul\":8276:8467   */\n    tag_40:\n        /* \"#utility.yul\":8316:8320   */\n      0x00\n        /* \"#utility.yul\":8336:8356   */\n      tag_172\n        /* \"#utility.yul\":8354:8355   */\n      dup3\n        /* \"#utility.yul\":8336:8356   */\n      tag_137\n      jump\t// in\n    tag_172:\n        /* \"#utility.yul\":8331:8356   */\n      swap2\n      pop\n        /* \"#utility.yul\":8370:8390   */\n      tag_173\n        /* \"#utility.yul\":8388:8389   */\n      dup4\n        /* \"#utility.yul\":8370:8390   */\n      tag_137\n      jump\t// in\n    tag_173:\n        /* \"#utility.yul\":8365:8390   */\n      swap3\n      pop\n        /* \"#utility.yul\":8409:8410   */\n      dup3\n        /* \"#utility.yul\":8406:8407   */\n      dup3\n        /* \"#utility.yul\":8403:8411   */\n      lt\n        /* \"#utility.yul\":8400:8434   */\n      iszero\n      tag_174\n      jumpi\n        /* \"#utility.yul\":8414:8432   */\n      tag_175\n      tag_170\n      jump\t// in\n    tag_175:\n        /* \"#utility.yul\":8400:8434   */\n    tag_174:\n        /* \"#utility.yul\":8459:8460   */\n      dup3\n        /* \"#utility.yul\":8456:8457   */\n      dup3\n        /* \"#utility.yul\":8452:8461   */\n      sub\n        /* \"#utility.yul\":8444:8461   */\n      swap1\n      pop\n        /* \"#utility.yul\":8276:8467   */\n      swap3\n      swap2\n      pop\n      pop\n      jump\t// out\n        /* \"#utility.yul\":8473:8569   */\n    tag_176:\n        /* \"#utility.yul\":8510:8517   */\n      0x00\n        /* \"#utility.yul\":8539:8563   */\n      tag_178\n        /* \"#utility.yul\":8557:8562   */\n      dup3\n        /* \"#utility.yul\":8539:8563   */\n      tag_179\n      jump\t// in\n    tag_178:\n        /* \"#utility.yul\":8528:8563   */\n      swap1\n      pop\n        /* \"#utility.yul\":8473:8569   */\n      swap2\n      swap1\n      pop\n      jump\t// out\n        /* \"#utility.yul\":8575:8679   */\n    tag_180:\n        /* \"#utility.yul\":8620:8627   */\n      0x00\n        /* \"#utility.yul\":8649:8673   */\n      tag_182\n        /* \"#utility.yul\":8667:8672   */\n      dup3\n        /* \"#utility.yul\":8649:8673   */\n      tag_179\n      jump\t// in\n    tag_182:\n        /* \"#utility.yul\":8638:8673   */\n      swap1\n      pop\n        /* \"#utility.yul\":8575:8679   */\n      swap2\n      swap1\n      pop\n      jump\t// out\n        /* \"#utility.yul\":8685:8811   */\n    tag_179:\n        /* \"#utility.yul\":8722:8729   */\n      0x00\n        /* \"#utility.yul\":8762:8804   */\n      0xffffffffffffffffffffffffffffffffffffffff\n        /* \"#utility.yul\":8755:8760   */\n      dup3\n        /* \"#utility.yul\":8751:8805   */\n      and\n        /* \"#utility.yul\":8740:8805   */\n      swap1\n      pop\n        /* \"#utility.yul\":8685:8811   */\n      swap2\n      swap1\n      pop\n      jump\t// out\n        /* \"#utility.yul\":8817:8894   */\n    tag_137:\n        /* \"#utility.yul\":8854:8861   */\n      0x00\n        /* \"#utility.yul\":8883:8888   */\n      dup2\n        /* \"#utility.yul\":8872:8888   */\n      swap1\n      pop\n        /* \"#utility.yul\":8817:8894   */\n      swap2\n      swap1\n      pop\n      jump\t// out\n        /* \"#utility.yul\":8900:9034   */\n    tag_103:\n        /* \"#utility.yul\":8958:8967   */\n      0x00\n        /* \"#utility.yul\":8991:9028   */\n      tag_186\n        /* \"#utility.yul\":9022:9027   */\n      dup3\n        /* \"#utility.yul\":8991:9028   */\n      tag_187\n      jump\t// in\n    tag_186:\n        /* \"#utility.yul\":8978:9028   */\n      swap1\n      pop\n        /* \"#utility.yul\":8900:9034   */\n      swap2\n      swap1\n      pop\n      jump\t// out\n        /* \"#utility.yul\":9040:9166   */\n    tag_187:\n        /* \"#utility.yul\":9090:9099   */\n      0x00\n        /* \"#utility.yul\":9123:9160   */\n      tag_189\n        /* \"#utility.yul\":9154:9159   */\n      dup3\n        /* \"#utility.yul\":9123:9160   */\n      tag_190\n      jump\t// in\n    tag_189:\n        /* \"#utility.yul\":9110:9160   */\n      swap1\n      pop\n        /* \"#utility.yul\":9040:9166   */\n      swap2\n      swap1\n      pop\n      jump\t// out\n        /* \"#utility.yul\":9172:9285   */\n    tag_190:\n        /* \"#utility.yul\":9222:9231   */\n      0x00\n        /* \"#utility.yul\":9255:9279   */\n      tag_192\n        /* \"#utility.yul\":9273:9278   */\n      dup3\n        /* \"#utility.yul\":9255:9279   */\n      tag_179\n      jump\t// in\n    tag_192:\n        /* \"#utility.yul\":9242:9279   */\n      swap1\n      pop\n        /* \"#utility.yul\":9172:9285   */\n      swap2\n      swap1\n      pop\n      jump\t// out\n        /* \"#utility.yul\":9291:9445   */\n    tag_66:\n        /* \"#utility.yul\":9375:9381   */\n      dup3\n        /* \"#utility.yul\":9370:9373   */\n      dup2\n        /* \"#utility.yul\":9365:9368   */\n      dup4\n        /* \"#utility.yul\":9352:9382   */\n      calldatacopy\n        /* \"#utility.yul\":9437:9438   */\n      0x00\n        /* \"#utility.yul\":9428:9434   */\n      dup4\n        /* \"#utility.yul\":9423:9426   */\n      dup4\n        /* \"#utility.yul\":9419:9435   */\n      add\n        /* \"#utility.yul\":9412:9439   */\n      mstore\n        /* \"#utility.yul\":9291:9445   */\n      pop\n      pop\n      pop\n      jump\t// out\n        /* \"#utility.yul\":9451:9758   */\n    tag_111:\n        /* \"#utility.yul\":9519:9520   */\n      0x00\n        /* \"#utility.yul\":9529:9642   */\n    tag_195:\n        /* \"#utility.yul\":9543:9549   */\n      dup4\n        /* \"#utility.yul\":9540:9541   */\n      dup2\n        /* \"#utility.yul\":9537:9550   */\n      lt\n        /* \"#utility.yul\":9529:9642   */\n      iszero\n      tag_197\n      jumpi\n        /* \"#utility.yul\":9628:9629   */\n      dup1\n        /* \"#utility.yul\":9623:9626   */\n      dup3\n        /* \"#utility.yul\":9619:9630   */\n      add\n        /* \"#utility.yul\":9613:9631   */\n      mload\n        /* \"#utility.yul\":9609:9610   */\n      dup2\n        /* \"#utility.yul\":9604:9607   */\n      dup5\n        /* \"#utility.yul\":9600:9611   */\n      add\n        /* \"#utility.yul\":9593:9632   */\n      mstore\n        /* \"#utility.yul\":9565:9567   */\n      0x20\n        /* \"#utility.yul\":9562:9563   */\n      dup2\n        /* \"#utility.yul\":9558:9568   */\n      add\n        /* \"#utility.yul\":9553:9568   */\n      swap1\n      pop\n        /* \"#utility.yul\":9529:9642   */\n      jump(tag_195)\n    tag_197:\n        /* \"#utility.yul\":9660:9666   */\n      dup4\n        /* \"#utility.yul\":9657:9658   */\n      dup2\n        /* \"#utility.yul\":9654:9667   */\n      gt\n        /* \"#utility.yul\":9651:9752   */\n      iszero\n      tag_198\n      jumpi\n        /* \"#utility.yul\":9740:9741   */\n      0x00\n        /* \"#utility.yul\":9731:9737   */\n      dup5\n        /* \"#utility.yul\":9726:9729   */\n      dup5\n        /* \"#utility.yul\":9722:9738   */\n      add\n        /* \"#utility.yul\":9715:9742   */\n      mstore\n        /* \"#utility.yul\":9651:9752   */\n    tag_198:\n        /* \"#utility.yul\":9500:9758   */\n      pop\n        /* \"#utility.yul\":9451:9758   */\n      pop\n      pop\n      pop\n      jump\t// out\n        /* \"#utility.yul\":9764:10045   */\n    tag_156:\n        /* \"#utility.yul\":9847:9874   */\n      tag_200\n        /* \"#utility.yul\":9869:9873   */\n      dup3\n        /* \"#utility.yul\":9847:9874   */\n      tag_113\n      jump\t// in\n    tag_200:\n        /* \"#utility.yul\":9839:9845   */\n      dup2\n        /* \"#utility.yul\":9835:9875   */\n      add\n        /* \"#utility.yul\":9977:9983   */\n      dup2\n        /* \"#utility.yul\":9965:9975   */\n      dup2\n        /* \"#utility.yul\":9962:9984   */\n      lt\n        /* \"#utility.yul\":9941:9959   */\n      0xffffffffffffffff\n        /* \"#utility.yul\":9929:9939   */\n      dup3\n        /* \"#utility.yul\":9926:9960   */\n      gt\n        /* \"#utility.yul\":9923:9985   */\n      or\n        /* \"#utility.yul\":9920:10008   */\n      iszero\n      tag_201\n      jumpi\n        /* \"#utility.yul\":9988:10006   */\n      tag_202\n      tag_161\n      jump\t// in\n    tag_202:\n        /* \"#utility.yul\":9920:10008   */\n    tag_201:\n        /* \"#utility.yul\":10028:10038   */\n      dup1\n        /* \"#utility.yul\":10024:10026   */\n      0x40\n        /* \"#utility.yul\":10017:10039   */\n      mstore\n        /* \"#utility.yul\":9807:10045   */\n      pop\n        /* \"#utility.yul\":9764:10045   */\n      pop\n      pop\n      jump\t// out\n        /* \"#utility.yul\":10051:10231   */\n    tag_170:\n        /* \"#utility.yul\":10099:10176   */\n      0x4e487b7100000000000000000000000000000000000000000000000000000000\n        /* \"#utility.yul\":10096:10097   */\n      0x00\n        /* \"#utility.yul\":10089:10177   */\n      mstore\n        /* \"#utility.yul\":10196:10200   */\n      0x11\n        /* \"#utility.yul\":10193:10194   */\n      0x04\n        /* \"#utility.yul\":10186:10201   */\n      mstore\n        /* \"#utility.yul\":10220:10224   */\n      0x24\n        /* \"#utility.yul\":10217:10218   */\n      0x00\n        /* \"#utility.yul\":10210:10225   */\n      revert\n        /* \"#utility.yul\":10237:10417   */\n    tag_161:\n        /* \"#utility.yul\":10285:10362   */\n      0x4e487b7100000000000000000000000000000000000000000000000000000000\n        /* \"#utility.yul\":10282:10283   */\n      0x00\n        /* \"#utility.yul\":10275:10363   */\n      mstore\n        /* \"#utility.yul\":10382:10386   */\n      0x41\n        /* \"#utility.yul\":10379:10380   */\n      0x04\n        /* \"#utility.yul\":10372:10387   */\n      mstore\n        /* \"#utility.yul\":10406:10410   */\n      0x24\n        /* \"#utility.yul\":10403:10404   */\n      0x00\n        /* \"#utility.yul\":10396:10411   */\n      revert\n        /* \"#utility.yul\":10423:10540   */\n    tag_79:\n        /* \"#utility.yul\":10532:10533   */\n      0x00\n        /* \"#utility.yul\":10529:10530   */\n      dup1\n        /* \"#utility.yul\":10522:10534   */\n      revert\n        /* \"#utility.yul\":10546:10663   */\n    tag_64:\n        /* \"#utility.yul\":10655:10656   */\n      0x00\n        /* \"#utility.yul\":10652:10653   */\n      dup1\n        /* \"#utility.yul\":10645:10657   */\n      revert\n        /* \"#utility.yul\":10669:10786   */\n    tag_93:\n        /* \"#utility.yul\":10778:10779   */\n      0x00\n        /* \"#utility.yul\":10775:10776   */\n      dup1\n        /* \"#utility.yul\":10768:10780   */\n      revert\n        /* \"#utility.yul\":10792:10909   */\n    tag_88:\n        /* \"#utility.yul\":10901:10902   */\n      0x00\n        /* \"#utility.yul\":10898:10899   */\n      dup1\n        /* \"#utility.yul\":10891:10903   */\n      revert\n        /* \"#utility.yul\":10915:11017   */\n    tag_113:\n        /* \"#utility.yul\":10956:10962   */\n      0x00\n        /* \"#utility.yul\":11007:11009   */\n      0x1f\n        /* \"#utility.yul\":11003:11010   */\n      not\n        /* \"#utility.yul\":10998:11000   */\n      0x1f\n        /* \"#utility.yul\":10991:10996   */\n      dup4\n        /* \"#utility.yul\":10987:11001   */\n      add\n        /* \"#utility.yul\":10983:11011   */\n      and\n        /* \"#utility.yul\":10973:11011   */\n      swap1\n      pop\n        /* \"#utility.yul\":10915:11017   */\n      swap2\n      swap1\n      pop\n      jump\t// out\n        /* \"#utility.yul\":11023:11188   */\n    tag_118:\n        /* \"#utility.yul\":11163:11180   */\n      0x4e6f20656e6f7567682066756e64730000000000000000000000000000000000\n        /* \"#utility.yul\":11159:11160   */\n      0x00\n        /* \"#utility.yul\":11151:11157   */\n      dup3\n        /* \"#utility.yul\":11147:11161   */\n      add\n        /* \"#utility.yul\":11140:11181   */\n      mstore\n        /* \"#utility.yul\":11023:11188   */\n      pop\n      jump\t// out\n        /* \"#utility.yul\":11194:11357   */\n    tag_123:\n        /* \"#utility.yul\":11334:11349   */\n      0x596f7520617265206f776e657200000000000000000000000000000000000000\n        /* \"#utility.yul\":11330:11331   */\n      0x00\n        /* \"#utility.yul\":11322:11328   */\n      dup3\n        /* \"#utility.yul\":11318:11332   */\n      add\n        /* \"#utility.yul\":11311:11350   */\n      mstore\n        /* \"#utility.yul\":11194:11357   */\n      pop\n      jump\t// out\n        /* \"#utility.yul\":11363:11524   */\n    tag_128:\n        /* \"#utility.yul\":11503:11516   */\n      0x4e6f7420416c6c6f776564000000000000000000000000000000000000000000\n        /* \"#utility.yul\":11499:11500   */\n      0x00\n        /* \"#utility.yul\":11491:11497   */\n      dup3\n        /* \"#utility.yul\":11487:11501   */\n      add\n        /* \"#utility.yul\":11480:11517   */\n      mstore\n        /* \"#utility.yul\":11363:11524   */\n      pop\n      jump\t// out\n        /* \"#utility.yul\":11530:11697   */\n    tag_133:\n        /* \"#utility.yul\":11670:11689   */\n      0x596f7520617265206e6f74206f776e6572000000000000000000000000000000\n        /* \"#utility.yul\":11666:11667   */\n      0x00\n        /* \"#utility.yul\":11658:11664   */\n      dup3\n        /* \"#utility.yul\":11654:11668   */\n      add\n        /* \"#utility.yul\":11647:11690   */\n      mstore\n        /* \"#utility.yul\":11530:11697   */\n      pop\n      jump\t// out\n        /* \"#utility.yul\":11703:11825   */\n    tag_70:\n        /* \"#utility.yul\":11776:11800   */\n      tag_215\n        /* \"#utility.yul\":11794:11799   */\n      dup2\n        /* \"#utility.yul\":11776:11800   */\n      tag_176\n      jump\t// in\n    tag_215:\n        /* \"#utility.yul\":11769:11774   */\n      dup2\n        /* \"#utility.yul\":11766:11801   */\n      eq\n        /* \"#utility.yul\":11756:11819   */\n      tag_216\n      jumpi\n        /* \"#utility.yul\":11815:11816   */\n      0x00\n        /* \"#utility.yul\":11812:11813   */\n      dup1\n        /* \"#utility.yul\":11805:11817   */\n      revert\n        /* \"#utility.yul\":11756:11819   */\n    tag_216:\n        /* \"#utility.yul\":11703:11825   */\n      pop\n      jump\t// out\n        /* \"#utility.yul\":11831:11969   */\n    tag_74:\n        /* \"#utility.yul\":11912:11944   */\n      tag_218\n        /* \"#utility.yul\":11938:11943   */\n      dup2\n        /* \"#utility.yul\":11912:11944   */\n      tag_180\n      jump\t// in\n    tag_218:\n        /* \"#utility.yul\":11905:11910   */\n      dup2\n        /* \"#utility.yul\":11902:11945   */\n      eq\n        /* \"#utility.yul\":11892:11963   */\n      tag_219\n      jumpi\n        /* \"#utility.yul\":11959:11960   */\n      0x00\n        /* \"#utility.yul\":11956:11957   */\n      dup1\n        /* \"#utility.yul\":11949:11961   */\n      revert\n        /* \"#utility.yul\":11892:11963   */\n    tag_219:\n        /* \"#utility.yul\":11831:11969   */\n      pop\n      jump\t// out\n        /* \"#utility.yul\":11975:12097   */\n    tag_84:\n        /* \"#utility.yul\":12048:12072   */\n      tag_221\n        /* \"#utility.yul\":12066:12071   */\n      dup2\n        /* \"#utility.yul\":12048:12072   */\n      tag_137\n      jump\t// in\n    tag_221:\n        /* \"#utility.yul\":12041:12046   */\n      dup2\n        /* \"#utility.yul\":12038:12073   */\n      eq\n        /* \"#utility.yul\":12028:12091   */\n      tag_222\n      jumpi\n        /* \"#utility.yul\":12087:12088   */\n      0x00\n        /* \"#utility.yul\":12084:12085   */\n      dup1\n        /* \"#utility.yul\":12077:12089   */\n      revert\n        /* \"#utility.yul\":12028:12091   */\n    tag_222:\n        /* \"#utility.yul\":11975:12097   */\n      pop\n      jump\t// out\n\n    auxdata: 0xa264697066735822122013a72485c8bf38f85e1140d6366d19c51f553249c13fa519843f65593432ff5464736f6c63430008070033\n}\n",
				"bytecode": {
					"linkReferences": {},
					"object": "608060405234801561001057600080fd5b50336000806101000a81548173ffffffffffffffffffffffffffffffffffffffff021916908373ffffffffffffffffffffffffffffffffffffffff160217905550610b1e806100606000396000f3fe6080604052600436106100385760003560e01c806315e9977e146100445780633495e9011461006f578063f3c40c4b146100985761003f565b3661003f57005b600080fd5b34801561005057600080fd5b506100596100c1565b604051610066919061076e565b60405180910390f35b34801561007b57600080fd5b506100966004803603810190610091919061051e565b6100c9565b005b3480156100a457600080fd5b506100bf60048036038101906100ba919061058d565b610291565b005b600047905090565b816100d2610408565b8061011c575080600160003373ffffffffffffffffffffffffffffffffffffffff1673ffffffffffffffffffffffffffffffffffffffff1681526020019081526020016000205410155b61015b576040517f08c379a00000000000000000000000000000000000000000000000000000000081526004016101529061072e565b60405180910390fd5b7fa1f2e8aa7ff0c088860d7b3f0d1dc288d8e8a07808525cc31a5691f1bc0e149d84848460405161018e939291906106b0565b60405180910390a1824710156101d9576040517f08c379a00000000000000000000000000000000000000000000000000000000081526004016101d0906106ee565b60405180910390fd5b600015156101e5610408565b151514156102445782600160003373ffffffffffffffffffffffffffffffffffffffff1673ffffffffffffffffffffffffffffffffffffffff168152602001908152602001600020600082825461023c9190610851565b925050819055505b8373ffffffffffffffffffffffffffffffffffffffff166108fc849081150290604051600060405180830381858888f1935050505015801561028a573d6000803e3d6000fd5b5050505050565b3373ffffffffffffffffffffffffffffffffffffffff1660008054906101000a900473ffffffffffffffffffffffffffffffffffffffff1673ffffffffffffffffffffffffffffffffffffffff161461031f576040517f08c379a00000000000000000000000000000000000000000000000000000000081526004016103169061074e565b60405180910390fd5b60008054906101000a900473ffffffffffffffffffffffffffffffffffffffff1673ffffffffffffffffffffffffffffffffffffffff168273ffffffffffffffffffffffffffffffffffffffff1614156103ae576040517f08c379a00000000000000000000000000000000000000000000000000000000081526004016103a59061070e565b60405180910390fd5b80600160008473ffffffffffffffffffffffffffffffffffffffff1673ffffffffffffffffffffffffffffffffffffffff16815260200190815260200160002060008282546103fd91906107fb565b925050819055505050565b60003373ffffffffffffffffffffffffffffffffffffffff1660008054906101000a900473ffffffffffffffffffffffffffffffffffffffff1673ffffffffffffffffffffffffffffffffffffffff161415610467576001905061046c565b600090505b90565b600061048261047d846107ae565b610789565b90508281526020810184848401111561049e5761049d6109df565b5b6104a9848285610909565b509392505050565b6000813590506104c081610aa3565b92915050565b6000813590506104d581610aba565b92915050565b600082601f8301126104f0576104ef6109da565b5b813561050084826020860161046f565b91505092915050565b60008135905061051881610ad1565b92915050565b600080600060608486031215610537576105366109e9565b5b6000610545868287016104c6565b935050602061055686828701610509565b925050604084013567ffffffffffffffff811115610577576105766109e4565b5b610583868287016104db565b9150509250925092565b600080604083850312156105a4576105a36109e9565b5b60006105b2858286016104b1565b92505060206105c385828601610509565b9150509250929050565b6105d6816108d3565b82525050565b60006105e7826107df565b6105f181856107ea565b9350610601818560208601610918565b61060a816109ee565b840191505092915050565b6000610622600f836107ea565b915061062d826109ff565b602082019050919050565b6000610645600d836107ea565b915061065082610a28565b602082019050919050565b6000610668600b836107ea565b915061067382610a51565b602082019050919050565b600061068b6011836107ea565b915061069682610a7a565b602082019050919050565b6106aa816108c9565b82525050565b60006060820190506106c560008301866105cd565b6106d260208301856106a1565b81810360408301526106e481846105dc565b9050949350505050565b6000602082019050818103600083015261070781610615565b9050919050565b6000602082019050818103600083015261072781610638565b9050919050565b600060208201905081810360008301526107478161065b565b9050919050565b600060208201905081810360008301526107678161067e565b9050919050565b600060208201905061078360008301846106a1565b92915050565b60006107936107a4565b905061079f828261094b565b919050565b6000604051905090565b600067ffffffffffffffff8211156107c9576107c86109ab565b5b6107d2826109ee565b9050602081019050919050565b600081519050919050565b600082825260208201905092915050565b6000610806826108c9565b9150610811836108c9565b9250827fffffffffffffffffffffffffffffffffffffffffffffffffffffffffffffffff038211156108465761084561097c565b5b828201905092915050565b600061085c826108c9565b9150610867836108c9565b92508282101561087a5761087961097c565b5b828203905092915050565b6000610890826108a9565b9050919050565b60006108a2826108a9565b9050919050565b600073ffffffffffffffffffffffffffffffffffffffff82169050919050565b6000819050919050565b60006108de826108e5565b9050919050565b60006108f0826108f7565b9050919050565b6000610902826108a9565b9050919050565b82818337600083830152505050565b60005b8381101561093657808201518184015260208101905061091b565b83811115610945576000848401525b50505050565b610954826109ee565b810181811067ffffffffffffffff82111715610973576109726109ab565b5b80604052505050565b7f4e487b7100000000000000000000000000000000000000000000000000000000600052601160045260246000fd5b7f4e487b7100000000000000000000000000000000000000000000000000000000600052604160045260246000fd5b600080fd5b600080fd5b600080fd5b600080fd5b6000601f19601f8301169050919050565b7f4e6f20656e6f7567682066756e64730000000000000000000000000000000000600082015250565b7f596f7520617265206f776e657200000000000000000000000000000000000000600082015250565b7f4e6f7420416c6c6f776564000000000000000000000000000000000000000000600082015250565b7f596f7520617265206e6f74206f776e6572000000000000000000000000000000600082015250565b610aac81610885565b8114610ab757600080fd5b50565b610ac381610897565b8114610ace57600080fd5b50565b610ada816108c9565b8114610ae557600080fd5b5056fea264697066735822122013a72485c8bf38f85e1140d6366d19c51f553249c13fa519843f65593432ff5464736f6c63430008070033",
					"opcodes": "PUSH1 0x80 PUSH1 0x40 MSTORE CALLVALUE DUP1 ISZERO PUSH2 0x10 JUMPI PUSH1 0x0 DUP1 REVERT JUMPDEST POP CALLER PUSH1 0x0 DUP1 PUSH2 0x100 EXP DUP2 SLOAD DUP2 PUSH20 0xFFFFFFFFFFFFFFFFFFFFFFFFFFFFFFFFFFFFFFFF MUL NOT AND SWAP1 DUP4 PUSH20 0xFFFFFFFFFFFFFFFFFFFFFFFFFFFFFFFFFFFFFFFF AND MUL OR SWAP1 SSTORE POP PUSH2 0xB1E DUP1 PUSH2 0x60 PUSH1 0x0 CODECOPY PUSH1 0x0 RETURN INVALID PUSH1 0x80 PUSH1 0x40 MSTORE PUSH1 0x4 CALLDATASIZE LT PUSH2 0x38 JUMPI PUSH1 0x0 CALLDATALOAD PUSH1 0xE0 SHR DUP1 PUSH4 0x15E9977E EQ PUSH2 0x44 JUMPI DUP1 PUSH4 0x3495E901 EQ PUSH2 0x6F JUMPI DUP1 PUSH4 0xF3C40C4B EQ PUSH2 0x98 JUMPI PUSH2 0x3F JUMP JUMPDEST CALLDATASIZE PUSH2 0x3F JUMPI STOP JUMPDEST PUSH1 0x0 DUP1 REVERT JUMPDEST CALLVALUE DUP1 ISZERO PUSH2 0x50 JUMPI PUSH1 0x0 DUP1 REVERT JUMPDEST POP PUSH2 0x59 PUSH2 0xC1 JUMP JUMPDEST PUSH1 0x40 MLOAD PUSH2 0x66 SWAP2 SWAP1 PUSH2 0x76E JUMP JUMPDEST PUSH1 0x40 MLOAD DUP1 SWAP2 SUB SWAP1 RETURN JUMPDEST CALLVALUE DUP1 ISZERO PUSH2 0x7B JUMPI PUSH1 0x0 DUP1 REVERT JUMPDEST POP PUSH2 0x96 PUSH1 0x4 DUP1 CALLDATASIZE SUB DUP2 ADD SWAP1 PUSH2 0x91 SWAP2 SWAP1 PUSH2 0x51E JUMP JUMPDEST PUSH2 0xC9 JUMP JUMPDEST STOP JUMPDEST CALLVALUE DUP1 ISZERO PUSH2 0xA4 JUMPI PUSH1 0x0 DUP1 REVERT JUMPDEST POP PUSH2 0xBF PUSH1 0x4 DUP1 CALLDATASIZE SUB DUP2 ADD SWAP1 PUSH2 0xBA SWAP2 SWAP1 PUSH2 0x58D JUMP JUMPDEST PUSH2 0x291 JUMP JUMPDEST STOP JUMPDEST PUSH1 0x0 SELFBALANCE SWAP1 POP SWAP1 JUMP JUMPDEST DUP2 PUSH2 0xD2 PUSH2 0x408 JUMP JUMPDEST DUP1 PUSH2 0x11C JUMPI POP DUP1 PUSH1 0x1 PUSH1 0x0 CALLER PUSH20 0xFFFFFFFFFFFFFFFFFFFFFFFFFFFFFFFFFFFFFFFF AND PUSH20 0xFFFFFFFFFFFFFFFFFFFFFFFFFFFFFFFFFFFFFFFF AND DUP2 MSTORE PUSH1 0x20 ADD SWAP1 DUP2 MSTORE PUSH1 0x20 ADD PUSH1 0x0 KECCAK256 SLOAD LT ISZERO JUMPDEST PUSH2 0x15B JUMPI PUSH1 0x40 MLOAD PUSH32 0x8C379A000000000000000000000000000000000000000000000000000000000 DUP2 MSTORE PUSH1 0x4 ADD PUSH2 0x152 SWAP1 PUSH2 0x72E JUMP JUMPDEST PUSH1 0x40 MLOAD DUP1 SWAP2 SUB SWAP1 REVERT JUMPDEST PUSH32 0xA1F2E8AA7FF0C088860D7B3F0D1DC288D8E8A07808525CC31A5691F1BC0E149D DUP5 DUP5 DUP5 PUSH1 0x40 MLOAD PUSH2 0x18E SWAP4 SWAP3 SWAP2 SWAP1 PUSH2 0x6B0 JUMP JUMPDEST PUSH1 0x40 MLOAD DUP1 SWAP2 SUB SWAP1 LOG1 DUP3 SELFBALANCE LT ISZERO PUSH2 0x1D9 JUMPI PUSH1 0x40 MLOAD PUSH32 0x8C379A000000000000000000000000000000000000000000000000000000000 DUP2 MSTORE PUSH1 0x4 ADD PUSH2 0x1D0 SWAP1 PUSH2 0x6EE JUMP JUMPDEST PUSH1 0x40 MLOAD DUP1 SWAP2 SUB SWAP1 REVERT JUMPDEST PUSH1 0x0 ISZERO ISZERO PUSH2 0x1E5 PUSH2 0x408 JUMP JUMPDEST ISZERO ISZERO EQ ISZERO PUSH2 0x244 JUMPI DUP3 PUSH1 0x1 PUSH1 0x0 CALLER PUSH20 0xFFFFFFFFFFFFFFFFFFFFFFFFFFFFFFFFFFFFFFFF AND PUSH20 0xFFFFFFFFFFFFFFFFFFFFFFFFFFFFFFFFFFFFFFFF AND DUP2 MSTORE PUSH1 0x20 ADD SWAP1 DUP2 MSTORE PUSH1 0x20 ADD PUSH1 0x0 KECCAK256 PUSH1 0x0 DUP3 DUP3 SLOAD PUSH2 0x23C SWAP2 SWAP1 PUSH2 0x851 JUMP JUMPDEST SWAP3 POP POP DUP2 SWAP1 SSTORE POP JUMPDEST DUP4 PUSH20 0xFFFFFFFFFFFFFFFFFFFFFFFFFFFFFFFFFFFFFFFF AND PUSH2 0x8FC DUP5 SWAP1 DUP2 ISZERO MUL SWAP1 PUSH1 0x40 MLOAD PUSH1 0x0 PUSH1 0x40 MLOAD DUP1 DUP4 SUB DUP2 DUP6 DUP9 DUP9 CALL SWAP4 POP POP POP POP ISZERO DUP1 ISZERO PUSH2 0x28A JUMPI RETURNDATASIZE PUSH1 0x0 DUP1 RETURNDATACOPY RETURNDATASIZE PUSH1 0x0 REVERT JUMPDEST POP POP POP POP POP JUMP JUMPDEST CALLER PUSH20 0xFFFFFFFFFFFFFFFFFFFFFFFFFFFFFFFFFFFFFFFF AND PUSH1 0x0 DUP1 SLOAD SWAP1 PUSH2 0x100 EXP SWAP1 DIV PUSH20 0xFFFFFFFFFFFFFFFFFFFFFFFFFFFFFFFFFFFFFFFF AND PUSH20 0xFFFFFFFFFFFFFFFFFFFFFFFFFFFFFFFFFFFFFFFF AND EQ PUSH2 0x31F JUMPI PUSH1 0x40 MLOAD PUSH32 0x8C379A000000000000000000000000000000000000000000000000000000000 DUP2 MSTORE PUSH1 0x4 ADD PUSH2 0x316 SWAP1 PUSH2 0x74E JUMP JUMPDEST PUSH1 0x40 MLOAD DUP1 SWAP2 SUB SWAP1 REVERT JUMPDEST PUSH1 0x0 DUP1 SLOAD SWAP1 PUSH2 0x100 EXP SWAP1 DIV PUSH20 0xFFFFFFFFFFFFFFFFFFFFFFFFFFFFFFFFFFFFFFFF AND PUSH20 0xFFFFFFFFFFFFFFFFFFFFFFFFFFFFFFFFFFFFFFFF AND DUP3 PUSH20 0xFFFFFFFFFFFFFFFFFFFFFFFFFFFFFFFFFFFFFFFF AND EQ ISZERO PUSH2 0x3AE JUMPI PUSH1 0x40 MLOAD PUSH32 0x8C379A000000000000000000000000000000000000000000000000000000000 DUP2 MSTORE PUSH1 0x4 ADD PUSH2 0x3A5 SWAP1 PUSH2 0x70E JUMP JUMPDEST PUSH1 0x40 MLOAD DUP1 SWAP2 SUB SWAP1 REVERT JUMPDEST DUP1 PUSH1 0x1 PUSH1 0x0 DUP5 PUSH20 0xFFFFFFFFFFFFFFFFFFFFFFFFFFFFFFFFFFFFFFFF AND PUSH20 0xFFFFFFFFFFFFFFFFFFFFFFFFFFFFFFFFFFFFFFFF AND DUP2 MSTORE PUSH1 0x20 ADD SWAP1 DUP2 MSTORE PUSH1 0x20 ADD PUSH1 0x0 KECCAK256 PUSH1 0x0 DUP3 DUP3 SLOAD PUSH2 0x3FD SWAP2 SWAP1 PUSH2 0x7FB JUMP JUMPDEST SWAP3 POP POP DUP2 SWAP1 SSTORE POP POP POP JUMP JUMPDEST PUSH1 0x0 CALLER PUSH20 0xFFFFFFFFFFFFFFFFFFFFFFFFFFFFFFFFFFFFFFFF AND PUSH1 0x0 DUP1 SLOAD SWAP1 PUSH2 0x100 EXP SWAP1 DIV PUSH20 0xFFFFFFFFFFFFFFFFFFFFFFFFFFFFFFFFFFFFFFFF AND PUSH20 0xFFFFFFFFFFFFFFFFFFFFFFFFFFFFFFFFFFFFFFFF AND EQ ISZERO PUSH2 0x467 JUMPI PUSH1 0x1 SWAP1 POP PUSH2 0x46C JUMP JUMPDEST PUSH1 0x0 SWAP1 POP JUMPDEST SWAP1 JUMP JUMPDEST PUSH1 0x0 PUSH2 0x482 PUSH2 0x47D DUP5 PUSH2 0x7AE JUMP JUMPDEST PUSH2 0x789 JUMP JUMPDEST SWAP1 POP DUP3 DUP2 MSTORE PUSH1 0x20 DUP2 ADD DUP5 DUP5 DUP5 ADD GT ISZERO PUSH2 0x49E JUMPI PUSH2 0x49D PUSH2 0x9DF JUMP JUMPDEST JUMPDEST PUSH2 0x4A9 DUP5 DUP3 DUP6 PUSH2 0x909 JUMP JUMPDEST POP SWAP4 SWAP3 POP POP POP JUMP JUMPDEST PUSH1 0x0 DUP2 CALLDATALOAD SWAP1 POP PUSH2 0x4C0 DUP2 PUSH2 0xAA3 JUMP JUMPDEST SWAP3 SWAP2 POP POP JUMP JUMPDEST PUSH1 0x0 DUP2 CALLDATALOAD SWAP1 POP PUSH2 0x4D5 DUP2 PUSH2 0xABA JUMP JUMPDEST SWAP3 SWAP2 POP POP JUMP JUMPDEST PUSH1 0x0 DUP3 PUSH1 0x1F DUP4 ADD SLT PUSH2 0x4F0 JUMPI PUSH2 0x4EF PUSH2 0x9DA JUMP JUMPDEST JUMPDEST DUP2 CALLDATALOAD PUSH2 0x500 DUP5 DUP3 PUSH1 0x20 DUP7 ADD PUSH2 0x46F JUMP JUMPDEST SWAP2 POP POP SWAP3 SWAP2 POP POP JUMP JUMPDEST PUSH1 0x0 DUP2 CALLDATALOAD SWAP1 POP PUSH2 0x518 DUP2 PUSH2 0xAD1 JUMP JUMPDEST SWAP3 SWAP2 POP POP JUMP JUMPDEST PUSH1 0x0 DUP1 PUSH1 0x0 PUSH1 0x60 DUP5 DUP7 SUB SLT ISZERO PUSH2 0x537 JUMPI PUSH2 0x536 PUSH2 0x9E9 JUMP JUMPDEST JUMPDEST PUSH1 0x0 PUSH2 0x545 DUP7 DUP3 DUP8 ADD PUSH2 0x4C6 JUMP JUMPDEST SWAP4 POP POP PUSH1 0x20 PUSH2 0x556 DUP7 DUP3 DUP8 ADD PUSH2 0x509 JUMP JUMPDEST SWAP3 POP POP PUSH1 0x40 DUP5 ADD CALLDATALOAD PUSH8 0xFFFFFFFFFFFFFFFF DUP2 GT ISZERO PUSH2 0x577 JUMPI PUSH2 0x576 PUSH2 0x9E4 JUMP JUMPDEST JUMPDEST PUSH2 0x583 DUP7 DUP3 DUP8 ADD PUSH2 0x4DB JUMP JUMPDEST SWAP2 POP POP SWAP3 POP SWAP3 POP SWAP3 JUMP JUMPDEST PUSH1 0x0 DUP1 PUSH1 0x40 DUP4 DUP6 SUB SLT ISZERO PUSH2 0x5A4 JUMPI PUSH2 0x5A3 PUSH2 0x9E9 JUMP JUMPDEST JUMPDEST PUSH1 0x0 PUSH2 0x5B2 DUP6 DUP3 DUP7 ADD PUSH2 0x4B1 JUMP JUMPDEST SWAP3 POP POP PUSH1 0x20 PUSH2 0x5C3 DUP6 DUP3 DUP7 ADD PUSH2 0x509 JUMP JUMPDEST SWAP2 POP POP SWAP3 POP SWAP3 SWAP1 POP JUMP JUMPDEST PUSH2 0x5D6 DUP2 PUSH2 0x8D3 JUMP JUMPDEST DUP3 MSTORE POP POP JUMP JUMPDEST PUSH1 0x0 PUSH2 0x5E7 DUP3 PUSH2 0x7DF JUMP JUMPDEST PUSH2 0x5F1 DUP2 DUP6 PUSH2 0x7EA JUMP JUMPDEST SWAP4 POP PUSH2 0x601 DUP2 DUP6 PUSH1 0x20 DUP7 ADD PUSH2 0x918 JUMP JUMPDEST PUSH2 0x60A DUP2 PUSH2 0x9EE JUMP JUMPDEST DUP5 ADD SWAP2 POP POP SWAP3 SWAP2 POP POP JUMP JUMPDEST PUSH1 0x0 PUSH2 0x622 PUSH1 0xF DUP4 PUSH2 0x7EA JUMP JUMPDEST SWAP2 POP PUSH2 0x62D DUP3 PUSH2 0x9FF JUMP JUMPDEST PUSH1 0x20 DUP3 ADD SWAP1 POP SWAP2 SWAP1 POP JUMP JUMPDEST PUSH1 0x0 PUSH2 0x645 PUSH1 0xD DUP4 PUSH2 0x7EA JUMP JUMPDEST SWAP2 POP PUSH2 0x650 DUP3 PUSH2 0xA28 JUMP JUMPDEST PUSH1 0x20 DUP3 ADD SWAP1 POP SWAP2 SWAP1 POP JUMP JUMPDEST PUSH1 0x0 PUSH2 0x668 PUSH1 0xB DUP4 PUSH2 0x7EA JUMP JUMPDEST SWAP2 POP PUSH2 0x673 DUP3 PUSH2 0xA51 JUMP JUMPDEST PUSH1 0x20 DUP3 ADD SWAP1 POP SWAP2 SWAP1 POP JUMP JUMPDEST PUSH1 0x0 PUSH2 0x68B PUSH1 0x11 DUP4 PUSH2 0x7EA JUMP JUMPDEST SWAP2 POP PUSH2 0x696 DUP3 PUSH2 0xA7A JUMP JUMPDEST PUSH1 0x20 DUP3 ADD SWAP1 POP SWAP2 SWAP1 POP JUMP JUMPDEST PUSH2 0x6AA DUP2 PUSH2 0x8C9 JUMP JUMPDEST DUP3 MSTORE POP POP JUMP JUMPDEST PUSH1 0x0 PUSH1 0x60 DUP3 ADD SWAP1 POP PUSH2 0x6C5 PUSH1 0x0 DUP4 ADD DUP7 PUSH2 0x5CD JUMP JUMPDEST PUSH2 0x6D2 PUSH1 0x20 DUP4 ADD DUP6 PUSH2 0x6A1 JUMP JUMPDEST DUP2 DUP2 SUB PUSH1 0x40 DUP4 ADD MSTORE PUSH2 0x6E4 DUP2 DUP5 PUSH2 0x5DC JUMP JUMPDEST SWAP1 POP SWAP5 SWAP4 POP POP POP POP JUMP JUMPDEST PUSH1 0x0 PUSH1 0x20 DUP3 ADD SWAP1 POP DUP2 DUP2 SUB PUSH1 0x0 DUP4 ADD MSTORE PUSH2 0x707 DUP2 PUSH2 0x615 JUMP JUMPDEST SWAP1 POP SWAP2 SWAP1 POP JUMP JUMPDEST PUSH1 0x0 PUSH1 0x20 DUP3 ADD SWAP1 POP DUP2 DUP2 SUB PUSH1 0x0 DUP4 ADD MSTORE PUSH2 0x727 DUP2 PUSH2 0x638 JUMP JUMPDEST SWAP1 POP SWAP2 SWAP1 POP JUMP JUMPDEST PUSH1 0x0 PUSH1 0x20 DUP3 ADD SWAP1 POP DUP2 DUP2 SUB PUSH1 0x0 DUP4 ADD MSTORE PUSH2 0x747 DUP2 PUSH2 0x65B JUMP JUMPDEST SWAP1 POP SWAP2 SWAP1 POP JUMP JUMPDEST PUSH1 0x0 PUSH1 0x20 DUP3 ADD SWAP1 POP DUP2 DUP2 SUB PUSH1 0x0 DUP4 ADD MSTORE PUSH2 0x767 DUP2 PUSH2 0x67E JUMP JUMPDEST SWAP1 POP SWAP2 SWAP1 POP JUMP JUMPDEST PUSH1 0x0 PUSH1 0x20 DUP3 ADD SWAP1 POP PUSH2 0x783 PUSH1 0x0 DUP4 ADD DUP5 PUSH2 0x6A1 JUMP JUMPDEST SWAP3 SWAP2 POP POP JUMP JUMPDEST PUSH1 0x0 PUSH2 0x793 PUSH2 0x7A4 JUMP JUMPDEST SWAP1 POP PUSH2 0x79F DUP3 DUP3 PUSH2 0x94B JUMP JUMPDEST SWAP2 SWAP1 POP JUMP JUMPDEST PUSH1 0x0 PUSH1 0x40 MLOAD SWAP1 POP SWAP1 JUMP JUMPDEST PUSH1 0x0 PUSH8 0xFFFFFFFFFFFFFFFF DUP3 GT ISZERO PUSH2 0x7C9 JUMPI PUSH2 0x7C8 PUSH2 0x9AB JUMP JUMPDEST JUMPDEST PUSH2 0x7D2 DUP3 PUSH2 0x9EE JUMP JUMPDEST SWAP1 POP PUSH1 0x20 DUP2 ADD SWAP1 POP SWAP2 SWAP1 POP JUMP JUMPDEST PUSH1 0x0 DUP2 MLOAD SWAP1 POP SWAP2 SWAP1 POP JUMP JUMPDEST PUSH1 0x0 DUP3 DUP3 MSTORE PUSH1 0x20 DUP3 ADD SWAP1 POP SWAP3 SWAP2 POP POP JUMP JUMPDEST PUSH1 0x0 PUSH2 0x806 DUP3 PUSH2 0x8C9 JUMP JUMPDEST SWAP2 POP PUSH2 0x811 DUP4 PUSH2 0x8C9 JUMP JUMPDEST SWAP3 POP DUP3 PUSH32 0xFFFFFFFFFFFFFFFFFFFFFFFFFFFFFFFFFFFFFFFFFFFFFFFFFFFFFFFFFFFFFFFF SUB DUP3 GT ISZERO PUSH2 0x846 JUMPI PUSH2 0x845 PUSH2 0x97C JUMP JUMPDEST JUMPDEST DUP3 DUP3 ADD SWAP1 POP SWAP3 SWAP2 POP POP JUMP JUMPDEST PUSH1 0x0 PUSH2 0x85C DUP3 PUSH2 0x8C9 JUMP JUMPDEST SWAP2 POP PUSH2 0x867 DUP4 PUSH2 0x8C9 JUMP JUMPDEST SWAP3 POP DUP3 DUP3 LT ISZERO PUSH2 0x87A JUMPI PUSH2 0x879 PUSH2 0x97C JUMP JUMPDEST JUMPDEST DUP3 DUP3 SUB SWAP1 POP SWAP3 SWAP2 POP POP JUMP JUMPDEST PUSH1 0x0 PUSH2 0x890 DUP3 PUSH2 0x8A9 JUMP JUMPDEST SWAP1 POP SWAP2 SWAP1 POP JUMP JUMPDEST PUSH1 0x0 PUSH2 0x8A2 DUP3 PUSH2 0x8A9 JUMP JUMPDEST SWAP1 POP SWAP2 SWAP1 POP JUMP JUMPDEST PUSH1 0x0 PUSH20 0xFFFFFFFFFFFFFFFFFFFFFFFFFFFFFFFFFFFFFFFF DUP3 AND SWAP1 POP SWAP2 SWAP1 POP JUMP JUMPDEST PUSH1 0x0 DUP2 SWAP1 POP SWAP2 SWAP1 POP JUMP JUMPDEST PUSH1 0x0 PUSH2 0x8DE DUP3 PUSH2 0x8E5 JUMP JUMPDEST SWAP1 POP SWAP2 SWAP1 POP JUMP JUMPDEST PUSH1 0x0 PUSH2 0x8F0 DUP3 PUSH2 0x8F7 JUMP JUMPDEST SWAP1 POP SWAP2 SWAP1 POP JUMP JUMPDEST PUSH1 0x0 PUSH2 0x902 DUP3 PUSH2 0x8A9 JUMP JUMPDEST SWAP1 POP SWAP2 SWAP1 POP JUMP JUMPDEST DUP3 DUP2 DUP4 CALLDATACOPY PUSH1 0x0 DUP4 DUP4 ADD MSTORE POP POP POP JUMP JUMPDEST PUSH1 0x0 JUMPDEST DUP4 DUP2 LT ISZERO PUSH2 0x936 JUMPI DUP1 DUP3 ADD MLOAD DUP2 DUP5 ADD MSTORE PUSH1 0x20 DUP2 ADD SWAP1 POP PUSH2 0x91B JUMP JUMPDEST DUP4 DUP2 GT ISZERO PUSH2 0x945 JUMPI PUSH1 0x0 DUP5 DUP5 ADD MSTORE JUMPDEST POP POP POP POP JUMP JUMPDEST PUSH2 0x954 DUP3 PUSH2 0x9EE JUMP JUMPDEST DUP2 ADD DUP2 DUP2 LT PUSH8 0xFFFFFFFFFFFFFFFF DUP3 GT OR ISZERO PUSH2 0x973 JUMPI PUSH2 0x972 PUSH2 0x9AB JUMP JUMPDEST JUMPDEST DUP1 PUSH1 0x40 MSTORE POP POP POP JUMP JUMPDEST PUSH32 0x4E487B7100000000000000000000000000000000000000000000000000000000 PUSH1 0x0 MSTORE PUSH1 0x11 PUSH1 0x4 MSTORE PUSH1 0x24 PUSH1 0x0 REVERT JUMPDEST PUSH32 0x4E487B7100000000000000000000000000000000000000000000000000000000 PUSH1 0x0 MSTORE PUSH1 0x41 PUSH1 0x4 MSTORE PUSH1 0x24 PUSH1 0x0 REVERT JUMPDEST PUSH1 0x0 DUP1 REVERT JUMPDEST PUSH1 0x0 DUP1 REVERT JUMPDEST PUSH1 0x0 DUP1 REVERT JUMPDEST PUSH1 0x0 DUP1 REVERT JUMPDEST PUSH1 0x0 PUSH1 0x1F NOT PUSH1 0x1F DUP4 ADD AND SWAP1 POP SWAP2 SWAP1 POP JUMP JUMPDEST PUSH32 0x4E6F20656E6F7567682066756E64730000000000000000000000000000000000 PUSH1 0x0 DUP3 ADD MSTORE POP JUMP JUMPDEST PUSH32 0x596F7520617265206F776E657200000000000000000000000000000000000000 PUSH1 0x0 DUP3 ADD MSTORE POP JUMP JUMPDEST PUSH32 0x4E6F7420416C6C6F776564000000000000000000000000000000000000000000 PUSH1 0x0 DUP3 ADD MSTORE POP JUMP JUMPDEST PUSH32 0x596F7520617265206E6F74206F776E6572000000000000000000000000000000 PUSH1 0x0 DUP3 ADD MSTORE POP JUMP JUMPDEST PUSH2 0xAAC DUP2 PUSH2 0x885 JUMP JUMPDEST DUP2 EQ PUSH2 0xAB7 JUMPI PUSH1 0x0 DUP1 REVERT JUMPDEST POP JUMP JUMPDEST PUSH2 0xAC3 DUP2 PUSH2 0x897 JUMP JUMPDEST DUP2 EQ PUSH2 0xACE JUMPI PUSH1 0x0 DUP1 REVERT JUMPDEST POP JUMP JUMPDEST PUSH2 0xADA DUP2 PUSH2 0x8C9 JUMP JUMPDEST DUP2 EQ PUSH2 0xAE5 JUMPI PUSH1 0x0 DUP1 REVERT JUMPDEST POP JUMP INVALID LOG2 PUSH5 0x6970667358 0x22 SLT KECCAK256 SGT 0xA7 0x24 DUP6 0xC8 0xBF CODESIZE 0xF8 0x5E GT BLOCKHASH 0xD6 CALLDATASIZE PUSH14 0x19C51F553249C13FA519843F6559 CALLVALUE ORIGIN SELFDESTRUCT SLOAD PUSH5 0x736F6C6343 STOP ADDMOD SMOD STOP CALLER "
				},
				"gasEstimates": {
					"creation": {
						"codeDepositCost": "569200",
						"executionCost": "24866",
						"totalCost": "594066"
					},
					"external": {
						"BALANCE()": "317",
						"addAllowance(address,uint256)": "infinite",
						"withdrawMoney(address,uint256,string)": "infinite"
					},
					"internal": {
						"isOwner()": "2204"
					}
				},
				"methodIdentifiers": {
					"BALANCE()": "15e9977e",
					"addAllowance(address,uint256)": "f3c40c4b",
					"withdrawMoney(address,uint256,string)": "3495e901"
				}
			},
			"storageLayout": {
				"storage": [
					{
						"astId": 3,
						"contract": "Allowance.sol:main",
						"label": "owner",
						"offset": 0,
						"slot": "0",
						"type": "t_address"
					},
					{
						"astId": 7,
						"contract": "Allowance.sol:main",
						"label": "allowance",
						"offset": 0,
						"slot": "1",
						"type": "t_mapping(t_address,t_uint256)"
					}
				],
				"types": {
					"t_address": {
						"encoding": "inplace",
						"label": "address",
						"numberOfBytes": "20"
					},
					"t_mapping(t_address,t_uint256)": {
						"encoding": "mapping",
						"key": "t_address",
						"label": "mapping(address => uint256)",
						"numberOfBytes": "32",
						"value": "t_uint256"
					},
					"t_uint256": {
						"encoding": "inplace",
						"label": "uint256",
						"numberOfBytes": "32"
					}
				}
			},
			"userdoc": {
				"kind": "user",
				"methods": {},
				"version": 1
			}
		}
	}
}