{
	"Allowance.sol": {
		"main": {
			"abi": [
				{
					"inputs": [],
					"stateMutability": "nonpayable",
					"type": "constructor"
				},
				{
					"inputs": [],
					"name": "BALANCE",
					"outputs": [
						{
							"internalType": "uint256",
							"name": "",
							"type": "uint256"
						}
					],
					"stateMutability": "view",
					"type": "function"
				},
				{
					"inputs": [
						{
							"internalType": "address",
							"name": "_to",
							"type": "address"
						},
						{
							"internalType": "uint256",
							"name": "_amount",
							"type": "uint256"
						}
					],
					"name": "addAllowance",
					"outputs": [],
					"stateMutability": "nonpayable",
					"type": "function"
				},
				{
					"inputs": [],
					"name": "withDrawMoney",
					"outputs": [],
					"stateMutability": "nonpayable",
					"type": "function"
				},
				{
					"stateMutability": "payable",
					"type": "receive"
				}
			],
			"devdoc": {
				"kind": "dev",
				"methods": {},
				"version": 1
			},
			"evm": {
				"assembly": "    /* \"Allowance.sol\":59:646  contract main{\r... */\n  mstore(0x40, 0x80)\n    /* \"Allowance.sol\":153:203  constructor(){\r... */\n  callvalue\n  dup1\n  iszero\n  tag_1\n  jumpi\n  0x00\n  dup1\n  revert\ntag_1:\n  pop\n    /* \"Allowance.sol\":185:195  msg.sender */\n  caller\n    /* \"Allowance.sol\":177:182  owner */\n  0x00\n  dup1\n    /* \"Allowance.sol\":177:195  owner = msg.sender */\n  0x0100\n  exp\n  dup2\n  sload\n  dup2\n  0xffffffffffffffffffffffffffffffffffffffff\n  mul\n  not\n  and\n  swap1\n  dup4\n  0xffffffffffffffffffffffffffffffffffffffff\n  and\n  mul\n  or\n  swap1\n  sstore\n  pop\n    /* \"Allowance.sol\":59:646  contract main{\r... */\n  dataSize(sub_0)\n  dup1\n  dataOffset(sub_0)\n  0x00\n  codecopy\n  0x00\n  return\nstop\n\nsub_0: assembly {\n        /* \"Allowance.sol\":59:646  contract main{\r... */\n      mstore(0x40, 0x80)\n      jumpi(tag_1, lt(calldatasize, 0x04))\n      shr(0xe0, calldataload(0x00))\n      dup1\n      0x15e9977e\n      eq\n      tag_3\n      jumpi\n      dup1\n      0x176e5f32\n      eq\n      tag_4\n      jumpi\n      dup1\n      0xf3c40c4b\n      eq\n      tag_5\n      jumpi\n      jump(tag_2)\n    tag_1:\n      jumpi(tag_2, calldatasize)\n      stop\n    tag_2:\n      0x00\n      dup1\n      revert\n        /* \"Allowance.sol\":550:641  function BALANCE() public view returns(uint){\r... */\n    tag_3:\n      callvalue\n      dup1\n      iszero\n      tag_8\n      jumpi\n      0x00\n      dup1\n      revert\n    tag_8:\n      pop\n      tag_9\n      tag_10\n      jump\t// in\n    tag_9:\n      mload(0x40)\n      tag_11\n      swap2\n      swap1\n      tag_12\n      jump\t// in\n    tag_11:\n      mload(0x40)\n      dup1\n      swap2\n      sub\n      swap1\n      return\n        /* \"Allowance.sol\":489:538  function withDrawMoney() public{\r... */\n    tag_4:\n      callvalue\n      dup1\n      iszero\n      tag_13\n      jumpi\n      0x00\n      dup1\n      revert\n    tag_13:\n      pop\n      tag_14\n      tag_15\n      jump\t// in\n    tag_14:\n      stop\n        /* \"Allowance.sol\":371:481  function addAllowance(address _to, uint _amount) public onlyOwner {\r... */\n    tag_5:\n      callvalue\n      dup1\n      iszero\n      tag_16\n      jumpi\n      0x00\n      dup1\n      revert\n    tag_16:\n      pop\n      tag_17\n      0x04\n      dup1\n      calldatasize\n      sub\n      dup2\n      add\n      swap1\n      tag_18\n      swap2\n      swap1\n      tag_19\n      jump\t// in\n    tag_18:\n      tag_20\n      jump\t// in\n    tag_17:\n      stop\n        /* \"Allowance.sol\":550:641  function BALANCE() public view returns(uint){\r... */\n    tag_10:\n        /* \"Allowance.sol\":589:593  uint */\n      0x00\n        /* \"Allowance.sol\":612:633  address(this).balance */\n      selfbalance\n        /* \"Allowance.sol\":605:633  return address(this).balance */\n      swap1\n      pop\n        /* \"Allowance.sol\":550:641  function BALANCE() public view returns(uint){\r... */\n      swap1\n      jump\t// out\n        /* \"Allowance.sol\":489:538  function withDrawMoney() public{\r... */\n    tag_15:\n      jump\t// out\n        /* \"Allowance.sol\":371:481  function addAllowance(address _to, uint _amount) public onlyOwner {\r... */\n    tag_20:\n        /* \"Allowance.sol\":311:321  msg.sender */\n      caller\n        /* \"Allowance.sol\":302:321  owner == msg.sender */\n      0xffffffffffffffffffffffffffffffffffffffff\n      and\n        /* \"Allowance.sol\":302:307  owner */\n      0x00\n      dup1\n      sload\n      swap1\n      0x0100\n      exp\n      swap1\n      div\n      0xffffffffffffffffffffffffffffffffffffffff\n      and\n        /* \"Allowance.sol\":302:321  owner == msg.sender */\n      0xffffffffffffffffffffffffffffffffffffffff\n      and\n      eq\n        /* \"Allowance.sol\":294:343  require(owner == msg.sender, \"You are not owner\") */\n      tag_24\n      jumpi\n      mload(0x40)\n      0x08c379a000000000000000000000000000000000000000000000000000000000\n      dup2\n      mstore\n      0x04\n      add\n      tag_25\n      swap1\n      tag_26\n      jump\t// in\n    tag_25:\n      mload(0x40)\n      dup1\n      swap2\n      sub\n      swap1\n      revert\n    tag_24:\n        /* \"Allowance.sol\":466:473  _amount */\n      dup1\n        /* \"Allowance.sol\":448:457  allowance */\n      0x01\n        /* \"Allowance.sol\":448:462  allowance[_to] */\n      0x00\n        /* \"Allowance.sol\":458:461  _to */\n      dup5\n        /* \"Allowance.sol\":448:462  allowance[_to] */\n      0xffffffffffffffffffffffffffffffffffffffff\n      and\n      0xffffffffffffffffffffffffffffffffffffffff\n      and\n      dup2\n      mstore\n      0x20\n      add\n      swap1\n      dup2\n      mstore\n      0x20\n      add\n      0x00\n      keccak256\n      0x00\n        /* \"Allowance.sol\":448:473  allowance[_to] += _amount */\n      dup3\n      dup3\n      sload\n      tag_28\n      swap2\n      swap1\n      tag_29\n      jump\t// in\n    tag_28:\n      swap3\n      pop\n      pop\n      dup2\n      swap1\n      sstore\n      pop\n        /* \"Allowance.sol\":371:481  function addAllowance(address _to, uint _amount) public onlyOwner {\r... */\n      pop\n      pop\n      jump\t// out\n        /* \"#utility.yul\":7:146   */\n    tag_31:\n        /* \"#utility.yul\":53:58   */\n      0x00\n        /* \"#utility.yul\":91:97   */\n      dup2\n        /* \"#utility.yul\":78:98   */\n      calldataload\n        /* \"#utility.yul\":69:98   */\n      swap1\n      pop\n        /* \"#utility.yul\":107:140   */\n      tag_33\n        /* \"#utility.yul\":134:139   */\n      dup2\n        /* \"#utility.yul\":107:140   */\n      tag_34\n      jump\t// in\n    tag_33:\n        /* \"#utility.yul\":7:146   */\n      swap3\n      swap2\n      pop\n      pop\n      jump\t// out\n        /* \"#utility.yul\":152:291   */\n    tag_35:\n        /* \"#utility.yul\":198:203   */\n      0x00\n        /* \"#utility.yul\":236:242   */\n      dup2\n        /* \"#utility.yul\":223:243   */\n      calldataload\n        /* \"#utility.yul\":214:243   */\n      swap1\n      pop\n        /* \"#utility.yul\":252:285   */\n      tag_37\n        /* \"#utility.yul\":279:284   */\n      dup2\n        /* \"#utility.yul\":252:285   */\n      tag_38\n      jump\t// in\n    tag_37:\n        /* \"#utility.yul\":152:291   */\n      swap3\n      swap2\n      pop\n      pop\n      jump\t// out\n        /* \"#utility.yul\":297:771   */\n    tag_19:\n        /* \"#utility.yul\":365:371   */\n      0x00\n        /* \"#utility.yul\":373:379   */\n      dup1\n        /* \"#utility.yul\":422:424   */\n      0x40\n        /* \"#utility.yul\":410:419   */\n      dup4\n        /* \"#utility.yul\":401:408   */\n      dup6\n        /* \"#utility.yul\":397:420   */\n      sub\n        /* \"#utility.yul\":393:425   */\n      slt\n        /* \"#utility.yul\":390:509   */\n      iszero\n      tag_40\n      jumpi\n        /* \"#utility.yul\":428:507   */\n      tag_41\n      tag_42\n      jump\t// in\n    tag_41:\n        /* \"#utility.yul\":390:509   */\n    tag_40:\n        /* \"#utility.yul\":548:549   */\n      0x00\n        /* \"#utility.yul\":573:626   */\n      tag_43\n        /* \"#utility.yul\":618:625   */\n      dup6\n        /* \"#utility.yul\":609:615   */\n      dup3\n        /* \"#utility.yul\":598:607   */\n      dup7\n        /* \"#utility.yul\":594:616   */\n      add\n        /* \"#utility.yul\":573:626   */\n      tag_31\n      jump\t// in\n    tag_43:\n        /* \"#utility.yul\":563:626   */\n      swap3\n      pop\n        /* \"#utility.yul\":519:636   */\n      pop\n        /* \"#utility.yul\":675:677   */\n      0x20\n        /* \"#utility.yul\":701:754   */\n      tag_44\n        /* \"#utility.yul\":746:753   */\n      dup6\n        /* \"#utility.yul\":737:743   */\n      dup3\n        /* \"#utility.yul\":726:735   */\n      dup7\n        /* \"#utility.yul\":722:744   */\n      add\n        /* \"#utility.yul\":701:754   */\n      tag_35\n      jump\t// in\n    tag_44:\n        /* \"#utility.yul\":691:754   */\n      swap2\n      pop\n        /* \"#utility.yul\":646:764   */\n      pop\n        /* \"#utility.yul\":297:771   */\n      swap3\n      pop\n      swap3\n      swap1\n      pop\n      jump\t// out\n        /* \"#utility.yul\":777:1143   */\n    tag_45:\n        /* \"#utility.yul\":919:922   */\n      0x00\n        /* \"#utility.yul\":940:1007   */\n      tag_47\n        /* \"#utility.yul\":1004:1006   */\n      0x11\n        /* \"#utility.yul\":999:1002   */\n      dup4\n        /* \"#utility.yul\":940:1007   */\n      tag_48\n      jump\t// in\n    tag_47:\n        /* \"#utility.yul\":933:1007   */\n      swap2\n      pop\n        /* \"#utility.yul\":1016:1109   */\n      tag_49\n        /* \"#utility.yul\":1105:1108   */\n      dup3\n        /* \"#utility.yul\":1016:1109   */\n      tag_50\n      jump\t// in\n    tag_49:\n        /* \"#utility.yul\":1134:1136   */\n      0x20\n        /* \"#utility.yul\":1129:1132   */\n      dup3\n        /* \"#utility.yul\":1125:1137   */\n      add\n        /* \"#utility.yul\":1118:1137   */\n      swap1\n      pop\n        /* \"#utility.yul\":777:1143   */\n      swap2\n      swap1\n      pop\n      jump\t// out\n        /* \"#utility.yul\":1149:1267   */\n    tag_51:\n        /* \"#utility.yul\":1236:1260   */\n      tag_53\n        /* \"#utility.yul\":1254:1259   */\n      dup2\n        /* \"#utility.yul\":1236:1260   */\n      tag_54\n      jump\t// in\n    tag_53:\n        /* \"#utility.yul\":1231:1234   */\n      dup3\n        /* \"#utility.yul\":1224:1261   */\n      mstore\n        /* \"#utility.yul\":1149:1267   */\n      pop\n      pop\n      jump\t// out\n        /* \"#utility.yul\":1273:1692   */\n    tag_26:\n        /* \"#utility.yul\":1439:1443   */\n      0x00\n        /* \"#utility.yul\":1477:1479   */\n      0x20\n        /* \"#utility.yul\":1466:1475   */\n      dup3\n        /* \"#utility.yul\":1462:1480   */\n      add\n        /* \"#utility.yul\":1454:1480   */\n      swap1\n      pop\n        /* \"#utility.yul\":1526:1535   */\n      dup2\n        /* \"#utility.yul\":1520:1524   */\n      dup2\n        /* \"#utility.yul\":1516:1536   */\n      sub\n        /* \"#utility.yul\":1512:1513   */\n      0x00\n        /* \"#utility.yul\":1501:1510   */\n      dup4\n        /* \"#utility.yul\":1497:1514   */\n      add\n        /* \"#utility.yul\":1490:1537   */\n      mstore\n        /* \"#utility.yul\":1554:1685   */\n      tag_56\n        /* \"#utility.yul\":1680:1684   */\n      dup2\n        /* \"#utility.yul\":1554:1685   */\n      tag_45\n      jump\t// in\n    tag_56:\n        /* \"#utility.yul\":1546:1685   */\n      swap1\n      pop\n        /* \"#utility.yul\":1273:1692   */\n      swap2\n      swap1\n      pop\n      jump\t// out\n        /* \"#utility.yul\":1698:1920   */\n    tag_12:\n        /* \"#utility.yul\":1791:1795   */\n      0x00\n        /* \"#utility.yul\":1829:1831   */\n      0x20\n        /* \"#utility.yul\":1818:1827   */\n      dup3\n        /* \"#utility.yul\":1814:1832   */\n      add\n        /* \"#utility.yul\":1806:1832   */\n      swap1\n      pop\n        /* \"#utility.yul\":1842:1913   */\n      tag_58\n        /* \"#utility.yul\":1910:1911   */\n      0x00\n        /* \"#utility.yul\":1899:1908   */\n      dup4\n        /* \"#utility.yul\":1895:1912   */\n      add\n        /* \"#utility.yul\":1886:1892   */\n      dup5\n        /* \"#utility.yul\":1842:1913   */\n      tag_51\n      jump\t// in\n    tag_58:\n        /* \"#utility.yul\":1698:1920   */\n      swap3\n      swap2\n      pop\n      pop\n      jump\t// out\n        /* \"#utility.yul\":2007:2176   */\n    tag_48:\n        /* \"#utility.yul\":2091:2102   */\n      0x00\n        /* \"#utility.yul\":2125:2131   */\n      dup3\n        /* \"#utility.yul\":2120:2123   */\n      dup3\n        /* \"#utility.yul\":2113:2132   */\n      mstore\n        /* \"#utility.yul\":2165:2169   */\n      0x20\n        /* \"#utility.yul\":2160:2163   */\n      dup3\n        /* \"#utility.yul\":2156:2170   */\n      add\n        /* \"#utility.yul\":2141:2170   */\n      swap1\n      pop\n        /* \"#utility.yul\":2007:2176   */\n      swap3\n      swap2\n      pop\n      pop\n      jump\t// out\n        /* \"#utility.yul\":2182:2487   */\n    tag_29:\n        /* \"#utility.yul\":2222:2225   */\n      0x00\n        /* \"#utility.yul\":2241:2261   */\n      tag_63\n        /* \"#utility.yul\":2259:2260   */\n      dup3\n        /* \"#utility.yul\":2241:2261   */\n      tag_54\n      jump\t// in\n    tag_63:\n        /* \"#utility.yul\":2236:2261   */\n      swap2\n      pop\n        /* \"#utility.yul\":2275:2295   */\n      tag_64\n        /* \"#utility.yul\":2293:2294   */\n      dup4\n        /* \"#utility.yul\":2275:2295   */\n      tag_54\n      jump\t// in\n    tag_64:\n        /* \"#utility.yul\":2270:2295   */\n      swap3\n      pop\n        /* \"#utility.yul\":2429:2430   */\n      dup3\n        /* \"#utility.yul\":2361:2427   */\n      0xffffffffffffffffffffffffffffffffffffffffffffffffffffffffffffffff\n        /* \"#utility.yul\":2357:2431   */\n      sub\n        /* \"#utility.yul\":2354:2355   */\n      dup3\n        /* \"#utility.yul\":2351:2432   */\n      gt\n        /* \"#utility.yul\":2348:2455   */\n      iszero\n      tag_65\n      jumpi\n        /* \"#utility.yul\":2435:2453   */\n      tag_66\n      tag_67\n      jump\t// in\n    tag_66:\n        /* \"#utility.yul\":2348:2455   */\n    tag_65:\n        /* \"#utility.yul\":2479:2480   */\n      dup3\n        /* \"#utility.yul\":2476:2477   */\n      dup3\n        /* \"#utility.yul\":2472:2481   */\n      add\n        /* \"#utility.yul\":2465:2481   */\n      swap1\n      pop\n        /* \"#utility.yul\":2182:2487   */\n      swap3\n      swap2\n      pop\n      pop\n      jump\t// out\n        /* \"#utility.yul\":2493:2589   */\n    tag_68:\n        /* \"#utility.yul\":2530:2537   */\n      0x00\n        /* \"#utility.yul\":2559:2583   */\n      tag_70\n        /* \"#utility.yul\":2577:2582   */\n      dup3\n        /* \"#utility.yul\":2559:2583   */\n      tag_71\n      jump\t// in\n    tag_70:\n        /* \"#utility.yul\":2548:2583   */\n      swap1\n      pop\n        /* \"#utility.yul\":2493:2589   */\n      swap2\n      swap1\n      pop\n      jump\t// out\n        /* \"#utility.yul\":2595:2721   */\n    tag_71:\n        /* \"#utility.yul\":2632:2639   */\n      0x00\n        /* \"#utility.yul\":2672:2714   */\n      0xffffffffffffffffffffffffffffffffffffffff\n        /* \"#utility.yul\":2665:2670   */\n      dup3\n        /* \"#utility.yul\":2661:2715   */\n      and\n        /* \"#utility.yul\":2650:2715   */\n      swap1\n      pop\n        /* \"#utility.yul\":2595:2721   */\n      swap2\n      swap1\n      pop\n      jump\t// out\n        /* \"#utility.yul\":2727:2804   */\n    tag_54:\n        /* \"#utility.yul\":2764:2771   */\n      0x00\n        /* \"#utility.yul\":2793:2798   */\n      dup2\n        /* \"#utility.yul\":2782:2798   */\n      swap1\n      pop\n        /* \"#utility.yul\":2727:2804   */\n      swap2\n      swap1\n      pop\n      jump\t// out\n        /* \"#utility.yul\":2810:2990   */\n    tag_67:\n        /* \"#utility.yul\":2858:2935   */\n      0x4e487b7100000000000000000000000000000000000000000000000000000000\n        /* \"#utility.yul\":2855:2856   */\n      0x00\n        /* \"#utility.yul\":2848:2936   */\n      mstore\n        /* \"#utility.yul\":2955:2959   */\n      0x11\n        /* \"#utility.yul\":2952:2953   */\n      0x04\n        /* \"#utility.yul\":2945:2960   */\n      mstore\n        /* \"#utility.yul\":2979:2983   */\n      0x24\n        /* \"#utility.yul\":2976:2977   */\n      0x00\n        /* \"#utility.yul\":2969:2984   */\n      revert\n        /* \"#utility.yul\":3119:3236   */\n    tag_42:\n        /* \"#utility.yul\":3228:3229   */\n      0x00\n        /* \"#utility.yul\":3225:3226   */\n      dup1\n        /* \"#utility.yul\":3218:3230   */\n      revert\n        /* \"#utility.yul\":3242:3409   */\n    tag_50:\n        /* \"#utility.yul\":3382:3401   */\n      0x596f7520617265206e6f74206f776e6572000000000000000000000000000000\n        /* \"#utility.yul\":3378:3379   */\n      0x00\n        /* \"#utility.yul\":3370:3376   */\n      dup3\n        /* \"#utility.yul\":3366:3380   */\n      add\n        /* \"#utility.yul\":3359:3402   */\n      mstore\n        /* \"#utility.yul\":3242:3409   */\n      pop\n      jump\t// out\n        /* \"#utility.yul\":3415:3537   */\n    tag_34:\n        /* \"#utility.yul\":3488:3512   */\n      tag_80\n        /* \"#utility.yul\":3506:3511   */\n      dup2\n        /* \"#utility.yul\":3488:3512   */\n      tag_68\n      jump\t// in\n    tag_80:\n        /* \"#utility.yul\":3481:3486   */\n      dup2\n        /* \"#utility.yul\":3478:3513   */\n      eq\n        /* \"#utility.yul\":3468:3531   */\n      tag_81\n      jumpi\n        /* \"#utility.yul\":3527:3528   */\n      0x00\n        /* \"#utility.yul\":3524:3525   */\n      dup1\n        /* \"#utility.yul\":3517:3529   */\n      revert\n        /* \"#utility.yul\":3468:3531   */\n    tag_81:\n        /* \"#utility.yul\":3415:3537   */\n      pop\n      jump\t// out\n        /* \"#utility.yul\":3543:3665   */\n    tag_38:\n        /* \"#utility.yul\":3616:3640   */\n      tag_83\n        /* \"#utility.yul\":3634:3639   */\n      dup2\n        /* \"#utility.yul\":3616:3640   */\n      tag_54\n      jump\t// in\n    tag_83:\n        /* \"#utility.yul\":3609:3614   */\n      dup2\n        /* \"#utility.yul\":3606:3641   */\n      eq\n        /* \"#utility.yul\":3596:3659   */\n      tag_84\n      jumpi\n        /* \"#utility.yul\":3655:3656   */\n      0x00\n        /* \"#utility.yul\":3652:3653   */\n      dup1\n        /* \"#utility.yul\":3645:3657   */\n      revert\n        /* \"#utility.yul\":3596:3659   */\n    tag_84:\n        /* \"#utility.yul\":3543:3665   */\n      pop\n      jump\t// out\n\n    auxdata: 0xa2646970667358221220daddc8cf162e830fedbdbd1aaccc3c0a296e1a91acfcffc3dfa2ed0936fd33a764736f6c63430008070033\n}\n",
				"bytecode": {
					"linkReferences": {},
					"object": "608060405234801561001057600080fd5b50336000806101000a81548173ffffffffffffffffffffffffffffffffffffffff021916908373ffffffffffffffffffffffffffffffffffffffff1602179055506103dc806100606000396000f3fe6080604052600436106100385760003560e01c806315e9977e14610044578063176e5f321461006f578063f3c40c4b146100865761003f565b3661003f57005b600080fd5b34801561005057600080fd5b506100596100af565b604051610066919061025d565b60405180910390f35b34801561007b57600080fd5b506100846100b7565b005b34801561009257600080fd5b506100ad60048036038101906100a891906101cb565b6100b9565b005b600047905090565b565b3373ffffffffffffffffffffffffffffffffffffffff1660008054906101000a900473ffffffffffffffffffffffffffffffffffffffff1673ffffffffffffffffffffffffffffffffffffffff1614610147576040517f08c379a000000000000000000000000000000000000000000000000000000000815260040161013e9061023d565b60405180910390fd5b80600160008473ffffffffffffffffffffffffffffffffffffffff1673ffffffffffffffffffffffffffffffffffffffff16815260200190815260200160002060008282546101969190610289565b925050819055505050565b6000813590506101b081610378565b92915050565b6000813590506101c58161038f565b92915050565b600080604083850312156101e2576101e161034a565b5b60006101f0858286016101a1565b9250506020610201858286016101b6565b9150509250929050565b6000610218601183610278565b91506102238261034f565b602082019050919050565b61023781610311565b82525050565b600060208201905081810360008301526102568161020b565b9050919050565b6000602082019050610272600083018461022e565b92915050565b600082825260208201905092915050565b600061029482610311565b915061029f83610311565b9250827fffffffffffffffffffffffffffffffffffffffffffffffffffffffffffffffff038211156102d4576102d361031b565b5b828201905092915050565b60006102ea826102f1565b9050919050565b600073ffffffffffffffffffffffffffffffffffffffff82169050919050565b6000819050919050565b7f4e487b7100000000000000000000000000000000000000000000000000000000600052601160045260246000fd5b600080fd5b7f596f7520617265206e6f74206f776e6572000000000000000000000000000000600082015250565b610381816102df565b811461038c57600080fd5b50565b61039881610311565b81146103a357600080fd5b5056fea2646970667358221220daddc8cf162e830fedbdbd1aaccc3c0a296e1a91acfcffc3dfa2ed0936fd33a764736f6c63430008070033",
					"opcodes": "PUSH1 0x80 PUSH1 0x40 MSTORE CALLVALUE DUP1 ISZERO PUSH2 0x10 JUMPI PUSH1 0x0 DUP1 REVERT JUMPDEST POP CALLER PUSH1 0x0 DUP1 PUSH2 0x100 EXP DUP2 SLOAD DUP2 PUSH20 0xFFFFFFFFFFFFFFFFFFFFFFFFFFFFFFFFFFFFFFFF MUL NOT AND SWAP1 DUP4 PUSH20 0xFFFFFFFFFFFFFFFFFFFFFFFFFFFFFFFFFFFFFFFF AND MUL OR SWAP1 SSTORE POP PUSH2 0x3DC DUP1 PUSH2 0x60 PUSH1 0x0 CODECOPY PUSH1 0x0 RETURN INVALID PUSH1 0x80 PUSH1 0x40 MSTORE PUSH1 0x4 CALLDATASIZE LT PUSH2 0x38 JUMPI PUSH1 0x0 CALLDATALOAD PUSH1 0xE0 SHR DUP1 PUSH4 0x15E9977E EQ PUSH2 0x44 JUMPI DUP1 PUSH4 0x176E5F32 EQ PUSH2 0x6F JUMPI DUP1 PUSH4 0xF3C40C4B EQ PUSH2 0x86 JUMPI PUSH2 0x3F JUMP JUMPDEST CALLDATASIZE PUSH2 0x3F JUMPI STOP JUMPDEST PUSH1 0x0 DUP1 REVERT JUMPDEST CALLVALUE DUP1 ISZERO PUSH2 0x50 JUMPI PUSH1 0x0 DUP1 REVERT JUMPDEST POP PUSH2 0x59 PUSH2 0xAF JUMP JUMPDEST PUSH1 0x40 MLOAD PUSH2 0x66 SWAP2 SWAP1 PUSH2 0x25D JUMP JUMPDEST PUSH1 0x40 MLOAD DUP1 SWAP2 SUB SWAP1 RETURN JUMPDEST CALLVALUE DUP1 ISZERO PUSH2 0x7B JUMPI PUSH1 0x0 DUP1 REVERT JUMPDEST POP PUSH2 0x84 PUSH2 0xB7 JUMP JUMPDEST STOP JUMPDEST CALLVALUE DUP1 ISZERO PUSH2 0x92 JUMPI PUSH1 0x0 DUP1 REVERT JUMPDEST POP PUSH2 0xAD PUSH1 0x4 DUP1 CALLDATASIZE SUB DUP2 ADD SWAP1 PUSH2 0xA8 SWAP2 SWAP1 PUSH2 0x1CB JUMP JUMPDEST PUSH2 0xB9 JUMP JUMPDEST STOP JUMPDEST PUSH1 0x0 SELFBALANCE SWAP1 POP SWAP1 JUMP JUMPDEST JUMP JUMPDEST CALLER PUSH20 0xFFFFFFFFFFFFFFFFFFFFFFFFFFFFFFFFFFFFFFFF AND PUSH1 0x0 DUP1 SLOAD SWAP1 PUSH2 0x100 EXP SWAP1 DIV PUSH20 0xFFFFFFFFFFFFFFFFFFFFFFFFFFFFFFFFFFFFFFFF AND PUSH20 0xFFFFFFFFFFFFFFFFFFFFFFFFFFFFFFFFFFFFFFFF AND EQ PUSH2 0x147 JUMPI PUSH1 0x40 MLOAD PUSH32 0x8C379A000000000000000000000000000000000000000000000000000000000 DUP2 MSTORE PUSH1 0x4 ADD PUSH2 0x13E SWAP1 PUSH2 0x23D JUMP JUMPDEST PUSH1 0x40 MLOAD DUP1 SWAP2 SUB SWAP1 REVERT JUMPDEST DUP1 PUSH1 0x1 PUSH1 0x0 DUP5 PUSH20 0xFFFFFFFFFFFFFFFFFFFFFFFFFFFFFFFFFFFFFFFF AND PUSH20 0xFFFFFFFFFFFFFFFFFFFFFFFFFFFFFFFFFFFFFFFF AND DUP2 MSTORE PUSH1 0x20 ADD SWAP1 DUP2 MSTORE PUSH1 0x20 ADD PUSH1 0x0 KECCAK256 PUSH1 0x0 DUP3 DUP3 SLOAD PUSH2 0x196 SWAP2 SWAP1 PUSH2 0x289 JUMP JUMPDEST SWAP3 POP POP DUP2 SWAP1 SSTORE POP POP POP JUMP JUMPDEST PUSH1 0x0 DUP2 CALLDATALOAD SWAP1 POP PUSH2 0x1B0 DUP2 PUSH2 0x378 JUMP JUMPDEST SWAP3 SWAP2 POP POP JUMP JUMPDEST PUSH1 0x0 DUP2 CALLDATALOAD SWAP1 POP PUSH2 0x1C5 DUP2 PUSH2 0x38F JUMP JUMPDEST SWAP3 SWAP2 POP POP JUMP JUMPDEST PUSH1 0x0 DUP1 PUSH1 0x40 DUP4 DUP6 SUB SLT ISZERO PUSH2 0x1E2 JUMPI PUSH2 0x1E1 PUSH2 0x34A JUMP JUMPDEST JUMPDEST PUSH1 0x0 PUSH2 0x1F0 DUP6 DUP3 DUP7 ADD PUSH2 0x1A1 JUMP JUMPDEST SWAP3 POP POP PUSH1 0x20 PUSH2 0x201 DUP6 DUP3 DUP7 ADD PUSH2 0x1B6 JUMP JUMPDEST SWAP2 POP POP SWAP3 POP SWAP3 SWAP1 POP JUMP JUMPDEST PUSH1 0x0 PUSH2 0x218 PUSH1 0x11 DUP4 PUSH2 0x278 JUMP JUMPDEST SWAP2 POP PUSH2 0x223 DUP3 PUSH2 0x34F JUMP JUMPDEST PUSH1 0x20 DUP3 ADD SWAP1 POP SWAP2 SWAP1 POP JUMP JUMPDEST PUSH2 0x237 DUP2 PUSH2 0x311 JUMP JUMPDEST DUP3 MSTORE POP POP JUMP JUMPDEST PUSH1 0x0 PUSH1 0x20 DUP3 ADD SWAP1 POP DUP2 DUP2 SUB PUSH1 0x0 DUP4 ADD MSTORE PUSH2 0x256 DUP2 PUSH2 0x20B JUMP JUMPDEST SWAP1 POP SWAP2 SWAP1 POP JUMP JUMPDEST PUSH1 0x0 PUSH1 0x20 DUP3 ADD SWAP1 POP PUSH2 0x272 PUSH1 0x0 DUP4 ADD DUP5 PUSH2 0x22E JUMP JUMPDEST SWAP3 SWAP2 POP POP JUMP JUMPDEST PUSH1 0x0 DUP3 DUP3 MSTORE PUSH1 0x20 DUP3 ADD SWAP1 POP SWAP3 SWAP2 POP POP JUMP JUMPDEST PUSH1 0x0 PUSH2 0x294 DUP3 PUSH2 0x311 JUMP JUMPDEST SWAP2 POP PUSH2 0x29F DUP4 PUSH2 0x311 JUMP JUMPDEST SWAP3 POP DUP3 PUSH32 0xFFFFFFFFFFFFFFFFFFFFFFFFFFFFFFFFFFFFFFFFFFFFFFFFFFFFFFFFFFFFFFFF SUB DUP3 GT ISZERO PUSH2 0x2D4 JUMPI PUSH2 0x2D3 PUSH2 0x31B JUMP JUMPDEST JUMPDEST DUP3 DUP3 ADD SWAP1 POP SWAP3 SWAP2 POP POP JUMP JUMPDEST PUSH1 0x0 PUSH2 0x2EA DUP3 PUSH2 0x2F1 JUMP JUMPDEST SWAP1 POP SWAP2 SWAP1 POP JUMP JUMPDEST PUSH1 0x0 PUSH20 0xFFFFFFFFFFFFFFFFFFFFFFFFFFFFFFFFFFFFFFFF DUP3 AND SWAP1 POP SWAP2 SWAP1 POP JUMP JUMPDEST PUSH1 0x0 DUP2 SWAP1 POP SWAP2 SWAP1 POP JUMP JUMPDEST PUSH32 0x4E487B7100000000000000000000000000000000000000000000000000000000 PUSH1 0x0 MSTORE PUSH1 0x11 PUSH1 0x4 MSTORE PUSH1 0x24 PUSH1 0x0 REVERT JUMPDEST PUSH1 0x0 DUP1 REVERT JUMPDEST PUSH32 0x596F7520617265206E6F74206F776E6572000000000000000000000000000000 PUSH1 0x0 DUP3 ADD MSTORE POP JUMP JUMPDEST PUSH2 0x381 DUP2 PUSH2 0x2DF JUMP JUMPDEST DUP2 EQ PUSH2 0x38C JUMPI PUSH1 0x0 DUP1 REVERT JUMPDEST POP JUMP JUMPDEST PUSH2 0x398 DUP2 PUSH2 0x311 JUMP JUMPDEST DUP2 EQ PUSH2 0x3A3 JUMPI PUSH1 0x0 DUP1 REVERT JUMPDEST POP JUMP INVALID LOG2 PUSH5 0x6970667358 0x22 SLT KECCAK256 0xDA 0xDD 0xC8 0xCF AND 0x2E DUP4 0xF 0xED 0xBD 0xBD BYTE 0xAC 0xCC EXTCODECOPY EXP 0x29 PUSH15 0x1A91ACFCFFC3DFA2ED0936FD33A764 PUSH20 0x6F6C634300080700330000000000000000000000 "
				},
				"gasEstimates": {
					"creation": {
						"codeDepositCost": "197600",
						"executionCost": "24504",
						"totalCost": "222104"
					},
					"external": {
						"BALANCE()": "317",
						"addAllowance(address,uint256)": "infinite",
						"withDrawMoney()": "144"
					}
				},
				"methodIdentifiers": {
					"BALANCE()": "15e9977e",
					"addAllowance(address,uint256)": "f3c40c4b",
					"withDrawMoney()": "176e5f32"
				}
			},
			"storageLayout": {
				"storage": [
					{
						"astId": 3,
						"contract": "Allowance.sol:main",
						"label": "owner",
						"offset": 0,
						"slot": "0",
						"type": "t_address"
					},
					{
						"astId": 7,
						"contract": "Allowance.sol:main",
						"label": "allowance",
						"offset": 0,
						"slot": "1",
						"type": "t_mapping(t_address,t_uint256)"
					}
				],
				"types": {
					"t_address": {
						"encoding": "inplace",
						"label": "address",
						"numberOfBytes": "20"
					},
					"t_mapping(t_address,t_uint256)": {
						"encoding": "mapping",
						"key": "t_address",
						"label": "mapping(address => uint256)",
						"numberOfBytes": "32",
						"value": "t_uint256"
					},
					"t_uint256": {
						"encoding": "inplace",
						"label": "uint256",
						"numberOfBytes": "32"
					}
				}
			},
			"userdoc": {
				"kind": "user",
				"methods": {},
				"version": 1
			}
		}
	}
}