{
	"Allowance.sol": {
		"main": {
			"abi": [
				{
					"inputs": [],
					"stateMutability": "nonpayable",
					"type": "constructor"
				},
				{
					"anonymous": false,
					"inputs": [
						{
							"indexed": false,
							"internalType": "address",
							"name": "_to",
							"type": "address"
						},
						{
							"indexed": false,
							"internalType": "uint256",
							"name": "_amount",
							"type": "uint256"
						},
						{
							"indexed": false,
							"internalType": "string",
							"name": "_description",
							"type": "string"
						}
					],
					"name": "log",
					"type": "event"
				},
				{
					"inputs": [],
					"name": "BALANCE",
					"outputs": [
						{
							"internalType": "uint256",
							"name": "",
							"type": "uint256"
						}
					],
					"stateMutability": "view",
					"type": "function"
				},
				{
					"inputs": [
						{
							"internalType": "address",
							"name": "_to",
							"type": "address"
						},
						{
							"internalType": "uint256",
							"name": "_amount",
							"type": "uint256"
						}
					],
					"name": "addAllowance",
					"outputs": [],
					"stateMutability": "nonpayable",
					"type": "function"
				},
				{
					"inputs": [
						{
							"internalType": "address",
							"name": "_to",
							"type": "address"
						},
						{
							"internalType": "uint256",
							"name": "_amount",
							"type": "uint256"
						},
						{
							"internalType": "string",
							"name": "_description",
							"type": "string"
						}
					],
					"name": "withDrawMoney",
					"outputs": [],
					"stateMutability": "nonpayable",
					"type": "function"
				},
				{
					"stateMutability": "payable",
					"type": "receive"
				}
			],
			"devdoc": {
				"kind": "dev",
				"methods": {},
				"version": 1
			},
			"evm": {
				"assembly": "    /* \"Allowance.sol\":59:869  contract main{\r... */\n  mstore(0x40, 0x80)\n    /* \"Allowance.sol\":153:203  constructor(){\r... */\n  callvalue\n  dup1\n  iszero\n  tag_1\n  jumpi\n  0x00\n  dup1\n  revert\ntag_1:\n  pop\n    /* \"Allowance.sol\":185:195  msg.sender */\n  caller\n    /* \"Allowance.sol\":177:182  owner */\n  0x00\n  dup1\n    /* \"Allowance.sol\":177:195  owner = msg.sender */\n  0x0100\n  exp\n  dup2\n  sload\n  dup2\n  0xffffffffffffffffffffffffffffffffffffffff\n  mul\n  not\n  and\n  swap1\n  dup4\n  0xffffffffffffffffffffffffffffffffffffffff\n  and\n  mul\n  or\n  swap1\n  sstore\n  pop\n    /* \"Allowance.sol\":59:869  contract main{\r... */\n  dataSize(sub_0)\n  dup1\n  dataOffset(sub_0)\n  0x00\n  codecopy\n  0x00\n  return\nstop\n\nsub_0: assembly {\n        /* \"Allowance.sol\":59:869  contract main{\r... */\n      mstore(0x40, 0x80)\n      jumpi(tag_1, lt(calldatasize, 0x04))\n      shr(0xe0, calldataload(0x00))\n      dup1\n      0x15e9977e\n      eq\n      tag_3\n      jumpi\n      dup1\n      0x8d942a80\n      eq\n      tag_4\n      jumpi\n      dup1\n      0xf3c40c4b\n      eq\n      tag_5\n      jumpi\n      jump(tag_2)\n    tag_1:\n      jumpi(tag_2, calldatasize)\n      stop\n    tag_2:\n      0x00\n      dup1\n      revert\n        /* \"Allowance.sol\":773:864  function BALANCE() public view returns(uint){\r... */\n    tag_3:\n      callvalue\n      dup1\n      iszero\n      tag_8\n      jumpi\n      0x00\n      dup1\n      revert\n    tag_8:\n      pop\n      tag_9\n      tag_10\n      jump\t// in\n    tag_9:\n      mload(0x40)\n      tag_11\n      swap2\n      swap1\n      tag_12\n      jump\t// in\n    tag_11:\n      mload(0x40)\n      dup1\n      swap2\n      sub\n      swap1\n      return\n        /* \"Allowance.sol\":555:761  function withDrawMoney(address _to, uint _amount, string memory _description) public{\r... */\n    tag_4:\n      callvalue\n      dup1\n      iszero\n      tag_13\n      jumpi\n      0x00\n      dup1\n      revert\n    tag_13:\n      pop\n      tag_14\n      0x04\n      dup1\n      calldatasize\n      sub\n      dup2\n      add\n      swap1\n      tag_15\n      swap2\n      swap1\n      tag_16\n      jump\t// in\n    tag_15:\n      tag_17\n      jump\t// in\n    tag_14:\n      stop\n        /* \"Allowance.sol\":371:481  function addAllowance(address _to, uint _amount) public onlyOwner {\r... */\n    tag_5:\n      callvalue\n      dup1\n      iszero\n      tag_18\n      jumpi\n      0x00\n      dup1\n      revert\n    tag_18:\n      pop\n      tag_19\n      0x04\n      dup1\n      calldatasize\n      sub\n      dup2\n      add\n      swap1\n      tag_20\n      swap2\n      swap1\n      tag_21\n      jump\t// in\n    tag_20:\n      tag_22\n      jump\t// in\n    tag_19:\n      stop\n        /* \"Allowance.sol\":773:864  function BALANCE() public view returns(uint){\r... */\n    tag_10:\n        /* \"Allowance.sol\":812:816  uint */\n      0x00\n        /* \"Allowance.sol\":835:856  address(this).balance */\n      selfbalance\n        /* \"Allowance.sol\":828:856  return address(this).balance */\n      swap1\n      pop\n        /* \"Allowance.sol\":773:864  function BALANCE() public view returns(uint){\r... */\n      swap1\n      jump\t// out\n        /* \"Allowance.sol\":555:761  function withDrawMoney(address _to, uint _amount, string memory _description) public{\r... */\n    tag_17:\n        /* \"Allowance.sol\":655:686  log(_to, _amount, _description) */\n      0xa1f2e8aa7ff0c088860d7b3f0d1dc288d8e8a07808525cc31a5691f1bc0e149d\n        /* \"Allowance.sol\":659:662  _to */\n      dup4\n        /* \"Allowance.sol\":664:671  _amount */\n      dup4\n        /* \"Allowance.sol\":673:685  _description */\n      dup4\n        /* \"Allowance.sol\":655:686  log(_to, _amount, _description) */\n      mload(0x40)\n      tag_25\n      swap4\n      swap3\n      swap2\n      swap1\n      tag_26\n      jump\t// in\n    tag_25:\n      mload(0x40)\n      dup1\n      swap2\n      sub\n      swap1\n      log1\n        /* \"Allowance.sol\":730:737  _amount */\n      dup2\n        /* \"Allowance.sol\":705:714  allowance */\n      0x01\n        /* \"Allowance.sol\":705:726  allowance[msg.sender] */\n      0x00\n        /* \"Allowance.sol\":715:725  msg.sender */\n      caller\n        /* \"Allowance.sol\":705:726  allowance[msg.sender] */\n      0xffffffffffffffffffffffffffffffffffffffff\n      and\n      0xffffffffffffffffffffffffffffffffffffffff\n      and\n      dup2\n      mstore\n      0x20\n      add\n      swap1\n      dup2\n      mstore\n      0x20\n      add\n      0x00\n      keccak256\n      sload\n        /* \"Allowance.sol\":705:737  allowance[msg.sender] >= _amount */\n      lt\n      iszero\n        /* \"Allowance.sol\":697:753  require(allowance[msg.sender] >= _amount, \"Not allowed\") */\n      tag_27\n      jumpi\n      mload(0x40)\n      0x08c379a000000000000000000000000000000000000000000000000000000000\n      dup2\n      mstore\n      0x04\n      add\n      tag_28\n      swap1\n      tag_29\n      jump\t// in\n    tag_28:\n      mload(0x40)\n      dup1\n      swap2\n      sub\n      swap1\n      revert\n    tag_27:\n        /* \"Allowance.sol\":555:761  function withDrawMoney(address _to, uint _amount, string memory _description) public{\r... */\n      pop\n      pop\n      pop\n      jump\t// out\n        /* \"Allowance.sol\":371:481  function addAllowance(address _to, uint _amount) public onlyOwner {\r... */\n    tag_22:\n        /* \"Allowance.sol\":311:321  msg.sender */\n      caller\n        /* \"Allowance.sol\":302:321  owner == msg.sender */\n      0xffffffffffffffffffffffffffffffffffffffff\n      and\n        /* \"Allowance.sol\":302:307  owner */\n      0x00\n      dup1\n      sload\n      swap1\n      0x0100\n      exp\n      swap1\n      div\n      0xffffffffffffffffffffffffffffffffffffffff\n      and\n        /* \"Allowance.sol\":302:321  owner == msg.sender */\n      0xffffffffffffffffffffffffffffffffffffffff\n      and\n      eq\n        /* \"Allowance.sol\":294:343  require(owner == msg.sender, \"You are not owner\") */\n      tag_31\n      jumpi\n      mload(0x40)\n      0x08c379a000000000000000000000000000000000000000000000000000000000\n      dup2\n      mstore\n      0x04\n      add\n      tag_32\n      swap1\n      tag_33\n      jump\t// in\n    tag_32:\n      mload(0x40)\n      dup1\n      swap2\n      sub\n      swap1\n      revert\n    tag_31:\n        /* \"Allowance.sol\":466:473  _amount */\n      dup1\n        /* \"Allowance.sol\":448:457  allowance */\n      0x01\n        /* \"Allowance.sol\":448:462  allowance[_to] */\n      0x00\n        /* \"Allowance.sol\":458:461  _to */\n      dup5\n        /* \"Allowance.sol\":448:462  allowance[_to] */\n      0xffffffffffffffffffffffffffffffffffffffff\n      and\n      0xffffffffffffffffffffffffffffffffffffffff\n      and\n      dup2\n      mstore\n      0x20\n      add\n      swap1\n      dup2\n      mstore\n      0x20\n      add\n      0x00\n      keccak256\n      0x00\n        /* \"Allowance.sol\":448:473  allowance[_to] += _amount */\n      dup3\n      dup3\n      sload\n      tag_35\n      swap2\n      swap1\n      tag_36\n      jump\t// in\n    tag_35:\n      swap3\n      pop\n      pop\n      dup2\n      swap1\n      sstore\n      pop\n        /* \"Allowance.sol\":371:481  function addAllowance(address _to, uint _amount) public onlyOwner {\r... */\n      pop\n      pop\n      jump\t// out\n        /* \"#utility.yul\":7:419   */\n    tag_38:\n        /* \"#utility.yul\":85:90   */\n      0x00\n        /* \"#utility.yul\":110:176   */\n      tag_40\n        /* \"#utility.yul\":126:175   */\n      tag_41\n        /* \"#utility.yul\":168:174   */\n      dup5\n        /* \"#utility.yul\":126:175   */\n      tag_42\n      jump\t// in\n    tag_41:\n        /* \"#utility.yul\":110:176   */\n      tag_43\n      jump\t// in\n    tag_40:\n        /* \"#utility.yul\":101:176   */\n      swap1\n      pop\n        /* \"#utility.yul\":199:205   */\n      dup3\n        /* \"#utility.yul\":192:197   */\n      dup2\n        /* \"#utility.yul\":185:206   */\n      mstore\n        /* \"#utility.yul\":237:241   */\n      0x20\n        /* \"#utility.yul\":230:235   */\n      dup2\n        /* \"#utility.yul\":226:242   */\n      add\n        /* \"#utility.yul\":275:278   */\n      dup5\n        /* \"#utility.yul\":266:272   */\n      dup5\n        /* \"#utility.yul\":261:264   */\n      dup5\n        /* \"#utility.yul\":257:273   */\n      add\n        /* \"#utility.yul\":254:279   */\n      gt\n        /* \"#utility.yul\":251:363   */\n      iszero\n      tag_44\n      jumpi\n        /* \"#utility.yul\":282:361   */\n      tag_45\n      tag_46\n      jump\t// in\n    tag_45:\n        /* \"#utility.yul\":251:363   */\n    tag_44:\n        /* \"#utility.yul\":372:413   */\n      tag_47\n        /* \"#utility.yul\":406:412   */\n      dup5\n        /* \"#utility.yul\":401:404   */\n      dup3\n        /* \"#utility.yul\":396:399   */\n      dup6\n        /* \"#utility.yul\":372:413   */\n      tag_48\n      jump\t// in\n    tag_47:\n        /* \"#utility.yul\":91:419   */\n      pop\n        /* \"#utility.yul\":7:419   */\n      swap4\n      swap3\n      pop\n      pop\n      pop\n      jump\t// out\n        /* \"#utility.yul\":425:564   */\n    tag_49:\n        /* \"#utility.yul\":471:476   */\n      0x00\n        /* \"#utility.yul\":509:515   */\n      dup2\n        /* \"#utility.yul\":496:516   */\n      calldataload\n        /* \"#utility.yul\":487:516   */\n      swap1\n      pop\n        /* \"#utility.yul\":525:558   */\n      tag_51\n        /* \"#utility.yul\":552:557   */\n      dup2\n        /* \"#utility.yul\":525:558   */\n      tag_52\n      jump\t// in\n    tag_51:\n        /* \"#utility.yul\":425:564   */\n      swap3\n      swap2\n      pop\n      pop\n      jump\t// out\n        /* \"#utility.yul\":584:924   */\n    tag_53:\n        /* \"#utility.yul\":640:645   */\n      0x00\n        /* \"#utility.yul\":689:692   */\n      dup3\n        /* \"#utility.yul\":682:686   */\n      0x1f\n        /* \"#utility.yul\":674:680   */\n      dup4\n        /* \"#utility.yul\":670:687   */\n      add\n        /* \"#utility.yul\":666:693   */\n      slt\n        /* \"#utility.yul\":656:778   */\n      tag_55\n      jumpi\n        /* \"#utility.yul\":697:776   */\n      tag_56\n      tag_57\n      jump\t// in\n    tag_56:\n        /* \"#utility.yul\":656:778   */\n    tag_55:\n        /* \"#utility.yul\":814:820   */\n      dup2\n        /* \"#utility.yul\":801:821   */\n      calldataload\n        /* \"#utility.yul\":839:918   */\n      tag_58\n        /* \"#utility.yul\":914:917   */\n      dup5\n        /* \"#utility.yul\":906:912   */\n      dup3\n        /* \"#utility.yul\":899:903   */\n      0x20\n        /* \"#utility.yul\":891:897   */\n      dup7\n        /* \"#utility.yul\":887:904   */\n      add\n        /* \"#utility.yul\":839:918   */\n      tag_38\n      jump\t// in\n    tag_58:\n        /* \"#utility.yul\":830:918   */\n      swap2\n      pop\n        /* \"#utility.yul\":646:924   */\n      pop\n        /* \"#utility.yul\":584:924   */\n      swap3\n      swap2\n      pop\n      pop\n      jump\t// out\n        /* \"#utility.yul\":930:1069   */\n    tag_59:\n        /* \"#utility.yul\":976:981   */\n      0x00\n        /* \"#utility.yul\":1014:1020   */\n      dup2\n        /* \"#utility.yul\":1001:1021   */\n      calldataload\n        /* \"#utility.yul\":992:1021   */\n      swap1\n      pop\n        /* \"#utility.yul\":1030:1063   */\n      tag_61\n        /* \"#utility.yul\":1057:1062   */\n      dup2\n        /* \"#utility.yul\":1030:1063   */\n      tag_62\n      jump\t// in\n    tag_61:\n        /* \"#utility.yul\":930:1069   */\n      swap3\n      swap2\n      pop\n      pop\n      jump\t// out\n        /* \"#utility.yul\":1075:1549   */\n    tag_21:\n        /* \"#utility.yul\":1143:1149   */\n      0x00\n        /* \"#utility.yul\":1151:1157   */\n      dup1\n        /* \"#utility.yul\":1200:1202   */\n      0x40\n        /* \"#utility.yul\":1188:1197   */\n      dup4\n        /* \"#utility.yul\":1179:1186   */\n      dup6\n        /* \"#utility.yul\":1175:1198   */\n      sub\n        /* \"#utility.yul\":1171:1203   */\n      slt\n        /* \"#utility.yul\":1168:1287   */\n      iszero\n      tag_64\n      jumpi\n        /* \"#utility.yul\":1206:1285   */\n      tag_65\n      tag_66\n      jump\t// in\n    tag_65:\n        /* \"#utility.yul\":1168:1287   */\n    tag_64:\n        /* \"#utility.yul\":1326:1327   */\n      0x00\n        /* \"#utility.yul\":1351:1404   */\n      tag_67\n        /* \"#utility.yul\":1396:1403   */\n      dup6\n        /* \"#utility.yul\":1387:1393   */\n      dup3\n        /* \"#utility.yul\":1376:1385   */\n      dup7\n        /* \"#utility.yul\":1372:1394   */\n      add\n        /* \"#utility.yul\":1351:1404   */\n      tag_49\n      jump\t// in\n    tag_67:\n        /* \"#utility.yul\":1341:1404   */\n      swap3\n      pop\n        /* \"#utility.yul\":1297:1414   */\n      pop\n        /* \"#utility.yul\":1453:1455   */\n      0x20\n        /* \"#utility.yul\":1479:1532   */\n      tag_68\n        /* \"#utility.yul\":1524:1531   */\n      dup6\n        /* \"#utility.yul\":1515:1521   */\n      dup3\n        /* \"#utility.yul\":1504:1513   */\n      dup7\n        /* \"#utility.yul\":1500:1522   */\n      add\n        /* \"#utility.yul\":1479:1532   */\n      tag_59\n      jump\t// in\n    tag_68:\n        /* \"#utility.yul\":1469:1532   */\n      swap2\n      pop\n        /* \"#utility.yul\":1424:1542   */\n      pop\n        /* \"#utility.yul\":1075:1549   */\n      swap3\n      pop\n      swap3\n      swap1\n      pop\n      jump\t// out\n        /* \"#utility.yul\":1555:2354   */\n    tag_16:\n        /* \"#utility.yul\":1642:1648   */\n      0x00\n        /* \"#utility.yul\":1650:1656   */\n      dup1\n        /* \"#utility.yul\":1658:1664   */\n      0x00\n        /* \"#utility.yul\":1707:1709   */\n      0x60\n        /* \"#utility.yul\":1695:1704   */\n      dup5\n        /* \"#utility.yul\":1686:1693   */\n      dup7\n        /* \"#utility.yul\":1682:1705   */\n      sub\n        /* \"#utility.yul\":1678:1710   */\n      slt\n        /* \"#utility.yul\":1675:1794   */\n      iszero\n      tag_70\n      jumpi\n        /* \"#utility.yul\":1713:1792   */\n      tag_71\n      tag_66\n      jump\t// in\n    tag_71:\n        /* \"#utility.yul\":1675:1794   */\n    tag_70:\n        /* \"#utility.yul\":1833:1834   */\n      0x00\n        /* \"#utility.yul\":1858:1911   */\n      tag_72\n        /* \"#utility.yul\":1903:1910   */\n      dup7\n        /* \"#utility.yul\":1894:1900   */\n      dup3\n        /* \"#utility.yul\":1883:1892   */\n      dup8\n        /* \"#utility.yul\":1879:1901   */\n      add\n        /* \"#utility.yul\":1858:1911   */\n      tag_49\n      jump\t// in\n    tag_72:\n        /* \"#utility.yul\":1848:1911   */\n      swap4\n      pop\n        /* \"#utility.yul\":1804:1921   */\n      pop\n        /* \"#utility.yul\":1960:1962   */\n      0x20\n        /* \"#utility.yul\":1986:2039   */\n      tag_73\n        /* \"#utility.yul\":2031:2038   */\n      dup7\n        /* \"#utility.yul\":2022:2028   */\n      dup3\n        /* \"#utility.yul\":2011:2020   */\n      dup8\n        /* \"#utility.yul\":2007:2029   */\n      add\n        /* \"#utility.yul\":1986:2039   */\n      tag_59\n      jump\t// in\n    tag_73:\n        /* \"#utility.yul\":1976:2039   */\n      swap3\n      pop\n        /* \"#utility.yul\":1931:2049   */\n      pop\n        /* \"#utility.yul\":2116:2118   */\n      0x40\n        /* \"#utility.yul\":2105:2114   */\n      dup5\n        /* \"#utility.yul\":2101:2119   */\n      add\n        /* \"#utility.yul\":2088:2120   */\n      calldataload\n        /* \"#utility.yul\":2147:2165   */\n      0xffffffffffffffff\n        /* \"#utility.yul\":2139:2145   */\n      dup2\n        /* \"#utility.yul\":2136:2166   */\n      gt\n        /* \"#utility.yul\":2133:2250   */\n      iszero\n      tag_74\n      jumpi\n        /* \"#utility.yul\":2169:2248   */\n      tag_75\n      tag_76\n      jump\t// in\n    tag_75:\n        /* \"#utility.yul\":2133:2250   */\n    tag_74:\n        /* \"#utility.yul\":2274:2337   */\n      tag_77\n        /* \"#utility.yul\":2329:2336   */\n      dup7\n        /* \"#utility.yul\":2320:2326   */\n      dup3\n        /* \"#utility.yul\":2309:2318   */\n      dup8\n        /* \"#utility.yul\":2305:2327   */\n      add\n        /* \"#utility.yul\":2274:2337   */\n      tag_53\n      jump\t// in\n    tag_77:\n        /* \"#utility.yul\":2264:2337   */\n      swap2\n      pop\n        /* \"#utility.yul\":2059:2347   */\n      pop\n        /* \"#utility.yul\":1555:2354   */\n      swap3\n      pop\n      swap3\n      pop\n      swap3\n      jump\t// out\n        /* \"#utility.yul\":2360:2478   */\n    tag_78:\n        /* \"#utility.yul\":2447:2471   */\n      tag_80\n        /* \"#utility.yul\":2465:2470   */\n      dup2\n        /* \"#utility.yul\":2447:2471   */\n      tag_81\n      jump\t// in\n    tag_80:\n        /* \"#utility.yul\":2442:2445   */\n      dup3\n        /* \"#utility.yul\":2435:2472   */\n      mstore\n        /* \"#utility.yul\":2360:2478   */\n      pop\n      pop\n      jump\t// out\n        /* \"#utility.yul\":2484:2848   */\n    tag_82:\n        /* \"#utility.yul\":2572:2575   */\n      0x00\n        /* \"#utility.yul\":2600:2639   */\n      tag_84\n        /* \"#utility.yul\":2633:2638   */\n      dup3\n        /* \"#utility.yul\":2600:2639   */\n      tag_85\n      jump\t// in\n    tag_84:\n        /* \"#utility.yul\":2655:2726   */\n      tag_86\n        /* \"#utility.yul\":2719:2725   */\n      dup2\n        /* \"#utility.yul\":2714:2717   */\n      dup6\n        /* \"#utility.yul\":2655:2726   */\n      tag_87\n      jump\t// in\n    tag_86:\n        /* \"#utility.yul\":2648:2726   */\n      swap4\n      pop\n        /* \"#utility.yul\":2735:2787   */\n      tag_88\n        /* \"#utility.yul\":2780:2786   */\n      dup2\n        /* \"#utility.yul\":2775:2778   */\n      dup6\n        /* \"#utility.yul\":2768:2772   */\n      0x20\n        /* \"#utility.yul\":2761:2766   */\n      dup7\n        /* \"#utility.yul\":2757:2773   */\n      add\n        /* \"#utility.yul\":2735:2787   */\n      tag_89\n      jump\t// in\n    tag_88:\n        /* \"#utility.yul\":2812:2841   */\n      tag_90\n        /* \"#utility.yul\":2834:2840   */\n      dup2\n        /* \"#utility.yul\":2812:2841   */\n      tag_91\n      jump\t// in\n    tag_90:\n        /* \"#utility.yul\":2807:2810   */\n      dup5\n        /* \"#utility.yul\":2803:2842   */\n      add\n        /* \"#utility.yul\":2796:2842   */\n      swap2\n      pop\n        /* \"#utility.yul\":2576:2848   */\n      pop\n        /* \"#utility.yul\":2484:2848   */\n      swap3\n      swap2\n      pop\n      pop\n      jump\t// out\n        /* \"#utility.yul\":2854:3220   */\n    tag_92:\n        /* \"#utility.yul\":2996:2999   */\n      0x00\n        /* \"#utility.yul\":3017:3084   */\n      tag_94\n        /* \"#utility.yul\":3081:3083   */\n      0x0b\n        /* \"#utility.yul\":3076:3079   */\n      dup4\n        /* \"#utility.yul\":3017:3084   */\n      tag_87\n      jump\t// in\n    tag_94:\n        /* \"#utility.yul\":3010:3084   */\n      swap2\n      pop\n        /* \"#utility.yul\":3093:3186   */\n      tag_95\n        /* \"#utility.yul\":3182:3185   */\n      dup3\n        /* \"#utility.yul\":3093:3186   */\n      tag_96\n      jump\t// in\n    tag_95:\n        /* \"#utility.yul\":3211:3213   */\n      0x20\n        /* \"#utility.yul\":3206:3209   */\n      dup3\n        /* \"#utility.yul\":3202:3214   */\n      add\n        /* \"#utility.yul\":3195:3214   */\n      swap1\n      pop\n        /* \"#utility.yul\":2854:3220   */\n      swap2\n      swap1\n      pop\n      jump\t// out\n        /* \"#utility.yul\":3226:3592   */\n    tag_97:\n        /* \"#utility.yul\":3368:3371   */\n      0x00\n        /* \"#utility.yul\":3389:3456   */\n      tag_99\n        /* \"#utility.yul\":3453:3455   */\n      0x11\n        /* \"#utility.yul\":3448:3451   */\n      dup4\n        /* \"#utility.yul\":3389:3456   */\n      tag_87\n      jump\t// in\n    tag_99:\n        /* \"#utility.yul\":3382:3456   */\n      swap2\n      pop\n        /* \"#utility.yul\":3465:3558   */\n      tag_100\n        /* \"#utility.yul\":3554:3557   */\n      dup3\n        /* \"#utility.yul\":3465:3558   */\n      tag_101\n      jump\t// in\n    tag_100:\n        /* \"#utility.yul\":3583:3585   */\n      0x20\n        /* \"#utility.yul\":3578:3581   */\n      dup3\n        /* \"#utility.yul\":3574:3586   */\n      add\n        /* \"#utility.yul\":3567:3586   */\n      swap1\n      pop\n        /* \"#utility.yul\":3226:3592   */\n      swap2\n      swap1\n      pop\n      jump\t// out\n        /* \"#utility.yul\":3598:3716   */\n    tag_102:\n        /* \"#utility.yul\":3685:3709   */\n      tag_104\n        /* \"#utility.yul\":3703:3708   */\n      dup2\n        /* \"#utility.yul\":3685:3709   */\n      tag_105\n      jump\t// in\n    tag_104:\n        /* \"#utility.yul\":3680:3683   */\n      dup3\n        /* \"#utility.yul\":3673:3710   */\n      mstore\n        /* \"#utility.yul\":3598:3716   */\n      pop\n      pop\n      jump\t// out\n        /* \"#utility.yul\":3722:4255   */\n    tag_26:\n        /* \"#utility.yul\":3891:3895   */\n      0x00\n        /* \"#utility.yul\":3929:3931   */\n      0x60\n        /* \"#utility.yul\":3918:3927   */\n      dup3\n        /* \"#utility.yul\":3914:3932   */\n      add\n        /* \"#utility.yul\":3906:3932   */\n      swap1\n      pop\n        /* \"#utility.yul\":3942:4013   */\n      tag_107\n        /* \"#utility.yul\":4010:4011   */\n      0x00\n        /* \"#utility.yul\":3999:4008   */\n      dup4\n        /* \"#utility.yul\":3995:4012   */\n      add\n        /* \"#utility.yul\":3986:3992   */\n      dup7\n        /* \"#utility.yul\":3942:4013   */\n      tag_78\n      jump\t// in\n    tag_107:\n        /* \"#utility.yul\":4023:4095   */\n      tag_108\n        /* \"#utility.yul\":4091:4093   */\n      0x20\n        /* \"#utility.yul\":4080:4089   */\n      dup4\n        /* \"#utility.yul\":4076:4094   */\n      add\n        /* \"#utility.yul\":4067:4073   */\n      dup6\n        /* \"#utility.yul\":4023:4095   */\n      tag_102\n      jump\t// in\n    tag_108:\n        /* \"#utility.yul\":4142:4151   */\n      dup2\n        /* \"#utility.yul\":4136:4140   */\n      dup2\n        /* \"#utility.yul\":4132:4152   */\n      sub\n        /* \"#utility.yul\":4127:4129   */\n      0x40\n        /* \"#utility.yul\":4116:4125   */\n      dup4\n        /* \"#utility.yul\":4112:4130   */\n      add\n        /* \"#utility.yul\":4105:4153   */\n      mstore\n        /* \"#utility.yul\":4170:4248   */\n      tag_109\n        /* \"#utility.yul\":4243:4247   */\n      dup2\n        /* \"#utility.yul\":4234:4240   */\n      dup5\n        /* \"#utility.yul\":4170:4248   */\n      tag_82\n      jump\t// in\n    tag_109:\n        /* \"#utility.yul\":4162:4248   */\n      swap1\n      pop\n        /* \"#utility.yul\":3722:4255   */\n      swap5\n      swap4\n      pop\n      pop\n      pop\n      pop\n      jump\t// out\n        /* \"#utility.yul\":4261:4680   */\n    tag_29:\n        /* \"#utility.yul\":4427:4431   */\n      0x00\n        /* \"#utility.yul\":4465:4467   */\n      0x20\n        /* \"#utility.yul\":4454:4463   */\n      dup3\n        /* \"#utility.yul\":4450:4468   */\n      add\n        /* \"#utility.yul\":4442:4468   */\n      swap1\n      pop\n        /* \"#utility.yul\":4514:4523   */\n      dup2\n        /* \"#utility.yul\":4508:4512   */\n      dup2\n        /* \"#utility.yul\":4504:4524   */\n      sub\n        /* \"#utility.yul\":4500:4501   */\n      0x00\n        /* \"#utility.yul\":4489:4498   */\n      dup4\n        /* \"#utility.yul\":4485:4502   */\n      add\n        /* \"#utility.yul\":4478:4525   */\n      mstore\n        /* \"#utility.yul\":4542:4673   */\n      tag_111\n        /* \"#utility.yul\":4668:4672   */\n      dup2\n        /* \"#utility.yul\":4542:4673   */\n      tag_92\n      jump\t// in\n    tag_111:\n        /* \"#utility.yul\":4534:4673   */\n      swap1\n      pop\n        /* \"#utility.yul\":4261:4680   */\n      swap2\n      swap1\n      pop\n      jump\t// out\n        /* \"#utility.yul\":4686:5105   */\n    tag_33:\n        /* \"#utility.yul\":4852:4856   */\n      0x00\n        /* \"#utility.yul\":4890:4892   */\n      0x20\n        /* \"#utility.yul\":4879:4888   */\n      dup3\n        /* \"#utility.yul\":4875:4893   */\n      add\n        /* \"#utility.yul\":4867:4893   */\n      swap1\n      pop\n        /* \"#utility.yul\":4939:4948   */\n      dup2\n        /* \"#utility.yul\":4933:4937   */\n      dup2\n        /* \"#utility.yul\":4929:4949   */\n      sub\n        /* \"#utility.yul\":4925:4926   */\n      0x00\n        /* \"#utility.yul\":4914:4923   */\n      dup4\n        /* \"#utility.yul\":4910:4927   */\n      add\n        /* \"#utility.yul\":4903:4950   */\n      mstore\n        /* \"#utility.yul\":4967:5098   */\n      tag_113\n        /* \"#utility.yul\":5093:5097   */\n      dup2\n        /* \"#utility.yul\":4967:5098   */\n      tag_97\n      jump\t// in\n    tag_113:\n        /* \"#utility.yul\":4959:5098   */\n      swap1\n      pop\n        /* \"#utility.yul\":4686:5105   */\n      swap2\n      swap1\n      pop\n      jump\t// out\n        /* \"#utility.yul\":5111:5333   */\n    tag_12:\n        /* \"#utility.yul\":5204:5208   */\n      0x00\n        /* \"#utility.yul\":5242:5244   */\n      0x20\n        /* \"#utility.yul\":5231:5240   */\n      dup3\n        /* \"#utility.yul\":5227:5245   */\n      add\n        /* \"#utility.yul\":5219:5245   */\n      swap1\n      pop\n        /* \"#utility.yul\":5255:5326   */\n      tag_115\n        /* \"#utility.yul\":5323:5324   */\n      0x00\n        /* \"#utility.yul\":5312:5321   */\n      dup4\n        /* \"#utility.yul\":5308:5325   */\n      add\n        /* \"#utility.yul\":5299:5305   */\n      dup5\n        /* \"#utility.yul\":5255:5326   */\n      tag_102\n      jump\t// in\n    tag_115:\n        /* \"#utility.yul\":5111:5333   */\n      swap3\n      swap2\n      pop\n      pop\n      jump\t// out\n        /* \"#utility.yul\":5339:5468   */\n    tag_43:\n        /* \"#utility.yul\":5373:5379   */\n      0x00\n        /* \"#utility.yul\":5400:5420   */\n      tag_117\n      tag_118\n      jump\t// in\n    tag_117:\n        /* \"#utility.yul\":5390:5420   */\n      swap1\n      pop\n        /* \"#utility.yul\":5429:5462   */\n      tag_119\n        /* \"#utility.yul\":5457:5461   */\n      dup3\n        /* \"#utility.yul\":5449:5455   */\n      dup3\n        /* \"#utility.yul\":5429:5462   */\n      tag_120\n      jump\t// in\n    tag_119:\n        /* \"#utility.yul\":5339:5468   */\n      swap2\n      swap1\n      pop\n      jump\t// out\n        /* \"#utility.yul\":5474:5549   */\n    tag_118:\n        /* \"#utility.yul\":5507:5513   */\n      0x00\n        /* \"#utility.yul\":5540:5542   */\n      0x40\n        /* \"#utility.yul\":5534:5543   */\n      mload\n        /* \"#utility.yul\":5524:5543   */\n      swap1\n      pop\n        /* \"#utility.yul\":5474:5549   */\n      swap1\n      jump\t// out\n        /* \"#utility.yul\":5555:5863   */\n    tag_42:\n        /* \"#utility.yul\":5617:5621   */\n      0x00\n        /* \"#utility.yul\":5707:5725   */\n      0xffffffffffffffff\n        /* \"#utility.yul\":5699:5705   */\n      dup3\n        /* \"#utility.yul\":5696:5726   */\n      gt\n        /* \"#utility.yul\":5693:5749   */\n      iszero\n      tag_123\n      jumpi\n        /* \"#utility.yul\":5729:5747   */\n      tag_124\n      tag_125\n      jump\t// in\n    tag_124:\n        /* \"#utility.yul\":5693:5749   */\n    tag_123:\n        /* \"#utility.yul\":5767:5796   */\n      tag_126\n        /* \"#utility.yul\":5789:5795   */\n      dup3\n        /* \"#utility.yul\":5767:5796   */\n      tag_91\n      jump\t// in\n    tag_126:\n        /* \"#utility.yul\":5759:5796   */\n      swap1\n      pop\n        /* \"#utility.yul\":5851:5855   */\n      0x20\n        /* \"#utility.yul\":5845:5849   */\n      dup2\n        /* \"#utility.yul\":5841:5856   */\n      add\n        /* \"#utility.yul\":5833:5856   */\n      swap1\n      pop\n        /* \"#utility.yul\":5555:5863   */\n      swap2\n      swap1\n      pop\n      jump\t// out\n        /* \"#utility.yul\":5869:5968   */\n    tag_85:\n        /* \"#utility.yul\":5921:5927   */\n      0x00\n        /* \"#utility.yul\":5955:5960   */\n      dup2\n        /* \"#utility.yul\":5949:5961   */\n      mload\n        /* \"#utility.yul\":5939:5961   */\n      swap1\n      pop\n        /* \"#utility.yul\":5869:5968   */\n      swap2\n      swap1\n      pop\n      jump\t// out\n        /* \"#utility.yul\":5974:6143   */\n    tag_87:\n        /* \"#utility.yul\":6058:6069   */\n      0x00\n        /* \"#utility.yul\":6092:6098   */\n      dup3\n        /* \"#utility.yul\":6087:6090   */\n      dup3\n        /* \"#utility.yul\":6080:6099   */\n      mstore\n        /* \"#utility.yul\":6132:6136   */\n      0x20\n        /* \"#utility.yul\":6127:6130   */\n      dup3\n        /* \"#utility.yul\":6123:6137   */\n      add\n        /* \"#utility.yul\":6108:6137   */\n      swap1\n      pop\n        /* \"#utility.yul\":5974:6143   */\n      swap3\n      swap2\n      pop\n      pop\n      jump\t// out\n        /* \"#utility.yul\":6149:6454   */\n    tag_36:\n        /* \"#utility.yul\":6189:6192   */\n      0x00\n        /* \"#utility.yul\":6208:6228   */\n      tag_130\n        /* \"#utility.yul\":6226:6227   */\n      dup3\n        /* \"#utility.yul\":6208:6228   */\n      tag_105\n      jump\t// in\n    tag_130:\n        /* \"#utility.yul\":6203:6228   */\n      swap2\n      pop\n        /* \"#utility.yul\":6242:6262   */\n      tag_131\n        /* \"#utility.yul\":6260:6261   */\n      dup4\n        /* \"#utility.yul\":6242:6262   */\n      tag_105\n      jump\t// in\n    tag_131:\n        /* \"#utility.yul\":6237:6262   */\n      swap3\n      pop\n        /* \"#utility.yul\":6396:6397   */\n      dup3\n        /* \"#utility.yul\":6328:6394   */\n      0xffffffffffffffffffffffffffffffffffffffffffffffffffffffffffffffff\n        /* \"#utility.yul\":6324:6398   */\n      sub\n        /* \"#utility.yul\":6321:6322   */\n      dup3\n        /* \"#utility.yul\":6318:6399   */\n      gt\n        /* \"#utility.yul\":6315:6422   */\n      iszero\n      tag_132\n      jumpi\n        /* \"#utility.yul\":6402:6420   */\n      tag_133\n      tag_134\n      jump\t// in\n    tag_133:\n        /* \"#utility.yul\":6315:6422   */\n    tag_132:\n        /* \"#utility.yul\":6446:6447   */\n      dup3\n        /* \"#utility.yul\":6443:6444   */\n      dup3\n        /* \"#utility.yul\":6439:6448   */\n      add\n        /* \"#utility.yul\":6432:6448   */\n      swap1\n      pop\n        /* \"#utility.yul\":6149:6454   */\n      swap3\n      swap2\n      pop\n      pop\n      jump\t// out\n        /* \"#utility.yul\":6460:6556   */\n    tag_81:\n        /* \"#utility.yul\":6497:6504   */\n      0x00\n        /* \"#utility.yul\":6526:6550   */\n      tag_136\n        /* \"#utility.yul\":6544:6549   */\n      dup3\n        /* \"#utility.yul\":6526:6550   */\n      tag_137\n      jump\t// in\n    tag_136:\n        /* \"#utility.yul\":6515:6550   */\n      swap1\n      pop\n        /* \"#utility.yul\":6460:6556   */\n      swap2\n      swap1\n      pop\n      jump\t// out\n        /* \"#utility.yul\":6562:6688   */\n    tag_137:\n        /* \"#utility.yul\":6599:6606   */\n      0x00\n        /* \"#utility.yul\":6639:6681   */\n      0xffffffffffffffffffffffffffffffffffffffff\n        /* \"#utility.yul\":6632:6637   */\n      dup3\n        /* \"#utility.yul\":6628:6682   */\n      and\n        /* \"#utility.yul\":6617:6682   */\n      swap1\n      pop\n        /* \"#utility.yul\":6562:6688   */\n      swap2\n      swap1\n      pop\n      jump\t// out\n        /* \"#utility.yul\":6694:6771   */\n    tag_105:\n        /* \"#utility.yul\":6731:6738   */\n      0x00\n        /* \"#utility.yul\":6760:6765   */\n      dup2\n        /* \"#utility.yul\":6749:6765   */\n      swap1\n      pop\n        /* \"#utility.yul\":6694:6771   */\n      swap2\n      swap1\n      pop\n      jump\t// out\n        /* \"#utility.yul\":6777:6931   */\n    tag_48:\n        /* \"#utility.yul\":6861:6867   */\n      dup3\n        /* \"#utility.yul\":6856:6859   */\n      dup2\n        /* \"#utility.yul\":6851:6854   */\n      dup4\n        /* \"#utility.yul\":6838:6868   */\n      calldatacopy\n        /* \"#utility.yul\":6923:6924   */\n      0x00\n        /* \"#utility.yul\":6914:6920   */\n      dup4\n        /* \"#utility.yul\":6909:6912   */\n      dup4\n        /* \"#utility.yul\":6905:6921   */\n      add\n        /* \"#utility.yul\":6898:6925   */\n      mstore\n        /* \"#utility.yul\":6777:6931   */\n      pop\n      pop\n      pop\n      jump\t// out\n        /* \"#utility.yul\":6937:7244   */\n    tag_89:\n        /* \"#utility.yul\":7005:7006   */\n      0x00\n        /* \"#utility.yul\":7015:7128   */\n    tag_142:\n        /* \"#utility.yul\":7029:7035   */\n      dup4\n        /* \"#utility.yul\":7026:7027   */\n      dup2\n        /* \"#utility.yul\":7023:7036   */\n      lt\n        /* \"#utility.yul\":7015:7128   */\n      iszero\n      tag_144\n      jumpi\n        /* \"#utility.yul\":7114:7115   */\n      dup1\n        /* \"#utility.yul\":7109:7112   */\n      dup3\n        /* \"#utility.yul\":7105:7116   */\n      add\n        /* \"#utility.yul\":7099:7117   */\n      mload\n        /* \"#utility.yul\":7095:7096   */\n      dup2\n        /* \"#utility.yul\":7090:7093   */\n      dup5\n        /* \"#utility.yul\":7086:7097   */\n      add\n        /* \"#utility.yul\":7079:7118   */\n      mstore\n        /* \"#utility.yul\":7051:7053   */\n      0x20\n        /* \"#utility.yul\":7048:7049   */\n      dup2\n        /* \"#utility.yul\":7044:7054   */\n      add\n        /* \"#utility.yul\":7039:7054   */\n      swap1\n      pop\n        /* \"#utility.yul\":7015:7128   */\n      jump(tag_142)\n    tag_144:\n        /* \"#utility.yul\":7146:7152   */\n      dup4\n        /* \"#utility.yul\":7143:7144   */\n      dup2\n        /* \"#utility.yul\":7140:7153   */\n      gt\n        /* \"#utility.yul\":7137:7238   */\n      iszero\n      tag_145\n      jumpi\n        /* \"#utility.yul\":7226:7227   */\n      0x00\n        /* \"#utility.yul\":7217:7223   */\n      dup5\n        /* \"#utility.yul\":7212:7215   */\n      dup5\n        /* \"#utility.yul\":7208:7224   */\n      add\n        /* \"#utility.yul\":7201:7228   */\n      mstore\n        /* \"#utility.yul\":7137:7238   */\n    tag_145:\n        /* \"#utility.yul\":6986:7244   */\n      pop\n        /* \"#utility.yul\":6937:7244   */\n      pop\n      pop\n      pop\n      jump\t// out\n        /* \"#utility.yul\":7250:7531   */\n    tag_120:\n        /* \"#utility.yul\":7333:7360   */\n      tag_147\n        /* \"#utility.yul\":7355:7359   */\n      dup3\n        /* \"#utility.yul\":7333:7360   */\n      tag_91\n      jump\t// in\n    tag_147:\n        /* \"#utility.yul\":7325:7331   */\n      dup2\n        /* \"#utility.yul\":7321:7361   */\n      add\n        /* \"#utility.yul\":7463:7469   */\n      dup2\n        /* \"#utility.yul\":7451:7461   */\n      dup2\n        /* \"#utility.yul\":7448:7470   */\n      lt\n        /* \"#utility.yul\":7427:7445   */\n      0xffffffffffffffff\n        /* \"#utility.yul\":7415:7425   */\n      dup3\n        /* \"#utility.yul\":7412:7446   */\n      gt\n        /* \"#utility.yul\":7409:7471   */\n      or\n        /* \"#utility.yul\":7406:7494   */\n      iszero\n      tag_148\n      jumpi\n        /* \"#utility.yul\":7474:7492   */\n      tag_149\n      tag_125\n      jump\t// in\n    tag_149:\n        /* \"#utility.yul\":7406:7494   */\n    tag_148:\n        /* \"#utility.yul\":7514:7524   */\n      dup1\n        /* \"#utility.yul\":7510:7512   */\n      0x40\n        /* \"#utility.yul\":7503:7525   */\n      mstore\n        /* \"#utility.yul\":7293:7531   */\n      pop\n        /* \"#utility.yul\":7250:7531   */\n      pop\n      pop\n      jump\t// out\n        /* \"#utility.yul\":7537:7717   */\n    tag_134:\n        /* \"#utility.yul\":7585:7662   */\n      0x4e487b7100000000000000000000000000000000000000000000000000000000\n        /* \"#utility.yul\":7582:7583   */\n      0x00\n        /* \"#utility.yul\":7575:7663   */\n      mstore\n        /* \"#utility.yul\":7682:7686   */\n      0x11\n        /* \"#utility.yul\":7679:7680   */\n      0x04\n        /* \"#utility.yul\":7672:7687   */\n      mstore\n        /* \"#utility.yul\":7706:7710   */\n      0x24\n        /* \"#utility.yul\":7703:7704   */\n      0x00\n        /* \"#utility.yul\":7696:7711   */\n      revert\n        /* \"#utility.yul\":7723:7903   */\n    tag_125:\n        /* \"#utility.yul\":7771:7848   */\n      0x4e487b7100000000000000000000000000000000000000000000000000000000\n        /* \"#utility.yul\":7768:7769   */\n      0x00\n        /* \"#utility.yul\":7761:7849   */\n      mstore\n        /* \"#utility.yul\":7868:7872   */\n      0x41\n        /* \"#utility.yul\":7865:7866   */\n      0x04\n        /* \"#utility.yul\":7858:7873   */\n      mstore\n        /* \"#utility.yul\":7892:7896   */\n      0x24\n        /* \"#utility.yul\":7889:7890   */\n      0x00\n        /* \"#utility.yul\":7882:7897   */\n      revert\n        /* \"#utility.yul\":7909:8026   */\n    tag_57:\n        /* \"#utility.yul\":8018:8019   */\n      0x00\n        /* \"#utility.yul\":8015:8016   */\n      dup1\n        /* \"#utility.yul\":8008:8020   */\n      revert\n        /* \"#utility.yul\":8032:8149   */\n    tag_46:\n        /* \"#utility.yul\":8141:8142   */\n      0x00\n        /* \"#utility.yul\":8138:8139   */\n      dup1\n        /* \"#utility.yul\":8131:8143   */\n      revert\n        /* \"#utility.yul\":8155:8272   */\n    tag_76:\n        /* \"#utility.yul\":8264:8265   */\n      0x00\n        /* \"#utility.yul\":8261:8262   */\n      dup1\n        /* \"#utility.yul\":8254:8266   */\n      revert\n        /* \"#utility.yul\":8278:8395   */\n    tag_66:\n        /* \"#utility.yul\":8387:8388   */\n      0x00\n        /* \"#utility.yul\":8384:8385   */\n      dup1\n        /* \"#utility.yul\":8377:8389   */\n      revert\n        /* \"#utility.yul\":8401:8503   */\n    tag_91:\n        /* \"#utility.yul\":8442:8448   */\n      0x00\n        /* \"#utility.yul\":8493:8495   */\n      0x1f\n        /* \"#utility.yul\":8489:8496   */\n      not\n        /* \"#utility.yul\":8484:8486   */\n      0x1f\n        /* \"#utility.yul\":8477:8482   */\n      dup4\n        /* \"#utility.yul\":8473:8487   */\n      add\n        /* \"#utility.yul\":8469:8497   */\n      and\n        /* \"#utility.yul\":8459:8497   */\n      swap1\n      pop\n        /* \"#utility.yul\":8401:8503   */\n      swap2\n      swap1\n      pop\n      jump\t// out\n        /* \"#utility.yul\":8509:8670   */\n    tag_96:\n        /* \"#utility.yul\":8649:8662   */\n      0x4e6f7420616c6c6f776564000000000000000000000000000000000000000000\n        /* \"#utility.yul\":8645:8646   */\n      0x00\n        /* \"#utility.yul\":8637:8643   */\n      dup3\n        /* \"#utility.yul\":8633:8647   */\n      add\n        /* \"#utility.yul\":8626:8663   */\n      mstore\n        /* \"#utility.yul\":8509:8670   */\n      pop\n      jump\t// out\n        /* \"#utility.yul\":8676:8843   */\n    tag_101:\n        /* \"#utility.yul\":8816:8835   */\n      0x596f7520617265206e6f74206f776e6572000000000000000000000000000000\n        /* \"#utility.yul\":8812:8813   */\n      0x00\n        /* \"#utility.yul\":8804:8810   */\n      dup3\n        /* \"#utility.yul\":8800:8814   */\n      add\n        /* \"#utility.yul\":8793:8836   */\n      mstore\n        /* \"#utility.yul\":8676:8843   */\n      pop\n      jump\t// out\n        /* \"#utility.yul\":8849:8971   */\n    tag_52:\n        /* \"#utility.yul\":8922:8946   */\n      tag_160\n        /* \"#utility.yul\":8940:8945   */\n      dup2\n        /* \"#utility.yul\":8922:8946   */\n      tag_81\n      jump\t// in\n    tag_160:\n        /* \"#utility.yul\":8915:8920   */\n      dup2\n        /* \"#utility.yul\":8912:8947   */\n      eq\n        /* \"#utility.yul\":8902:8965   */\n      tag_161\n      jumpi\n        /* \"#utility.yul\":8961:8962   */\n      0x00\n        /* \"#utility.yul\":8958:8959   */\n      dup1\n        /* \"#utility.yul\":8951:8963   */\n      revert\n        /* \"#utility.yul\":8902:8965   */\n    tag_161:\n        /* \"#utility.yul\":8849:8971   */\n      pop\n      jump\t// out\n        /* \"#utility.yul\":8977:9099   */\n    tag_62:\n        /* \"#utility.yul\":9050:9074   */\n      tag_163\n        /* \"#utility.yul\":9068:9073   */\n      dup2\n        /* \"#utility.yul\":9050:9074   */\n      tag_105\n      jump\t// in\n    tag_163:\n        /* \"#utility.yul\":9043:9048   */\n      dup2\n        /* \"#utility.yul\":9040:9075   */\n      eq\n        /* \"#utility.yul\":9030:9093   */\n      tag_164\n      jumpi\n        /* \"#utility.yul\":9089:9090   */\n      0x00\n        /* \"#utility.yul\":9086:9087   */\n      dup1\n        /* \"#utility.yul\":9079:9091   */\n      revert\n        /* \"#utility.yul\":9030:9093   */\n    tag_164:\n        /* \"#utility.yul\":8977:9099   */\n      pop\n      jump\t// out\n\n    auxdata: 0xa264697066735822122036bbeb104aaa3e882f1e53e37c315753f64c293a729f8147fcebc2ea7addc8bf64736f6c63430008070033\n}\n",
				"bytecode": {
					"linkReferences": {},
					"object": "608060405234801561001057600080fd5b50336000806101000a81548173ffffffffffffffffffffffffffffffffffffffff021916908373ffffffffffffffffffffffffffffffffffffffff1602179055506107a2806100606000396000f3fe6080604052600436106100385760003560e01c806315e9977e146100445780638d942a801461006f578063f3c40c4b146100985761003f565b3661003f57005b600080fd5b34801561005057600080fd5b506100596100c1565b60405161006691906104d7565b60405180910390f35b34801561007b57600080fd5b506100966004803603810190610091919061034d565b6100c9565b005b3480156100a457600080fd5b506100bf60048036038101906100ba919061030d565b61018b565b005b600047905090565b7fa1f2e8aa7ff0c088860d7b3f0d1dc288d8e8a07808525cc31a5691f1bc0e149d8383836040516100fc93929190610459565b60405180910390a181600160003373ffffffffffffffffffffffffffffffffffffffff1673ffffffffffffffffffffffffffffffffffffffff168152602001908152602001600020541015610186576040517f08c379a000000000000000000000000000000000000000000000000000000000815260040161017d90610497565b60405180910390fd5b505050565b3373ffffffffffffffffffffffffffffffffffffffff1660008054906101000a900473ffffffffffffffffffffffffffffffffffffffff1673ffffffffffffffffffffffffffffffffffffffff1614610219576040517f08c379a0000000000000000000000000000000000000000000000000000000008152600401610210906104b7565b60405180910390fd5b80600160008473ffffffffffffffffffffffffffffffffffffffff1673ffffffffffffffffffffffffffffffffffffffff16815260200190815260200160002060008282546102689190610564565b925050819055505050565b600061028661028184610517565b6104f2565b9050828152602081018484840111156102a2576102a16106cc565b5b6102ad8482856105f6565b509392505050565b6000813590506102c48161073e565b92915050565b600082601f8301126102df576102de6106c7565b5b81356102ef848260208601610273565b91505092915050565b60008135905061030781610755565b92915050565b60008060408385031215610324576103236106d6565b5b6000610332858286016102b5565b9250506020610343858286016102f8565b9150509250929050565b600080600060608486031215610366576103656106d6565b5b6000610374868287016102b5565b9350506020610385868287016102f8565b925050604084013567ffffffffffffffff8111156103a6576103a56106d1565b5b6103b2868287016102ca565b9150509250925092565b6103c5816105ba565b82525050565b60006103d682610548565b6103e08185610553565b93506103f0818560208601610605565b6103f9816106db565b840191505092915050565b6000610411600b83610553565b915061041c826106ec565b602082019050919050565b6000610434601183610553565b915061043f82610715565b602082019050919050565b610453816105ec565b82525050565b600060608201905061046e60008301866103bc565b61047b602083018561044a565b818103604083015261048d81846103cb565b9050949350505050565b600060208201905081810360008301526104b081610404565b9050919050565b600060208201905081810360008301526104d081610427565b9050919050565b60006020820190506104ec600083018461044a565b92915050565b60006104fc61050d565b90506105088282610638565b919050565b6000604051905090565b600067ffffffffffffffff82111561053257610531610698565b5b61053b826106db565b9050602081019050919050565b600081519050919050565b600082825260208201905092915050565b600061056f826105ec565b915061057a836105ec565b9250827fffffffffffffffffffffffffffffffffffffffffffffffffffffffffffffffff038211156105af576105ae610669565b5b828201905092915050565b60006105c5826105cc565b9050919050565b600073ffffffffffffffffffffffffffffffffffffffff82169050919050565b6000819050919050565b82818337600083830152505050565b60005b83811015610623578082015181840152602081019050610608565b83811115610632576000848401525b50505050565b610641826106db565b810181811067ffffffffffffffff821117156106605761065f610698565b5b80604052505050565b7f4e487b7100000000000000000000000000000000000000000000000000000000600052601160045260246000fd5b7f4e487b7100000000000000000000000000000000000000000000000000000000600052604160045260246000fd5b600080fd5b600080fd5b600080fd5b600080fd5b6000601f19601f8301169050919050565b7f4e6f7420616c6c6f776564000000000000000000000000000000000000000000600082015250565b7f596f7520617265206e6f74206f776e6572000000000000000000000000000000600082015250565b610747816105ba565b811461075257600080fd5b50565b61075e816105ec565b811461076957600080fd5b5056fea264697066735822122036bbeb104aaa3e882f1e53e37c315753f64c293a729f8147fcebc2ea7addc8bf64736f6c63430008070033",
					"opcodes": "PUSH1 0x80 PUSH1 0x40 MSTORE CALLVALUE DUP1 ISZERO PUSH2 0x10 JUMPI PUSH1 0x0 DUP1 REVERT JUMPDEST POP CALLER PUSH1 0x0 DUP1 PUSH2 0x100 EXP DUP2 SLOAD DUP2 PUSH20 0xFFFFFFFFFFFFFFFFFFFFFFFFFFFFFFFFFFFFFFFF MUL NOT AND SWAP1 DUP4 PUSH20 0xFFFFFFFFFFFFFFFFFFFFFFFFFFFFFFFFFFFFFFFF AND MUL OR SWAP1 SSTORE POP PUSH2 0x7A2 DUP1 PUSH2 0x60 PUSH1 0x0 CODECOPY PUSH1 0x0 RETURN INVALID PUSH1 0x80 PUSH1 0x40 MSTORE PUSH1 0x4 CALLDATASIZE LT PUSH2 0x38 JUMPI PUSH1 0x0 CALLDATALOAD PUSH1 0xE0 SHR DUP1 PUSH4 0x15E9977E EQ PUSH2 0x44 JUMPI DUP1 PUSH4 0x8D942A80 EQ PUSH2 0x6F JUMPI DUP1 PUSH4 0xF3C40C4B EQ PUSH2 0x98 JUMPI PUSH2 0x3F JUMP JUMPDEST CALLDATASIZE PUSH2 0x3F JUMPI STOP JUMPDEST PUSH1 0x0 DUP1 REVERT JUMPDEST CALLVALUE DUP1 ISZERO PUSH2 0x50 JUMPI PUSH1 0x0 DUP1 REVERT JUMPDEST POP PUSH2 0x59 PUSH2 0xC1 JUMP JUMPDEST PUSH1 0x40 MLOAD PUSH2 0x66 SWAP2 SWAP1 PUSH2 0x4D7 JUMP JUMPDEST PUSH1 0x40 MLOAD DUP1 SWAP2 SUB SWAP1 RETURN JUMPDEST CALLVALUE DUP1 ISZERO PUSH2 0x7B JUMPI PUSH1 0x0 DUP1 REVERT JUMPDEST POP PUSH2 0x96 PUSH1 0x4 DUP1 CALLDATASIZE SUB DUP2 ADD SWAP1 PUSH2 0x91 SWAP2 SWAP1 PUSH2 0x34D JUMP JUMPDEST PUSH2 0xC9 JUMP JUMPDEST STOP JUMPDEST CALLVALUE DUP1 ISZERO PUSH2 0xA4 JUMPI PUSH1 0x0 DUP1 REVERT JUMPDEST POP PUSH2 0xBF PUSH1 0x4 DUP1 CALLDATASIZE SUB DUP2 ADD SWAP1 PUSH2 0xBA SWAP2 SWAP1 PUSH2 0x30D JUMP JUMPDEST PUSH2 0x18B JUMP JUMPDEST STOP JUMPDEST PUSH1 0x0 SELFBALANCE SWAP1 POP SWAP1 JUMP JUMPDEST PUSH32 0xA1F2E8AA7FF0C088860D7B3F0D1DC288D8E8A07808525CC31A5691F1BC0E149D DUP4 DUP4 DUP4 PUSH1 0x40 MLOAD PUSH2 0xFC SWAP4 SWAP3 SWAP2 SWAP1 PUSH2 0x459 JUMP JUMPDEST PUSH1 0x40 MLOAD DUP1 SWAP2 SUB SWAP1 LOG1 DUP2 PUSH1 0x1 PUSH1 0x0 CALLER PUSH20 0xFFFFFFFFFFFFFFFFFFFFFFFFFFFFFFFFFFFFFFFF AND PUSH20 0xFFFFFFFFFFFFFFFFFFFFFFFFFFFFFFFFFFFFFFFF AND DUP2 MSTORE PUSH1 0x20 ADD SWAP1 DUP2 MSTORE PUSH1 0x20 ADD PUSH1 0x0 KECCAK256 SLOAD LT ISZERO PUSH2 0x186 JUMPI PUSH1 0x40 MLOAD PUSH32 0x8C379A000000000000000000000000000000000000000000000000000000000 DUP2 MSTORE PUSH1 0x4 ADD PUSH2 0x17D SWAP1 PUSH2 0x497 JUMP JUMPDEST PUSH1 0x40 MLOAD DUP1 SWAP2 SUB SWAP1 REVERT JUMPDEST POP POP POP JUMP JUMPDEST CALLER PUSH20 0xFFFFFFFFFFFFFFFFFFFFFFFFFFFFFFFFFFFFFFFF AND PUSH1 0x0 DUP1 SLOAD SWAP1 PUSH2 0x100 EXP SWAP1 DIV PUSH20 0xFFFFFFFFFFFFFFFFFFFFFFFFFFFFFFFFFFFFFFFF AND PUSH20 0xFFFFFFFFFFFFFFFFFFFFFFFFFFFFFFFFFFFFFFFF AND EQ PUSH2 0x219 JUMPI PUSH1 0x40 MLOAD PUSH32 0x8C379A000000000000000000000000000000000000000000000000000000000 DUP2 MSTORE PUSH1 0x4 ADD PUSH2 0x210 SWAP1 PUSH2 0x4B7 JUMP JUMPDEST PUSH1 0x40 MLOAD DUP1 SWAP2 SUB SWAP1 REVERT JUMPDEST DUP1 PUSH1 0x1 PUSH1 0x0 DUP5 PUSH20 0xFFFFFFFFFFFFFFFFFFFFFFFFFFFFFFFFFFFFFFFF AND PUSH20 0xFFFFFFFFFFFFFFFFFFFFFFFFFFFFFFFFFFFFFFFF AND DUP2 MSTORE PUSH1 0x20 ADD SWAP1 DUP2 MSTORE PUSH1 0x20 ADD PUSH1 0x0 KECCAK256 PUSH1 0x0 DUP3 DUP3 SLOAD PUSH2 0x268 SWAP2 SWAP1 PUSH2 0x564 JUMP JUMPDEST SWAP3 POP POP DUP2 SWAP1 SSTORE POP POP POP JUMP JUMPDEST PUSH1 0x0 PUSH2 0x286 PUSH2 0x281 DUP5 PUSH2 0x517 JUMP JUMPDEST PUSH2 0x4F2 JUMP JUMPDEST SWAP1 POP DUP3 DUP2 MSTORE PUSH1 0x20 DUP2 ADD DUP5 DUP5 DUP5 ADD GT ISZERO PUSH2 0x2A2 JUMPI PUSH2 0x2A1 PUSH2 0x6CC JUMP JUMPDEST JUMPDEST PUSH2 0x2AD DUP5 DUP3 DUP6 PUSH2 0x5F6 JUMP JUMPDEST POP SWAP4 SWAP3 POP POP POP JUMP JUMPDEST PUSH1 0x0 DUP2 CALLDATALOAD SWAP1 POP PUSH2 0x2C4 DUP2 PUSH2 0x73E JUMP JUMPDEST SWAP3 SWAP2 POP POP JUMP JUMPDEST PUSH1 0x0 DUP3 PUSH1 0x1F DUP4 ADD SLT PUSH2 0x2DF JUMPI PUSH2 0x2DE PUSH2 0x6C7 JUMP JUMPDEST JUMPDEST DUP2 CALLDATALOAD PUSH2 0x2EF DUP5 DUP3 PUSH1 0x20 DUP7 ADD PUSH2 0x273 JUMP JUMPDEST SWAP2 POP POP SWAP3 SWAP2 POP POP JUMP JUMPDEST PUSH1 0x0 DUP2 CALLDATALOAD SWAP1 POP PUSH2 0x307 DUP2 PUSH2 0x755 JUMP JUMPDEST SWAP3 SWAP2 POP POP JUMP JUMPDEST PUSH1 0x0 DUP1 PUSH1 0x40 DUP4 DUP6 SUB SLT ISZERO PUSH2 0x324 JUMPI PUSH2 0x323 PUSH2 0x6D6 JUMP JUMPDEST JUMPDEST PUSH1 0x0 PUSH2 0x332 DUP6 DUP3 DUP7 ADD PUSH2 0x2B5 JUMP JUMPDEST SWAP3 POP POP PUSH1 0x20 PUSH2 0x343 DUP6 DUP3 DUP7 ADD PUSH2 0x2F8 JUMP JUMPDEST SWAP2 POP POP SWAP3 POP SWAP3 SWAP1 POP JUMP JUMPDEST PUSH1 0x0 DUP1 PUSH1 0x0 PUSH1 0x60 DUP5 DUP7 SUB SLT ISZERO PUSH2 0x366 JUMPI PUSH2 0x365 PUSH2 0x6D6 JUMP JUMPDEST JUMPDEST PUSH1 0x0 PUSH2 0x374 DUP7 DUP3 DUP8 ADD PUSH2 0x2B5 JUMP JUMPDEST SWAP4 POP POP PUSH1 0x20 PUSH2 0x385 DUP7 DUP3 DUP8 ADD PUSH2 0x2F8 JUMP JUMPDEST SWAP3 POP POP PUSH1 0x40 DUP5 ADD CALLDATALOAD PUSH8 0xFFFFFFFFFFFFFFFF DUP2 GT ISZERO PUSH2 0x3A6 JUMPI PUSH2 0x3A5 PUSH2 0x6D1 JUMP JUMPDEST JUMPDEST PUSH2 0x3B2 DUP7 DUP3 DUP8 ADD PUSH2 0x2CA JUMP JUMPDEST SWAP2 POP POP SWAP3 POP SWAP3 POP SWAP3 JUMP JUMPDEST PUSH2 0x3C5 DUP2 PUSH2 0x5BA JUMP JUMPDEST DUP3 MSTORE POP POP JUMP JUMPDEST PUSH1 0x0 PUSH2 0x3D6 DUP3 PUSH2 0x548 JUMP JUMPDEST PUSH2 0x3E0 DUP2 DUP6 PUSH2 0x553 JUMP JUMPDEST SWAP4 POP PUSH2 0x3F0 DUP2 DUP6 PUSH1 0x20 DUP7 ADD PUSH2 0x605 JUMP JUMPDEST PUSH2 0x3F9 DUP2 PUSH2 0x6DB JUMP JUMPDEST DUP5 ADD SWAP2 POP POP SWAP3 SWAP2 POP POP JUMP JUMPDEST PUSH1 0x0 PUSH2 0x411 PUSH1 0xB DUP4 PUSH2 0x553 JUMP JUMPDEST SWAP2 POP PUSH2 0x41C DUP3 PUSH2 0x6EC JUMP JUMPDEST PUSH1 0x20 DUP3 ADD SWAP1 POP SWAP2 SWAP1 POP JUMP JUMPDEST PUSH1 0x0 PUSH2 0x434 PUSH1 0x11 DUP4 PUSH2 0x553 JUMP JUMPDEST SWAP2 POP PUSH2 0x43F DUP3 PUSH2 0x715 JUMP JUMPDEST PUSH1 0x20 DUP3 ADD SWAP1 POP SWAP2 SWAP1 POP JUMP JUMPDEST PUSH2 0x453 DUP2 PUSH2 0x5EC JUMP JUMPDEST DUP3 MSTORE POP POP JUMP JUMPDEST PUSH1 0x0 PUSH1 0x60 DUP3 ADD SWAP1 POP PUSH2 0x46E PUSH1 0x0 DUP4 ADD DUP7 PUSH2 0x3BC JUMP JUMPDEST PUSH2 0x47B PUSH1 0x20 DUP4 ADD DUP6 PUSH2 0x44A JUMP JUMPDEST DUP2 DUP2 SUB PUSH1 0x40 DUP4 ADD MSTORE PUSH2 0x48D DUP2 DUP5 PUSH2 0x3CB JUMP JUMPDEST SWAP1 POP SWAP5 SWAP4 POP POP POP POP JUMP JUMPDEST PUSH1 0x0 PUSH1 0x20 DUP3 ADD SWAP1 POP DUP2 DUP2 SUB PUSH1 0x0 DUP4 ADD MSTORE PUSH2 0x4B0 DUP2 PUSH2 0x404 JUMP JUMPDEST SWAP1 POP SWAP2 SWAP1 POP JUMP JUMPDEST PUSH1 0x0 PUSH1 0x20 DUP3 ADD SWAP1 POP DUP2 DUP2 SUB PUSH1 0x0 DUP4 ADD MSTORE PUSH2 0x4D0 DUP2 PUSH2 0x427 JUMP JUMPDEST SWAP1 POP SWAP2 SWAP1 POP JUMP JUMPDEST PUSH1 0x0 PUSH1 0x20 DUP3 ADD SWAP1 POP PUSH2 0x4EC PUSH1 0x0 DUP4 ADD DUP5 PUSH2 0x44A JUMP JUMPDEST SWAP3 SWAP2 POP POP JUMP JUMPDEST PUSH1 0x0 PUSH2 0x4FC PUSH2 0x50D JUMP JUMPDEST SWAP1 POP PUSH2 0x508 DUP3 DUP3 PUSH2 0x638 JUMP JUMPDEST SWAP2 SWAP1 POP JUMP JUMPDEST PUSH1 0x0 PUSH1 0x40 MLOAD SWAP1 POP SWAP1 JUMP JUMPDEST PUSH1 0x0 PUSH8 0xFFFFFFFFFFFFFFFF DUP3 GT ISZERO PUSH2 0x532 JUMPI PUSH2 0x531 PUSH2 0x698 JUMP JUMPDEST JUMPDEST PUSH2 0x53B DUP3 PUSH2 0x6DB JUMP JUMPDEST SWAP1 POP PUSH1 0x20 DUP2 ADD SWAP1 POP SWAP2 SWAP1 POP JUMP JUMPDEST PUSH1 0x0 DUP2 MLOAD SWAP1 POP SWAP2 SWAP1 POP JUMP JUMPDEST PUSH1 0x0 DUP3 DUP3 MSTORE PUSH1 0x20 DUP3 ADD SWAP1 POP SWAP3 SWAP2 POP POP JUMP JUMPDEST PUSH1 0x0 PUSH2 0x56F DUP3 PUSH2 0x5EC JUMP JUMPDEST SWAP2 POP PUSH2 0x57A DUP4 PUSH2 0x5EC JUMP JUMPDEST SWAP3 POP DUP3 PUSH32 0xFFFFFFFFFFFFFFFFFFFFFFFFFFFFFFFFFFFFFFFFFFFFFFFFFFFFFFFFFFFFFFFF SUB DUP3 GT ISZERO PUSH2 0x5AF JUMPI PUSH2 0x5AE PUSH2 0x669 JUMP JUMPDEST JUMPDEST DUP3 DUP3 ADD SWAP1 POP SWAP3 SWAP2 POP POP JUMP JUMPDEST PUSH1 0x0 PUSH2 0x5C5 DUP3 PUSH2 0x5CC JUMP JUMPDEST SWAP1 POP SWAP2 SWAP1 POP JUMP JUMPDEST PUSH1 0x0 PUSH20 0xFFFFFFFFFFFFFFFFFFFFFFFFFFFFFFFFFFFFFFFF DUP3 AND SWAP1 POP SWAP2 SWAP1 POP JUMP JUMPDEST PUSH1 0x0 DUP2 SWAP1 POP SWAP2 SWAP1 POP JUMP JUMPDEST DUP3 DUP2 DUP4 CALLDATACOPY PUSH1 0x0 DUP4 DUP4 ADD MSTORE POP POP POP JUMP JUMPDEST PUSH1 0x0 JUMPDEST DUP4 DUP2 LT ISZERO PUSH2 0x623 JUMPI DUP1 DUP3 ADD MLOAD DUP2 DUP5 ADD MSTORE PUSH1 0x20 DUP2 ADD SWAP1 POP PUSH2 0x608 JUMP JUMPDEST DUP4 DUP2 GT ISZERO PUSH2 0x632 JUMPI PUSH1 0x0 DUP5 DUP5 ADD MSTORE JUMPDEST POP POP POP POP JUMP JUMPDEST PUSH2 0x641 DUP3 PUSH2 0x6DB JUMP JUMPDEST DUP2 ADD DUP2 DUP2 LT PUSH8 0xFFFFFFFFFFFFFFFF DUP3 GT OR ISZERO PUSH2 0x660 JUMPI PUSH2 0x65F PUSH2 0x698 JUMP JUMPDEST JUMPDEST DUP1 PUSH1 0x40 MSTORE POP POP POP JUMP JUMPDEST PUSH32 0x4E487B7100000000000000000000000000000000000000000000000000000000 PUSH1 0x0 MSTORE PUSH1 0x11 PUSH1 0x4 MSTORE PUSH1 0x24 PUSH1 0x0 REVERT JUMPDEST PUSH32 0x4E487B7100000000000000000000000000000000000000000000000000000000 PUSH1 0x0 MSTORE PUSH1 0x41 PUSH1 0x4 MSTORE PUSH1 0x24 PUSH1 0x0 REVERT JUMPDEST PUSH1 0x0 DUP1 REVERT JUMPDEST PUSH1 0x0 DUP1 REVERT JUMPDEST PUSH1 0x0 DUP1 REVERT JUMPDEST PUSH1 0x0 DUP1 REVERT JUMPDEST PUSH1 0x0 PUSH1 0x1F NOT PUSH1 0x1F DUP4 ADD AND SWAP1 POP SWAP2 SWAP1 POP JUMP JUMPDEST PUSH32 0x4E6F7420616C6C6F776564000000000000000000000000000000000000000000 PUSH1 0x0 DUP3 ADD MSTORE POP JUMP JUMPDEST PUSH32 0x596F7520617265206E6F74206F776E6572000000000000000000000000000000 PUSH1 0x0 DUP3 ADD MSTORE POP JUMP JUMPDEST PUSH2 0x747 DUP2 PUSH2 0x5BA JUMP JUMPDEST DUP2 EQ PUSH2 0x752 JUMPI PUSH1 0x0 DUP1 REVERT JUMPDEST POP JUMP JUMPDEST PUSH2 0x75E DUP2 PUSH2 0x5EC JUMP JUMPDEST DUP2 EQ PUSH2 0x769 JUMPI PUSH1 0x0 DUP1 REVERT JUMPDEST POP JUMP INVALID LOG2 PUSH5 0x6970667358 0x22 SLT KECCAK256 CALLDATASIZE 0xBB 0xEB LT 0x4A 0xAA RETURNDATACOPY DUP9 0x2F 0x1E MSTORE8 0xE3 PUSH29 0x315753F64C293A729F8147FCEBC2EA7ADDC8BF64736F6C634300080700 CALLER "
				},
				"gasEstimates": {
					"creation": {
						"codeDepositCost": "390800",
						"executionCost": "24696",
						"totalCost": "415496"
					},
					"external": {
						"BALANCE()": "317",
						"addAllowance(address,uint256)": "infinite",
						"withDrawMoney(address,uint256,string)": "infinite"
					}
				},
				"methodIdentifiers": {
					"BALANCE()": "15e9977e",
					"addAllowance(address,uint256)": "f3c40c4b",
					"withDrawMoney(address,uint256,string)": "8d942a80"
				}
			},
			"storageLayout": {
				"storage": [
					{
						"astId": 3,
						"contract": "Allowance.sol:main",
						"label": "owner",
						"offset": 0,
						"slot": "0",
						"type": "t_address"
					},
					{
						"astId": 7,
						"contract": "Allowance.sol:main",
						"label": "allowance",
						"offset": 0,
						"slot": "1",
						"type": "t_mapping(t_address,t_uint256)"
					}
				],
				"types": {
					"t_address": {
						"encoding": "inplace",
						"label": "address",
						"numberOfBytes": "20"
					},
					"t_mapping(t_address,t_uint256)": {
						"encoding": "mapping",
						"key": "t_address",
						"label": "mapping(address => uint256)",
						"numberOfBytes": "32",
						"value": "t_uint256"
					},
					"t_uint256": {
						"encoding": "inplace",
						"label": "uint256",
						"numberOfBytes": "32"
					}
				}
			},
			"userdoc": {
				"kind": "user",
				"methods": {},
				"version": 1
			}
		}
	}
}