{
	"Allowance.sol": {
		"main": {
			"abi": [
				{
					"inputs": [],
					"stateMutability": "nonpayable",
					"type": "constructor"
				},
				{
					"anonymous": false,
					"inputs": [
						{
							"indexed": false,
							"internalType": "address",
							"name": "_to",
							"type": "address"
						},
						{
							"indexed": false,
							"internalType": "uint256",
							"name": "_amount",
							"type": "uint256"
						},
						{
							"indexed": false,
							"internalType": "string",
							"name": "_description",
							"type": "string"
						}
					],
					"name": "log",
					"type": "event"
				},
				{
					"inputs": [],
					"name": "BALANCE",
					"outputs": [
						{
							"internalType": "uint256",
							"name": "",
							"type": "uint256"
						}
					],
					"stateMutability": "view",
					"type": "function"
				},
				{
					"inputs": [
						{
							"internalType": "address",
							"name": "_to",
							"type": "address"
						},
						{
							"internalType": "uint256",
							"name": "_amount",
							"type": "uint256"
						}
					],
					"name": "addAllowance",
					"outputs": [],
					"stateMutability": "nonpayable",
					"type": "function"
				},
				{
					"inputs": [],
					"name": "isOwner",
					"outputs": [
						{
							"internalType": "bool",
							"name": "",
							"type": "bool"
						}
					],
					"stateMutability": "nonpayable",
					"type": "function"
				},
				{
					"inputs": [
						{
							"internalType": "address",
							"name": "_to",
							"type": "address"
						},
						{
							"internalType": "uint256",
							"name": "_amount",
							"type": "uint256"
						},
						{
							"internalType": "string",
							"name": "_description",
							"type": "string"
						}
					],
					"name": "withDrawMoney",
					"outputs": [],
					"stateMutability": "nonpayable",
					"type": "function"
				},
				{
					"stateMutability": "payable",
					"type": "receive"
				}
			],
			"devdoc": {
				"kind": "dev",
				"methods": {},
				"version": 1
			},
			"evm": {
				"assembly": "    /* \"Allowance.sol\":59:1134  contract main{\r... */\n  mstore(0x40, 0x80)\n    /* \"Allowance.sol\":153:203  constructor(){\r... */\n  callvalue\n  dup1\n  iszero\n  tag_1\n  jumpi\n  0x00\n  dup1\n  revert\ntag_1:\n  pop\n    /* \"Allowance.sol\":185:195  msg.sender */\n  caller\n    /* \"Allowance.sol\":177:182  owner */\n  0x00\n  dup1\n    /* \"Allowance.sol\":177:195  owner = msg.sender */\n  0x0100\n  exp\n  dup2\n  sload\n  dup2\n  0xffffffffffffffffffffffffffffffffffffffff\n  mul\n  not\n  and\n  swap1\n  dup4\n  0xffffffffffffffffffffffffffffffffffffffff\n  and\n  mul\n  or\n  swap1\n  sstore\n  pop\n    /* \"Allowance.sol\":59:1134  contract main{\r... */\n  dataSize(sub_0)\n  dup1\n  dataOffset(sub_0)\n  0x00\n  codecopy\n  0x00\n  return\nstop\n\nsub_0: assembly {\n        /* \"Allowance.sol\":59:1134  contract main{\r... */\n      mstore(0x40, 0x80)\n      jumpi(tag_1, lt(calldatasize, 0x04))\n      shr(0xe0, calldataload(0x00))\n      dup1\n      0x15e9977e\n      eq\n      tag_3\n      jumpi\n      dup1\n      0x8d942a80\n      eq\n      tag_4\n      jumpi\n      dup1\n      0x8f32d59b\n      eq\n      tag_5\n      jumpi\n      dup1\n      0xf3c40c4b\n      eq\n      tag_6\n      jumpi\n      jump(tag_2)\n    tag_1:\n      jumpi(tag_2, calldatasize)\n      stop\n    tag_2:\n      0x00\n      dup1\n      revert\n        /* \"Allowance.sol\":1038:1129  function BALANCE() public view returns(uint){\r... */\n    tag_3:\n      callvalue\n      dup1\n      iszero\n      tag_9\n      jumpi\n      0x00\n      dup1\n      revert\n    tag_9:\n      pop\n      tag_10\n      tag_11\n      jump\t// in\n    tag_10:\n      mload(0x40)\n      tag_12\n      swap2\n      swap1\n      tag_13\n      jump\t// in\n    tag_12:\n      mload(0x40)\n      dup1\n      swap2\n      sub\n      swap1\n      return\n        /* \"Allowance.sol\":789:1026  function withDrawMoney(address _to, uint _amount, string memory _description) public ownerOrAllowed(_amount) {\r... */\n    tag_4:\n      callvalue\n      dup1\n      iszero\n      tag_14\n      jumpi\n      0x00\n      dup1\n      revert\n    tag_14:\n      pop\n      tag_15\n      0x04\n      dup1\n      calldatasize\n      sub\n      dup2\n      add\n      swap1\n      tag_16\n      swap2\n      swap1\n      tag_17\n      jump\t// in\n    tag_16:\n      tag_18\n      jump\t// in\n    tag_15:\n      stop\n        /* \"Allowance.sol\":371:451  function isOwner() public returns(bool){\r... */\n    tag_5:\n      callvalue\n      dup1\n      iszero\n      tag_19\n      jumpi\n      0x00\n      dup1\n      revert\n    tag_19:\n      pop\n      tag_20\n      tag_21\n      jump\t// in\n    tag_20:\n      mload(0x40)\n      tag_22\n      swap2\n      swap1\n      tag_23\n      jump\t// in\n    tag_22:\n      mload(0x40)\n      dup1\n      swap2\n      sub\n      swap1\n      return\n        /* \"Allowance.sol\":605:715  function addAllowance(address _to, uint _amount) public onlyOwner {\r... */\n    tag_6:\n      callvalue\n      dup1\n      iszero\n      tag_24\n      jumpi\n      0x00\n      dup1\n      revert\n    tag_24:\n      pop\n      tag_25\n      0x04\n      dup1\n      calldatasize\n      sub\n      dup2\n      add\n      swap1\n      tag_26\n      swap2\n      swap1\n      tag_27\n      jump\t// in\n    tag_26:\n      tag_28\n      jump\t// in\n    tag_25:\n      stop\n        /* \"Allowance.sol\":1038:1129  function BALANCE() public view returns(uint){\r... */\n    tag_11:\n        /* \"Allowance.sol\":1077:1081  uint */\n      0x00\n        /* \"Allowance.sol\":1100:1121  address(this).balance */\n      selfbalance\n        /* \"Allowance.sol\":1093:1121  return address(this).balance */\n      swap1\n      pop\n        /* \"Allowance.sol\":1038:1129  function BALANCE() public view returns(uint){\r... */\n      swap1\n      jump\t// out\n        /* \"Allowance.sol\":789:1026  function withDrawMoney(address _to, uint _amount, string memory _description) public ownerOrAllowed(_amount) {\r... */\n    tag_18:\n        /* \"Allowance.sol\":889:896  _amount */\n      dup2\n        /* \"Allowance.sol\":515:524  isOwner() */\n      tag_31\n        /* \"Allowance.sol\":515:522  isOwner */\n      tag_21\n        /* \"Allowance.sol\":515:524  isOwner() */\n      jump\t// in\n    tag_31:\n        /* \"Allowance.sol\":515:560  isOwner() || allowance[msg.sender] >= _amount */\n      dup1\n      tag_32\n      jumpi\n      pop\n        /* \"Allowance.sol\":553:560  _amount */\n      dup1\n        /* \"Allowance.sol\":528:537  allowance */\n      0x01\n        /* \"Allowance.sol\":528:549  allowance[msg.sender] */\n      0x00\n        /* \"Allowance.sol\":538:548  msg.sender */\n      caller\n        /* \"Allowance.sol\":528:549  allowance[msg.sender] */\n      0xffffffffffffffffffffffffffffffffffffffff\n      and\n      0xffffffffffffffffffffffffffffffffffffffff\n      and\n      dup2\n      mstore\n      0x20\n      add\n      swap1\n      dup2\n      mstore\n      0x20\n      add\n      0x00\n      keccak256\n      sload\n        /* \"Allowance.sol\":528:560  allowance[msg.sender] >= _amount */\n      lt\n      iszero\n        /* \"Allowance.sol\":515:560  isOwner() || allowance[msg.sender] >= _amount */\n    tag_32:\n        /* \"Allowance.sol\":507:577  require(isOwner() || allowance[msg.sender] >= _amount, \"Not Allowed\" ) */\n      tag_33\n      jumpi\n      mload(0x40)\n      0x08c379a000000000000000000000000000000000000000000000000000000000\n      dup2\n      mstore\n      0x04\n      add\n      tag_34\n      swap1\n      tag_35\n      jump\t// in\n    tag_34:\n      mload(0x40)\n      dup1\n      swap2\n      sub\n      swap1\n      revert\n    tag_33:\n        /* \"Allowance.sol\":914:945  log(_to, _amount, _description) */\n      0xa1f2e8aa7ff0c088860d7b3f0d1dc288d8e8a07808525cc31a5691f1bc0e149d\n        /* \"Allowance.sol\":918:921  _to */\n      dup5\n        /* \"Allowance.sol\":923:930  _amount */\n      dup5\n        /* \"Allowance.sol\":932:944  _description */\n      dup5\n        /* \"Allowance.sol\":914:945  log(_to, _amount, _description) */\n      mload(0x40)\n      tag_37\n      swap4\n      swap3\n      swap2\n      swap1\n      tag_38\n      jump\t// in\n    tag_37:\n      mload(0x40)\n      dup1\n      swap2\n      sub\n      swap1\n      log1\n        /* \"Allowance.sol\":989:996  _amount */\n      dup3\n        /* \"Allowance.sol\":964:985  address(this).balance */\n      selfbalance\n        /* \"Allowance.sol\":964:996  address(this).balance >= _amount */\n      lt\n      iszero\n        /* \"Allowance.sol\":956:1016  require(address(this).balance >= _amount, \"No enough funds\") */\n      tag_39\n      jumpi\n      mload(0x40)\n      0x08c379a000000000000000000000000000000000000000000000000000000000\n      dup2\n      mstore\n      0x04\n      add\n      tag_40\n      swap1\n      tag_41\n      jump\t// in\n    tag_40:\n      mload(0x40)\n      dup1\n      swap2\n      sub\n      swap1\n      revert\n    tag_39:\n        /* \"Allowance.sol\":789:1026  function withDrawMoney(address _to, uint _amount, string memory _description) public ownerOrAllowed(_amount) {\r... */\n      pop\n      pop\n      pop\n      pop\n      jump\t// out\n        /* \"Allowance.sol\":371:451  function isOwner() public returns(bool){\r... */\n    tag_21:\n        /* \"Allowance.sol\":405:409  bool */\n      0x00\n        /* \"Allowance.sol\":371:451  function isOwner() public returns(bool){\r... */\n      swap1\n      jump\t// out\n        /* \"Allowance.sol\":605:715  function addAllowance(address _to, uint _amount) public onlyOwner {\r... */\n    tag_28:\n        /* \"Allowance.sol\":311:321  msg.sender */\n      caller\n        /* \"Allowance.sol\":302:321  owner == msg.sender */\n      0xffffffffffffffffffffffffffffffffffffffff\n      and\n        /* \"Allowance.sol\":302:307  owner */\n      0x00\n      dup1\n      sload\n      swap1\n      0x0100\n      exp\n      swap1\n      div\n      0xffffffffffffffffffffffffffffffffffffffff\n      and\n        /* \"Allowance.sol\":302:321  owner == msg.sender */\n      0xffffffffffffffffffffffffffffffffffffffff\n      and\n      eq\n        /* \"Allowance.sol\":294:343  require(owner == msg.sender, \"You are not owner\") */\n      tag_44\n      jumpi\n      mload(0x40)\n      0x08c379a000000000000000000000000000000000000000000000000000000000\n      dup2\n      mstore\n      0x04\n      add\n      tag_45\n      swap1\n      tag_46\n      jump\t// in\n    tag_45:\n      mload(0x40)\n      dup1\n      swap2\n      sub\n      swap1\n      revert\n    tag_44:\n        /* \"Allowance.sol\":700:707  _amount */\n      dup1\n        /* \"Allowance.sol\":682:691  allowance */\n      0x01\n        /* \"Allowance.sol\":682:696  allowance[_to] */\n      0x00\n        /* \"Allowance.sol\":692:695  _to */\n      dup5\n        /* \"Allowance.sol\":682:696  allowance[_to] */\n      0xffffffffffffffffffffffffffffffffffffffff\n      and\n      0xffffffffffffffffffffffffffffffffffffffff\n      and\n      dup2\n      mstore\n      0x20\n      add\n      swap1\n      dup2\n      mstore\n      0x20\n      add\n      0x00\n      keccak256\n      0x00\n        /* \"Allowance.sol\":682:707  allowance[_to] += _amount */\n      dup3\n      dup3\n      sload\n      tag_48\n      swap2\n      swap1\n      tag_49\n      jump\t// in\n    tag_48:\n      swap3\n      pop\n      pop\n      dup2\n      swap1\n      sstore\n      pop\n        /* \"Allowance.sol\":605:715  function addAllowance(address _to, uint _amount) public onlyOwner {\r... */\n      pop\n      pop\n      jump\t// out\n        /* \"#utility.yul\":7:419   */\n    tag_51:\n        /* \"#utility.yul\":85:90   */\n      0x00\n        /* \"#utility.yul\":110:176   */\n      tag_53\n        /* \"#utility.yul\":126:175   */\n      tag_54\n        /* \"#utility.yul\":168:174   */\n      dup5\n        /* \"#utility.yul\":126:175   */\n      tag_55\n      jump\t// in\n    tag_54:\n        /* \"#utility.yul\":110:176   */\n      tag_56\n      jump\t// in\n    tag_53:\n        /* \"#utility.yul\":101:176   */\n      swap1\n      pop\n        /* \"#utility.yul\":199:205   */\n      dup3\n        /* \"#utility.yul\":192:197   */\n      dup2\n        /* \"#utility.yul\":185:206   */\n      mstore\n        /* \"#utility.yul\":237:241   */\n      0x20\n        /* \"#utility.yul\":230:235   */\n      dup2\n        /* \"#utility.yul\":226:242   */\n      add\n        /* \"#utility.yul\":275:278   */\n      dup5\n        /* \"#utility.yul\":266:272   */\n      dup5\n        /* \"#utility.yul\":261:264   */\n      dup5\n        /* \"#utility.yul\":257:273   */\n      add\n        /* \"#utility.yul\":254:279   */\n      gt\n        /* \"#utility.yul\":251:363   */\n      iszero\n      tag_57\n      jumpi\n        /* \"#utility.yul\":282:361   */\n      tag_58\n      tag_59\n      jump\t// in\n    tag_58:\n        /* \"#utility.yul\":251:363   */\n    tag_57:\n        /* \"#utility.yul\":372:413   */\n      tag_60\n        /* \"#utility.yul\":406:412   */\n      dup5\n        /* \"#utility.yul\":401:404   */\n      dup3\n        /* \"#utility.yul\":396:399   */\n      dup6\n        /* \"#utility.yul\":372:413   */\n      tag_61\n      jump\t// in\n    tag_60:\n        /* \"#utility.yul\":91:419   */\n      pop\n        /* \"#utility.yul\":7:419   */\n      swap4\n      swap3\n      pop\n      pop\n      pop\n      jump\t// out\n        /* \"#utility.yul\":425:564   */\n    tag_62:\n        /* \"#utility.yul\":471:476   */\n      0x00\n        /* \"#utility.yul\":509:515   */\n      dup2\n        /* \"#utility.yul\":496:516   */\n      calldataload\n        /* \"#utility.yul\":487:516   */\n      swap1\n      pop\n        /* \"#utility.yul\":525:558   */\n      tag_64\n        /* \"#utility.yul\":552:557   */\n      dup2\n        /* \"#utility.yul\":525:558   */\n      tag_65\n      jump\t// in\n    tag_64:\n        /* \"#utility.yul\":425:564   */\n      swap3\n      swap2\n      pop\n      pop\n      jump\t// out\n        /* \"#utility.yul\":584:924   */\n    tag_66:\n        /* \"#utility.yul\":640:645   */\n      0x00\n        /* \"#utility.yul\":689:692   */\n      dup3\n        /* \"#utility.yul\":682:686   */\n      0x1f\n        /* \"#utility.yul\":674:680   */\n      dup4\n        /* \"#utility.yul\":670:687   */\n      add\n        /* \"#utility.yul\":666:693   */\n      slt\n        /* \"#utility.yul\":656:778   */\n      tag_68\n      jumpi\n        /* \"#utility.yul\":697:776   */\n      tag_69\n      tag_70\n      jump\t// in\n    tag_69:\n        /* \"#utility.yul\":656:778   */\n    tag_68:\n        /* \"#utility.yul\":814:820   */\n      dup2\n        /* \"#utility.yul\":801:821   */\n      calldataload\n        /* \"#utility.yul\":839:918   */\n      tag_71\n        /* \"#utility.yul\":914:917   */\n      dup5\n        /* \"#utility.yul\":906:912   */\n      dup3\n        /* \"#utility.yul\":899:903   */\n      0x20\n        /* \"#utility.yul\":891:897   */\n      dup7\n        /* \"#utility.yul\":887:904   */\n      add\n        /* \"#utility.yul\":839:918   */\n      tag_51\n      jump\t// in\n    tag_71:\n        /* \"#utility.yul\":830:918   */\n      swap2\n      pop\n        /* \"#utility.yul\":646:924   */\n      pop\n        /* \"#utility.yul\":584:924   */\n      swap3\n      swap2\n      pop\n      pop\n      jump\t// out\n        /* \"#utility.yul\":930:1069   */\n    tag_72:\n        /* \"#utility.yul\":976:981   */\n      0x00\n        /* \"#utility.yul\":1014:1020   */\n      dup2\n        /* \"#utility.yul\":1001:1021   */\n      calldataload\n        /* \"#utility.yul\":992:1021   */\n      swap1\n      pop\n        /* \"#utility.yul\":1030:1063   */\n      tag_74\n        /* \"#utility.yul\":1057:1062   */\n      dup2\n        /* \"#utility.yul\":1030:1063   */\n      tag_75\n      jump\t// in\n    tag_74:\n        /* \"#utility.yul\":930:1069   */\n      swap3\n      swap2\n      pop\n      pop\n      jump\t// out\n        /* \"#utility.yul\":1075:1549   */\n    tag_27:\n        /* \"#utility.yul\":1143:1149   */\n      0x00\n        /* \"#utility.yul\":1151:1157   */\n      dup1\n        /* \"#utility.yul\":1200:1202   */\n      0x40\n        /* \"#utility.yul\":1188:1197   */\n      dup4\n        /* \"#utility.yul\":1179:1186   */\n      dup6\n        /* \"#utility.yul\":1175:1198   */\n      sub\n        /* \"#utility.yul\":1171:1203   */\n      slt\n        /* \"#utility.yul\":1168:1287   */\n      iszero\n      tag_77\n      jumpi\n        /* \"#utility.yul\":1206:1285   */\n      tag_78\n      tag_79\n      jump\t// in\n    tag_78:\n        /* \"#utility.yul\":1168:1287   */\n    tag_77:\n        /* \"#utility.yul\":1326:1327   */\n      0x00\n        /* \"#utility.yul\":1351:1404   */\n      tag_80\n        /* \"#utility.yul\":1396:1403   */\n      dup6\n        /* \"#utility.yul\":1387:1393   */\n      dup3\n        /* \"#utility.yul\":1376:1385   */\n      dup7\n        /* \"#utility.yul\":1372:1394   */\n      add\n        /* \"#utility.yul\":1351:1404   */\n      tag_62\n      jump\t// in\n    tag_80:\n        /* \"#utility.yul\":1341:1404   */\n      swap3\n      pop\n        /* \"#utility.yul\":1297:1414   */\n      pop\n        /* \"#utility.yul\":1453:1455   */\n      0x20\n        /* \"#utility.yul\":1479:1532   */\n      tag_81\n        /* \"#utility.yul\":1524:1531   */\n      dup6\n        /* \"#utility.yul\":1515:1521   */\n      dup3\n        /* \"#utility.yul\":1504:1513   */\n      dup7\n        /* \"#utility.yul\":1500:1522   */\n      add\n        /* \"#utility.yul\":1479:1532   */\n      tag_72\n      jump\t// in\n    tag_81:\n        /* \"#utility.yul\":1469:1532   */\n      swap2\n      pop\n        /* \"#utility.yul\":1424:1542   */\n      pop\n        /* \"#utility.yul\":1075:1549   */\n      swap3\n      pop\n      swap3\n      swap1\n      pop\n      jump\t// out\n        /* \"#utility.yul\":1555:2354   */\n    tag_17:\n        /* \"#utility.yul\":1642:1648   */\n      0x00\n        /* \"#utility.yul\":1650:1656   */\n      dup1\n        /* \"#utility.yul\":1658:1664   */\n      0x00\n        /* \"#utility.yul\":1707:1709   */\n      0x60\n        /* \"#utility.yul\":1695:1704   */\n      dup5\n        /* \"#utility.yul\":1686:1693   */\n      dup7\n        /* \"#utility.yul\":1682:1705   */\n      sub\n        /* \"#utility.yul\":1678:1710   */\n      slt\n        /* \"#utility.yul\":1675:1794   */\n      iszero\n      tag_83\n      jumpi\n        /* \"#utility.yul\":1713:1792   */\n      tag_84\n      tag_79\n      jump\t// in\n    tag_84:\n        /* \"#utility.yul\":1675:1794   */\n    tag_83:\n        /* \"#utility.yul\":1833:1834   */\n      0x00\n        /* \"#utility.yul\":1858:1911   */\n      tag_85\n        /* \"#utility.yul\":1903:1910   */\n      dup7\n        /* \"#utility.yul\":1894:1900   */\n      dup3\n        /* \"#utility.yul\":1883:1892   */\n      dup8\n        /* \"#utility.yul\":1879:1901   */\n      add\n        /* \"#utility.yul\":1858:1911   */\n      tag_62\n      jump\t// in\n    tag_85:\n        /* \"#utility.yul\":1848:1911   */\n      swap4\n      pop\n        /* \"#utility.yul\":1804:1921   */\n      pop\n        /* \"#utility.yul\":1960:1962   */\n      0x20\n        /* \"#utility.yul\":1986:2039   */\n      tag_86\n        /* \"#utility.yul\":2031:2038   */\n      dup7\n        /* \"#utility.yul\":2022:2028   */\n      dup3\n        /* \"#utility.yul\":2011:2020   */\n      dup8\n        /* \"#utility.yul\":2007:2029   */\n      add\n        /* \"#utility.yul\":1986:2039   */\n      tag_72\n      jump\t// in\n    tag_86:\n        /* \"#utility.yul\":1976:2039   */\n      swap3\n      pop\n        /* \"#utility.yul\":1931:2049   */\n      pop\n        /* \"#utility.yul\":2116:2118   */\n      0x40\n        /* \"#utility.yul\":2105:2114   */\n      dup5\n        /* \"#utility.yul\":2101:2119   */\n      add\n        /* \"#utility.yul\":2088:2120   */\n      calldataload\n        /* \"#utility.yul\":2147:2165   */\n      0xffffffffffffffff\n        /* \"#utility.yul\":2139:2145   */\n      dup2\n        /* \"#utility.yul\":2136:2166   */\n      gt\n        /* \"#utility.yul\":2133:2250   */\n      iszero\n      tag_87\n      jumpi\n        /* \"#utility.yul\":2169:2248   */\n      tag_88\n      tag_89\n      jump\t// in\n    tag_88:\n        /* \"#utility.yul\":2133:2250   */\n    tag_87:\n        /* \"#utility.yul\":2274:2337   */\n      tag_90\n        /* \"#utility.yul\":2329:2336   */\n      dup7\n        /* \"#utility.yul\":2320:2326   */\n      dup3\n        /* \"#utility.yul\":2309:2318   */\n      dup8\n        /* \"#utility.yul\":2305:2327   */\n      add\n        /* \"#utility.yul\":2274:2337   */\n      tag_66\n      jump\t// in\n    tag_90:\n        /* \"#utility.yul\":2264:2337   */\n      swap2\n      pop\n        /* \"#utility.yul\":2059:2347   */\n      pop\n        /* \"#utility.yul\":1555:2354   */\n      swap3\n      pop\n      swap3\n      pop\n      swap3\n      jump\t// out\n        /* \"#utility.yul\":2360:2478   */\n    tag_91:\n        /* \"#utility.yul\":2447:2471   */\n      tag_93\n        /* \"#utility.yul\":2465:2470   */\n      dup2\n        /* \"#utility.yul\":2447:2471   */\n      tag_94\n      jump\t// in\n    tag_93:\n        /* \"#utility.yul\":2442:2445   */\n      dup3\n        /* \"#utility.yul\":2435:2472   */\n      mstore\n        /* \"#utility.yul\":2360:2478   */\n      pop\n      pop\n      jump\t// out\n        /* \"#utility.yul\":2484:2593   */\n    tag_95:\n        /* \"#utility.yul\":2565:2586   */\n      tag_97\n        /* \"#utility.yul\":2580:2585   */\n      dup2\n        /* \"#utility.yul\":2565:2586   */\n      tag_98\n      jump\t// in\n    tag_97:\n        /* \"#utility.yul\":2560:2563   */\n      dup3\n        /* \"#utility.yul\":2553:2587   */\n      mstore\n        /* \"#utility.yul\":2484:2593   */\n      pop\n      pop\n      jump\t// out\n        /* \"#utility.yul\":2599:2963   */\n    tag_99:\n        /* \"#utility.yul\":2687:2690   */\n      0x00\n        /* \"#utility.yul\":2715:2754   */\n      tag_101\n        /* \"#utility.yul\":2748:2753   */\n      dup3\n        /* \"#utility.yul\":2715:2754   */\n      tag_102\n      jump\t// in\n    tag_101:\n        /* \"#utility.yul\":2770:2841   */\n      tag_103\n        /* \"#utility.yul\":2834:2840   */\n      dup2\n        /* \"#utility.yul\":2829:2832   */\n      dup6\n        /* \"#utility.yul\":2770:2841   */\n      tag_104\n      jump\t// in\n    tag_103:\n        /* \"#utility.yul\":2763:2841   */\n      swap4\n      pop\n        /* \"#utility.yul\":2850:2902   */\n      tag_105\n        /* \"#utility.yul\":2895:2901   */\n      dup2\n        /* \"#utility.yul\":2890:2893   */\n      dup6\n        /* \"#utility.yul\":2883:2887   */\n      0x20\n        /* \"#utility.yul\":2876:2881   */\n      dup7\n        /* \"#utility.yul\":2872:2888   */\n      add\n        /* \"#utility.yul\":2850:2902   */\n      tag_106\n      jump\t// in\n    tag_105:\n        /* \"#utility.yul\":2927:2956   */\n      tag_107\n        /* \"#utility.yul\":2949:2955   */\n      dup2\n        /* \"#utility.yul\":2927:2956   */\n      tag_108\n      jump\t// in\n    tag_107:\n        /* \"#utility.yul\":2922:2925   */\n      dup5\n        /* \"#utility.yul\":2918:2957   */\n      add\n        /* \"#utility.yul\":2911:2957   */\n      swap2\n      pop\n        /* \"#utility.yul\":2691:2963   */\n      pop\n        /* \"#utility.yul\":2599:2963   */\n      swap3\n      swap2\n      pop\n      pop\n      jump\t// out\n        /* \"#utility.yul\":2969:3335   */\n    tag_109:\n        /* \"#utility.yul\":3111:3114   */\n      0x00\n        /* \"#utility.yul\":3132:3199   */\n      tag_111\n        /* \"#utility.yul\":3196:3198   */\n      0x0f\n        /* \"#utility.yul\":3191:3194   */\n      dup4\n        /* \"#utility.yul\":3132:3199   */\n      tag_104\n      jump\t// in\n    tag_111:\n        /* \"#utility.yul\":3125:3199   */\n      swap2\n      pop\n        /* \"#utility.yul\":3208:3301   */\n      tag_112\n        /* \"#utility.yul\":3297:3300   */\n      dup3\n        /* \"#utility.yul\":3208:3301   */\n      tag_113\n      jump\t// in\n    tag_112:\n        /* \"#utility.yul\":3326:3328   */\n      0x20\n        /* \"#utility.yul\":3321:3324   */\n      dup3\n        /* \"#utility.yul\":3317:3329   */\n      add\n        /* \"#utility.yul\":3310:3329   */\n      swap1\n      pop\n        /* \"#utility.yul\":2969:3335   */\n      swap2\n      swap1\n      pop\n      jump\t// out\n        /* \"#utility.yul\":3341:3707   */\n    tag_114:\n        /* \"#utility.yul\":3483:3486   */\n      0x00\n        /* \"#utility.yul\":3504:3571   */\n      tag_116\n        /* \"#utility.yul\":3568:3570   */\n      0x0b\n        /* \"#utility.yul\":3563:3566   */\n      dup4\n        /* \"#utility.yul\":3504:3571   */\n      tag_104\n      jump\t// in\n    tag_116:\n        /* \"#utility.yul\":3497:3571   */\n      swap2\n      pop\n        /* \"#utility.yul\":3580:3673   */\n      tag_117\n        /* \"#utility.yul\":3669:3672   */\n      dup3\n        /* \"#utility.yul\":3580:3673   */\n      tag_118\n      jump\t// in\n    tag_117:\n        /* \"#utility.yul\":3698:3700   */\n      0x20\n        /* \"#utility.yul\":3693:3696   */\n      dup3\n        /* \"#utility.yul\":3689:3701   */\n      add\n        /* \"#utility.yul\":3682:3701   */\n      swap1\n      pop\n        /* \"#utility.yul\":3341:3707   */\n      swap2\n      swap1\n      pop\n      jump\t// out\n        /* \"#utility.yul\":3713:4079   */\n    tag_119:\n        /* \"#utility.yul\":3855:3858   */\n      0x00\n        /* \"#utility.yul\":3876:3943   */\n      tag_121\n        /* \"#utility.yul\":3940:3942   */\n      0x11\n        /* \"#utility.yul\":3935:3938   */\n      dup4\n        /* \"#utility.yul\":3876:3943   */\n      tag_104\n      jump\t// in\n    tag_121:\n        /* \"#utility.yul\":3869:3943   */\n      swap2\n      pop\n        /* \"#utility.yul\":3952:4045   */\n      tag_122\n        /* \"#utility.yul\":4041:4044   */\n      dup3\n        /* \"#utility.yul\":3952:4045   */\n      tag_123\n      jump\t// in\n    tag_122:\n        /* \"#utility.yul\":4070:4072   */\n      0x20\n        /* \"#utility.yul\":4065:4068   */\n      dup3\n        /* \"#utility.yul\":4061:4073   */\n      add\n        /* \"#utility.yul\":4054:4073   */\n      swap1\n      pop\n        /* \"#utility.yul\":3713:4079   */\n      swap2\n      swap1\n      pop\n      jump\t// out\n        /* \"#utility.yul\":4085:4203   */\n    tag_124:\n        /* \"#utility.yul\":4172:4196   */\n      tag_126\n        /* \"#utility.yul\":4190:4195   */\n      dup2\n        /* \"#utility.yul\":4172:4196   */\n      tag_127\n      jump\t// in\n    tag_126:\n        /* \"#utility.yul\":4167:4170   */\n      dup3\n        /* \"#utility.yul\":4160:4197   */\n      mstore\n        /* \"#utility.yul\":4085:4203   */\n      pop\n      pop\n      jump\t// out\n        /* \"#utility.yul\":4209:4742   */\n    tag_38:\n        /* \"#utility.yul\":4378:4382   */\n      0x00\n        /* \"#utility.yul\":4416:4418   */\n      0x60\n        /* \"#utility.yul\":4405:4414   */\n      dup3\n        /* \"#utility.yul\":4401:4419   */\n      add\n        /* \"#utility.yul\":4393:4419   */\n      swap1\n      pop\n        /* \"#utility.yul\":4429:4500   */\n      tag_129\n        /* \"#utility.yul\":4497:4498   */\n      0x00\n        /* \"#utility.yul\":4486:4495   */\n      dup4\n        /* \"#utility.yul\":4482:4499   */\n      add\n        /* \"#utility.yul\":4473:4479   */\n      dup7\n        /* \"#utility.yul\":4429:4500   */\n      tag_91\n      jump\t// in\n    tag_129:\n        /* \"#utility.yul\":4510:4582   */\n      tag_130\n        /* \"#utility.yul\":4578:4580   */\n      0x20\n        /* \"#utility.yul\":4567:4576   */\n      dup4\n        /* \"#utility.yul\":4563:4581   */\n      add\n        /* \"#utility.yul\":4554:4560   */\n      dup6\n        /* \"#utility.yul\":4510:4582   */\n      tag_124\n      jump\t// in\n    tag_130:\n        /* \"#utility.yul\":4629:4638   */\n      dup2\n        /* \"#utility.yul\":4623:4627   */\n      dup2\n        /* \"#utility.yul\":4619:4639   */\n      sub\n        /* \"#utility.yul\":4614:4616   */\n      0x40\n        /* \"#utility.yul\":4603:4612   */\n      dup4\n        /* \"#utility.yul\":4599:4617   */\n      add\n        /* \"#utility.yul\":4592:4640   */\n      mstore\n        /* \"#utility.yul\":4657:4735   */\n      tag_131\n        /* \"#utility.yul\":4730:4734   */\n      dup2\n        /* \"#utility.yul\":4721:4727   */\n      dup5\n        /* \"#utility.yul\":4657:4735   */\n      tag_99\n      jump\t// in\n    tag_131:\n        /* \"#utility.yul\":4649:4735   */\n      swap1\n      pop\n        /* \"#utility.yul\":4209:4742   */\n      swap5\n      swap4\n      pop\n      pop\n      pop\n      pop\n      jump\t// out\n        /* \"#utility.yul\":4748:4958   */\n    tag_23:\n        /* \"#utility.yul\":4835:4839   */\n      0x00\n        /* \"#utility.yul\":4873:4875   */\n      0x20\n        /* \"#utility.yul\":4862:4871   */\n      dup3\n        /* \"#utility.yul\":4858:4876   */\n      add\n        /* \"#utility.yul\":4850:4876   */\n      swap1\n      pop\n        /* \"#utility.yul\":4886:4951   */\n      tag_133\n        /* \"#utility.yul\":4948:4949   */\n      0x00\n        /* \"#utility.yul\":4937:4946   */\n      dup4\n        /* \"#utility.yul\":4933:4950   */\n      add\n        /* \"#utility.yul\":4924:4930   */\n      dup5\n        /* \"#utility.yul\":4886:4951   */\n      tag_95\n      jump\t// in\n    tag_133:\n        /* \"#utility.yul\":4748:4958   */\n      swap3\n      swap2\n      pop\n      pop\n      jump\t// out\n        /* \"#utility.yul\":4964:5383   */\n    tag_41:\n        /* \"#utility.yul\":5130:5134   */\n      0x00\n        /* \"#utility.yul\":5168:5170   */\n      0x20\n        /* \"#utility.yul\":5157:5166   */\n      dup3\n        /* \"#utility.yul\":5153:5171   */\n      add\n        /* \"#utility.yul\":5145:5171   */\n      swap1\n      pop\n        /* \"#utility.yul\":5217:5226   */\n      dup2\n        /* \"#utility.yul\":5211:5215   */\n      dup2\n        /* \"#utility.yul\":5207:5227   */\n      sub\n        /* \"#utility.yul\":5203:5204   */\n      0x00\n        /* \"#utility.yul\":5192:5201   */\n      dup4\n        /* \"#utility.yul\":5188:5205   */\n      add\n        /* \"#utility.yul\":5181:5228   */\n      mstore\n        /* \"#utility.yul\":5245:5376   */\n      tag_135\n        /* \"#utility.yul\":5371:5375   */\n      dup2\n        /* \"#utility.yul\":5245:5376   */\n      tag_109\n      jump\t// in\n    tag_135:\n        /* \"#utility.yul\":5237:5376   */\n      swap1\n      pop\n        /* \"#utility.yul\":4964:5383   */\n      swap2\n      swap1\n      pop\n      jump\t// out\n        /* \"#utility.yul\":5389:5808   */\n    tag_35:\n        /* \"#utility.yul\":5555:5559   */\n      0x00\n        /* \"#utility.yul\":5593:5595   */\n      0x20\n        /* \"#utility.yul\":5582:5591   */\n      dup3\n        /* \"#utility.yul\":5578:5596   */\n      add\n        /* \"#utility.yul\":5570:5596   */\n      swap1\n      pop\n        /* \"#utility.yul\":5642:5651   */\n      dup2\n        /* \"#utility.yul\":5636:5640   */\n      dup2\n        /* \"#utility.yul\":5632:5652   */\n      sub\n        /* \"#utility.yul\":5628:5629   */\n      0x00\n        /* \"#utility.yul\":5617:5626   */\n      dup4\n        /* \"#utility.yul\":5613:5630   */\n      add\n        /* \"#utility.yul\":5606:5653   */\n      mstore\n        /* \"#utility.yul\":5670:5801   */\n      tag_137\n        /* \"#utility.yul\":5796:5800   */\n      dup2\n        /* \"#utility.yul\":5670:5801   */\n      tag_114\n      jump\t// in\n    tag_137:\n        /* \"#utility.yul\":5662:5801   */\n      swap1\n      pop\n        /* \"#utility.yul\":5389:5808   */\n      swap2\n      swap1\n      pop\n      jump\t// out\n        /* \"#utility.yul\":5814:6233   */\n    tag_46:\n        /* \"#utility.yul\":5980:5984   */\n      0x00\n        /* \"#utility.yul\":6018:6020   */\n      0x20\n        /* \"#utility.yul\":6007:6016   */\n      dup3\n        /* \"#utility.yul\":6003:6021   */\n      add\n        /* \"#utility.yul\":5995:6021   */\n      swap1\n      pop\n        /* \"#utility.yul\":6067:6076   */\n      dup2\n        /* \"#utility.yul\":6061:6065   */\n      dup2\n        /* \"#utility.yul\":6057:6077   */\n      sub\n        /* \"#utility.yul\":6053:6054   */\n      0x00\n        /* \"#utility.yul\":6042:6051   */\n      dup4\n        /* \"#utility.yul\":6038:6055   */\n      add\n        /* \"#utility.yul\":6031:6078   */\n      mstore\n        /* \"#utility.yul\":6095:6226   */\n      tag_139\n        /* \"#utility.yul\":6221:6225   */\n      dup2\n        /* \"#utility.yul\":6095:6226   */\n      tag_119\n      jump\t// in\n    tag_139:\n        /* \"#utility.yul\":6087:6226   */\n      swap1\n      pop\n        /* \"#utility.yul\":5814:6233   */\n      swap2\n      swap1\n      pop\n      jump\t// out\n        /* \"#utility.yul\":6239:6461   */\n    tag_13:\n        /* \"#utility.yul\":6332:6336   */\n      0x00\n        /* \"#utility.yul\":6370:6372   */\n      0x20\n        /* \"#utility.yul\":6359:6368   */\n      dup3\n        /* \"#utility.yul\":6355:6373   */\n      add\n        /* \"#utility.yul\":6347:6373   */\n      swap1\n      pop\n        /* \"#utility.yul\":6383:6454   */\n      tag_141\n        /* \"#utility.yul\":6451:6452   */\n      0x00\n        /* \"#utility.yul\":6440:6449   */\n      dup4\n        /* \"#utility.yul\":6436:6453   */\n      add\n        /* \"#utility.yul\":6427:6433   */\n      dup5\n        /* \"#utility.yul\":6383:6454   */\n      tag_124\n      jump\t// in\n    tag_141:\n        /* \"#utility.yul\":6239:6461   */\n      swap3\n      swap2\n      pop\n      pop\n      jump\t// out\n        /* \"#utility.yul\":6467:6596   */\n    tag_56:\n        /* \"#utility.yul\":6501:6507   */\n      0x00\n        /* \"#utility.yul\":6528:6548   */\n      tag_143\n      tag_144\n      jump\t// in\n    tag_143:\n        /* \"#utility.yul\":6518:6548   */\n      swap1\n      pop\n        /* \"#utility.yul\":6557:6590   */\n      tag_145\n        /* \"#utility.yul\":6585:6589   */\n      dup3\n        /* \"#utility.yul\":6577:6583   */\n      dup3\n        /* \"#utility.yul\":6557:6590   */\n      tag_146\n      jump\t// in\n    tag_145:\n        /* \"#utility.yul\":6467:6596   */\n      swap2\n      swap1\n      pop\n      jump\t// out\n        /* \"#utility.yul\":6602:6677   */\n    tag_144:\n        /* \"#utility.yul\":6635:6641   */\n      0x00\n        /* \"#utility.yul\":6668:6670   */\n      0x40\n        /* \"#utility.yul\":6662:6671   */\n      mload\n        /* \"#utility.yul\":6652:6671   */\n      swap1\n      pop\n        /* \"#utility.yul\":6602:6677   */\n      swap1\n      jump\t// out\n        /* \"#utility.yul\":6683:6991   */\n    tag_55:\n        /* \"#utility.yul\":6745:6749   */\n      0x00\n        /* \"#utility.yul\":6835:6853   */\n      0xffffffffffffffff\n        /* \"#utility.yul\":6827:6833   */\n      dup3\n        /* \"#utility.yul\":6824:6854   */\n      gt\n        /* \"#utility.yul\":6821:6877   */\n      iszero\n      tag_149\n      jumpi\n        /* \"#utility.yul\":6857:6875   */\n      tag_150\n      tag_151\n      jump\t// in\n    tag_150:\n        /* \"#utility.yul\":6821:6877   */\n    tag_149:\n        /* \"#utility.yul\":6895:6924   */\n      tag_152\n        /* \"#utility.yul\":6917:6923   */\n      dup3\n        /* \"#utility.yul\":6895:6924   */\n      tag_108\n      jump\t// in\n    tag_152:\n        /* \"#utility.yul\":6887:6924   */\n      swap1\n      pop\n        /* \"#utility.yul\":6979:6983   */\n      0x20\n        /* \"#utility.yul\":6973:6977   */\n      dup2\n        /* \"#utility.yul\":6969:6984   */\n      add\n        /* \"#utility.yul\":6961:6984   */\n      swap1\n      pop\n        /* \"#utility.yul\":6683:6991   */\n      swap2\n      swap1\n      pop\n      jump\t// out\n        /* \"#utility.yul\":6997:7096   */\n    tag_102:\n        /* \"#utility.yul\":7049:7055   */\n      0x00\n        /* \"#utility.yul\":7083:7088   */\n      dup2\n        /* \"#utility.yul\":7077:7089   */\n      mload\n        /* \"#utility.yul\":7067:7089   */\n      swap1\n      pop\n        /* \"#utility.yul\":6997:7096   */\n      swap2\n      swap1\n      pop\n      jump\t// out\n        /* \"#utility.yul\":7102:7271   */\n    tag_104:\n        /* \"#utility.yul\":7186:7197   */\n      0x00\n        /* \"#utility.yul\":7220:7226   */\n      dup3\n        /* \"#utility.yul\":7215:7218   */\n      dup3\n        /* \"#utility.yul\":7208:7227   */\n      mstore\n        /* \"#utility.yul\":7260:7264   */\n      0x20\n        /* \"#utility.yul\":7255:7258   */\n      dup3\n        /* \"#utility.yul\":7251:7265   */\n      add\n        /* \"#utility.yul\":7236:7265   */\n      swap1\n      pop\n        /* \"#utility.yul\":7102:7271   */\n      swap3\n      swap2\n      pop\n      pop\n      jump\t// out\n        /* \"#utility.yul\":7277:7582   */\n    tag_49:\n        /* \"#utility.yul\":7317:7320   */\n      0x00\n        /* \"#utility.yul\":7336:7356   */\n      tag_156\n        /* \"#utility.yul\":7354:7355   */\n      dup3\n        /* \"#utility.yul\":7336:7356   */\n      tag_127\n      jump\t// in\n    tag_156:\n        /* \"#utility.yul\":7331:7356   */\n      swap2\n      pop\n        /* \"#utility.yul\":7370:7390   */\n      tag_157\n        /* \"#utility.yul\":7388:7389   */\n      dup4\n        /* \"#utility.yul\":7370:7390   */\n      tag_127\n      jump\t// in\n    tag_157:\n        /* \"#utility.yul\":7365:7390   */\n      swap3\n      pop\n        /* \"#utility.yul\":7524:7525   */\n      dup3\n        /* \"#utility.yul\":7456:7522   */\n      0xffffffffffffffffffffffffffffffffffffffffffffffffffffffffffffffff\n        /* \"#utility.yul\":7452:7526   */\n      sub\n        /* \"#utility.yul\":7449:7450   */\n      dup3\n        /* \"#utility.yul\":7446:7527   */\n      gt\n        /* \"#utility.yul\":7443:7550   */\n      iszero\n      tag_158\n      jumpi\n        /* \"#utility.yul\":7530:7548   */\n      tag_159\n      tag_160\n      jump\t// in\n    tag_159:\n        /* \"#utility.yul\":7443:7550   */\n    tag_158:\n        /* \"#utility.yul\":7574:7575   */\n      dup3\n        /* \"#utility.yul\":7571:7572   */\n      dup3\n        /* \"#utility.yul\":7567:7576   */\n      add\n        /* \"#utility.yul\":7560:7576   */\n      swap1\n      pop\n        /* \"#utility.yul\":7277:7582   */\n      swap3\n      swap2\n      pop\n      pop\n      jump\t// out\n        /* \"#utility.yul\":7588:7684   */\n    tag_94:\n        /* \"#utility.yul\":7625:7632   */\n      0x00\n        /* \"#utility.yul\":7654:7678   */\n      tag_162\n        /* \"#utility.yul\":7672:7677   */\n      dup3\n        /* \"#utility.yul\":7654:7678   */\n      tag_163\n      jump\t// in\n    tag_162:\n        /* \"#utility.yul\":7643:7678   */\n      swap1\n      pop\n        /* \"#utility.yul\":7588:7684   */\n      swap2\n      swap1\n      pop\n      jump\t// out\n        /* \"#utility.yul\":7690:7780   */\n    tag_98:\n        /* \"#utility.yul\":7724:7731   */\n      0x00\n        /* \"#utility.yul\":7767:7772   */\n      dup2\n        /* \"#utility.yul\":7760:7773   */\n      iszero\n        /* \"#utility.yul\":7753:7774   */\n      iszero\n        /* \"#utility.yul\":7742:7774   */\n      swap1\n      pop\n        /* \"#utility.yul\":7690:7780   */\n      swap2\n      swap1\n      pop\n      jump\t// out\n        /* \"#utility.yul\":7786:7912   */\n    tag_163:\n        /* \"#utility.yul\":7823:7830   */\n      0x00\n        /* \"#utility.yul\":7863:7905   */\n      0xffffffffffffffffffffffffffffffffffffffff\n        /* \"#utility.yul\":7856:7861   */\n      dup3\n        /* \"#utility.yul\":7852:7906   */\n      and\n        /* \"#utility.yul\":7841:7906   */\n      swap1\n      pop\n        /* \"#utility.yul\":7786:7912   */\n      swap2\n      swap1\n      pop\n      jump\t// out\n        /* \"#utility.yul\":7918:7995   */\n    tag_127:\n        /* \"#utility.yul\":7955:7962   */\n      0x00\n        /* \"#utility.yul\":7984:7989   */\n      dup2\n        /* \"#utility.yul\":7973:7989   */\n      swap1\n      pop\n        /* \"#utility.yul\":7918:7995   */\n      swap2\n      swap1\n      pop\n      jump\t// out\n        /* \"#utility.yul\":8001:8155   */\n    tag_61:\n        /* \"#utility.yul\":8085:8091   */\n      dup3\n        /* \"#utility.yul\":8080:8083   */\n      dup2\n        /* \"#utility.yul\":8075:8078   */\n      dup4\n        /* \"#utility.yul\":8062:8092   */\n      calldatacopy\n        /* \"#utility.yul\":8147:8148   */\n      0x00\n        /* \"#utility.yul\":8138:8144   */\n      dup4\n        /* \"#utility.yul\":8133:8136   */\n      dup4\n        /* \"#utility.yul\":8129:8145   */\n      add\n        /* \"#utility.yul\":8122:8149   */\n      mstore\n        /* \"#utility.yul\":8001:8155   */\n      pop\n      pop\n      pop\n      jump\t// out\n        /* \"#utility.yul\":8161:8468   */\n    tag_106:\n        /* \"#utility.yul\":8229:8230   */\n      0x00\n        /* \"#utility.yul\":8239:8352   */\n    tag_169:\n        /* \"#utility.yul\":8253:8259   */\n      dup4\n        /* \"#utility.yul\":8250:8251   */\n      dup2\n        /* \"#utility.yul\":8247:8260   */\n      lt\n        /* \"#utility.yul\":8239:8352   */\n      iszero\n      tag_171\n      jumpi\n        /* \"#utility.yul\":8338:8339   */\n      dup1\n        /* \"#utility.yul\":8333:8336   */\n      dup3\n        /* \"#utility.yul\":8329:8340   */\n      add\n        /* \"#utility.yul\":8323:8341   */\n      mload\n        /* \"#utility.yul\":8319:8320   */\n      dup2\n        /* \"#utility.yul\":8314:8317   */\n      dup5\n        /* \"#utility.yul\":8310:8321   */\n      add\n        /* \"#utility.yul\":8303:8342   */\n      mstore\n        /* \"#utility.yul\":8275:8277   */\n      0x20\n        /* \"#utility.yul\":8272:8273   */\n      dup2\n        /* \"#utility.yul\":8268:8278   */\n      add\n        /* \"#utility.yul\":8263:8278   */\n      swap1\n      pop\n        /* \"#utility.yul\":8239:8352   */\n      jump(tag_169)\n    tag_171:\n        /* \"#utility.yul\":8370:8376   */\n      dup4\n        /* \"#utility.yul\":8367:8368   */\n      dup2\n        /* \"#utility.yul\":8364:8377   */\n      gt\n        /* \"#utility.yul\":8361:8462   */\n      iszero\n      tag_172\n      jumpi\n        /* \"#utility.yul\":8450:8451   */\n      0x00\n        /* \"#utility.yul\":8441:8447   */\n      dup5\n        /* \"#utility.yul\":8436:8439   */\n      dup5\n        /* \"#utility.yul\":8432:8448   */\n      add\n        /* \"#utility.yul\":8425:8452   */\n      mstore\n        /* \"#utility.yul\":8361:8462   */\n    tag_172:\n        /* \"#utility.yul\":8210:8468   */\n      pop\n        /* \"#utility.yul\":8161:8468   */\n      pop\n      pop\n      pop\n      jump\t// out\n        /* \"#utility.yul\":8474:8755   */\n    tag_146:\n        /* \"#utility.yul\":8557:8584   */\n      tag_174\n        /* \"#utility.yul\":8579:8583   */\n      dup3\n        /* \"#utility.yul\":8557:8584   */\n      tag_108\n      jump\t// in\n    tag_174:\n        /* \"#utility.yul\":8549:8555   */\n      dup2\n        /* \"#utility.yul\":8545:8585   */\n      add\n        /* \"#utility.yul\":8687:8693   */\n      dup2\n        /* \"#utility.yul\":8675:8685   */\n      dup2\n        /* \"#utility.yul\":8672:8694   */\n      lt\n        /* \"#utility.yul\":8651:8669   */\n      0xffffffffffffffff\n        /* \"#utility.yul\":8639:8649   */\n      dup3\n        /* \"#utility.yul\":8636:8670   */\n      gt\n        /* \"#utility.yul\":8633:8695   */\n      or\n        /* \"#utility.yul\":8630:8718   */\n      iszero\n      tag_175\n      jumpi\n        /* \"#utility.yul\":8698:8716   */\n      tag_176\n      tag_151\n      jump\t// in\n    tag_176:\n        /* \"#utility.yul\":8630:8718   */\n    tag_175:\n        /* \"#utility.yul\":8738:8748   */\n      dup1\n        /* \"#utility.yul\":8734:8736   */\n      0x40\n        /* \"#utility.yul\":8727:8749   */\n      mstore\n        /* \"#utility.yul\":8517:8755   */\n      pop\n        /* \"#utility.yul\":8474:8755   */\n      pop\n      pop\n      jump\t// out\n        /* \"#utility.yul\":8761:8941   */\n    tag_160:\n        /* \"#utility.yul\":8809:8886   */\n      0x4e487b7100000000000000000000000000000000000000000000000000000000\n        /* \"#utility.yul\":8806:8807   */\n      0x00\n        /* \"#utility.yul\":8799:8887   */\n      mstore\n        /* \"#utility.yul\":8906:8910   */\n      0x11\n        /* \"#utility.yul\":8903:8904   */\n      0x04\n        /* \"#utility.yul\":8896:8911   */\n      mstore\n        /* \"#utility.yul\":8930:8934   */\n      0x24\n        /* \"#utility.yul\":8927:8928   */\n      0x00\n        /* \"#utility.yul\":8920:8935   */\n      revert\n        /* \"#utility.yul\":8947:9127   */\n    tag_151:\n        /* \"#utility.yul\":8995:9072   */\n      0x4e487b7100000000000000000000000000000000000000000000000000000000\n        /* \"#utility.yul\":8992:8993   */\n      0x00\n        /* \"#utility.yul\":8985:9073   */\n      mstore\n        /* \"#utility.yul\":9092:9096   */\n      0x41\n        /* \"#utility.yul\":9089:9090   */\n      0x04\n        /* \"#utility.yul\":9082:9097   */\n      mstore\n        /* \"#utility.yul\":9116:9120   */\n      0x24\n        /* \"#utility.yul\":9113:9114   */\n      0x00\n        /* \"#utility.yul\":9106:9121   */\n      revert\n        /* \"#utility.yul\":9133:9250   */\n    tag_70:\n        /* \"#utility.yul\":9242:9243   */\n      0x00\n        /* \"#utility.yul\":9239:9240   */\n      dup1\n        /* \"#utility.yul\":9232:9244   */\n      revert\n        /* \"#utility.yul\":9256:9373   */\n    tag_59:\n        /* \"#utility.yul\":9365:9366   */\n      0x00\n        /* \"#utility.yul\":9362:9363   */\n      dup1\n        /* \"#utility.yul\":9355:9367   */\n      revert\n        /* \"#utility.yul\":9379:9496   */\n    tag_89:\n        /* \"#utility.yul\":9488:9489   */\n      0x00\n        /* \"#utility.yul\":9485:9486   */\n      dup1\n        /* \"#utility.yul\":9478:9490   */\n      revert\n        /* \"#utility.yul\":9502:9619   */\n    tag_79:\n        /* \"#utility.yul\":9611:9612   */\n      0x00\n        /* \"#utility.yul\":9608:9609   */\n      dup1\n        /* \"#utility.yul\":9601:9613   */\n      revert\n        /* \"#utility.yul\":9625:9727   */\n    tag_108:\n        /* \"#utility.yul\":9666:9672   */\n      0x00\n        /* \"#utility.yul\":9717:9719   */\n      0x1f\n        /* \"#utility.yul\":9713:9720   */\n      not\n        /* \"#utility.yul\":9708:9710   */\n      0x1f\n        /* \"#utility.yul\":9701:9706   */\n      dup4\n        /* \"#utility.yul\":9697:9711   */\n      add\n        /* \"#utility.yul\":9693:9721   */\n      and\n        /* \"#utility.yul\":9683:9721   */\n      swap1\n      pop\n        /* \"#utility.yul\":9625:9727   */\n      swap2\n      swap1\n      pop\n      jump\t// out\n        /* \"#utility.yul\":9733:9898   */\n    tag_113:\n        /* \"#utility.yul\":9873:9890   */\n      0x4e6f20656e6f7567682066756e64730000000000000000000000000000000000\n        /* \"#utility.yul\":9869:9870   */\n      0x00\n        /* \"#utility.yul\":9861:9867   */\n      dup3\n        /* \"#utility.yul\":9857:9871   */\n      add\n        /* \"#utility.yul\":9850:9891   */\n      mstore\n        /* \"#utility.yul\":9733:9898   */\n      pop\n      jump\t// out\n        /* \"#utility.yul\":9904:10065   */\n    tag_118:\n        /* \"#utility.yul\":10044:10057   */\n      0x4e6f7420416c6c6f776564000000000000000000000000000000000000000000\n        /* \"#utility.yul\":10040:10041   */\n      0x00\n        /* \"#utility.yul\":10032:10038   */\n      dup3\n        /* \"#utility.yul\":10028:10042   */\n      add\n        /* \"#utility.yul\":10021:10058   */\n      mstore\n        /* \"#utility.yul\":9904:10065   */\n      pop\n      jump\t// out\n        /* \"#utility.yul\":10071:10238   */\n    tag_123:\n        /* \"#utility.yul\":10211:10230   */\n      0x596f7520617265206e6f74206f776e6572000000000000000000000000000000\n        /* \"#utility.yul\":10207:10208   */\n      0x00\n        /* \"#utility.yul\":10199:10205   */\n      dup3\n        /* \"#utility.yul\":10195:10209   */\n      add\n        /* \"#utility.yul\":10188:10231   */\n      mstore\n        /* \"#utility.yul\":10071:10238   */\n      pop\n      jump\t// out\n        /* \"#utility.yul\":10244:10366   */\n    tag_65:\n        /* \"#utility.yul\":10317:10341   */\n      tag_188\n        /* \"#utility.yul\":10335:10340   */\n      dup2\n        /* \"#utility.yul\":10317:10341   */\n      tag_94\n      jump\t// in\n    tag_188:\n        /* \"#utility.yul\":10310:10315   */\n      dup2\n        /* \"#utility.yul\":10307:10342   */\n      eq\n        /* \"#utility.yul\":10297:10360   */\n      tag_189\n      jumpi\n        /* \"#utility.yul\":10356:10357   */\n      0x00\n        /* \"#utility.yul\":10353:10354   */\n      dup1\n        /* \"#utility.yul\":10346:10358   */\n      revert\n        /* \"#utility.yul\":10297:10360   */\n    tag_189:\n        /* \"#utility.yul\":10244:10366   */\n      pop\n      jump\t// out\n        /* \"#utility.yul\":10372:10494   */\n    tag_75:\n        /* \"#utility.yul\":10445:10469   */\n      tag_191\n        /* \"#utility.yul\":10463:10468   */\n      dup2\n        /* \"#utility.yul\":10445:10469   */\n      tag_127\n      jump\t// in\n    tag_191:\n        /* \"#utility.yul\":10438:10443   */\n      dup2\n        /* \"#utility.yul\":10435:10470   */\n      eq\n        /* \"#utility.yul\":10425:10488   */\n      tag_192\n      jumpi\n        /* \"#utility.yul\":10484:10485   */\n      0x00\n        /* \"#utility.yul\":10481:10482   */\n      dup1\n        /* \"#utility.yul\":10474:10486   */\n      revert\n        /* \"#utility.yul\":10425:10488   */\n    tag_192:\n        /* \"#utility.yul\":10372:10494   */\n      pop\n      jump\t// out\n\n    auxdata: 0xa264697066735822122011d203f4d7fb3135a7ad5980103a47eac29f61ba736b8eeab0ba7f6f1f4ae47f64736f6c63430008070033\n}\n",
				"bytecode": {
					"linkReferences": {},
					"object": "608060405234801561001057600080fd5b50336000806101000a81548173ffffffffffffffffffffffffffffffffffffffff021916908373ffffffffffffffffffffffffffffffffffffffff1602179055506108d3806100606000396000f3fe6080604052600436106100435760003560e01c806315e9977e1461004f5780638d942a801461007a5780638f32d59b146100a3578063f3c40c4b146100ce5761004a565b3661004a57005b600080fd5b34801561005b57600080fd5b506100646100f7565b60405161007191906105d3565b60405180910390f35b34801561008657600080fd5b506100a1600480360381019061009c91906103dc565b6100ff565b005b3480156100af57600080fd5b506100b8610215565b6040516100c59190610558565b60405180910390f35b3480156100da57600080fd5b506100f560048036038101906100f0919061039c565b61021a565b005b600047905090565b81610108610215565b80610152575080600160003373ffffffffffffffffffffffffffffffffffffffff1673ffffffffffffffffffffffffffffffffffffffff1681526020019081526020016000205410155b610191576040517f08c379a000000000000000000000000000000000000000000000000000000000815260040161018890610593565b60405180910390fd5b7fa1f2e8aa7ff0c088860d7b3f0d1dc288d8e8a07808525cc31a5691f1bc0e149d8484846040516101c49392919061051a565b60405180910390a18247101561020f576040517f08c379a000000000000000000000000000000000000000000000000000000000815260040161020690610573565b60405180910390fd5b50505050565b600090565b3373ffffffffffffffffffffffffffffffffffffffff1660008054906101000a900473ffffffffffffffffffffffffffffffffffffffff1673ffffffffffffffffffffffffffffffffffffffff16146102a8576040517f08c379a000000000000000000000000000000000000000000000000000000000815260040161029f906105b3565b60405180910390fd5b80600160008473ffffffffffffffffffffffffffffffffffffffff1673ffffffffffffffffffffffffffffffffffffffff16815260200190815260200160002060008282546102f79190610660565b925050819055505050565b600061031561031084610613565b6105ee565b905082815260208101848484011115610331576103306107d4565b5b61033c8482856106fe565b509392505050565b6000813590506103538161086f565b92915050565b600082601f83011261036e5761036d6107cf565b5b813561037e848260208601610302565b91505092915050565b60008135905061039681610886565b92915050565b600080604083850312156103b3576103b26107de565b5b60006103c185828601610344565b92505060206103d285828601610387565b9150509250929050565b6000806000606084860312156103f5576103f46107de565b5b600061040386828701610344565b935050602061041486828701610387565b925050604084013567ffffffffffffffff811115610435576104346107d9565b5b61044186828701610359565b9150509250925092565b610454816106b6565b82525050565b610463816106c8565b82525050565b600061047482610644565b61047e818561064f565b935061048e81856020860161070d565b610497816107e3565b840191505092915050565b60006104af600f8361064f565b91506104ba826107f4565b602082019050919050565b60006104d2600b8361064f565b91506104dd8261081d565b602082019050919050565b60006104f560118361064f565b915061050082610846565b602082019050919050565b610514816106f4565b82525050565b600060608201905061052f600083018661044b565b61053c602083018561050b565b818103604083015261054e8184610469565b9050949350505050565b600060208201905061056d600083018461045a565b92915050565b6000602082019050818103600083015261058c816104a2565b9050919050565b600060208201905081810360008301526105ac816104c5565b9050919050565b600060208201905081810360008301526105cc816104e8565b9050919050565b60006020820190506105e8600083018461050b565b92915050565b60006105f8610609565b90506106048282610740565b919050565b6000604051905090565b600067ffffffffffffffff82111561062e5761062d6107a0565b5b610637826107e3565b9050602081019050919050565b600081519050919050565b600082825260208201905092915050565b600061066b826106f4565b9150610676836106f4565b9250827fffffffffffffffffffffffffffffffffffffffffffffffffffffffffffffffff038211156106ab576106aa610771565b5b828201905092915050565b60006106c1826106d4565b9050919050565b60008115159050919050565b600073ffffffffffffffffffffffffffffffffffffffff82169050919050565b6000819050919050565b82818337600083830152505050565b60005b8381101561072b578082015181840152602081019050610710565b8381111561073a576000848401525b50505050565b610749826107e3565b810181811067ffffffffffffffff82111715610768576107676107a0565b5b80604052505050565b7f4e487b7100000000000000000000000000000000000000000000000000000000600052601160045260246000fd5b7f4e487b7100000000000000000000000000000000000000000000000000000000600052604160045260246000fd5b600080fd5b600080fd5b600080fd5b600080fd5b6000601f19601f8301169050919050565b7f4e6f20656e6f7567682066756e64730000000000000000000000000000000000600082015250565b7f4e6f7420416c6c6f776564000000000000000000000000000000000000000000600082015250565b7f596f7520617265206e6f74206f776e6572000000000000000000000000000000600082015250565b610878816106b6565b811461088357600080fd5b50565b61088f816106f4565b811461089a57600080fd5b5056fea264697066735822122011d203f4d7fb3135a7ad5980103a47eac29f61ba736b8eeab0ba7f6f1f4ae47f64736f6c63430008070033",
					"opcodes": "PUSH1 0x80 PUSH1 0x40 MSTORE CALLVALUE DUP1 ISZERO PUSH2 0x10 JUMPI PUSH1 0x0 DUP1 REVERT JUMPDEST POP CALLER PUSH1 0x0 DUP1 PUSH2 0x100 EXP DUP2 SLOAD DUP2 PUSH20 0xFFFFFFFFFFFFFFFFFFFFFFFFFFFFFFFFFFFFFFFF MUL NOT AND SWAP1 DUP4 PUSH20 0xFFFFFFFFFFFFFFFFFFFFFFFFFFFFFFFFFFFFFFFF AND MUL OR SWAP1 SSTORE POP PUSH2 0x8D3 DUP1 PUSH2 0x60 PUSH1 0x0 CODECOPY PUSH1 0x0 RETURN INVALID PUSH1 0x80 PUSH1 0x40 MSTORE PUSH1 0x4 CALLDATASIZE LT PUSH2 0x43 JUMPI PUSH1 0x0 CALLDATALOAD PUSH1 0xE0 SHR DUP1 PUSH4 0x15E9977E EQ PUSH2 0x4F JUMPI DUP1 PUSH4 0x8D942A80 EQ PUSH2 0x7A JUMPI DUP1 PUSH4 0x8F32D59B EQ PUSH2 0xA3 JUMPI DUP1 PUSH4 0xF3C40C4B EQ PUSH2 0xCE JUMPI PUSH2 0x4A JUMP JUMPDEST CALLDATASIZE PUSH2 0x4A JUMPI STOP JUMPDEST PUSH1 0x0 DUP1 REVERT JUMPDEST CALLVALUE DUP1 ISZERO PUSH2 0x5B JUMPI PUSH1 0x0 DUP1 REVERT JUMPDEST POP PUSH2 0x64 PUSH2 0xF7 JUMP JUMPDEST PUSH1 0x40 MLOAD PUSH2 0x71 SWAP2 SWAP1 PUSH2 0x5D3 JUMP JUMPDEST PUSH1 0x40 MLOAD DUP1 SWAP2 SUB SWAP1 RETURN JUMPDEST CALLVALUE DUP1 ISZERO PUSH2 0x86 JUMPI PUSH1 0x0 DUP1 REVERT JUMPDEST POP PUSH2 0xA1 PUSH1 0x4 DUP1 CALLDATASIZE SUB DUP2 ADD SWAP1 PUSH2 0x9C SWAP2 SWAP1 PUSH2 0x3DC JUMP JUMPDEST PUSH2 0xFF JUMP JUMPDEST STOP JUMPDEST CALLVALUE DUP1 ISZERO PUSH2 0xAF JUMPI PUSH1 0x0 DUP1 REVERT JUMPDEST POP PUSH2 0xB8 PUSH2 0x215 JUMP JUMPDEST PUSH1 0x40 MLOAD PUSH2 0xC5 SWAP2 SWAP1 PUSH2 0x558 JUMP JUMPDEST PUSH1 0x40 MLOAD DUP1 SWAP2 SUB SWAP1 RETURN JUMPDEST CALLVALUE DUP1 ISZERO PUSH2 0xDA JUMPI PUSH1 0x0 DUP1 REVERT JUMPDEST POP PUSH2 0xF5 PUSH1 0x4 DUP1 CALLDATASIZE SUB DUP2 ADD SWAP1 PUSH2 0xF0 SWAP2 SWAP1 PUSH2 0x39C JUMP JUMPDEST PUSH2 0x21A JUMP JUMPDEST STOP JUMPDEST PUSH1 0x0 SELFBALANCE SWAP1 POP SWAP1 JUMP JUMPDEST DUP2 PUSH2 0x108 PUSH2 0x215 JUMP JUMPDEST DUP1 PUSH2 0x152 JUMPI POP DUP1 PUSH1 0x1 PUSH1 0x0 CALLER PUSH20 0xFFFFFFFFFFFFFFFFFFFFFFFFFFFFFFFFFFFFFFFF AND PUSH20 0xFFFFFFFFFFFFFFFFFFFFFFFFFFFFFFFFFFFFFFFF AND DUP2 MSTORE PUSH1 0x20 ADD SWAP1 DUP2 MSTORE PUSH1 0x20 ADD PUSH1 0x0 KECCAK256 SLOAD LT ISZERO JUMPDEST PUSH2 0x191 JUMPI PUSH1 0x40 MLOAD PUSH32 0x8C379A000000000000000000000000000000000000000000000000000000000 DUP2 MSTORE PUSH1 0x4 ADD PUSH2 0x188 SWAP1 PUSH2 0x593 JUMP JUMPDEST PUSH1 0x40 MLOAD DUP1 SWAP2 SUB SWAP1 REVERT JUMPDEST PUSH32 0xA1F2E8AA7FF0C088860D7B3F0D1DC288D8E8A07808525CC31A5691F1BC0E149D DUP5 DUP5 DUP5 PUSH1 0x40 MLOAD PUSH2 0x1C4 SWAP4 SWAP3 SWAP2 SWAP1 PUSH2 0x51A JUMP JUMPDEST PUSH1 0x40 MLOAD DUP1 SWAP2 SUB SWAP1 LOG1 DUP3 SELFBALANCE LT ISZERO PUSH2 0x20F JUMPI PUSH1 0x40 MLOAD PUSH32 0x8C379A000000000000000000000000000000000000000000000000000000000 DUP2 MSTORE PUSH1 0x4 ADD PUSH2 0x206 SWAP1 PUSH2 0x573 JUMP JUMPDEST PUSH1 0x40 MLOAD DUP1 SWAP2 SUB SWAP1 REVERT JUMPDEST POP POP POP POP JUMP JUMPDEST PUSH1 0x0 SWAP1 JUMP JUMPDEST CALLER PUSH20 0xFFFFFFFFFFFFFFFFFFFFFFFFFFFFFFFFFFFFFFFF AND PUSH1 0x0 DUP1 SLOAD SWAP1 PUSH2 0x100 EXP SWAP1 DIV PUSH20 0xFFFFFFFFFFFFFFFFFFFFFFFFFFFFFFFFFFFFFFFF AND PUSH20 0xFFFFFFFFFFFFFFFFFFFFFFFFFFFFFFFFFFFFFFFF AND EQ PUSH2 0x2A8 JUMPI PUSH1 0x40 MLOAD PUSH32 0x8C379A000000000000000000000000000000000000000000000000000000000 DUP2 MSTORE PUSH1 0x4 ADD PUSH2 0x29F SWAP1 PUSH2 0x5B3 JUMP JUMPDEST PUSH1 0x40 MLOAD DUP1 SWAP2 SUB SWAP1 REVERT JUMPDEST DUP1 PUSH1 0x1 PUSH1 0x0 DUP5 PUSH20 0xFFFFFFFFFFFFFFFFFFFFFFFFFFFFFFFFFFFFFFFF AND PUSH20 0xFFFFFFFFFFFFFFFFFFFFFFFFFFFFFFFFFFFFFFFF AND DUP2 MSTORE PUSH1 0x20 ADD SWAP1 DUP2 MSTORE PUSH1 0x20 ADD PUSH1 0x0 KECCAK256 PUSH1 0x0 DUP3 DUP3 SLOAD PUSH2 0x2F7 SWAP2 SWAP1 PUSH2 0x660 JUMP JUMPDEST SWAP3 POP POP DUP2 SWAP1 SSTORE POP POP POP JUMP JUMPDEST PUSH1 0x0 PUSH2 0x315 PUSH2 0x310 DUP5 PUSH2 0x613 JUMP JUMPDEST PUSH2 0x5EE JUMP JUMPDEST SWAP1 POP DUP3 DUP2 MSTORE PUSH1 0x20 DUP2 ADD DUP5 DUP5 DUP5 ADD GT ISZERO PUSH2 0x331 JUMPI PUSH2 0x330 PUSH2 0x7D4 JUMP JUMPDEST JUMPDEST PUSH2 0x33C DUP5 DUP3 DUP6 PUSH2 0x6FE JUMP JUMPDEST POP SWAP4 SWAP3 POP POP POP JUMP JUMPDEST PUSH1 0x0 DUP2 CALLDATALOAD SWAP1 POP PUSH2 0x353 DUP2 PUSH2 0x86F JUMP JUMPDEST SWAP3 SWAP2 POP POP JUMP JUMPDEST PUSH1 0x0 DUP3 PUSH1 0x1F DUP4 ADD SLT PUSH2 0x36E JUMPI PUSH2 0x36D PUSH2 0x7CF JUMP JUMPDEST JUMPDEST DUP2 CALLDATALOAD PUSH2 0x37E DUP5 DUP3 PUSH1 0x20 DUP7 ADD PUSH2 0x302 JUMP JUMPDEST SWAP2 POP POP SWAP3 SWAP2 POP POP JUMP JUMPDEST PUSH1 0x0 DUP2 CALLDATALOAD SWAP1 POP PUSH2 0x396 DUP2 PUSH2 0x886 JUMP JUMPDEST SWAP3 SWAP2 POP POP JUMP JUMPDEST PUSH1 0x0 DUP1 PUSH1 0x40 DUP4 DUP6 SUB SLT ISZERO PUSH2 0x3B3 JUMPI PUSH2 0x3B2 PUSH2 0x7DE JUMP JUMPDEST JUMPDEST PUSH1 0x0 PUSH2 0x3C1 DUP6 DUP3 DUP7 ADD PUSH2 0x344 JUMP JUMPDEST SWAP3 POP POP PUSH1 0x20 PUSH2 0x3D2 DUP6 DUP3 DUP7 ADD PUSH2 0x387 JUMP JUMPDEST SWAP2 POP POP SWAP3 POP SWAP3 SWAP1 POP JUMP JUMPDEST PUSH1 0x0 DUP1 PUSH1 0x0 PUSH1 0x60 DUP5 DUP7 SUB SLT ISZERO PUSH2 0x3F5 JUMPI PUSH2 0x3F4 PUSH2 0x7DE JUMP JUMPDEST JUMPDEST PUSH1 0x0 PUSH2 0x403 DUP7 DUP3 DUP8 ADD PUSH2 0x344 JUMP JUMPDEST SWAP4 POP POP PUSH1 0x20 PUSH2 0x414 DUP7 DUP3 DUP8 ADD PUSH2 0x387 JUMP JUMPDEST SWAP3 POP POP PUSH1 0x40 DUP5 ADD CALLDATALOAD PUSH8 0xFFFFFFFFFFFFFFFF DUP2 GT ISZERO PUSH2 0x435 JUMPI PUSH2 0x434 PUSH2 0x7D9 JUMP JUMPDEST JUMPDEST PUSH2 0x441 DUP7 DUP3 DUP8 ADD PUSH2 0x359 JUMP JUMPDEST SWAP2 POP POP SWAP3 POP SWAP3 POP SWAP3 JUMP JUMPDEST PUSH2 0x454 DUP2 PUSH2 0x6B6 JUMP JUMPDEST DUP3 MSTORE POP POP JUMP JUMPDEST PUSH2 0x463 DUP2 PUSH2 0x6C8 JUMP JUMPDEST DUP3 MSTORE POP POP JUMP JUMPDEST PUSH1 0x0 PUSH2 0x474 DUP3 PUSH2 0x644 JUMP JUMPDEST PUSH2 0x47E DUP2 DUP6 PUSH2 0x64F JUMP JUMPDEST SWAP4 POP PUSH2 0x48E DUP2 DUP6 PUSH1 0x20 DUP7 ADD PUSH2 0x70D JUMP JUMPDEST PUSH2 0x497 DUP2 PUSH2 0x7E3 JUMP JUMPDEST DUP5 ADD SWAP2 POP POP SWAP3 SWAP2 POP POP JUMP JUMPDEST PUSH1 0x0 PUSH2 0x4AF PUSH1 0xF DUP4 PUSH2 0x64F JUMP JUMPDEST SWAP2 POP PUSH2 0x4BA DUP3 PUSH2 0x7F4 JUMP JUMPDEST PUSH1 0x20 DUP3 ADD SWAP1 POP SWAP2 SWAP1 POP JUMP JUMPDEST PUSH1 0x0 PUSH2 0x4D2 PUSH1 0xB DUP4 PUSH2 0x64F JUMP JUMPDEST SWAP2 POP PUSH2 0x4DD DUP3 PUSH2 0x81D JUMP JUMPDEST PUSH1 0x20 DUP3 ADD SWAP1 POP SWAP2 SWAP1 POP JUMP JUMPDEST PUSH1 0x0 PUSH2 0x4F5 PUSH1 0x11 DUP4 PUSH2 0x64F JUMP JUMPDEST SWAP2 POP PUSH2 0x500 DUP3 PUSH2 0x846 JUMP JUMPDEST PUSH1 0x20 DUP3 ADD SWAP1 POP SWAP2 SWAP1 POP JUMP JUMPDEST PUSH2 0x514 DUP2 PUSH2 0x6F4 JUMP JUMPDEST DUP3 MSTORE POP POP JUMP JUMPDEST PUSH1 0x0 PUSH1 0x60 DUP3 ADD SWAP1 POP PUSH2 0x52F PUSH1 0x0 DUP4 ADD DUP7 PUSH2 0x44B JUMP JUMPDEST PUSH2 0x53C PUSH1 0x20 DUP4 ADD DUP6 PUSH2 0x50B JUMP JUMPDEST DUP2 DUP2 SUB PUSH1 0x40 DUP4 ADD MSTORE PUSH2 0x54E DUP2 DUP5 PUSH2 0x469 JUMP JUMPDEST SWAP1 POP SWAP5 SWAP4 POP POP POP POP JUMP JUMPDEST PUSH1 0x0 PUSH1 0x20 DUP3 ADD SWAP1 POP PUSH2 0x56D PUSH1 0x0 DUP4 ADD DUP5 PUSH2 0x45A JUMP JUMPDEST SWAP3 SWAP2 POP POP JUMP JUMPDEST PUSH1 0x0 PUSH1 0x20 DUP3 ADD SWAP1 POP DUP2 DUP2 SUB PUSH1 0x0 DUP4 ADD MSTORE PUSH2 0x58C DUP2 PUSH2 0x4A2 JUMP JUMPDEST SWAP1 POP SWAP2 SWAP1 POP JUMP JUMPDEST PUSH1 0x0 PUSH1 0x20 DUP3 ADD SWAP1 POP DUP2 DUP2 SUB PUSH1 0x0 DUP4 ADD MSTORE PUSH2 0x5AC DUP2 PUSH2 0x4C5 JUMP JUMPDEST SWAP1 POP SWAP2 SWAP1 POP JUMP JUMPDEST PUSH1 0x0 PUSH1 0x20 DUP3 ADD SWAP1 POP DUP2 DUP2 SUB PUSH1 0x0 DUP4 ADD MSTORE PUSH2 0x5CC DUP2 PUSH2 0x4E8 JUMP JUMPDEST SWAP1 POP SWAP2 SWAP1 POP JUMP JUMPDEST PUSH1 0x0 PUSH1 0x20 DUP3 ADD SWAP1 POP PUSH2 0x5E8 PUSH1 0x0 DUP4 ADD DUP5 PUSH2 0x50B JUMP JUMPDEST SWAP3 SWAP2 POP POP JUMP JUMPDEST PUSH1 0x0 PUSH2 0x5F8 PUSH2 0x609 JUMP JUMPDEST SWAP1 POP PUSH2 0x604 DUP3 DUP3 PUSH2 0x740 JUMP JUMPDEST SWAP2 SWAP1 POP JUMP JUMPDEST PUSH1 0x0 PUSH1 0x40 MLOAD SWAP1 POP SWAP1 JUMP JUMPDEST PUSH1 0x0 PUSH8 0xFFFFFFFFFFFFFFFF DUP3 GT ISZERO PUSH2 0x62E JUMPI PUSH2 0x62D PUSH2 0x7A0 JUMP JUMPDEST JUMPDEST PUSH2 0x637 DUP3 PUSH2 0x7E3 JUMP JUMPDEST SWAP1 POP PUSH1 0x20 DUP2 ADD SWAP1 POP SWAP2 SWAP1 POP JUMP JUMPDEST PUSH1 0x0 DUP2 MLOAD SWAP1 POP SWAP2 SWAP1 POP JUMP JUMPDEST PUSH1 0x0 DUP3 DUP3 MSTORE PUSH1 0x20 DUP3 ADD SWAP1 POP SWAP3 SWAP2 POP POP JUMP JUMPDEST PUSH1 0x0 PUSH2 0x66B DUP3 PUSH2 0x6F4 JUMP JUMPDEST SWAP2 POP PUSH2 0x676 DUP4 PUSH2 0x6F4 JUMP JUMPDEST SWAP3 POP DUP3 PUSH32 0xFFFFFFFFFFFFFFFFFFFFFFFFFFFFFFFFFFFFFFFFFFFFFFFFFFFFFFFFFFFFFFFF SUB DUP3 GT ISZERO PUSH2 0x6AB JUMPI PUSH2 0x6AA PUSH2 0x771 JUMP JUMPDEST JUMPDEST DUP3 DUP3 ADD SWAP1 POP SWAP3 SWAP2 POP POP JUMP JUMPDEST PUSH1 0x0 PUSH2 0x6C1 DUP3 PUSH2 0x6D4 JUMP JUMPDEST SWAP1 POP SWAP2 SWAP1 POP JUMP JUMPDEST PUSH1 0x0 DUP2 ISZERO ISZERO SWAP1 POP SWAP2 SWAP1 POP JUMP JUMPDEST PUSH1 0x0 PUSH20 0xFFFFFFFFFFFFFFFFFFFFFFFFFFFFFFFFFFFFFFFF DUP3 AND SWAP1 POP SWAP2 SWAP1 POP JUMP JUMPDEST PUSH1 0x0 DUP2 SWAP1 POP SWAP2 SWAP1 POP JUMP JUMPDEST DUP3 DUP2 DUP4 CALLDATACOPY PUSH1 0x0 DUP4 DUP4 ADD MSTORE POP POP POP JUMP JUMPDEST PUSH1 0x0 JUMPDEST DUP4 DUP2 LT ISZERO PUSH2 0x72B JUMPI DUP1 DUP3 ADD MLOAD DUP2 DUP5 ADD MSTORE PUSH1 0x20 DUP2 ADD SWAP1 POP PUSH2 0x710 JUMP JUMPDEST DUP4 DUP2 GT ISZERO PUSH2 0x73A JUMPI PUSH1 0x0 DUP5 DUP5 ADD MSTORE JUMPDEST POP POP POP POP JUMP JUMPDEST PUSH2 0x749 DUP3 PUSH2 0x7E3 JUMP JUMPDEST DUP2 ADD DUP2 DUP2 LT PUSH8 0xFFFFFFFFFFFFFFFF DUP3 GT OR ISZERO PUSH2 0x768 JUMPI PUSH2 0x767 PUSH2 0x7A0 JUMP JUMPDEST JUMPDEST DUP1 PUSH1 0x40 MSTORE POP POP POP JUMP JUMPDEST PUSH32 0x4E487B7100000000000000000000000000000000000000000000000000000000 PUSH1 0x0 MSTORE PUSH1 0x11 PUSH1 0x4 MSTORE PUSH1 0x24 PUSH1 0x0 REVERT JUMPDEST PUSH32 0x4E487B7100000000000000000000000000000000000000000000000000000000 PUSH1 0x0 MSTORE PUSH1 0x41 PUSH1 0x4 MSTORE PUSH1 0x24 PUSH1 0x0 REVERT JUMPDEST PUSH1 0x0 DUP1 REVERT JUMPDEST PUSH1 0x0 DUP1 REVERT JUMPDEST PUSH1 0x0 DUP1 REVERT JUMPDEST PUSH1 0x0 DUP1 REVERT JUMPDEST PUSH1 0x0 PUSH1 0x1F NOT PUSH1 0x1F DUP4 ADD AND SWAP1 POP SWAP2 SWAP1 POP JUMP JUMPDEST PUSH32 0x4E6F20656E6F7567682066756E64730000000000000000000000000000000000 PUSH1 0x0 DUP3 ADD MSTORE POP JUMP JUMPDEST PUSH32 0x4E6F7420416C6C6F776564000000000000000000000000000000000000000000 PUSH1 0x0 DUP3 ADD MSTORE POP JUMP JUMPDEST PUSH32 0x596F7520617265206E6F74206F776E6572000000000000000000000000000000 PUSH1 0x0 DUP3 ADD MSTORE POP JUMP JUMPDEST PUSH2 0x878 DUP2 PUSH2 0x6B6 JUMP JUMPDEST DUP2 EQ PUSH2 0x883 JUMPI PUSH1 0x0 DUP1 REVERT JUMPDEST POP JUMP JUMPDEST PUSH2 0x88F DUP2 PUSH2 0x6F4 JUMP JUMPDEST DUP2 EQ PUSH2 0x89A JUMPI PUSH1 0x0 DUP1 REVERT JUMPDEST POP JUMP INVALID LOG2 PUSH5 0x6970667358 0x22 SLT KECCAK256 GT 0xD2 SUB DELEGATECALL 0xD7 0xFB BALANCE CALLDATALOAD 0xA7 0xAD MSIZE DUP1 LT GASPRICE SELFBALANCE 0xEA 0xC2 SWAP16 PUSH2 0xBA73 PUSH12 0x8EEAB0BA7F6F1F4AE47F6473 PUSH16 0x6C634300080700330000000000000000 "
				},
				"gasEstimates": {
					"creation": {
						"codeDepositCost": "451800",
						"executionCost": "24752",
						"totalCost": "476552"
					},
					"external": {
						"BALANCE()": "317",
						"addAllowance(address,uint256)": "infinite",
						"isOwner()": "357",
						"withDrawMoney(address,uint256,string)": "infinite"
					}
				},
				"methodIdentifiers": {
					"BALANCE()": "15e9977e",
					"addAllowance(address,uint256)": "f3c40c4b",
					"isOwner()": "8f32d59b",
					"withDrawMoney(address,uint256,string)": "8d942a80"
				}
			},
			"storageLayout": {
				"storage": [
					{
						"astId": 3,
						"contract": "Allowance.sol:main",
						"label": "owner",
						"offset": 0,
						"slot": "0",
						"type": "t_address"
					},
					{
						"astId": 7,
						"contract": "Allowance.sol:main",
						"label": "allowance",
						"offset": 0,
						"slot": "1",
						"type": "t_mapping(t_address,t_uint256)"
					}
				],
				"types": {
					"t_address": {
						"encoding": "inplace",
						"label": "address",
						"numberOfBytes": "20"
					},
					"t_mapping(t_address,t_uint256)": {
						"encoding": "mapping",
						"key": "t_address",
						"label": "mapping(address => uint256)",
						"numberOfBytes": "32",
						"value": "t_uint256"
					},
					"t_uint256": {
						"encoding": "inplace",
						"label": "uint256",
						"numberOfBytes": "32"
					}
				}
			},
			"userdoc": {
				"kind": "user",
				"methods": {},
				"version": 1
			}
		}
	}
}