{
	"Allowance.sol": {
		"main": {
			"abi": [
				{
					"inputs": [],
					"stateMutability": "nonpayable",
					"type": "constructor"
				},
				{
					"anonymous": false,
					"inputs": [
						{
							"indexed": false,
							"internalType": "address",
							"name": "_to",
							"type": "address"
						},
						{
							"indexed": false,
							"internalType": "uint256",
							"name": "_amount",
							"type": "uint256"
						},
						{
							"indexed": false,
							"internalType": "string",
							"name": "_description",
							"type": "string"
						}
					],
					"name": "log",
					"type": "event"
				},
				{
					"inputs": [],
					"name": "BALANCE",
					"outputs": [
						{
							"internalType": "uint256",
							"name": "",
							"type": "uint256"
						}
					],
					"stateMutability": "view",
					"type": "function"
				},
				{
					"inputs": [
						{
							"internalType": "address",
							"name": "_to",
							"type": "address"
						},
						{
							"internalType": "uint256",
							"name": "_amount",
							"type": "uint256"
						}
					],
					"name": "addAllowance",
					"outputs": [],
					"stateMutability": "nonpayable",
					"type": "function"
				},
				{
					"inputs": [
						{
							"internalType": "address payable",
							"name": "_to",
							"type": "address"
						},
						{
							"internalType": "uint256",
							"name": "_amount",
							"type": "uint256"
						},
						{
							"internalType": "string",
							"name": "_description",
							"type": "string"
						}
					],
					"name": "withdrawMoney",
					"outputs": [],
					"stateMutability": "nonpayable",
					"type": "function"
				},
				{
					"stateMutability": "payable",
					"type": "receive"
				}
			],
			"devdoc": {
				"kind": "dev",
				"methods": {},
				"version": 1
			},
			"evm": {
				"assembly": "    /* \"Allowance.sol\":59:1356  contract main{\r... */\n  mstore(0x40, 0x80)\n    /* \"Allowance.sol\":153:203  constructor(){\r... */\n  callvalue\n  dup1\n  iszero\n  tag_1\n  jumpi\n  0x00\n  dup1\n  revert\ntag_1:\n  pop\n    /* \"Allowance.sol\":185:195  msg.sender */\n  caller\n    /* \"Allowance.sol\":177:182  owner */\n  0x00\n  dup1\n    /* \"Allowance.sol\":177:195  owner = msg.sender */\n  0x0100\n  exp\n  dup2\n  sload\n  dup2\n  0xffffffffffffffffffffffffffffffffffffffff\n  mul\n  not\n  and\n  swap1\n  dup4\n  0xffffffffffffffffffffffffffffffffffffffff\n  and\n  mul\n  or\n  swap1\n  sstore\n  pop\n    /* \"Allowance.sol\":59:1356  contract main{\r... */\n  dataSize(sub_0)\n  dup1\n  dataOffset(sub_0)\n  0x00\n  codecopy\n  0x00\n  return\nstop\n\nsub_0: assembly {\n        /* \"Allowance.sol\":59:1356  contract main{\r... */\n      mstore(0x40, 0x80)\n      jumpi(tag_1, lt(calldatasize, 0x04))\n      shr(0xe0, calldataload(0x00))\n      dup1\n      0x15e9977e\n      eq\n      tag_3\n      jumpi\n      dup1\n      0x3495e901\n      eq\n      tag_4\n      jumpi\n      dup1\n      0xf3c40c4b\n      eq\n      tag_5\n      jumpi\n      jump(tag_2)\n    tag_1:\n      jumpi(tag_2, calldatasize)\n      stop\n    tag_2:\n      0x00\n      dup1\n      revert\n        /* \"Allowance.sol\":1260:1351  function BALANCE() public view returns(uint){\r... */\n    tag_3:\n      callvalue\n      dup1\n      iszero\n      tag_8\n      jumpi\n      0x00\n      dup1\n      revert\n    tag_8:\n      pop\n      tag_9\n      tag_10\n      jump\t// in\n    tag_9:\n      mload(0x40)\n      tag_11\n      swap2\n      swap1\n      tag_12\n      jump\t// in\n    tag_11:\n      mload(0x40)\n      dup1\n      swap2\n      sub\n      swap1\n      return\n        /* \"Allowance.sol\":882:1248  function withdrawMoney(address payable _to, uint _amount, string memory _description) public ownerOrAllowed(_amount) {\r... */\n    tag_4:\n      callvalue\n      dup1\n      iszero\n      tag_13\n      jumpi\n      0x00\n      dup1\n      revert\n    tag_13:\n      pop\n      tag_14\n      0x04\n      dup1\n      calldatasize\n      sub\n      dup2\n      add\n      swap1\n      tag_15\n      swap2\n      swap1\n      tag_16\n      jump\t// in\n    tag_15:\n      tag_17\n      jump\t// in\n    tag_14:\n      stop\n        /* \"Allowance.sol\":752:872  function addAllowance(address _to, uint _amount) public onlyOwner {\r... */\n    tag_5:\n      callvalue\n      dup1\n      iszero\n      tag_18\n      jumpi\n      0x00\n      dup1\n      revert\n    tag_18:\n      pop\n      tag_19\n      0x04\n      dup1\n      calldatasize\n      sub\n      dup2\n      add\n      swap1\n      tag_20\n      swap2\n      swap1\n      tag_21\n      jump\t// in\n    tag_20:\n      tag_22\n      jump\t// in\n    tag_19:\n      stop\n        /* \"Allowance.sol\":1260:1351  function BALANCE() public view returns(uint){\r... */\n    tag_10:\n        /* \"Allowance.sol\":1299:1303  uint */\n      0x00\n        /* \"Allowance.sol\":1322:1343  address(this).balance */\n      selfbalance\n        /* \"Allowance.sol\":1315:1343  return address(this).balance */\n      swap1\n      pop\n        /* \"Allowance.sol\":1260:1351  function BALANCE() public view returns(uint){\r... */\n      swap1\n      jump\t// out\n        /* \"Allowance.sol\":882:1248  function withdrawMoney(address payable _to, uint _amount, string memory _description) public ownerOrAllowed(_amount) {\r... */\n    tag_17:\n        /* \"Allowance.sol\":990:997  _amount */\n      dup2\n        /* \"Allowance.sol\":501:510  isOwner() */\n      tag_25\n        /* \"Allowance.sol\":501:508  isOwner */\n      tag_26\n        /* \"Allowance.sol\":501:510  isOwner() */\n      jump\t// in\n    tag_25:\n        /* \"Allowance.sol\":501:546  isOwner() || allowance[msg.sender] >= _amount */\n      dup1\n      tag_27\n      jumpi\n      pop\n        /* \"Allowance.sol\":539:546  _amount */\n      dup1\n        /* \"Allowance.sol\":514:523  allowance */\n      0x01\n        /* \"Allowance.sol\":514:535  allowance[msg.sender] */\n      0x00\n        /* \"Allowance.sol\":524:534  msg.sender */\n      caller\n        /* \"Allowance.sol\":514:535  allowance[msg.sender] */\n      0xffffffffffffffffffffffffffffffffffffffff\n      and\n      0xffffffffffffffffffffffffffffffffffffffff\n      and\n      dup2\n      mstore\n      0x20\n      add\n      swap1\n      dup2\n      mstore\n      0x20\n      add\n      0x00\n      keccak256\n      sload\n        /* \"Allowance.sol\":514:546  allowance[msg.sender] >= _amount */\n      lt\n      iszero\n        /* \"Allowance.sol\":501:546  isOwner() || allowance[msg.sender] >= _amount */\n    tag_27:\n        /* \"Allowance.sol\":493:563  require(isOwner() || allowance[msg.sender] >= _amount, \"Not Allowed\" ) */\n      tag_28\n      jumpi\n      mload(0x40)\n      0x08c379a000000000000000000000000000000000000000000000000000000000\n      dup2\n      mstore\n      0x04\n      add\n      tag_29\n      swap1\n      tag_30\n      jump\t// in\n    tag_29:\n      mload(0x40)\n      dup1\n      swap2\n      sub\n      swap1\n      revert\n    tag_28:\n        /* \"Allowance.sol\":1015:1046  log(_to, _amount, _description) */\n      0xa1f2e8aa7ff0c088860d7b3f0d1dc288d8e8a07808525cc31a5691f1bc0e149d\n        /* \"Allowance.sol\":1019:1022  _to */\n      dup5\n        /* \"Allowance.sol\":1024:1031  _amount */\n      dup5\n        /* \"Allowance.sol\":1033:1045  _description */\n      dup5\n        /* \"Allowance.sol\":1015:1046  log(_to, _amount, _description) */\n      mload(0x40)\n      tag_32\n      swap4\n      swap3\n      swap2\n      swap1\n      tag_33\n      jump\t// in\n    tag_32:\n      mload(0x40)\n      dup1\n      swap2\n      sub\n      swap1\n      log1\n        /* \"Allowance.sol\":1090:1097  _amount */\n      dup3\n        /* \"Allowance.sol\":1065:1086  address(this).balance */\n      selfbalance\n        /* \"Allowance.sol\":1065:1097  address(this).balance >= _amount */\n      lt\n      iszero\n        /* \"Allowance.sol\":1057:1117  require(address(this).balance >= _amount, \"No enough funds\") */\n      tag_34\n      jumpi\n      mload(0x40)\n      0x08c379a000000000000000000000000000000000000000000000000000000000\n      dup2\n      mstore\n      0x04\n      add\n      tag_35\n      swap1\n      tag_36\n      jump\t// in\n    tag_35:\n      mload(0x40)\n      dup1\n      swap2\n      sub\n      swap1\n      revert\n    tag_34:\n        /* \"Allowance.sol\":1144:1149  false */\n      0x00\n        /* \"Allowance.sol\":1131:1149  isOwner() == false */\n      iszero\n      iszero\n        /* \"Allowance.sol\":1131:1140  isOwner() */\n      tag_37\n        /* \"Allowance.sol\":1131:1138  isOwner */\n      tag_26\n        /* \"Allowance.sol\":1131:1140  isOwner() */\n      jump\t// in\n    tag_37:\n        /* \"Allowance.sol\":1131:1149  isOwner() == false */\n      iszero\n      iszero\n      eq\n        /* \"Allowance.sol\":1128:1209  if(isOwner() == false){\r... */\n      iszero\n      tag_38\n      jumpi\n        /* \"Allowance.sol\":1190:1197  _amount */\n      dup3\n        /* \"Allowance.sol\":1165:1174  allowance */\n      0x01\n        /* \"Allowance.sol\":1165:1186  allowance[msg.sender] */\n      0x00\n        /* \"Allowance.sol\":1175:1185  msg.sender */\n      caller\n        /* \"Allowance.sol\":1165:1186  allowance[msg.sender] */\n      0xffffffffffffffffffffffffffffffffffffffff\n      and\n      0xffffffffffffffffffffffffffffffffffffffff\n      and\n      dup2\n      mstore\n      0x20\n      add\n      swap1\n      dup2\n      mstore\n      0x20\n      add\n      0x00\n      keccak256\n      0x00\n        /* \"Allowance.sol\":1165:1197  allowance[msg.sender] -= _amount */\n      dup3\n      dup3\n      sload\n      tag_39\n      swap2\n      swap1\n      tag_40\n      jump\t// in\n    tag_39:\n      swap3\n      pop\n      pop\n      dup2\n      swap1\n      sstore\n      pop\n        /* \"Allowance.sol\":1128:1209  if(isOwner() == false){\r... */\n    tag_38:\n        /* \"Allowance.sol\":1219:1222  _to */\n      dup4\n        /* \"Allowance.sol\":1219:1231  _to.transfer */\n      0xffffffffffffffffffffffffffffffffffffffff\n      and\n        /* \"Allowance.sol\":1219:1240  _to.transfer(_amount) */\n      0x08fc\n        /* \"Allowance.sol\":1232:1239  _amount */\n      dup5\n        /* \"Allowance.sol\":1219:1240  _to.transfer(_amount) */\n      swap1\n      dup2\n      iszero\n      mul\n      swap1\n      mload(0x40)\n      0x00\n      mload(0x40)\n      dup1\n      dup4\n      sub\n      dup2\n      dup6\n      dup9\n      dup9\n      call\n      swap4\n      pop\n      pop\n      pop\n      pop\n      iszero\n      dup1\n      iszero\n      tag_42\n      jumpi\n      returndatasize\n      0x00\n      dup1\n      returndatacopy\n      revert(0x00, returndatasize)\n    tag_42:\n      pop\n        /* \"Allowance.sol\":882:1248  function withdrawMoney(address payable _to, uint _amount, string memory _description) public ownerOrAllowed(_amount) {\r... */\n      pop\n      pop\n      pop\n      pop\n      jump\t// out\n        /* \"Allowance.sol\":752:872  function addAllowance(address _to, uint _amount) public onlyOwner {\r... */\n    tag_22:\n        /* \"Allowance.sol\":385:395  msg.sender */\n      caller\n        /* \"Allowance.sol\":376:395  owner == msg.sender */\n      0xffffffffffffffffffffffffffffffffffffffff\n      and\n        /* \"Allowance.sol\":376:381  owner */\n      0x00\n      dup1\n      sload\n      swap1\n      0x0100\n      exp\n      swap1\n      div\n      0xffffffffffffffffffffffffffffffffffffffff\n      and\n        /* \"Allowance.sol\":376:395  owner == msg.sender */\n      0xffffffffffffffffffffffffffffffffffffffff\n      and\n      eq\n        /* \"Allowance.sol\":368:417  require(owner == msg.sender, \"You are not owner\") */\n      tag_44\n      jumpi\n      mload(0x40)\n      0x08c379a000000000000000000000000000000000000000000000000000000000\n      dup2\n      mstore\n      0x04\n      add\n      tag_45\n      swap1\n      tag_46\n      jump\t// in\n    tag_45:\n      mload(0x40)\n      dup1\n      swap2\n      sub\n      swap1\n      revert\n    tag_44:\n        /* \"Allowance.sol\":857:864  _amount */\n      dup1\n        /* \"Allowance.sol\":839:848  allowance */\n      0x01\n        /* \"Allowance.sol\":839:853  allowance[_to] */\n      0x00\n        /* \"Allowance.sol\":849:852  _to */\n      dup5\n        /* \"Allowance.sol\":839:853  allowance[_to] */\n      0xffffffffffffffffffffffffffffffffffffffff\n      and\n      0xffffffffffffffffffffffffffffffffffffffff\n      and\n      dup2\n      mstore\n      0x20\n      add\n      swap1\n      dup2\n      mstore\n      0x20\n      add\n      0x00\n      keccak256\n      0x00\n        /* \"Allowance.sol\":839:864  allowance[_to] += _amount */\n      dup3\n      dup3\n      sload\n      tag_48\n      swap2\n      swap1\n      tag_49\n      jump\t// in\n    tag_48:\n      swap3\n      pop\n      pop\n      dup2\n      swap1\n      sstore\n      pop\n        /* \"Allowance.sol\":752:872  function addAllowance(address _to, uint _amount) public onlyOwner {\r... */\n      pop\n      pop\n      jump\t// out\n        /* \"Allowance.sol\":597:744  function isOwner() private view returns(bool){\r... */\n    tag_26:\n        /* \"Allowance.sol\":637:641  bool */\n      0x00\n        /* \"Allowance.sol\":665:675  msg.sender */\n      caller\n        /* \"Allowance.sol\":656:675  owner == msg.sender */\n      0xffffffffffffffffffffffffffffffffffffffff\n      and\n        /* \"Allowance.sol\":656:661  owner */\n      0x00\n      dup1\n      sload\n      swap1\n      0x0100\n      exp\n      swap1\n      div\n      0xffffffffffffffffffffffffffffffffffffffff\n      and\n        /* \"Allowance.sol\":656:675  owner == msg.sender */\n      0xffffffffffffffffffffffffffffffffffffffff\n      and\n      eq\n        /* \"Allowance.sol\":653:714  if(owner == msg.sender){\r... */\n      iszero\n      tag_51\n      jumpi\n        /* \"Allowance.sol\":698:702  true */\n      0x01\n        /* \"Allowance.sol\":691:702  return true */\n      swap1\n      pop\n      jump(tag_50)\n        /* \"Allowance.sol\":653:714  if(owner == msg.sender){\r... */\n    tag_51:\n        /* \"Allowance.sol\":731:736  false */\n      0x00\n        /* \"Allowance.sol\":724:736  return false */\n      swap1\n      pop\n        /* \"Allowance.sol\":597:744  function isOwner() private view returns(bool){\r... */\n    tag_50:\n      swap1\n      jump\t// out\n        /* \"#utility.yul\":7:419   */\n    tag_53:\n        /* \"#utility.yul\":85:90   */\n      0x00\n        /* \"#utility.yul\":110:176   */\n      tag_55\n        /* \"#utility.yul\":126:175   */\n      tag_56\n        /* \"#utility.yul\":168:174   */\n      dup5\n        /* \"#utility.yul\":126:175   */\n      tag_57\n      jump\t// in\n    tag_56:\n        /* \"#utility.yul\":110:176   */\n      tag_58\n      jump\t// in\n    tag_55:\n        /* \"#utility.yul\":101:176   */\n      swap1\n      pop\n        /* \"#utility.yul\":199:205   */\n      dup3\n        /* \"#utility.yul\":192:197   */\n      dup2\n        /* \"#utility.yul\":185:206   */\n      mstore\n        /* \"#utility.yul\":237:241   */\n      0x20\n        /* \"#utility.yul\":230:235   */\n      dup2\n        /* \"#utility.yul\":226:242   */\n      add\n        /* \"#utility.yul\":275:278   */\n      dup5\n        /* \"#utility.yul\":266:272   */\n      dup5\n        /* \"#utility.yul\":261:264   */\n      dup5\n        /* \"#utility.yul\":257:273   */\n      add\n        /* \"#utility.yul\":254:279   */\n      gt\n        /* \"#utility.yul\":251:363   */\n      iszero\n      tag_59\n      jumpi\n        /* \"#utility.yul\":282:361   */\n      tag_60\n      tag_61\n      jump\t// in\n    tag_60:\n        /* \"#utility.yul\":251:363   */\n    tag_59:\n        /* \"#utility.yul\":372:413   */\n      tag_62\n        /* \"#utility.yul\":406:412   */\n      dup5\n        /* \"#utility.yul\":401:404   */\n      dup3\n        /* \"#utility.yul\":396:399   */\n      dup6\n        /* \"#utility.yul\":372:413   */\n      tag_63\n      jump\t// in\n    tag_62:\n        /* \"#utility.yul\":91:419   */\n      pop\n        /* \"#utility.yul\":7:419   */\n      swap4\n      swap3\n      pop\n      pop\n      pop\n      jump\t// out\n        /* \"#utility.yul\":425:564   */\n    tag_64:\n        /* \"#utility.yul\":471:476   */\n      0x00\n        /* \"#utility.yul\":509:515   */\n      dup2\n        /* \"#utility.yul\":496:516   */\n      calldataload\n        /* \"#utility.yul\":487:516   */\n      swap1\n      pop\n        /* \"#utility.yul\":525:558   */\n      tag_66\n        /* \"#utility.yul\":552:557   */\n      dup2\n        /* \"#utility.yul\":525:558   */\n      tag_67\n      jump\t// in\n    tag_66:\n        /* \"#utility.yul\":425:564   */\n      swap3\n      swap2\n      pop\n      pop\n      jump\t// out\n        /* \"#utility.yul\":570:725   */\n    tag_68:\n        /* \"#utility.yul\":624:629   */\n      0x00\n        /* \"#utility.yul\":662:668   */\n      dup2\n        /* \"#utility.yul\":649:669   */\n      calldataload\n        /* \"#utility.yul\":640:669   */\n      swap1\n      pop\n        /* \"#utility.yul\":678:719   */\n      tag_70\n        /* \"#utility.yul\":713:718   */\n      dup2\n        /* \"#utility.yul\":678:719   */\n      tag_71\n      jump\t// in\n    tag_70:\n        /* \"#utility.yul\":570:725   */\n      swap3\n      swap2\n      pop\n      pop\n      jump\t// out\n        /* \"#utility.yul\":745:1085   */\n    tag_72:\n        /* \"#utility.yul\":801:806   */\n      0x00\n        /* \"#utility.yul\":850:853   */\n      dup3\n        /* \"#utility.yul\":843:847   */\n      0x1f\n        /* \"#utility.yul\":835:841   */\n      dup4\n        /* \"#utility.yul\":831:848   */\n      add\n        /* \"#utility.yul\":827:854   */\n      slt\n        /* \"#utility.yul\":817:939   */\n      tag_74\n      jumpi\n        /* \"#utility.yul\":858:937   */\n      tag_75\n      tag_76\n      jump\t// in\n    tag_75:\n        /* \"#utility.yul\":817:939   */\n    tag_74:\n        /* \"#utility.yul\":975:981   */\n      dup2\n        /* \"#utility.yul\":962:982   */\n      calldataload\n        /* \"#utility.yul\":1000:1079   */\n      tag_77\n        /* \"#utility.yul\":1075:1078   */\n      dup5\n        /* \"#utility.yul\":1067:1073   */\n      dup3\n        /* \"#utility.yul\":1060:1064   */\n      0x20\n        /* \"#utility.yul\":1052:1058   */\n      dup7\n        /* \"#utility.yul\":1048:1065   */\n      add\n        /* \"#utility.yul\":1000:1079   */\n      tag_53\n      jump\t// in\n    tag_77:\n        /* \"#utility.yul\":991:1079   */\n      swap2\n      pop\n        /* \"#utility.yul\":807:1085   */\n      pop\n        /* \"#utility.yul\":745:1085   */\n      swap3\n      swap2\n      pop\n      pop\n      jump\t// out\n        /* \"#utility.yul\":1091:1230   */\n    tag_78:\n        /* \"#utility.yul\":1137:1142   */\n      0x00\n        /* \"#utility.yul\":1175:1181   */\n      dup2\n        /* \"#utility.yul\":1162:1182   */\n      calldataload\n        /* \"#utility.yul\":1153:1182   */\n      swap1\n      pop\n        /* \"#utility.yul\":1191:1224   */\n      tag_80\n        /* \"#utility.yul\":1218:1223   */\n      dup2\n        /* \"#utility.yul\":1191:1224   */\n      tag_81\n      jump\t// in\n    tag_80:\n        /* \"#utility.yul\":1091:1230   */\n      swap3\n      swap2\n      pop\n      pop\n      jump\t// out\n        /* \"#utility.yul\":1236:2051   */\n    tag_16:\n        /* \"#utility.yul\":1331:1337   */\n      0x00\n        /* \"#utility.yul\":1339:1345   */\n      dup1\n        /* \"#utility.yul\":1347:1353   */\n      0x00\n        /* \"#utility.yul\":1396:1398   */\n      0x60\n        /* \"#utility.yul\":1384:1393   */\n      dup5\n        /* \"#utility.yul\":1375:1382   */\n      dup7\n        /* \"#utility.yul\":1371:1394   */\n      sub\n        /* \"#utility.yul\":1367:1399   */\n      slt\n        /* \"#utility.yul\":1364:1483   */\n      iszero\n      tag_83\n      jumpi\n        /* \"#utility.yul\":1402:1481   */\n      tag_84\n      tag_85\n      jump\t// in\n    tag_84:\n        /* \"#utility.yul\":1364:1483   */\n    tag_83:\n        /* \"#utility.yul\":1522:1523   */\n      0x00\n        /* \"#utility.yul\":1547:1608   */\n      tag_86\n        /* \"#utility.yul\":1600:1607   */\n      dup7\n        /* \"#utility.yul\":1591:1597   */\n      dup3\n        /* \"#utility.yul\":1580:1589   */\n      dup8\n        /* \"#utility.yul\":1576:1598   */\n      add\n        /* \"#utility.yul\":1547:1608   */\n      tag_68\n      jump\t// in\n    tag_86:\n        /* \"#utility.yul\":1537:1608   */\n      swap4\n      pop\n        /* \"#utility.yul\":1493:1618   */\n      pop\n        /* \"#utility.yul\":1657:1659   */\n      0x20\n        /* \"#utility.yul\":1683:1736   */\n      tag_87\n        /* \"#utility.yul\":1728:1735   */\n      dup7\n        /* \"#utility.yul\":1719:1725   */\n      dup3\n        /* \"#utility.yul\":1708:1717   */\n      dup8\n        /* \"#utility.yul\":1704:1726   */\n      add\n        /* \"#utility.yul\":1683:1736   */\n      tag_78\n      jump\t// in\n    tag_87:\n        /* \"#utility.yul\":1673:1736   */\n      swap3\n      pop\n        /* \"#utility.yul\":1628:1746   */\n      pop\n        /* \"#utility.yul\":1813:1815   */\n      0x40\n        /* \"#utility.yul\":1802:1811   */\n      dup5\n        /* \"#utility.yul\":1798:1816   */\n      add\n        /* \"#utility.yul\":1785:1817   */\n      calldataload\n        /* \"#utility.yul\":1844:1862   */\n      0xffffffffffffffff\n        /* \"#utility.yul\":1836:1842   */\n      dup2\n        /* \"#utility.yul\":1833:1863   */\n      gt\n        /* \"#utility.yul\":1830:1947   */\n      iszero\n      tag_88\n      jumpi\n        /* \"#utility.yul\":1866:1945   */\n      tag_89\n      tag_90\n      jump\t// in\n    tag_89:\n        /* \"#utility.yul\":1830:1947   */\n    tag_88:\n        /* \"#utility.yul\":1971:2034   */\n      tag_91\n        /* \"#utility.yul\":2026:2033   */\n      dup7\n        /* \"#utility.yul\":2017:2023   */\n      dup3\n        /* \"#utility.yul\":2006:2015   */\n      dup8\n        /* \"#utility.yul\":2002:2024   */\n      add\n        /* \"#utility.yul\":1971:2034   */\n      tag_72\n      jump\t// in\n    tag_91:\n        /* \"#utility.yul\":1961:2034   */\n      swap2\n      pop\n        /* \"#utility.yul\":1756:2044   */\n      pop\n        /* \"#utility.yul\":1236:2051   */\n      swap3\n      pop\n      swap3\n      pop\n      swap3\n      jump\t// out\n        /* \"#utility.yul\":2057:2531   */\n    tag_21:\n        /* \"#utility.yul\":2125:2131   */\n      0x00\n        /* \"#utility.yul\":2133:2139   */\n      dup1\n        /* \"#utility.yul\":2182:2184   */\n      0x40\n        /* \"#utility.yul\":2170:2179   */\n      dup4\n        /* \"#utility.yul\":2161:2168   */\n      dup6\n        /* \"#utility.yul\":2157:2180   */\n      sub\n        /* \"#utility.yul\":2153:2185   */\n      slt\n        /* \"#utility.yul\":2150:2269   */\n      iszero\n      tag_93\n      jumpi\n        /* \"#utility.yul\":2188:2267   */\n      tag_94\n      tag_85\n      jump\t// in\n    tag_94:\n        /* \"#utility.yul\":2150:2269   */\n    tag_93:\n        /* \"#utility.yul\":2308:2309   */\n      0x00\n        /* \"#utility.yul\":2333:2386   */\n      tag_95\n        /* \"#utility.yul\":2378:2385   */\n      dup6\n        /* \"#utility.yul\":2369:2375   */\n      dup3\n        /* \"#utility.yul\":2358:2367   */\n      dup7\n        /* \"#utility.yul\":2354:2376   */\n      add\n        /* \"#utility.yul\":2333:2386   */\n      tag_64\n      jump\t// in\n    tag_95:\n        /* \"#utility.yul\":2323:2386   */\n      swap3\n      pop\n        /* \"#utility.yul\":2279:2396   */\n      pop\n        /* \"#utility.yul\":2435:2437   */\n      0x20\n        /* \"#utility.yul\":2461:2514   */\n      tag_96\n        /* \"#utility.yul\":2506:2513   */\n      dup6\n        /* \"#utility.yul\":2497:2503   */\n      dup3\n        /* \"#utility.yul\":2486:2495   */\n      dup7\n        /* \"#utility.yul\":2482:2504   */\n      add\n        /* \"#utility.yul\":2461:2514   */\n      tag_78\n      jump\t// in\n    tag_96:\n        /* \"#utility.yul\":2451:2514   */\n      swap2\n      pop\n        /* \"#utility.yul\":2406:2524   */\n      pop\n        /* \"#utility.yul\":2057:2531   */\n      swap3\n      pop\n      swap3\n      swap1\n      pop\n      jump\t// out\n        /* \"#utility.yul\":2537:2684   */\n    tag_97:\n        /* \"#utility.yul\":2632:2677   */\n      tag_99\n        /* \"#utility.yul\":2671:2676   */\n      dup2\n        /* \"#utility.yul\":2632:2677   */\n      tag_100\n      jump\t// in\n    tag_99:\n        /* \"#utility.yul\":2627:2630   */\n      dup3\n        /* \"#utility.yul\":2620:2678   */\n      mstore\n        /* \"#utility.yul\":2537:2684   */\n      pop\n      pop\n      jump\t// out\n        /* \"#utility.yul\":2690:3054   */\n    tag_101:\n        /* \"#utility.yul\":2778:2781   */\n      0x00\n        /* \"#utility.yul\":2806:2845   */\n      tag_103\n        /* \"#utility.yul\":2839:2844   */\n      dup3\n        /* \"#utility.yul\":2806:2845   */\n      tag_104\n      jump\t// in\n    tag_103:\n        /* \"#utility.yul\":2861:2932   */\n      tag_105\n        /* \"#utility.yul\":2925:2931   */\n      dup2\n        /* \"#utility.yul\":2920:2923   */\n      dup6\n        /* \"#utility.yul\":2861:2932   */\n      tag_106\n      jump\t// in\n    tag_105:\n        /* \"#utility.yul\":2854:2932   */\n      swap4\n      pop\n        /* \"#utility.yul\":2941:2993   */\n      tag_107\n        /* \"#utility.yul\":2986:2992   */\n      dup2\n        /* \"#utility.yul\":2981:2984   */\n      dup6\n        /* \"#utility.yul\":2974:2978   */\n      0x20\n        /* \"#utility.yul\":2967:2972   */\n      dup7\n        /* \"#utility.yul\":2963:2979   */\n      add\n        /* \"#utility.yul\":2941:2993   */\n      tag_108\n      jump\t// in\n    tag_107:\n        /* \"#utility.yul\":3018:3047   */\n      tag_109\n        /* \"#utility.yul\":3040:3046   */\n      dup2\n        /* \"#utility.yul\":3018:3047   */\n      tag_110\n      jump\t// in\n    tag_109:\n        /* \"#utility.yul\":3013:3016   */\n      dup5\n        /* \"#utility.yul\":3009:3048   */\n      add\n        /* \"#utility.yul\":3002:3048   */\n      swap2\n      pop\n        /* \"#utility.yul\":2782:3054   */\n      pop\n        /* \"#utility.yul\":2690:3054   */\n      swap3\n      swap2\n      pop\n      pop\n      jump\t// out\n        /* \"#utility.yul\":3060:3426   */\n    tag_111:\n        /* \"#utility.yul\":3202:3205   */\n      0x00\n        /* \"#utility.yul\":3223:3290   */\n      tag_113\n        /* \"#utility.yul\":3287:3289   */\n      0x0f\n        /* \"#utility.yul\":3282:3285   */\n      dup4\n        /* \"#utility.yul\":3223:3290   */\n      tag_106\n      jump\t// in\n    tag_113:\n        /* \"#utility.yul\":3216:3290   */\n      swap2\n      pop\n        /* \"#utility.yul\":3299:3392   */\n      tag_114\n        /* \"#utility.yul\":3388:3391   */\n      dup3\n        /* \"#utility.yul\":3299:3392   */\n      tag_115\n      jump\t// in\n    tag_114:\n        /* \"#utility.yul\":3417:3419   */\n      0x20\n        /* \"#utility.yul\":3412:3415   */\n      dup3\n        /* \"#utility.yul\":3408:3420   */\n      add\n        /* \"#utility.yul\":3401:3420   */\n      swap1\n      pop\n        /* \"#utility.yul\":3060:3426   */\n      swap2\n      swap1\n      pop\n      jump\t// out\n        /* \"#utility.yul\":3432:3798   */\n    tag_116:\n        /* \"#utility.yul\":3574:3577   */\n      0x00\n        /* \"#utility.yul\":3595:3662   */\n      tag_118\n        /* \"#utility.yul\":3659:3661   */\n      0x0b\n        /* \"#utility.yul\":3654:3657   */\n      dup4\n        /* \"#utility.yul\":3595:3662   */\n      tag_106\n      jump\t// in\n    tag_118:\n        /* \"#utility.yul\":3588:3662   */\n      swap2\n      pop\n        /* \"#utility.yul\":3671:3764   */\n      tag_119\n        /* \"#utility.yul\":3760:3763   */\n      dup3\n        /* \"#utility.yul\":3671:3764   */\n      tag_120\n      jump\t// in\n    tag_119:\n        /* \"#utility.yul\":3789:3791   */\n      0x20\n        /* \"#utility.yul\":3784:3787   */\n      dup3\n        /* \"#utility.yul\":3780:3792   */\n      add\n        /* \"#utility.yul\":3773:3792   */\n      swap1\n      pop\n        /* \"#utility.yul\":3432:3798   */\n      swap2\n      swap1\n      pop\n      jump\t// out\n        /* \"#utility.yul\":3804:4170   */\n    tag_121:\n        /* \"#utility.yul\":3946:3949   */\n      0x00\n        /* \"#utility.yul\":3967:4034   */\n      tag_123\n        /* \"#utility.yul\":4031:4033   */\n      0x11\n        /* \"#utility.yul\":4026:4029   */\n      dup4\n        /* \"#utility.yul\":3967:4034   */\n      tag_106\n      jump\t// in\n    tag_123:\n        /* \"#utility.yul\":3960:4034   */\n      swap2\n      pop\n        /* \"#utility.yul\":4043:4136   */\n      tag_124\n        /* \"#utility.yul\":4132:4135   */\n      dup3\n        /* \"#utility.yul\":4043:4136   */\n      tag_125\n      jump\t// in\n    tag_124:\n        /* \"#utility.yul\":4161:4163   */\n      0x20\n        /* \"#utility.yul\":4156:4159   */\n      dup3\n        /* \"#utility.yul\":4152:4164   */\n      add\n        /* \"#utility.yul\":4145:4164   */\n      swap1\n      pop\n        /* \"#utility.yul\":3804:4170   */\n      swap2\n      swap1\n      pop\n      jump\t// out\n        /* \"#utility.yul\":4176:4294   */\n    tag_126:\n        /* \"#utility.yul\":4263:4287   */\n      tag_128\n        /* \"#utility.yul\":4281:4286   */\n      dup2\n        /* \"#utility.yul\":4263:4287   */\n      tag_129\n      jump\t// in\n    tag_128:\n        /* \"#utility.yul\":4258:4261   */\n      dup3\n        /* \"#utility.yul\":4251:4288   */\n      mstore\n        /* \"#utility.yul\":4176:4294   */\n      pop\n      pop\n      jump\t// out\n        /* \"#utility.yul\":4300:4849   */\n    tag_33:\n        /* \"#utility.yul\":4477:4481   */\n      0x00\n        /* \"#utility.yul\":4515:4517   */\n      0x60\n        /* \"#utility.yul\":4504:4513   */\n      dup3\n        /* \"#utility.yul\":4500:4518   */\n      add\n        /* \"#utility.yul\":4492:4518   */\n      swap1\n      pop\n        /* \"#utility.yul\":4528:4607   */\n      tag_131\n        /* \"#utility.yul\":4604:4605   */\n      0x00\n        /* \"#utility.yul\":4593:4602   */\n      dup4\n        /* \"#utility.yul\":4589:4606   */\n      add\n        /* \"#utility.yul\":4580:4586   */\n      dup7\n        /* \"#utility.yul\":4528:4607   */\n      tag_97\n      jump\t// in\n    tag_131:\n        /* \"#utility.yul\":4617:4689   */\n      tag_132\n        /* \"#utility.yul\":4685:4687   */\n      0x20\n        /* \"#utility.yul\":4674:4683   */\n      dup4\n        /* \"#utility.yul\":4670:4688   */\n      add\n        /* \"#utility.yul\":4661:4667   */\n      dup6\n        /* \"#utility.yul\":4617:4689   */\n      tag_126\n      jump\t// in\n    tag_132:\n        /* \"#utility.yul\":4736:4745   */\n      dup2\n        /* \"#utility.yul\":4730:4734   */\n      dup2\n        /* \"#utility.yul\":4726:4746   */\n      sub\n        /* \"#utility.yul\":4721:4723   */\n      0x40\n        /* \"#utility.yul\":4710:4719   */\n      dup4\n        /* \"#utility.yul\":4706:4724   */\n      add\n        /* \"#utility.yul\":4699:4747   */\n      mstore\n        /* \"#utility.yul\":4764:4842   */\n      tag_133\n        /* \"#utility.yul\":4837:4841   */\n      dup2\n        /* \"#utility.yul\":4828:4834   */\n      dup5\n        /* \"#utility.yul\":4764:4842   */\n      tag_101\n      jump\t// in\n    tag_133:\n        /* \"#utility.yul\":4756:4842   */\n      swap1\n      pop\n        /* \"#utility.yul\":4300:4849   */\n      swap5\n      swap4\n      pop\n      pop\n      pop\n      pop\n      jump\t// out\n        /* \"#utility.yul\":4855:5274   */\n    tag_36:\n        /* \"#utility.yul\":5021:5025   */\n      0x00\n        /* \"#utility.yul\":5059:5061   */\n      0x20\n        /* \"#utility.yul\":5048:5057   */\n      dup3\n        /* \"#utility.yul\":5044:5062   */\n      add\n        /* \"#utility.yul\":5036:5062   */\n      swap1\n      pop\n        /* \"#utility.yul\":5108:5117   */\n      dup2\n        /* \"#utility.yul\":5102:5106   */\n      dup2\n        /* \"#utility.yul\":5098:5118   */\n      sub\n        /* \"#utility.yul\":5094:5095   */\n      0x00\n        /* \"#utility.yul\":5083:5092   */\n      dup4\n        /* \"#utility.yul\":5079:5096   */\n      add\n        /* \"#utility.yul\":5072:5119   */\n      mstore\n        /* \"#utility.yul\":5136:5267   */\n      tag_135\n        /* \"#utility.yul\":5262:5266   */\n      dup2\n        /* \"#utility.yul\":5136:5267   */\n      tag_111\n      jump\t// in\n    tag_135:\n        /* \"#utility.yul\":5128:5267   */\n      swap1\n      pop\n        /* \"#utility.yul\":4855:5274   */\n      swap2\n      swap1\n      pop\n      jump\t// out\n        /* \"#utility.yul\":5280:5699   */\n    tag_30:\n        /* \"#utility.yul\":5446:5450   */\n      0x00\n        /* \"#utility.yul\":5484:5486   */\n      0x20\n        /* \"#utility.yul\":5473:5482   */\n      dup3\n        /* \"#utility.yul\":5469:5487   */\n      add\n        /* \"#utility.yul\":5461:5487   */\n      swap1\n      pop\n        /* \"#utility.yul\":5533:5542   */\n      dup2\n        /* \"#utility.yul\":5527:5531   */\n      dup2\n        /* \"#utility.yul\":5523:5543   */\n      sub\n        /* \"#utility.yul\":5519:5520   */\n      0x00\n        /* \"#utility.yul\":5508:5517   */\n      dup4\n        /* \"#utility.yul\":5504:5521   */\n      add\n        /* \"#utility.yul\":5497:5544   */\n      mstore\n        /* \"#utility.yul\":5561:5692   */\n      tag_137\n        /* \"#utility.yul\":5687:5691   */\n      dup2\n        /* \"#utility.yul\":5561:5692   */\n      tag_116\n      jump\t// in\n    tag_137:\n        /* \"#utility.yul\":5553:5692   */\n      swap1\n      pop\n        /* \"#utility.yul\":5280:5699   */\n      swap2\n      swap1\n      pop\n      jump\t// out\n        /* \"#utility.yul\":5705:6124   */\n    tag_46:\n        /* \"#utility.yul\":5871:5875   */\n      0x00\n        /* \"#utility.yul\":5909:5911   */\n      0x20\n        /* \"#utility.yul\":5898:5907   */\n      dup3\n        /* \"#utility.yul\":5894:5912   */\n      add\n        /* \"#utility.yul\":5886:5912   */\n      swap1\n      pop\n        /* \"#utility.yul\":5958:5967   */\n      dup2\n        /* \"#utility.yul\":5952:5956   */\n      dup2\n        /* \"#utility.yul\":5948:5968   */\n      sub\n        /* \"#utility.yul\":5944:5945   */\n      0x00\n        /* \"#utility.yul\":5933:5942   */\n      dup4\n        /* \"#utility.yul\":5929:5946   */\n      add\n        /* \"#utility.yul\":5922:5969   */\n      mstore\n        /* \"#utility.yul\":5986:6117   */\n      tag_139\n        /* \"#utility.yul\":6112:6116   */\n      dup2\n        /* \"#utility.yul\":5986:6117   */\n      tag_121\n      jump\t// in\n    tag_139:\n        /* \"#utility.yul\":5978:6117   */\n      swap1\n      pop\n        /* \"#utility.yul\":5705:6124   */\n      swap2\n      swap1\n      pop\n      jump\t// out\n        /* \"#utility.yul\":6130:6352   */\n    tag_12:\n        /* \"#utility.yul\":6223:6227   */\n      0x00\n        /* \"#utility.yul\":6261:6263   */\n      0x20\n        /* \"#utility.yul\":6250:6259   */\n      dup3\n        /* \"#utility.yul\":6246:6264   */\n      add\n        /* \"#utility.yul\":6238:6264   */\n      swap1\n      pop\n        /* \"#utility.yul\":6274:6345   */\n      tag_141\n        /* \"#utility.yul\":6342:6343   */\n      0x00\n        /* \"#utility.yul\":6331:6340   */\n      dup4\n        /* \"#utility.yul\":6327:6344   */\n      add\n        /* \"#utility.yul\":6318:6324   */\n      dup5\n        /* \"#utility.yul\":6274:6345   */\n      tag_126\n      jump\t// in\n    tag_141:\n        /* \"#utility.yul\":6130:6352   */\n      swap3\n      swap2\n      pop\n      pop\n      jump\t// out\n        /* \"#utility.yul\":6358:6487   */\n    tag_58:\n        /* \"#utility.yul\":6392:6398   */\n      0x00\n        /* \"#utility.yul\":6419:6439   */\n      tag_143\n      tag_144\n      jump\t// in\n    tag_143:\n        /* \"#utility.yul\":6409:6439   */\n      swap1\n      pop\n        /* \"#utility.yul\":6448:6481   */\n      tag_145\n        /* \"#utility.yul\":6476:6480   */\n      dup3\n        /* \"#utility.yul\":6468:6474   */\n      dup3\n        /* \"#utility.yul\":6448:6481   */\n      tag_146\n      jump\t// in\n    tag_145:\n        /* \"#utility.yul\":6358:6487   */\n      swap2\n      swap1\n      pop\n      jump\t// out\n        /* \"#utility.yul\":6493:6568   */\n    tag_144:\n        /* \"#utility.yul\":6526:6532   */\n      0x00\n        /* \"#utility.yul\":6559:6561   */\n      0x40\n        /* \"#utility.yul\":6553:6562   */\n      mload\n        /* \"#utility.yul\":6543:6562   */\n      swap1\n      pop\n        /* \"#utility.yul\":6493:6568   */\n      swap1\n      jump\t// out\n        /* \"#utility.yul\":6574:6882   */\n    tag_57:\n        /* \"#utility.yul\":6636:6640   */\n      0x00\n        /* \"#utility.yul\":6726:6744   */\n      0xffffffffffffffff\n        /* \"#utility.yul\":6718:6724   */\n      dup3\n        /* \"#utility.yul\":6715:6745   */\n      gt\n        /* \"#utility.yul\":6712:6768   */\n      iszero\n      tag_149\n      jumpi\n        /* \"#utility.yul\":6748:6766   */\n      tag_150\n      tag_151\n      jump\t// in\n    tag_150:\n        /* \"#utility.yul\":6712:6768   */\n    tag_149:\n        /* \"#utility.yul\":6786:6815   */\n      tag_152\n        /* \"#utility.yul\":6808:6814   */\n      dup3\n        /* \"#utility.yul\":6786:6815   */\n      tag_110\n      jump\t// in\n    tag_152:\n        /* \"#utility.yul\":6778:6815   */\n      swap1\n      pop\n        /* \"#utility.yul\":6870:6874   */\n      0x20\n        /* \"#utility.yul\":6864:6868   */\n      dup2\n        /* \"#utility.yul\":6860:6875   */\n      add\n        /* \"#utility.yul\":6852:6875   */\n      swap1\n      pop\n        /* \"#utility.yul\":6574:6882   */\n      swap2\n      swap1\n      pop\n      jump\t// out\n        /* \"#utility.yul\":6888:6987   */\n    tag_104:\n        /* \"#utility.yul\":6940:6946   */\n      0x00\n        /* \"#utility.yul\":6974:6979   */\n      dup2\n        /* \"#utility.yul\":6968:6980   */\n      mload\n        /* \"#utility.yul\":6958:6980   */\n      swap1\n      pop\n        /* \"#utility.yul\":6888:6987   */\n      swap2\n      swap1\n      pop\n      jump\t// out\n        /* \"#utility.yul\":6993:7162   */\n    tag_106:\n        /* \"#utility.yul\":7077:7088   */\n      0x00\n        /* \"#utility.yul\":7111:7117   */\n      dup3\n        /* \"#utility.yul\":7106:7109   */\n      dup3\n        /* \"#utility.yul\":7099:7118   */\n      mstore\n        /* \"#utility.yul\":7151:7155   */\n      0x20\n        /* \"#utility.yul\":7146:7149   */\n      dup3\n        /* \"#utility.yul\":7142:7156   */\n      add\n        /* \"#utility.yul\":7127:7156   */\n      swap1\n      pop\n        /* \"#utility.yul\":6993:7162   */\n      swap3\n      swap2\n      pop\n      pop\n      jump\t// out\n        /* \"#utility.yul\":7168:7473   */\n    tag_49:\n        /* \"#utility.yul\":7208:7211   */\n      0x00\n        /* \"#utility.yul\":7227:7247   */\n      tag_156\n        /* \"#utility.yul\":7245:7246   */\n      dup3\n        /* \"#utility.yul\":7227:7247   */\n      tag_129\n      jump\t// in\n    tag_156:\n        /* \"#utility.yul\":7222:7247   */\n      swap2\n      pop\n        /* \"#utility.yul\":7261:7281   */\n      tag_157\n        /* \"#utility.yul\":7279:7280   */\n      dup4\n        /* \"#utility.yul\":7261:7281   */\n      tag_129\n      jump\t// in\n    tag_157:\n        /* \"#utility.yul\":7256:7281   */\n      swap3\n      pop\n        /* \"#utility.yul\":7415:7416   */\n      dup3\n        /* \"#utility.yul\":7347:7413   */\n      0xffffffffffffffffffffffffffffffffffffffffffffffffffffffffffffffff\n        /* \"#utility.yul\":7343:7417   */\n      sub\n        /* \"#utility.yul\":7340:7341   */\n      dup3\n        /* \"#utility.yul\":7337:7418   */\n      gt\n        /* \"#utility.yul\":7334:7441   */\n      iszero\n      tag_158\n      jumpi\n        /* \"#utility.yul\":7421:7439   */\n      tag_159\n      tag_160\n      jump\t// in\n    tag_159:\n        /* \"#utility.yul\":7334:7441   */\n    tag_158:\n        /* \"#utility.yul\":7465:7466   */\n      dup3\n        /* \"#utility.yul\":7462:7463   */\n      dup3\n        /* \"#utility.yul\":7458:7467   */\n      add\n        /* \"#utility.yul\":7451:7467   */\n      swap1\n      pop\n        /* \"#utility.yul\":7168:7473   */\n      swap3\n      swap2\n      pop\n      pop\n      jump\t// out\n        /* \"#utility.yul\":7479:7670   */\n    tag_40:\n        /* \"#utility.yul\":7519:7523   */\n      0x00\n        /* \"#utility.yul\":7539:7559   */\n      tag_162\n        /* \"#utility.yul\":7557:7558   */\n      dup3\n        /* \"#utility.yul\":7539:7559   */\n      tag_129\n      jump\t// in\n    tag_162:\n        /* \"#utility.yul\":7534:7559   */\n      swap2\n      pop\n        /* \"#utility.yul\":7573:7593   */\n      tag_163\n        /* \"#utility.yul\":7591:7592   */\n      dup4\n        /* \"#utility.yul\":7573:7593   */\n      tag_129\n      jump\t// in\n    tag_163:\n        /* \"#utility.yul\":7568:7593   */\n      swap3\n      pop\n        /* \"#utility.yul\":7612:7613   */\n      dup3\n        /* \"#utility.yul\":7609:7610   */\n      dup3\n        /* \"#utility.yul\":7606:7614   */\n      lt\n        /* \"#utility.yul\":7603:7637   */\n      iszero\n      tag_164\n      jumpi\n        /* \"#utility.yul\":7617:7635   */\n      tag_165\n      tag_160\n      jump\t// in\n    tag_165:\n        /* \"#utility.yul\":7603:7637   */\n    tag_164:\n        /* \"#utility.yul\":7662:7663   */\n      dup3\n        /* \"#utility.yul\":7659:7660   */\n      dup3\n        /* \"#utility.yul\":7655:7664   */\n      sub\n        /* \"#utility.yul\":7647:7664   */\n      swap1\n      pop\n        /* \"#utility.yul\":7479:7670   */\n      swap3\n      swap2\n      pop\n      pop\n      jump\t// out\n        /* \"#utility.yul\":7676:7772   */\n    tag_166:\n        /* \"#utility.yul\":7713:7720   */\n      0x00\n        /* \"#utility.yul\":7742:7766   */\n      tag_168\n        /* \"#utility.yul\":7760:7765   */\n      dup3\n        /* \"#utility.yul\":7742:7766   */\n      tag_169\n      jump\t// in\n    tag_168:\n        /* \"#utility.yul\":7731:7766   */\n      swap1\n      pop\n        /* \"#utility.yul\":7676:7772   */\n      swap2\n      swap1\n      pop\n      jump\t// out\n        /* \"#utility.yul\":7778:7882   */\n    tag_170:\n        /* \"#utility.yul\":7823:7830   */\n      0x00\n        /* \"#utility.yul\":7852:7876   */\n      tag_172\n        /* \"#utility.yul\":7870:7875   */\n      dup3\n        /* \"#utility.yul\":7852:7876   */\n      tag_169\n      jump\t// in\n    tag_172:\n        /* \"#utility.yul\":7841:7876   */\n      swap1\n      pop\n        /* \"#utility.yul\":7778:7882   */\n      swap2\n      swap1\n      pop\n      jump\t// out\n        /* \"#utility.yul\":7888:8014   */\n    tag_169:\n        /* \"#utility.yul\":7925:7932   */\n      0x00\n        /* \"#utility.yul\":7965:8007   */\n      0xffffffffffffffffffffffffffffffffffffffff\n        /* \"#utility.yul\":7958:7963   */\n      dup3\n        /* \"#utility.yul\":7954:8008   */\n      and\n        /* \"#utility.yul\":7943:8008   */\n      swap1\n      pop\n        /* \"#utility.yul\":7888:8014   */\n      swap2\n      swap1\n      pop\n      jump\t// out\n        /* \"#utility.yul\":8020:8097   */\n    tag_129:\n        /* \"#utility.yul\":8057:8064   */\n      0x00\n        /* \"#utility.yul\":8086:8091   */\n      dup2\n        /* \"#utility.yul\":8075:8091   */\n      swap1\n      pop\n        /* \"#utility.yul\":8020:8097   */\n      swap2\n      swap1\n      pop\n      jump\t// out\n        /* \"#utility.yul\":8103:8237   */\n    tag_100:\n        /* \"#utility.yul\":8161:8170   */\n      0x00\n        /* \"#utility.yul\":8194:8231   */\n      tag_176\n        /* \"#utility.yul\":8225:8230   */\n      dup3\n        /* \"#utility.yul\":8194:8231   */\n      tag_177\n      jump\t// in\n    tag_176:\n        /* \"#utility.yul\":8181:8231   */\n      swap1\n      pop\n        /* \"#utility.yul\":8103:8237   */\n      swap2\n      swap1\n      pop\n      jump\t// out\n        /* \"#utility.yul\":8243:8369   */\n    tag_177:\n        /* \"#utility.yul\":8293:8302   */\n      0x00\n        /* \"#utility.yul\":8326:8363   */\n      tag_179\n        /* \"#utility.yul\":8357:8362   */\n      dup3\n        /* \"#utility.yul\":8326:8363   */\n      tag_180\n      jump\t// in\n    tag_179:\n        /* \"#utility.yul\":8313:8363   */\n      swap1\n      pop\n        /* \"#utility.yul\":8243:8369   */\n      swap2\n      swap1\n      pop\n      jump\t// out\n        /* \"#utility.yul\":8375:8488   */\n    tag_180:\n        /* \"#utility.yul\":8425:8434   */\n      0x00\n        /* \"#utility.yul\":8458:8482   */\n      tag_182\n        /* \"#utility.yul\":8476:8481   */\n      dup3\n        /* \"#utility.yul\":8458:8482   */\n      tag_169\n      jump\t// in\n    tag_182:\n        /* \"#utility.yul\":8445:8482   */\n      swap1\n      pop\n        /* \"#utility.yul\":8375:8488   */\n      swap2\n      swap1\n      pop\n      jump\t// out\n        /* \"#utility.yul\":8494:8648   */\n    tag_63:\n        /* \"#utility.yul\":8578:8584   */\n      dup3\n        /* \"#utility.yul\":8573:8576   */\n      dup2\n        /* \"#utility.yul\":8568:8571   */\n      dup4\n        /* \"#utility.yul\":8555:8585   */\n      calldatacopy\n        /* \"#utility.yul\":8640:8641   */\n      0x00\n        /* \"#utility.yul\":8631:8637   */\n      dup4\n        /* \"#utility.yul\":8626:8629   */\n      dup4\n        /* \"#utility.yul\":8622:8638   */\n      add\n        /* \"#utility.yul\":8615:8642   */\n      mstore\n        /* \"#utility.yul\":8494:8648   */\n      pop\n      pop\n      pop\n      jump\t// out\n        /* \"#utility.yul\":8654:8961   */\n    tag_108:\n        /* \"#utility.yul\":8722:8723   */\n      0x00\n        /* \"#utility.yul\":8732:8845   */\n    tag_185:\n        /* \"#utility.yul\":8746:8752   */\n      dup4\n        /* \"#utility.yul\":8743:8744   */\n      dup2\n        /* \"#utility.yul\":8740:8753   */\n      lt\n        /* \"#utility.yul\":8732:8845   */\n      iszero\n      tag_187\n      jumpi\n        /* \"#utility.yul\":8831:8832   */\n      dup1\n        /* \"#utility.yul\":8826:8829   */\n      dup3\n        /* \"#utility.yul\":8822:8833   */\n      add\n        /* \"#utility.yul\":8816:8834   */\n      mload\n        /* \"#utility.yul\":8812:8813   */\n      dup2\n        /* \"#utility.yul\":8807:8810   */\n      dup5\n        /* \"#utility.yul\":8803:8814   */\n      add\n        /* \"#utility.yul\":8796:8835   */\n      mstore\n        /* \"#utility.yul\":8768:8770   */\n      0x20\n        /* \"#utility.yul\":8765:8766   */\n      dup2\n        /* \"#utility.yul\":8761:8771   */\n      add\n        /* \"#utility.yul\":8756:8771   */\n      swap1\n      pop\n        /* \"#utility.yul\":8732:8845   */\n      jump(tag_185)\n    tag_187:\n        /* \"#utility.yul\":8863:8869   */\n      dup4\n        /* \"#utility.yul\":8860:8861   */\n      dup2\n        /* \"#utility.yul\":8857:8870   */\n      gt\n        /* \"#utility.yul\":8854:8955   */\n      iszero\n      tag_188\n      jumpi\n        /* \"#utility.yul\":8943:8944   */\n      0x00\n        /* \"#utility.yul\":8934:8940   */\n      dup5\n        /* \"#utility.yul\":8929:8932   */\n      dup5\n        /* \"#utility.yul\":8925:8941   */\n      add\n        /* \"#utility.yul\":8918:8945   */\n      mstore\n        /* \"#utility.yul\":8854:8955   */\n    tag_188:\n        /* \"#utility.yul\":8703:8961   */\n      pop\n        /* \"#utility.yul\":8654:8961   */\n      pop\n      pop\n      pop\n      jump\t// out\n        /* \"#utility.yul\":8967:9248   */\n    tag_146:\n        /* \"#utility.yul\":9050:9077   */\n      tag_190\n        /* \"#utility.yul\":9072:9076   */\n      dup3\n        /* \"#utility.yul\":9050:9077   */\n      tag_110\n      jump\t// in\n    tag_190:\n        /* \"#utility.yul\":9042:9048   */\n      dup2\n        /* \"#utility.yul\":9038:9078   */\n      add\n        /* \"#utility.yul\":9180:9186   */\n      dup2\n        /* \"#utility.yul\":9168:9178   */\n      dup2\n        /* \"#utility.yul\":9165:9187   */\n      lt\n        /* \"#utility.yul\":9144:9162   */\n      0xffffffffffffffff\n        /* \"#utility.yul\":9132:9142   */\n      dup3\n        /* \"#utility.yul\":9129:9163   */\n      gt\n        /* \"#utility.yul\":9126:9188   */\n      or\n        /* \"#utility.yul\":9123:9211   */\n      iszero\n      tag_191\n      jumpi\n        /* \"#utility.yul\":9191:9209   */\n      tag_192\n      tag_151\n      jump\t// in\n    tag_192:\n        /* \"#utility.yul\":9123:9211   */\n    tag_191:\n        /* \"#utility.yul\":9231:9241   */\n      dup1\n        /* \"#utility.yul\":9227:9229   */\n      0x40\n        /* \"#utility.yul\":9220:9242   */\n      mstore\n        /* \"#utility.yul\":9010:9248   */\n      pop\n        /* \"#utility.yul\":8967:9248   */\n      pop\n      pop\n      jump\t// out\n        /* \"#utility.yul\":9254:9434   */\n    tag_160:\n        /* \"#utility.yul\":9302:9379   */\n      0x4e487b7100000000000000000000000000000000000000000000000000000000\n        /* \"#utility.yul\":9299:9300   */\n      0x00\n        /* \"#utility.yul\":9292:9380   */\n      mstore\n        /* \"#utility.yul\":9399:9403   */\n      0x11\n        /* \"#utility.yul\":9396:9397   */\n      0x04\n        /* \"#utility.yul\":9389:9404   */\n      mstore\n        /* \"#utility.yul\":9423:9427   */\n      0x24\n        /* \"#utility.yul\":9420:9421   */\n      0x00\n        /* \"#utility.yul\":9413:9428   */\n      revert\n        /* \"#utility.yul\":9440:9620   */\n    tag_151:\n        /* \"#utility.yul\":9488:9565   */\n      0x4e487b7100000000000000000000000000000000000000000000000000000000\n        /* \"#utility.yul\":9485:9486   */\n      0x00\n        /* \"#utility.yul\":9478:9566   */\n      mstore\n        /* \"#utility.yul\":9585:9589   */\n      0x41\n        /* \"#utility.yul\":9582:9583   */\n      0x04\n        /* \"#utility.yul\":9575:9590   */\n      mstore\n        /* \"#utility.yul\":9609:9613   */\n      0x24\n        /* \"#utility.yul\":9606:9607   */\n      0x00\n        /* \"#utility.yul\":9599:9614   */\n      revert\n        /* \"#utility.yul\":9626:9743   */\n    tag_76:\n        /* \"#utility.yul\":9735:9736   */\n      0x00\n        /* \"#utility.yul\":9732:9733   */\n      dup1\n        /* \"#utility.yul\":9725:9737   */\n      revert\n        /* \"#utility.yul\":9749:9866   */\n    tag_61:\n        /* \"#utility.yul\":9858:9859   */\n      0x00\n        /* \"#utility.yul\":9855:9856   */\n      dup1\n        /* \"#utility.yul\":9848:9860   */\n      revert\n        /* \"#utility.yul\":9872:9989   */\n    tag_90:\n        /* \"#utility.yul\":9981:9982   */\n      0x00\n        /* \"#utility.yul\":9978:9979   */\n      dup1\n        /* \"#utility.yul\":9971:9983   */\n      revert\n        /* \"#utility.yul\":9995:10112   */\n    tag_85:\n        /* \"#utility.yul\":10104:10105   */\n      0x00\n        /* \"#utility.yul\":10101:10102   */\n      dup1\n        /* \"#utility.yul\":10094:10106   */\n      revert\n        /* \"#utility.yul\":10118:10220   */\n    tag_110:\n        /* \"#utility.yul\":10159:10165   */\n      0x00\n        /* \"#utility.yul\":10210:10212   */\n      0x1f\n        /* \"#utility.yul\":10206:10213   */\n      not\n        /* \"#utility.yul\":10201:10203   */\n      0x1f\n        /* \"#utility.yul\":10194:10199   */\n      dup4\n        /* \"#utility.yul\":10190:10204   */\n      add\n        /* \"#utility.yul\":10186:10214   */\n      and\n        /* \"#utility.yul\":10176:10214   */\n      swap1\n      pop\n        /* \"#utility.yul\":10118:10220   */\n      swap2\n      swap1\n      pop\n      jump\t// out\n        /* \"#utility.yul\":10226:10391   */\n    tag_115:\n        /* \"#utility.yul\":10366:10383   */\n      0x4e6f20656e6f7567682066756e64730000000000000000000000000000000000\n        /* \"#utility.yul\":10362:10363   */\n      0x00\n        /* \"#utility.yul\":10354:10360   */\n      dup3\n        /* \"#utility.yul\":10350:10364   */\n      add\n        /* \"#utility.yul\":10343:10384   */\n      mstore\n        /* \"#utility.yul\":10226:10391   */\n      pop\n      jump\t// out\n        /* \"#utility.yul\":10397:10558   */\n    tag_120:\n        /* \"#utility.yul\":10537:10550   */\n      0x4e6f7420416c6c6f776564000000000000000000000000000000000000000000\n        /* \"#utility.yul\":10533:10534   */\n      0x00\n        /* \"#utility.yul\":10525:10531   */\n      dup3\n        /* \"#utility.yul\":10521:10535   */\n      add\n        /* \"#utility.yul\":10514:10551   */\n      mstore\n        /* \"#utility.yul\":10397:10558   */\n      pop\n      jump\t// out\n        /* \"#utility.yul\":10564:10731   */\n    tag_125:\n        /* \"#utility.yul\":10704:10723   */\n      0x596f7520617265206e6f74206f776e6572000000000000000000000000000000\n        /* \"#utility.yul\":10700:10701   */\n      0x00\n        /* \"#utility.yul\":10692:10698   */\n      dup3\n        /* \"#utility.yul\":10688:10702   */\n      add\n        /* \"#utility.yul\":10681:10724   */\n      mstore\n        /* \"#utility.yul\":10564:10731   */\n      pop\n      jump\t// out\n        /* \"#utility.yul\":10737:10859   */\n    tag_67:\n        /* \"#utility.yul\":10810:10834   */\n      tag_204\n        /* \"#utility.yul\":10828:10833   */\n      dup2\n        /* \"#utility.yul\":10810:10834   */\n      tag_166\n      jump\t// in\n    tag_204:\n        /* \"#utility.yul\":10803:10808   */\n      dup2\n        /* \"#utility.yul\":10800:10835   */\n      eq\n        /* \"#utility.yul\":10790:10853   */\n      tag_205\n      jumpi\n        /* \"#utility.yul\":10849:10850   */\n      0x00\n        /* \"#utility.yul\":10846:10847   */\n      dup1\n        /* \"#utility.yul\":10839:10851   */\n      revert\n        /* \"#utility.yul\":10790:10853   */\n    tag_205:\n        /* \"#utility.yul\":10737:10859   */\n      pop\n      jump\t// out\n        /* \"#utility.yul\":10865:11003   */\n    tag_71:\n        /* \"#utility.yul\":10946:10978   */\n      tag_207\n        /* \"#utility.yul\":10972:10977   */\n      dup2\n        /* \"#utility.yul\":10946:10978   */\n      tag_170\n      jump\t// in\n    tag_207:\n        /* \"#utility.yul\":10939:10944   */\n      dup2\n        /* \"#utility.yul\":10936:10979   */\n      eq\n        /* \"#utility.yul\":10926:10997   */\n      tag_208\n      jumpi\n        /* \"#utility.yul\":10993:10994   */\n      0x00\n        /* \"#utility.yul\":10990:10991   */\n      dup1\n        /* \"#utility.yul\":10983:10995   */\n      revert\n        /* \"#utility.yul\":10926:10997   */\n    tag_208:\n        /* \"#utility.yul\":10865:11003   */\n      pop\n      jump\t// out\n        /* \"#utility.yul\":11009:11131   */\n    tag_81:\n        /* \"#utility.yul\":11082:11106   */\n      tag_210\n        /* \"#utility.yul\":11100:11105   */\n      dup2\n        /* \"#utility.yul\":11082:11106   */\n      tag_129\n      jump\t// in\n    tag_210:\n        /* \"#utility.yul\":11075:11080   */\n      dup2\n        /* \"#utility.yul\":11072:11107   */\n      eq\n        /* \"#utility.yul\":11062:11125   */\n      tag_211\n      jumpi\n        /* \"#utility.yul\":11121:11122   */\n      0x00\n        /* \"#utility.yul\":11118:11119   */\n      dup1\n        /* \"#utility.yul\":11111:11123   */\n      revert\n        /* \"#utility.yul\":11062:11125   */\n    tag_211:\n        /* \"#utility.yul\":11009:11131   */\n      pop\n      jump\t// out\n\n    auxdata: 0xa2646970667358221220cc8362836ffe5ac83f39b2d2342cc3f817e40ecc47988bac734966c406a61dd664736f6c63430008070033\n}\n",
				"bytecode": {
					"linkReferences": {},
					"object": "608060405234801561001057600080fd5b50336000806101000a81548173ffffffffffffffffffffffffffffffffffffffff021916908373ffffffffffffffffffffffffffffffffffffffff160217905550610a23806100606000396000f3fe6080604052600436106100385760003560e01c806315e9977e146100445780633495e9011461006f578063f3c40c4b146100985761003f565b3661003f57005b600080fd5b34801561005057600080fd5b506100596100c1565b604051610066919061069c565b60405180910390f35b34801561007b57600080fd5b506100966004803603810190610091919061048f565b6100c9565b005b3480156100a457600080fd5b506100bf60048036038101906100ba91906104fe565b610291565b005b600047905090565b816100d2610379565b8061011c575080600160003373ffffffffffffffffffffffffffffffffffffffff1673ffffffffffffffffffffffffffffffffffffffff1681526020019081526020016000205410155b61015b576040517f08c379a00000000000000000000000000000000000000000000000000000000081526004016101529061065c565b60405180910390fd5b7fa1f2e8aa7ff0c088860d7b3f0d1dc288d8e8a07808525cc31a5691f1bc0e149d84848460405161018e939291906105fe565b60405180910390a1824710156101d9576040517f08c379a00000000000000000000000000000000000000000000000000000000081526004016101d09061063c565b60405180910390fd5b600015156101e5610379565b151514156102445782600160003373ffffffffffffffffffffffffffffffffffffffff1673ffffffffffffffffffffffffffffffffffffffff168152602001908152602001600020600082825461023c919061077f565b925050819055505b8373ffffffffffffffffffffffffffffffffffffffff166108fc849081150290604051600060405180830381858888f1935050505015801561028a573d6000803e3d6000fd5b5050505050565b3373ffffffffffffffffffffffffffffffffffffffff1660008054906101000a900473ffffffffffffffffffffffffffffffffffffffff1673ffffffffffffffffffffffffffffffffffffffff161461031f576040517f08c379a00000000000000000000000000000000000000000000000000000000081526004016103169061067c565b60405180910390fd5b80600160008473ffffffffffffffffffffffffffffffffffffffff1673ffffffffffffffffffffffffffffffffffffffff168152602001908152602001600020600082825461036e9190610729565b925050819055505050565b60003373ffffffffffffffffffffffffffffffffffffffff1660008054906101000a900473ffffffffffffffffffffffffffffffffffffffff1673ffffffffffffffffffffffffffffffffffffffff1614156103d857600190506103dd565b600090505b90565b60006103f36103ee846106dc565b6106b7565b90508281526020810184848401111561040f5761040e61090d565b5b61041a848285610837565b509392505050565b600081359050610431816109a8565b92915050565b600081359050610446816109bf565b92915050565b600082601f83011261046157610460610908565b5b81356104718482602086016103e0565b91505092915050565b600081359050610489816109d6565b92915050565b6000806000606084860312156104a8576104a7610917565b5b60006104b686828701610437565b93505060206104c78682870161047a565b925050604084013567ffffffffffffffff8111156104e8576104e7610912565b5b6104f48682870161044c565b9150509250925092565b6000806040838503121561051557610514610917565b5b600061052385828601610422565b92505060206105348582860161047a565b9150509250929050565b61054781610801565b82525050565b60006105588261070d565b6105628185610718565b9350610572818560208601610846565b61057b8161091c565b840191505092915050565b6000610593600f83610718565b915061059e8261092d565b602082019050919050565b60006105b6600b83610718565b91506105c182610956565b602082019050919050565b60006105d9601183610718565b91506105e48261097f565b602082019050919050565b6105f8816107f7565b82525050565b6000606082019050610613600083018661053e565b61062060208301856105ef565b8181036040830152610632818461054d565b9050949350505050565b6000602082019050818103600083015261065581610586565b9050919050565b60006020820190508181036000830152610675816105a9565b9050919050565b60006020820190508181036000830152610695816105cc565b9050919050565b60006020820190506106b160008301846105ef565b92915050565b60006106c16106d2565b90506106cd8282610879565b919050565b6000604051905090565b600067ffffffffffffffff8211156106f7576106f66108d9565b5b6107008261091c565b9050602081019050919050565b600081519050919050565b600082825260208201905092915050565b6000610734826107f7565b915061073f836107f7565b9250827fffffffffffffffffffffffffffffffffffffffffffffffffffffffffffffffff03821115610774576107736108aa565b5b828201905092915050565b600061078a826107f7565b9150610795836107f7565b9250828210156107a8576107a76108aa565b5b828203905092915050565b60006107be826107d7565b9050919050565b60006107d0826107d7565b9050919050565b600073ffffffffffffffffffffffffffffffffffffffff82169050919050565b6000819050919050565b600061080c82610813565b9050919050565b600061081e82610825565b9050919050565b6000610830826107d7565b9050919050565b82818337600083830152505050565b60005b83811015610864578082015181840152602081019050610849565b83811115610873576000848401525b50505050565b6108828261091c565b810181811067ffffffffffffffff821117156108a1576108a06108d9565b5b80604052505050565b7f4e487b7100000000000000000000000000000000000000000000000000000000600052601160045260246000fd5b7f4e487b7100000000000000000000000000000000000000000000000000000000600052604160045260246000fd5b600080fd5b600080fd5b600080fd5b600080fd5b6000601f19601f8301169050919050565b7f4e6f20656e6f7567682066756e64730000000000000000000000000000000000600082015250565b7f4e6f7420416c6c6f776564000000000000000000000000000000000000000000600082015250565b7f596f7520617265206e6f74206f776e6572000000000000000000000000000000600082015250565b6109b1816107b3565b81146109bc57600080fd5b50565b6109c8816107c5565b81146109d357600080fd5b50565b6109df816107f7565b81146109ea57600080fd5b5056fea2646970667358221220cc8362836ffe5ac83f39b2d2342cc3f817e40ecc47988bac734966c406a61dd664736f6c63430008070033",
					"opcodes": "PUSH1 0x80 PUSH1 0x40 MSTORE CALLVALUE DUP1 ISZERO PUSH2 0x10 JUMPI PUSH1 0x0 DUP1 REVERT JUMPDEST POP CALLER PUSH1 0x0 DUP1 PUSH2 0x100 EXP DUP2 SLOAD DUP2 PUSH20 0xFFFFFFFFFFFFFFFFFFFFFFFFFFFFFFFFFFFFFFFF MUL NOT AND SWAP1 DUP4 PUSH20 0xFFFFFFFFFFFFFFFFFFFFFFFFFFFFFFFFFFFFFFFF AND MUL OR SWAP1 SSTORE POP PUSH2 0xA23 DUP1 PUSH2 0x60 PUSH1 0x0 CODECOPY PUSH1 0x0 RETURN INVALID PUSH1 0x80 PUSH1 0x40 MSTORE PUSH1 0x4 CALLDATASIZE LT PUSH2 0x38 JUMPI PUSH1 0x0 CALLDATALOAD PUSH1 0xE0 SHR DUP1 PUSH4 0x15E9977E EQ PUSH2 0x44 JUMPI DUP1 PUSH4 0x3495E901 EQ PUSH2 0x6F JUMPI DUP1 PUSH4 0xF3C40C4B EQ PUSH2 0x98 JUMPI PUSH2 0x3F JUMP JUMPDEST CALLDATASIZE PUSH2 0x3F JUMPI STOP JUMPDEST PUSH1 0x0 DUP1 REVERT JUMPDEST CALLVALUE DUP1 ISZERO PUSH2 0x50 JUMPI PUSH1 0x0 DUP1 REVERT JUMPDEST POP PUSH2 0x59 PUSH2 0xC1 JUMP JUMPDEST PUSH1 0x40 MLOAD PUSH2 0x66 SWAP2 SWAP1 PUSH2 0x69C JUMP JUMPDEST PUSH1 0x40 MLOAD DUP1 SWAP2 SUB SWAP1 RETURN JUMPDEST CALLVALUE DUP1 ISZERO PUSH2 0x7B JUMPI PUSH1 0x0 DUP1 REVERT JUMPDEST POP PUSH2 0x96 PUSH1 0x4 DUP1 CALLDATASIZE SUB DUP2 ADD SWAP1 PUSH2 0x91 SWAP2 SWAP1 PUSH2 0x48F JUMP JUMPDEST PUSH2 0xC9 JUMP JUMPDEST STOP JUMPDEST CALLVALUE DUP1 ISZERO PUSH2 0xA4 JUMPI PUSH1 0x0 DUP1 REVERT JUMPDEST POP PUSH2 0xBF PUSH1 0x4 DUP1 CALLDATASIZE SUB DUP2 ADD SWAP1 PUSH2 0xBA SWAP2 SWAP1 PUSH2 0x4FE JUMP JUMPDEST PUSH2 0x291 JUMP JUMPDEST STOP JUMPDEST PUSH1 0x0 SELFBALANCE SWAP1 POP SWAP1 JUMP JUMPDEST DUP2 PUSH2 0xD2 PUSH2 0x379 JUMP JUMPDEST DUP1 PUSH2 0x11C JUMPI POP DUP1 PUSH1 0x1 PUSH1 0x0 CALLER PUSH20 0xFFFFFFFFFFFFFFFFFFFFFFFFFFFFFFFFFFFFFFFF AND PUSH20 0xFFFFFFFFFFFFFFFFFFFFFFFFFFFFFFFFFFFFFFFF AND DUP2 MSTORE PUSH1 0x20 ADD SWAP1 DUP2 MSTORE PUSH1 0x20 ADD PUSH1 0x0 KECCAK256 SLOAD LT ISZERO JUMPDEST PUSH2 0x15B JUMPI PUSH1 0x40 MLOAD PUSH32 0x8C379A000000000000000000000000000000000000000000000000000000000 DUP2 MSTORE PUSH1 0x4 ADD PUSH2 0x152 SWAP1 PUSH2 0x65C JUMP JUMPDEST PUSH1 0x40 MLOAD DUP1 SWAP2 SUB SWAP1 REVERT JUMPDEST PUSH32 0xA1F2E8AA7FF0C088860D7B3F0D1DC288D8E8A07808525CC31A5691F1BC0E149D DUP5 DUP5 DUP5 PUSH1 0x40 MLOAD PUSH2 0x18E SWAP4 SWAP3 SWAP2 SWAP1 PUSH2 0x5FE JUMP JUMPDEST PUSH1 0x40 MLOAD DUP1 SWAP2 SUB SWAP1 LOG1 DUP3 SELFBALANCE LT ISZERO PUSH2 0x1D9 JUMPI PUSH1 0x40 MLOAD PUSH32 0x8C379A000000000000000000000000000000000000000000000000000000000 DUP2 MSTORE PUSH1 0x4 ADD PUSH2 0x1D0 SWAP1 PUSH2 0x63C JUMP JUMPDEST PUSH1 0x40 MLOAD DUP1 SWAP2 SUB SWAP1 REVERT JUMPDEST PUSH1 0x0 ISZERO ISZERO PUSH2 0x1E5 PUSH2 0x379 JUMP JUMPDEST ISZERO ISZERO EQ ISZERO PUSH2 0x244 JUMPI DUP3 PUSH1 0x1 PUSH1 0x0 CALLER PUSH20 0xFFFFFFFFFFFFFFFFFFFFFFFFFFFFFFFFFFFFFFFF AND PUSH20 0xFFFFFFFFFFFFFFFFFFFFFFFFFFFFFFFFFFFFFFFF AND DUP2 MSTORE PUSH1 0x20 ADD SWAP1 DUP2 MSTORE PUSH1 0x20 ADD PUSH1 0x0 KECCAK256 PUSH1 0x0 DUP3 DUP3 SLOAD PUSH2 0x23C SWAP2 SWAP1 PUSH2 0x77F JUMP JUMPDEST SWAP3 POP POP DUP2 SWAP1 SSTORE POP JUMPDEST DUP4 PUSH20 0xFFFFFFFFFFFFFFFFFFFFFFFFFFFFFFFFFFFFFFFF AND PUSH2 0x8FC DUP5 SWAP1 DUP2 ISZERO MUL SWAP1 PUSH1 0x40 MLOAD PUSH1 0x0 PUSH1 0x40 MLOAD DUP1 DUP4 SUB DUP2 DUP6 DUP9 DUP9 CALL SWAP4 POP POP POP POP ISZERO DUP1 ISZERO PUSH2 0x28A JUMPI RETURNDATASIZE PUSH1 0x0 DUP1 RETURNDATACOPY RETURNDATASIZE PUSH1 0x0 REVERT JUMPDEST POP POP POP POP POP JUMP JUMPDEST CALLER PUSH20 0xFFFFFFFFFFFFFFFFFFFFFFFFFFFFFFFFFFFFFFFF AND PUSH1 0x0 DUP1 SLOAD SWAP1 PUSH2 0x100 EXP SWAP1 DIV PUSH20 0xFFFFFFFFFFFFFFFFFFFFFFFFFFFFFFFFFFFFFFFF AND PUSH20 0xFFFFFFFFFFFFFFFFFFFFFFFFFFFFFFFFFFFFFFFF AND EQ PUSH2 0x31F JUMPI PUSH1 0x40 MLOAD PUSH32 0x8C379A000000000000000000000000000000000000000000000000000000000 DUP2 MSTORE PUSH1 0x4 ADD PUSH2 0x316 SWAP1 PUSH2 0x67C JUMP JUMPDEST PUSH1 0x40 MLOAD DUP1 SWAP2 SUB SWAP1 REVERT JUMPDEST DUP1 PUSH1 0x1 PUSH1 0x0 DUP5 PUSH20 0xFFFFFFFFFFFFFFFFFFFFFFFFFFFFFFFFFFFFFFFF AND PUSH20 0xFFFFFFFFFFFFFFFFFFFFFFFFFFFFFFFFFFFFFFFF AND DUP2 MSTORE PUSH1 0x20 ADD SWAP1 DUP2 MSTORE PUSH1 0x20 ADD PUSH1 0x0 KECCAK256 PUSH1 0x0 DUP3 DUP3 SLOAD PUSH2 0x36E SWAP2 SWAP1 PUSH2 0x729 JUMP JUMPDEST SWAP3 POP POP DUP2 SWAP1 SSTORE POP POP POP JUMP JUMPDEST PUSH1 0x0 CALLER PUSH20 0xFFFFFFFFFFFFFFFFFFFFFFFFFFFFFFFFFFFFFFFF AND PUSH1 0x0 DUP1 SLOAD SWAP1 PUSH2 0x100 EXP SWAP1 DIV PUSH20 0xFFFFFFFFFFFFFFFFFFFFFFFFFFFFFFFFFFFFFFFF AND PUSH20 0xFFFFFFFFFFFFFFFFFFFFFFFFFFFFFFFFFFFFFFFF AND EQ ISZERO PUSH2 0x3D8 JUMPI PUSH1 0x1 SWAP1 POP PUSH2 0x3DD JUMP JUMPDEST PUSH1 0x0 SWAP1 POP JUMPDEST SWAP1 JUMP JUMPDEST PUSH1 0x0 PUSH2 0x3F3 PUSH2 0x3EE DUP5 PUSH2 0x6DC JUMP JUMPDEST PUSH2 0x6B7 JUMP JUMPDEST SWAP1 POP DUP3 DUP2 MSTORE PUSH1 0x20 DUP2 ADD DUP5 DUP5 DUP5 ADD GT ISZERO PUSH2 0x40F JUMPI PUSH2 0x40E PUSH2 0x90D JUMP JUMPDEST JUMPDEST PUSH2 0x41A DUP5 DUP3 DUP6 PUSH2 0x837 JUMP JUMPDEST POP SWAP4 SWAP3 POP POP POP JUMP JUMPDEST PUSH1 0x0 DUP2 CALLDATALOAD SWAP1 POP PUSH2 0x431 DUP2 PUSH2 0x9A8 JUMP JUMPDEST SWAP3 SWAP2 POP POP JUMP JUMPDEST PUSH1 0x0 DUP2 CALLDATALOAD SWAP1 POP PUSH2 0x446 DUP2 PUSH2 0x9BF JUMP JUMPDEST SWAP3 SWAP2 POP POP JUMP JUMPDEST PUSH1 0x0 DUP3 PUSH1 0x1F DUP4 ADD SLT PUSH2 0x461 JUMPI PUSH2 0x460 PUSH2 0x908 JUMP JUMPDEST JUMPDEST DUP2 CALLDATALOAD PUSH2 0x471 DUP5 DUP3 PUSH1 0x20 DUP7 ADD PUSH2 0x3E0 JUMP JUMPDEST SWAP2 POP POP SWAP3 SWAP2 POP POP JUMP JUMPDEST PUSH1 0x0 DUP2 CALLDATALOAD SWAP1 POP PUSH2 0x489 DUP2 PUSH2 0x9D6 JUMP JUMPDEST SWAP3 SWAP2 POP POP JUMP JUMPDEST PUSH1 0x0 DUP1 PUSH1 0x0 PUSH1 0x60 DUP5 DUP7 SUB SLT ISZERO PUSH2 0x4A8 JUMPI PUSH2 0x4A7 PUSH2 0x917 JUMP JUMPDEST JUMPDEST PUSH1 0x0 PUSH2 0x4B6 DUP7 DUP3 DUP8 ADD PUSH2 0x437 JUMP JUMPDEST SWAP4 POP POP PUSH1 0x20 PUSH2 0x4C7 DUP7 DUP3 DUP8 ADD PUSH2 0x47A JUMP JUMPDEST SWAP3 POP POP PUSH1 0x40 DUP5 ADD CALLDATALOAD PUSH8 0xFFFFFFFFFFFFFFFF DUP2 GT ISZERO PUSH2 0x4E8 JUMPI PUSH2 0x4E7 PUSH2 0x912 JUMP JUMPDEST JUMPDEST PUSH2 0x4F4 DUP7 DUP3 DUP8 ADD PUSH2 0x44C JUMP JUMPDEST SWAP2 POP POP SWAP3 POP SWAP3 POP SWAP3 JUMP JUMPDEST PUSH1 0x0 DUP1 PUSH1 0x40 DUP4 DUP6 SUB SLT ISZERO PUSH2 0x515 JUMPI PUSH2 0x514 PUSH2 0x917 JUMP JUMPDEST JUMPDEST PUSH1 0x0 PUSH2 0x523 DUP6 DUP3 DUP7 ADD PUSH2 0x422 JUMP JUMPDEST SWAP3 POP POP PUSH1 0x20 PUSH2 0x534 DUP6 DUP3 DUP7 ADD PUSH2 0x47A JUMP JUMPDEST SWAP2 POP POP SWAP3 POP SWAP3 SWAP1 POP JUMP JUMPDEST PUSH2 0x547 DUP2 PUSH2 0x801 JUMP JUMPDEST DUP3 MSTORE POP POP JUMP JUMPDEST PUSH1 0x0 PUSH2 0x558 DUP3 PUSH2 0x70D JUMP JUMPDEST PUSH2 0x562 DUP2 DUP6 PUSH2 0x718 JUMP JUMPDEST SWAP4 POP PUSH2 0x572 DUP2 DUP6 PUSH1 0x20 DUP7 ADD PUSH2 0x846 JUMP JUMPDEST PUSH2 0x57B DUP2 PUSH2 0x91C JUMP JUMPDEST DUP5 ADD SWAP2 POP POP SWAP3 SWAP2 POP POP JUMP JUMPDEST PUSH1 0x0 PUSH2 0x593 PUSH1 0xF DUP4 PUSH2 0x718 JUMP JUMPDEST SWAP2 POP PUSH2 0x59E DUP3 PUSH2 0x92D JUMP JUMPDEST PUSH1 0x20 DUP3 ADD SWAP1 POP SWAP2 SWAP1 POP JUMP JUMPDEST PUSH1 0x0 PUSH2 0x5B6 PUSH1 0xB DUP4 PUSH2 0x718 JUMP JUMPDEST SWAP2 POP PUSH2 0x5C1 DUP3 PUSH2 0x956 JUMP JUMPDEST PUSH1 0x20 DUP3 ADD SWAP1 POP SWAP2 SWAP1 POP JUMP JUMPDEST PUSH1 0x0 PUSH2 0x5D9 PUSH1 0x11 DUP4 PUSH2 0x718 JUMP JUMPDEST SWAP2 POP PUSH2 0x5E4 DUP3 PUSH2 0x97F JUMP JUMPDEST PUSH1 0x20 DUP3 ADD SWAP1 POP SWAP2 SWAP1 POP JUMP JUMPDEST PUSH2 0x5F8 DUP2 PUSH2 0x7F7 JUMP JUMPDEST DUP3 MSTORE POP POP JUMP JUMPDEST PUSH1 0x0 PUSH1 0x60 DUP3 ADD SWAP1 POP PUSH2 0x613 PUSH1 0x0 DUP4 ADD DUP7 PUSH2 0x53E JUMP JUMPDEST PUSH2 0x620 PUSH1 0x20 DUP4 ADD DUP6 PUSH2 0x5EF JUMP JUMPDEST DUP2 DUP2 SUB PUSH1 0x40 DUP4 ADD MSTORE PUSH2 0x632 DUP2 DUP5 PUSH2 0x54D JUMP JUMPDEST SWAP1 POP SWAP5 SWAP4 POP POP POP POP JUMP JUMPDEST PUSH1 0x0 PUSH1 0x20 DUP3 ADD SWAP1 POP DUP2 DUP2 SUB PUSH1 0x0 DUP4 ADD MSTORE PUSH2 0x655 DUP2 PUSH2 0x586 JUMP JUMPDEST SWAP1 POP SWAP2 SWAP1 POP JUMP JUMPDEST PUSH1 0x0 PUSH1 0x20 DUP3 ADD SWAP1 POP DUP2 DUP2 SUB PUSH1 0x0 DUP4 ADD MSTORE PUSH2 0x675 DUP2 PUSH2 0x5A9 JUMP JUMPDEST SWAP1 POP SWAP2 SWAP1 POP JUMP JUMPDEST PUSH1 0x0 PUSH1 0x20 DUP3 ADD SWAP1 POP DUP2 DUP2 SUB PUSH1 0x0 DUP4 ADD MSTORE PUSH2 0x695 DUP2 PUSH2 0x5CC JUMP JUMPDEST SWAP1 POP SWAP2 SWAP1 POP JUMP JUMPDEST PUSH1 0x0 PUSH1 0x20 DUP3 ADD SWAP1 POP PUSH2 0x6B1 PUSH1 0x0 DUP4 ADD DUP5 PUSH2 0x5EF JUMP JUMPDEST SWAP3 SWAP2 POP POP JUMP JUMPDEST PUSH1 0x0 PUSH2 0x6C1 PUSH2 0x6D2 JUMP JUMPDEST SWAP1 POP PUSH2 0x6CD DUP3 DUP3 PUSH2 0x879 JUMP JUMPDEST SWAP2 SWAP1 POP JUMP JUMPDEST PUSH1 0x0 PUSH1 0x40 MLOAD SWAP1 POP SWAP1 JUMP JUMPDEST PUSH1 0x0 PUSH8 0xFFFFFFFFFFFFFFFF DUP3 GT ISZERO PUSH2 0x6F7 JUMPI PUSH2 0x6F6 PUSH2 0x8D9 JUMP JUMPDEST JUMPDEST PUSH2 0x700 DUP3 PUSH2 0x91C JUMP JUMPDEST SWAP1 POP PUSH1 0x20 DUP2 ADD SWAP1 POP SWAP2 SWAP1 POP JUMP JUMPDEST PUSH1 0x0 DUP2 MLOAD SWAP1 POP SWAP2 SWAP1 POP JUMP JUMPDEST PUSH1 0x0 DUP3 DUP3 MSTORE PUSH1 0x20 DUP3 ADD SWAP1 POP SWAP3 SWAP2 POP POP JUMP JUMPDEST PUSH1 0x0 PUSH2 0x734 DUP3 PUSH2 0x7F7 JUMP JUMPDEST SWAP2 POP PUSH2 0x73F DUP4 PUSH2 0x7F7 JUMP JUMPDEST SWAP3 POP DUP3 PUSH32 0xFFFFFFFFFFFFFFFFFFFFFFFFFFFFFFFFFFFFFFFFFFFFFFFFFFFFFFFFFFFFFFFF SUB DUP3 GT ISZERO PUSH2 0x774 JUMPI PUSH2 0x773 PUSH2 0x8AA JUMP JUMPDEST JUMPDEST DUP3 DUP3 ADD SWAP1 POP SWAP3 SWAP2 POP POP JUMP JUMPDEST PUSH1 0x0 PUSH2 0x78A DUP3 PUSH2 0x7F7 JUMP JUMPDEST SWAP2 POP PUSH2 0x795 DUP4 PUSH2 0x7F7 JUMP JUMPDEST SWAP3 POP DUP3 DUP3 LT ISZERO PUSH2 0x7A8 JUMPI PUSH2 0x7A7 PUSH2 0x8AA JUMP JUMPDEST JUMPDEST DUP3 DUP3 SUB SWAP1 POP SWAP3 SWAP2 POP POP JUMP JUMPDEST PUSH1 0x0 PUSH2 0x7BE DUP3 PUSH2 0x7D7 JUMP JUMPDEST SWAP1 POP SWAP2 SWAP1 POP JUMP JUMPDEST PUSH1 0x0 PUSH2 0x7D0 DUP3 PUSH2 0x7D7 JUMP JUMPDEST SWAP1 POP SWAP2 SWAP1 POP JUMP JUMPDEST PUSH1 0x0 PUSH20 0xFFFFFFFFFFFFFFFFFFFFFFFFFFFFFFFFFFFFFFFF DUP3 AND SWAP1 POP SWAP2 SWAP1 POP JUMP JUMPDEST PUSH1 0x0 DUP2 SWAP1 POP SWAP2 SWAP1 POP JUMP JUMPDEST PUSH1 0x0 PUSH2 0x80C DUP3 PUSH2 0x813 JUMP JUMPDEST SWAP1 POP SWAP2 SWAP1 POP JUMP JUMPDEST PUSH1 0x0 PUSH2 0x81E DUP3 PUSH2 0x825 JUMP JUMPDEST SWAP1 POP SWAP2 SWAP1 POP JUMP JUMPDEST PUSH1 0x0 PUSH2 0x830 DUP3 PUSH2 0x7D7 JUMP JUMPDEST SWAP1 POP SWAP2 SWAP1 POP JUMP JUMPDEST DUP3 DUP2 DUP4 CALLDATACOPY PUSH1 0x0 DUP4 DUP4 ADD MSTORE POP POP POP JUMP JUMPDEST PUSH1 0x0 JUMPDEST DUP4 DUP2 LT ISZERO PUSH2 0x864 JUMPI DUP1 DUP3 ADD MLOAD DUP2 DUP5 ADD MSTORE PUSH1 0x20 DUP2 ADD SWAP1 POP PUSH2 0x849 JUMP JUMPDEST DUP4 DUP2 GT ISZERO PUSH2 0x873 JUMPI PUSH1 0x0 DUP5 DUP5 ADD MSTORE JUMPDEST POP POP POP POP JUMP JUMPDEST PUSH2 0x882 DUP3 PUSH2 0x91C JUMP JUMPDEST DUP2 ADD DUP2 DUP2 LT PUSH8 0xFFFFFFFFFFFFFFFF DUP3 GT OR ISZERO PUSH2 0x8A1 JUMPI PUSH2 0x8A0 PUSH2 0x8D9 JUMP JUMPDEST JUMPDEST DUP1 PUSH1 0x40 MSTORE POP POP POP JUMP JUMPDEST PUSH32 0x4E487B7100000000000000000000000000000000000000000000000000000000 PUSH1 0x0 MSTORE PUSH1 0x11 PUSH1 0x4 MSTORE PUSH1 0x24 PUSH1 0x0 REVERT JUMPDEST PUSH32 0x4E487B7100000000000000000000000000000000000000000000000000000000 PUSH1 0x0 MSTORE PUSH1 0x41 PUSH1 0x4 MSTORE PUSH1 0x24 PUSH1 0x0 REVERT JUMPDEST PUSH1 0x0 DUP1 REVERT JUMPDEST PUSH1 0x0 DUP1 REVERT JUMPDEST PUSH1 0x0 DUP1 REVERT JUMPDEST PUSH1 0x0 DUP1 REVERT JUMPDEST PUSH1 0x0 PUSH1 0x1F NOT PUSH1 0x1F DUP4 ADD AND SWAP1 POP SWAP2 SWAP1 POP JUMP JUMPDEST PUSH32 0x4E6F20656E6F7567682066756E64730000000000000000000000000000000000 PUSH1 0x0 DUP3 ADD MSTORE POP JUMP JUMPDEST PUSH32 0x4E6F7420416C6C6F776564000000000000000000000000000000000000000000 PUSH1 0x0 DUP3 ADD MSTORE POP JUMP JUMPDEST PUSH32 0x596F7520617265206E6F74206F776E6572000000000000000000000000000000 PUSH1 0x0 DUP3 ADD MSTORE POP JUMP JUMPDEST PUSH2 0x9B1 DUP2 PUSH2 0x7B3 JUMP JUMPDEST DUP2 EQ PUSH2 0x9BC JUMPI PUSH1 0x0 DUP1 REVERT JUMPDEST POP JUMP JUMPDEST PUSH2 0x9C8 DUP2 PUSH2 0x7C5 JUMP JUMPDEST DUP2 EQ PUSH2 0x9D3 JUMPI PUSH1 0x0 DUP1 REVERT JUMPDEST POP JUMP JUMPDEST PUSH2 0x9DF DUP2 PUSH2 0x7F7 JUMP JUMPDEST DUP2 EQ PUSH2 0x9EA JUMPI PUSH1 0x0 DUP1 REVERT JUMPDEST POP JUMP INVALID LOG2 PUSH5 0x6970667358 0x22 SLT KECCAK256 0xCC DUP4 PUSH3 0x836FFE GAS 0xC8 EXTCODEHASH CODECOPY 0xB2 0xD2 CALLVALUE 0x2C 0xC3 0xF8 OR 0xE4 0xE 0xCC SELFBALANCE SWAP9 DUP12 0xAC PUSH20 0x4966C406A61DD664736F6C634300080700330000 "
				},
				"gasEstimates": {
					"creation": {
						"codeDepositCost": "519000",
						"executionCost": "24822",
						"totalCost": "543822"
					},
					"external": {
						"BALANCE()": "317",
						"addAllowance(address,uint256)": "infinite",
						"withdrawMoney(address,uint256,string)": "infinite"
					},
					"internal": {
						"isOwner()": "2204"
					}
				},
				"methodIdentifiers": {
					"BALANCE()": "15e9977e",
					"addAllowance(address,uint256)": "f3c40c4b",
					"withdrawMoney(address,uint256,string)": "3495e901"
				}
			},
			"storageLayout": {
				"storage": [
					{
						"astId": 3,
						"contract": "Allowance.sol:main",
						"label": "owner",
						"offset": 0,
						"slot": "0",
						"type": "t_address"
					},
					{
						"astId": 7,
						"contract": "Allowance.sol:main",
						"label": "allowance",
						"offset": 0,
						"slot": "1",
						"type": "t_mapping(t_address,t_uint256)"
					}
				],
				"types": {
					"t_address": {
						"encoding": "inplace",
						"label": "address",
						"numberOfBytes": "20"
					},
					"t_mapping(t_address,t_uint256)": {
						"encoding": "mapping",
						"key": "t_address",
						"label": "mapping(address => uint256)",
						"numberOfBytes": "32",
						"value": "t_uint256"
					},
					"t_uint256": {
						"encoding": "inplace",
						"label": "uint256",
						"numberOfBytes": "32"
					}
				}
			},
			"userdoc": {
				"kind": "user",
				"methods": {},
				"version": 1
			}
		}
	}
}