{
	"data": {
		"bytecode": {
			"linkReferences": {},
			"object": "608060405234801561001057600080fd5b50336000806101000a81548173ffffffffffffffffffffffffffffffffffffffff021916908373ffffffffffffffffffffffffffffffffffffffff160217905550610be3806100606000396000f3fe6080604052600436106100435760003560e01c806315e9977e1461004f5780633495e9011461007a5780633e5beab9146100a3578063f3c40c4b146100e05761004a565b3661004a57005b600080fd5b34801561005b57600080fd5b50610064610109565b6040516100719190610833565b60405180910390f35b34801561008657600080fd5b506100a1600480360381019061009c91906105e3565b610111565b005b3480156100af57600080fd5b506100ca60048036038101906100c591906105b6565b610311565b6040516100d79190610833565b60405180910390f35b3480156100ec57600080fd5b5061010760048036038101906101029190610652565b610329565b005b600047905090565b8161011a6104a0565b80610164575080600160003373ffffffffffffffffffffffffffffffffffffffff1673ffffffffffffffffffffffffffffffffffffffff1681526020019081526020016000205410155b6101a3576040517f08c379a000000000000000000000000000000000000000000000000000000000815260040161019a906107f3565b60405180910390fd5b7fa1f2e8aa7ff0c088860d7b3f0d1dc288d8e8a07808525cc31a5691f1bc0e149d8484846040516101d693929190610775565b60405180910390a182471015610221576040517f08c379a0000000000000000000000000000000000000000000000000000000008152600401610218906107b3565b60405180910390fd5b6000151561022d6104a0565b151514156102c45782600160003373ffffffffffffffffffffffffffffffffffffffff1673ffffffffffffffffffffffffffffffffffffffff168152602001908152602001600020546102809190610916565b600160003373ffffffffffffffffffffffffffffffffffffffff1673ffffffffffffffffffffffffffffffffffffffff168152602001908152602001600020819055505b8373ffffffffffffffffffffffffffffffffffffffff166108fc849081150290604051600060405180830381858888f1935050505015801561030a573d6000803e3d6000fd5b5050505050565b60016020528060005260406000206000915090505481565b3373ffffffffffffffffffffffffffffffffffffffff1660008054906101000a900473ffffffffffffffffffffffffffffffffffffffff1673ffffffffffffffffffffffffffffffffffffffff16146103b7576040517f08c379a00000000000000000000000000000000000000000000000000000000081526004016103ae90610813565b60405180910390fd5b60008054906101000a900473ffffffffffffffffffffffffffffffffffffffff1673ffffffffffffffffffffffffffffffffffffffff168273ffffffffffffffffffffffffffffffffffffffff161415610446576040517f08c379a000000000000000000000000000000000000000000000000000000000815260040161043d906107d3565b60405180910390fd5b80600160008473ffffffffffffffffffffffffffffffffffffffff1673ffffffffffffffffffffffffffffffffffffffff168152602001908152602001600020600082825461049591906108c0565b925050819055505050565b60003373ffffffffffffffffffffffffffffffffffffffff1660008054906101000a900473ffffffffffffffffffffffffffffffffffffffff1673ffffffffffffffffffffffffffffffffffffffff1614156104ff5760019050610504565b600090505b90565b600061051a61051584610873565b61084e565b90508281526020810184848401111561053657610535610aa4565b5b6105418482856109ce565b509392505050565b60008135905061055881610b68565b92915050565b60008135905061056d81610b7f565b92915050565b600082601f83011261058857610587610a9f565b5b8135610598848260208601610507565b91505092915050565b6000813590506105b081610b96565b92915050565b6000602082840312156105cc576105cb610aae565b5b60006105da84828501610549565b91505092915050565b6000806000606084860312156105fc576105fb610aae565b5b600061060a8682870161055e565b935050602061061b868287016105a1565b925050604084013567ffffffffffffffff81111561063c5761063b610aa9565b5b61064886828701610573565b9150509250925092565b6000806040838503121561066957610668610aae565b5b600061067785828601610549565b9250506020610688858286016105a1565b9150509250929050565b61069b81610998565b82525050565b60006106ac826108a4565b6106b681856108af565b93506106c68185602086016109dd565b6106cf81610ab3565b840191505092915050565b60006106e7600f836108af565b91506106f282610ac4565b602082019050919050565b600061070a600d836108af565b915061071582610aed565b602082019050919050565b600061072d600b836108af565b915061073882610b16565b602082019050919050565b60006107506011836108af565b915061075b82610b3f565b602082019050919050565b61076f8161098e565b82525050565b600060608201905061078a6000830186610692565b6107976020830185610766565b81810360408301526107a981846106a1565b9050949350505050565b600060208201905081810360008301526107cc816106da565b9050919050565b600060208201905081810360008301526107ec816106fd565b9050919050565b6000602082019050818103600083015261080c81610720565b9050919050565b6000602082019050818103600083015261082c81610743565b9050919050565b60006020820190506108486000830184610766565b92915050565b6000610858610869565b90506108648282610a10565b919050565b6000604051905090565b600067ffffffffffffffff82111561088e5761088d610a70565b5b61089782610ab3565b9050602081019050919050565b600081519050919050565b600082825260208201905092915050565b60006108cb8261098e565b91506108d68361098e565b9250827fffffffffffffffffffffffffffffffffffffffffffffffffffffffffffffffff0382111561090b5761090a610a41565b5b828201905092915050565b60006109218261098e565b915061092c8361098e565b92508282101561093f5761093e610a41565b5b828203905092915050565b60006109558261096e565b9050919050565b60006109678261096e565b9050919050565b600073ffffffffffffffffffffffffffffffffffffffff82169050919050565b6000819050919050565b60006109a3826109aa565b9050919050565b60006109b5826109bc565b9050919050565b60006109c78261096e565b9050919050565b82818337600083830152505050565b60005b838110156109fb5780820151818401526020810190506109e0565b83811115610a0a576000848401525b50505050565b610a1982610ab3565b810181811067ffffffffffffffff82111715610a3857610a37610a70565b5b80604052505050565b7f4e487b7100000000000000000000000000000000000000000000000000000000600052601160045260246000fd5b7f4e487b7100000000000000000000000000000000000000000000000000000000600052604160045260246000fd5b600080fd5b600080fd5b600080fd5b600080fd5b6000601f19601f8301169050919050565b7f4e6f20656e6f7567682066756e64730000000000000000000000000000000000600082015250565b7f596f7520617265206f776e657200000000000000000000000000000000000000600082015250565b7f4e6f7420416c6c6f776564000000000000000000000000000000000000000000600082015250565b7f596f7520617265206e6f74206f776e6572000000000000000000000000000000600082015250565b610b718161094a565b8114610b7c57600080fd5b50565b610b888161095c565b8114610b9357600080fd5b50565b610b9f8161098e565b8114610baa57600080fd5b5056fea2646970667358221220ef06d020a482da38702aafaa0b10ecc9517e8b9808632907f7a75a58a612aa7164736f6c63430008070033",
			"opcodes": "PUSH1 0x80 PUSH1 0x40 MSTORE CALLVALUE DUP1 ISZERO PUSH2 0x10 JUMPI PUSH1 0x0 DUP1 REVERT JUMPDEST POP CALLER PUSH1 0x0 DUP1 PUSH2 0x100 EXP DUP2 SLOAD DUP2 PUSH20 0xFFFFFFFFFFFFFFFFFFFFFFFFFFFFFFFFFFFFFFFF MUL NOT AND SWAP1 DUP4 PUSH20 0xFFFFFFFFFFFFFFFFFFFFFFFFFFFFFFFFFFFFFFFF AND MUL OR SWAP1 SSTORE POP PUSH2 0xBE3 DUP1 PUSH2 0x60 PUSH1 0x0 CODECOPY PUSH1 0x0 RETURN INVALID PUSH1 0x80 PUSH1 0x40 MSTORE PUSH1 0x4 CALLDATASIZE LT PUSH2 0x43 JUMPI PUSH1 0x0 CALLDATALOAD PUSH1 0xE0 SHR DUP1 PUSH4 0x15E9977E EQ PUSH2 0x4F JUMPI DUP1 PUSH4 0x3495E901 EQ PUSH2 0x7A JUMPI DUP1 PUSH4 0x3E5BEAB9 EQ PUSH2 0xA3 JUMPI DUP1 PUSH4 0xF3C40C4B EQ PUSH2 0xE0 JUMPI PUSH2 0x4A JUMP JUMPDEST CALLDATASIZE PUSH2 0x4A JUMPI STOP JUMPDEST PUSH1 0x0 DUP1 REVERT JUMPDEST CALLVALUE DUP1 ISZERO PUSH2 0x5B JUMPI PUSH1 0x0 DUP1 REVERT JUMPDEST POP PUSH2 0x64 PUSH2 0x109 JUMP JUMPDEST PUSH1 0x40 MLOAD PUSH2 0x71 SWAP2 SWAP1 PUSH2 0x833 JUMP JUMPDEST PUSH1 0x40 MLOAD DUP1 SWAP2 SUB SWAP1 RETURN JUMPDEST CALLVALUE DUP1 ISZERO PUSH2 0x86 JUMPI PUSH1 0x0 DUP1 REVERT JUMPDEST POP PUSH2 0xA1 PUSH1 0x4 DUP1 CALLDATASIZE SUB DUP2 ADD SWAP1 PUSH2 0x9C SWAP2 SWAP1 PUSH2 0x5E3 JUMP JUMPDEST PUSH2 0x111 JUMP JUMPDEST STOP JUMPDEST CALLVALUE DUP1 ISZERO PUSH2 0xAF JUMPI PUSH1 0x0 DUP1 REVERT JUMPDEST POP PUSH2 0xCA PUSH1 0x4 DUP1 CALLDATASIZE SUB DUP2 ADD SWAP1 PUSH2 0xC5 SWAP2 SWAP1 PUSH2 0x5B6 JUMP JUMPDEST PUSH2 0x311 JUMP JUMPDEST PUSH1 0x40 MLOAD PUSH2 0xD7 SWAP2 SWAP1 PUSH2 0x833 JUMP JUMPDEST PUSH1 0x40 MLOAD DUP1 SWAP2 SUB SWAP1 RETURN JUMPDEST CALLVALUE DUP1 ISZERO PUSH2 0xEC JUMPI PUSH1 0x0 DUP1 REVERT JUMPDEST POP PUSH2 0x107 PUSH1 0x4 DUP1 CALLDATASIZE SUB DUP2 ADD SWAP1 PUSH2 0x102 SWAP2 SWAP1 PUSH2 0x652 JUMP JUMPDEST PUSH2 0x329 JUMP JUMPDEST STOP JUMPDEST PUSH1 0x0 SELFBALANCE SWAP1 POP SWAP1 JUMP JUMPDEST DUP2 PUSH2 0x11A PUSH2 0x4A0 JUMP JUMPDEST DUP1 PUSH2 0x164 JUMPI POP DUP1 PUSH1 0x1 PUSH1 0x0 CALLER PUSH20 0xFFFFFFFFFFFFFFFFFFFFFFFFFFFFFFFFFFFFFFFF AND PUSH20 0xFFFFFFFFFFFFFFFFFFFFFFFFFFFFFFFFFFFFFFFF AND DUP2 MSTORE PUSH1 0x20 ADD SWAP1 DUP2 MSTORE PUSH1 0x20 ADD PUSH1 0x0 KECCAK256 SLOAD LT ISZERO JUMPDEST PUSH2 0x1A3 JUMPI PUSH1 0x40 MLOAD PUSH32 0x8C379A000000000000000000000000000000000000000000000000000000000 DUP2 MSTORE PUSH1 0x4 ADD PUSH2 0x19A SWAP1 PUSH2 0x7F3 JUMP JUMPDEST PUSH1 0x40 MLOAD DUP1 SWAP2 SUB SWAP1 REVERT JUMPDEST PUSH32 0xA1F2E8AA7FF0C088860D7B3F0D1DC288D8E8A07808525CC31A5691F1BC0E149D DUP5 DUP5 DUP5 PUSH1 0x40 MLOAD PUSH2 0x1D6 SWAP4 SWAP3 SWAP2 SWAP1 PUSH2 0x775 JUMP JUMPDEST PUSH1 0x40 MLOAD DUP1 SWAP2 SUB SWAP1 LOG1 DUP3 SELFBALANCE LT ISZERO PUSH2 0x221 JUMPI PUSH1 0x40 MLOAD PUSH32 0x8C379A000000000000000000000000000000000000000000000000000000000 DUP2 MSTORE PUSH1 0x4 ADD PUSH2 0x218 SWAP1 PUSH2 0x7B3 JUMP JUMPDEST PUSH1 0x40 MLOAD DUP1 SWAP2 SUB SWAP1 REVERT JUMPDEST PUSH1 0x0 ISZERO ISZERO PUSH2 0x22D PUSH2 0x4A0 JUMP JUMPDEST ISZERO ISZERO EQ ISZERO PUSH2 0x2C4 JUMPI DUP3 PUSH1 0x1 PUSH1 0x0 CALLER PUSH20 0xFFFFFFFFFFFFFFFFFFFFFFFFFFFFFFFFFFFFFFFF AND PUSH20 0xFFFFFFFFFFFFFFFFFFFFFFFFFFFFFFFFFFFFFFFF AND DUP2 MSTORE PUSH1 0x20 ADD SWAP1 DUP2 MSTORE PUSH1 0x20 ADD PUSH1 0x0 KECCAK256 SLOAD PUSH2 0x280 SWAP2 SWAP1 PUSH2 0x916 JUMP JUMPDEST PUSH1 0x1 PUSH1 0x0 CALLER PUSH20 0xFFFFFFFFFFFFFFFFFFFFFFFFFFFFFFFFFFFFFFFF AND PUSH20 0xFFFFFFFFFFFFFFFFFFFFFFFFFFFFFFFFFFFFFFFF AND DUP2 MSTORE PUSH1 0x20 ADD SWAP1 DUP2 MSTORE PUSH1 0x20 ADD PUSH1 0x0 KECCAK256 DUP2 SWAP1 SSTORE POP JUMPDEST DUP4 PUSH20 0xFFFFFFFFFFFFFFFFFFFFFFFFFFFFFFFFFFFFFFFF AND PUSH2 0x8FC DUP5 SWAP1 DUP2 ISZERO MUL SWAP1 PUSH1 0x40 MLOAD PUSH1 0x0 PUSH1 0x40 MLOAD DUP1 DUP4 SUB DUP2 DUP6 DUP9 DUP9 CALL SWAP4 POP POP POP POP ISZERO DUP1 ISZERO PUSH2 0x30A JUMPI RETURNDATASIZE PUSH1 0x0 DUP1 RETURNDATACOPY RETURNDATASIZE PUSH1 0x0 REVERT JUMPDEST POP POP POP POP POP JUMP JUMPDEST PUSH1 0x1 PUSH1 0x20 MSTORE DUP1 PUSH1 0x0 MSTORE PUSH1 0x40 PUSH1 0x0 KECCAK256 PUSH1 0x0 SWAP2 POP SWAP1 POP SLOAD DUP2 JUMP JUMPDEST CALLER PUSH20 0xFFFFFFFFFFFFFFFFFFFFFFFFFFFFFFFFFFFFFFFF AND PUSH1 0x0 DUP1 SLOAD SWAP1 PUSH2 0x100 EXP SWAP1 DIV PUSH20 0xFFFFFFFFFFFFFFFFFFFFFFFFFFFFFFFFFFFFFFFF AND PUSH20 0xFFFFFFFFFFFFFFFFFFFFFFFFFFFFFFFFFFFFFFFF AND EQ PUSH2 0x3B7 JUMPI PUSH1 0x40 MLOAD PUSH32 0x8C379A000000000000000000000000000000000000000000000000000000000 DUP2 MSTORE PUSH1 0x4 ADD PUSH2 0x3AE SWAP1 PUSH2 0x813 JUMP JUMPDEST PUSH1 0x40 MLOAD DUP1 SWAP2 SUB SWAP1 REVERT JUMPDEST PUSH1 0x0 DUP1 SLOAD SWAP1 PUSH2 0x100 EXP SWAP1 DIV PUSH20 0xFFFFFFFFFFFFFFFFFFFFFFFFFFFFFFFFFFFFFFFF AND PUSH20 0xFFFFFFFFFFFFFFFFFFFFFFFFFFFFFFFFFFFFFFFF AND DUP3 PUSH20 0xFFFFFFFFFFFFFFFFFFFFFFFFFFFFFFFFFFFFFFFF AND EQ ISZERO PUSH2 0x446 JUMPI PUSH1 0x40 MLOAD PUSH32 0x8C379A000000000000000000000000000000000000000000000000000000000 DUP2 MSTORE PUSH1 0x4 ADD PUSH2 0x43D SWAP1 PUSH2 0x7D3 JUMP JUMPDEST PUSH1 0x40 MLOAD DUP1 SWAP2 SUB SWAP1 REVERT JUMPDEST DUP1 PUSH1 0x1 PUSH1 0x0 DUP5 PUSH20 0xFFFFFFFFFFFFFFFFFFFFFFFFFFFFFFFFFFFFFFFF AND PUSH20 0xFFFFFFFFFFFFFFFFFFFFFFFFFFFFFFFFFFFFFFFF AND DUP2 MSTORE PUSH1 0x20 ADD SWAP1 DUP2 MSTORE PUSH1 0x20 ADD PUSH1 0x0 KECCAK256 PUSH1 0x0 DUP3 DUP3 SLOAD PUSH2 0x495 SWAP2 SWAP1 PUSH2 0x8C0 JUMP JUMPDEST SWAP3 POP POP DUP2 SWAP1 SSTORE POP POP POP JUMP JUMPDEST PUSH1 0x0 CALLER PUSH20 0xFFFFFFFFFFFFFFFFFFFFFFFFFFFFFFFFFFFFFFFF AND PUSH1 0x0 DUP1 SLOAD SWAP1 PUSH2 0x100 EXP SWAP1 DIV PUSH20 0xFFFFFFFFFFFFFFFFFFFFFFFFFFFFFFFFFFFFFFFF AND PUSH20 0xFFFFFFFFFFFFFFFFFFFFFFFFFFFFFFFFFFFFFFFF AND EQ ISZERO PUSH2 0x4FF JUMPI PUSH1 0x1 SWAP1 POP PUSH2 0x504 JUMP JUMPDEST PUSH1 0x0 SWAP1 POP JUMPDEST SWAP1 JUMP JUMPDEST PUSH1 0x0 PUSH2 0x51A PUSH2 0x515 DUP5 PUSH2 0x873 JUMP JUMPDEST PUSH2 0x84E JUMP JUMPDEST SWAP1 POP DUP3 DUP2 MSTORE PUSH1 0x20 DUP2 ADD DUP5 DUP5 DUP5 ADD GT ISZERO PUSH2 0x536 JUMPI PUSH2 0x535 PUSH2 0xAA4 JUMP JUMPDEST JUMPDEST PUSH2 0x541 DUP5 DUP3 DUP6 PUSH2 0x9CE JUMP JUMPDEST POP SWAP4 SWAP3 POP POP POP JUMP JUMPDEST PUSH1 0x0 DUP2 CALLDATALOAD SWAP1 POP PUSH2 0x558 DUP2 PUSH2 0xB68 JUMP JUMPDEST SWAP3 SWAP2 POP POP JUMP JUMPDEST PUSH1 0x0 DUP2 CALLDATALOAD SWAP1 POP PUSH2 0x56D DUP2 PUSH2 0xB7F JUMP JUMPDEST SWAP3 SWAP2 POP POP JUMP JUMPDEST PUSH1 0x0 DUP3 PUSH1 0x1F DUP4 ADD SLT PUSH2 0x588 JUMPI PUSH2 0x587 PUSH2 0xA9F JUMP JUMPDEST JUMPDEST DUP2 CALLDATALOAD PUSH2 0x598 DUP5 DUP3 PUSH1 0x20 DUP7 ADD PUSH2 0x507 JUMP JUMPDEST SWAP2 POP POP SWAP3 SWAP2 POP POP JUMP JUMPDEST PUSH1 0x0 DUP2 CALLDATALOAD SWAP1 POP PUSH2 0x5B0 DUP2 PUSH2 0xB96 JUMP JUMPDEST SWAP3 SWAP2 POP POP JUMP JUMPDEST PUSH1 0x0 PUSH1 0x20 DUP3 DUP5 SUB SLT ISZERO PUSH2 0x5CC JUMPI PUSH2 0x5CB PUSH2 0xAAE JUMP JUMPDEST JUMPDEST PUSH1 0x0 PUSH2 0x5DA DUP5 DUP3 DUP6 ADD PUSH2 0x549 JUMP JUMPDEST SWAP2 POP POP SWAP3 SWAP2 POP POP JUMP JUMPDEST PUSH1 0x0 DUP1 PUSH1 0x0 PUSH1 0x60 DUP5 DUP7 SUB SLT ISZERO PUSH2 0x5FC JUMPI PUSH2 0x5FB PUSH2 0xAAE JUMP JUMPDEST JUMPDEST PUSH1 0x0 PUSH2 0x60A DUP7 DUP3 DUP8 ADD PUSH2 0x55E JUMP JUMPDEST SWAP4 POP POP PUSH1 0x20 PUSH2 0x61B DUP7 DUP3 DUP8 ADD PUSH2 0x5A1 JUMP JUMPDEST SWAP3 POP POP PUSH1 0x40 DUP5 ADD CALLDATALOAD PUSH8 0xFFFFFFFFFFFFFFFF DUP2 GT ISZERO PUSH2 0x63C JUMPI PUSH2 0x63B PUSH2 0xAA9 JUMP JUMPDEST JUMPDEST PUSH2 0x648 DUP7 DUP3 DUP8 ADD PUSH2 0x573 JUMP JUMPDEST SWAP2 POP POP SWAP3 POP SWAP3 POP SWAP3 JUMP JUMPDEST PUSH1 0x0 DUP1 PUSH1 0x40 DUP4 DUP6 SUB SLT ISZERO PUSH2 0x669 JUMPI PUSH2 0x668 PUSH2 0xAAE JUMP JUMPDEST JUMPDEST PUSH1 0x0 PUSH2 0x677 DUP6 DUP3 DUP7 ADD PUSH2 0x549 JUMP JUMPDEST SWAP3 POP POP PUSH1 0x20 PUSH2 0x688 DUP6 DUP3 DUP7 ADD PUSH2 0x5A1 JUMP JUMPDEST SWAP2 POP POP SWAP3 POP SWAP3 SWAP1 POP JUMP JUMPDEST PUSH2 0x69B DUP2 PUSH2 0x998 JUMP JUMPDEST DUP3 MSTORE POP POP JUMP JUMPDEST PUSH1 0x0 PUSH2 0x6AC DUP3 PUSH2 0x8A4 JUMP JUMPDEST PUSH2 0x6B6 DUP2 DUP6 PUSH2 0x8AF JUMP JUMPDEST SWAP4 POP PUSH2 0x6C6 DUP2 DUP6 PUSH1 0x20 DUP7 ADD PUSH2 0x9DD JUMP JUMPDEST PUSH2 0x6CF DUP2 PUSH2 0xAB3 JUMP JUMPDEST DUP5 ADD SWAP2 POP POP SWAP3 SWAP2 POP POP JUMP JUMPDEST PUSH1 0x0 PUSH2 0x6E7 PUSH1 0xF DUP4 PUSH2 0x8AF JUMP JUMPDEST SWAP2 POP PUSH2 0x6F2 DUP3 PUSH2 0xAC4 JUMP JUMPDEST PUSH1 0x20 DUP3 ADD SWAP1 POP SWAP2 SWAP1 POP JUMP JUMPDEST PUSH1 0x0 PUSH2 0x70A PUSH1 0xD DUP4 PUSH2 0x8AF JUMP JUMPDEST SWAP2 POP PUSH2 0x715 DUP3 PUSH2 0xAED JUMP JUMPDEST PUSH1 0x20 DUP3 ADD SWAP1 POP SWAP2 SWAP1 POP JUMP JUMPDEST PUSH1 0x0 PUSH2 0x72D PUSH1 0xB DUP4 PUSH2 0x8AF JUMP JUMPDEST SWAP2 POP PUSH2 0x738 DUP3 PUSH2 0xB16 JUMP JUMPDEST PUSH1 0x20 DUP3 ADD SWAP1 POP SWAP2 SWAP1 POP JUMP JUMPDEST PUSH1 0x0 PUSH2 0x750 PUSH1 0x11 DUP4 PUSH2 0x8AF JUMP JUMPDEST SWAP2 POP PUSH2 0x75B DUP3 PUSH2 0xB3F JUMP JUMPDEST PUSH1 0x20 DUP3 ADD SWAP1 POP SWAP2 SWAP1 POP JUMP JUMPDEST PUSH2 0x76F DUP2 PUSH2 0x98E JUMP JUMPDEST DUP3 MSTORE POP POP JUMP JUMPDEST PUSH1 0x0 PUSH1 0x60 DUP3 ADD SWAP1 POP PUSH2 0x78A PUSH1 0x0 DUP4 ADD DUP7 PUSH2 0x692 JUMP JUMPDEST PUSH2 0x797 PUSH1 0x20 DUP4 ADD DUP6 PUSH2 0x766 JUMP JUMPDEST DUP2 DUP2 SUB PUSH1 0x40 DUP4 ADD MSTORE PUSH2 0x7A9 DUP2 DUP5 PUSH2 0x6A1 JUMP JUMPDEST SWAP1 POP SWAP5 SWAP4 POP POP POP POP JUMP JUMPDEST PUSH1 0x0 PUSH1 0x20 DUP3 ADD SWAP1 POP DUP2 DUP2 SUB PUSH1 0x0 DUP4 ADD MSTORE PUSH2 0x7CC DUP2 PUSH2 0x6DA JUMP JUMPDEST SWAP1 POP SWAP2 SWAP1 POP JUMP JUMPDEST PUSH1 0x0 PUSH1 0x20 DUP3 ADD SWAP1 POP DUP2 DUP2 SUB PUSH1 0x0 DUP4 ADD MSTORE PUSH2 0x7EC DUP2 PUSH2 0x6FD JUMP JUMPDEST SWAP1 POP SWAP2 SWAP1 POP JUMP JUMPDEST PUSH1 0x0 PUSH1 0x20 DUP3 ADD SWAP1 POP DUP2 DUP2 SUB PUSH1 0x0 DUP4 ADD MSTORE PUSH2 0x80C DUP2 PUSH2 0x720 JUMP JUMPDEST SWAP1 POP SWAP2 SWAP1 POP JUMP JUMPDEST PUSH1 0x0 PUSH1 0x20 DUP3 ADD SWAP1 POP DUP2 DUP2 SUB PUSH1 0x0 DUP4 ADD MSTORE PUSH2 0x82C DUP2 PUSH2 0x743 JUMP JUMPDEST SWAP1 POP SWAP2 SWAP1 POP JUMP JUMPDEST PUSH1 0x0 PUSH1 0x20 DUP3 ADD SWAP1 POP PUSH2 0x848 PUSH1 0x0 DUP4 ADD DUP5 PUSH2 0x766 JUMP JUMPDEST SWAP3 SWAP2 POP POP JUMP JUMPDEST PUSH1 0x0 PUSH2 0x858 PUSH2 0x869 JUMP JUMPDEST SWAP1 POP PUSH2 0x864 DUP3 DUP3 PUSH2 0xA10 JUMP JUMPDEST SWAP2 SWAP1 POP JUMP JUMPDEST PUSH1 0x0 PUSH1 0x40 MLOAD SWAP1 POP SWAP1 JUMP JUMPDEST PUSH1 0x0 PUSH8 0xFFFFFFFFFFFFFFFF DUP3 GT ISZERO PUSH2 0x88E JUMPI PUSH2 0x88D PUSH2 0xA70 JUMP JUMPDEST JUMPDEST PUSH2 0x897 DUP3 PUSH2 0xAB3 JUMP JUMPDEST SWAP1 POP PUSH1 0x20 DUP2 ADD SWAP1 POP SWAP2 SWAP1 POP JUMP JUMPDEST PUSH1 0x0 DUP2 MLOAD SWAP1 POP SWAP2 SWAP1 POP JUMP JUMPDEST PUSH1 0x0 DUP3 DUP3 MSTORE PUSH1 0x20 DUP3 ADD SWAP1 POP SWAP3 SWAP2 POP POP JUMP JUMPDEST PUSH1 0x0 PUSH2 0x8CB DUP3 PUSH2 0x98E JUMP JUMPDEST SWAP2 POP PUSH2 0x8D6 DUP4 PUSH2 0x98E JUMP JUMPDEST SWAP3 POP DUP3 PUSH32 0xFFFFFFFFFFFFFFFFFFFFFFFFFFFFFFFFFFFFFFFFFFFFFFFFFFFFFFFFFFFFFFFF SUB DUP3 GT ISZERO PUSH2 0x90B JUMPI PUSH2 0x90A PUSH2 0xA41 JUMP JUMPDEST JUMPDEST DUP3 DUP3 ADD SWAP1 POP SWAP3 SWAP2 POP POP JUMP JUMPDEST PUSH1 0x0 PUSH2 0x921 DUP3 PUSH2 0x98E JUMP JUMPDEST SWAP2 POP PUSH2 0x92C DUP4 PUSH2 0x98E JUMP JUMPDEST SWAP3 POP DUP3 DUP3 LT ISZERO PUSH2 0x93F JUMPI PUSH2 0x93E PUSH2 0xA41 JUMP JUMPDEST JUMPDEST DUP3 DUP3 SUB SWAP1 POP SWAP3 SWAP2 POP POP JUMP JUMPDEST PUSH1 0x0 PUSH2 0x955 DUP3 PUSH2 0x96E JUMP JUMPDEST SWAP1 POP SWAP2 SWAP1 POP JUMP JUMPDEST PUSH1 0x0 PUSH2 0x967 DUP3 PUSH2 0x96E JUMP JUMPDEST SWAP1 POP SWAP2 SWAP1 POP JUMP JUMPDEST PUSH1 0x0 PUSH20 0xFFFFFFFFFFFFFFFFFFFFFFFFFFFFFFFFFFFFFFFF DUP3 AND SWAP1 POP SWAP2 SWAP1 POP JUMP JUMPDEST PUSH1 0x0 DUP2 SWAP1 POP SWAP2 SWAP1 POP JUMP JUMPDEST PUSH1 0x0 PUSH2 0x9A3 DUP3 PUSH2 0x9AA JUMP JUMPDEST SWAP1 POP SWAP2 SWAP1 POP JUMP JUMPDEST PUSH1 0x0 PUSH2 0x9B5 DUP3 PUSH2 0x9BC JUMP JUMPDEST SWAP1 POP SWAP2 SWAP1 POP JUMP JUMPDEST PUSH1 0x0 PUSH2 0x9C7 DUP3 PUSH2 0x96E JUMP JUMPDEST SWAP1 POP SWAP2 SWAP1 POP JUMP JUMPDEST DUP3 DUP2 DUP4 CALLDATACOPY PUSH1 0x0 DUP4 DUP4 ADD MSTORE POP POP POP JUMP JUMPDEST PUSH1 0x0 JUMPDEST DUP4 DUP2 LT ISZERO PUSH2 0x9FB JUMPI DUP1 DUP3 ADD MLOAD DUP2 DUP5 ADD MSTORE PUSH1 0x20 DUP2 ADD SWAP1 POP PUSH2 0x9E0 JUMP JUMPDEST DUP4 DUP2 GT ISZERO PUSH2 0xA0A JUMPI PUSH1 0x0 DUP5 DUP5 ADD MSTORE JUMPDEST POP POP POP POP JUMP JUMPDEST PUSH2 0xA19 DUP3 PUSH2 0xAB3 JUMP JUMPDEST DUP2 ADD DUP2 DUP2 LT PUSH8 0xFFFFFFFFFFFFFFFF DUP3 GT OR ISZERO PUSH2 0xA38 JUMPI PUSH2 0xA37 PUSH2 0xA70 JUMP JUMPDEST JUMPDEST DUP1 PUSH1 0x40 MSTORE POP POP POP JUMP JUMPDEST PUSH32 0x4E487B7100000000000000000000000000000000000000000000000000000000 PUSH1 0x0 MSTORE PUSH1 0x11 PUSH1 0x4 MSTORE PUSH1 0x24 PUSH1 0x0 REVERT JUMPDEST PUSH32 0x4E487B7100000000000000000000000000000000000000000000000000000000 PUSH1 0x0 MSTORE PUSH1 0x41 PUSH1 0x4 MSTORE PUSH1 0x24 PUSH1 0x0 REVERT JUMPDEST PUSH1 0x0 DUP1 REVERT JUMPDEST PUSH1 0x0 DUP1 REVERT JUMPDEST PUSH1 0x0 DUP1 REVERT JUMPDEST PUSH1 0x0 DUP1 REVERT JUMPDEST PUSH1 0x0 PUSH1 0x1F NOT PUSH1 0x1F DUP4 ADD AND SWAP1 POP SWAP2 SWAP1 POP JUMP JUMPDEST PUSH32 0x4E6F20656E6F7567682066756E64730000000000000000000000000000000000 PUSH1 0x0 DUP3 ADD MSTORE POP JUMP JUMPDEST PUSH32 0x596F7520617265206F776E657200000000000000000000000000000000000000 PUSH1 0x0 DUP3 ADD MSTORE POP JUMP JUMPDEST PUSH32 0x4E6F7420416C6C6F776564000000000000000000000000000000000000000000 PUSH1 0x0 DUP3 ADD MSTORE POP JUMP JUMPDEST PUSH32 0x596F7520617265206E6F74206F776E6572000000000000000000000000000000 PUSH1 0x0 DUP3 ADD MSTORE POP JUMP JUMPDEST PUSH2 0xB71 DUP2 PUSH2 0x94A JUMP JUMPDEST DUP2 EQ PUSH2 0xB7C JUMPI PUSH1 0x0 DUP1 REVERT JUMPDEST POP JUMP JUMPDEST PUSH2 0xB88 DUP2 PUSH2 0x95C JUMP JUMPDEST DUP2 EQ PUSH2 0xB93 JUMPI PUSH1 0x0 DUP1 REVERT JUMPDEST POP JUMP JUMPDEST PUSH2 0xB9F DUP2 PUSH2 0x98E JUMP JUMPDEST DUP2 EQ PUSH2 0xBAA JUMPI PUSH1 0x0 DUP1 REVERT JUMPDEST POP JUMP INVALID LOG2 PUSH5 0x6970667358 0x22 SLT KECCAK256 0xEF MOD 0xD0 KECCAK256 LOG4 DUP3 0xDA CODESIZE PUSH17 0x2AAFAA0B10ECC9517E8B9808632907F7A7 GAS PC 0xA6 SLT 0xAA PUSH18 0x64736F6C6343000807003300000000000000 "
		},
		"gasEstimates": {
			"creation": {
				"codeDepositCost": "608600",
				"executionCost": "24911",
				"totalCost": "633511"
			},
			"external": {
				"BALANCE()": "317",
				"addAllowance(address,uint256)": "infinite",
				"allowance(address)": "2836",
				"withdrawMoney(address,uint256,string)": "infinite"
			},
			"internal": {
				"isOwner()": "2204"
			}
		},
		"methodIdentifiers": {
			"BALANCE()": "15e9977e",
			"addAllowance(address,uint256)": "f3c40c4b",
			"allowance(address)": "3e5beab9",
			"withdrawMoney(address,uint256,string)": "3495e901"
		}
	},
	"abi": [
		{
			"inputs": [],
			"stateMutability": "nonpayable",
			"type": "constructor"
		},
		{
			"anonymous": false,
			"inputs": [
				{
					"indexed": false,
					"internalType": "address",
					"name": "_to",
					"type": "address"
				},
				{
					"indexed": false,
					"internalType": "uint256",
					"name": "_amount",
					"type": "uint256"
				},
				{
					"indexed": false,
					"internalType": "string",
					"name": "_description",
					"type": "string"
				}
			],
			"name": "log",
			"type": "event"
		},
		{
			"inputs": [],
			"name": "BALANCE",
			"outputs": [
				{
					"internalType": "uint256",
					"name": "",
					"type": "uint256"
				}
			],
			"stateMutability": "view",
			"type": "function"
		},
		{
			"inputs": [
				{
					"internalType": "address",
					"name": "_to",
					"type": "address"
				},
				{
					"internalType": "uint256",
					"name": "_amount",
					"type": "uint256"
				}
			],
			"name": "addAllowance",
			"outputs": [],
			"stateMutability": "nonpayable",
			"type": "function"
		},
		{
			"inputs": [
				{
					"internalType": "address",
					"name": "",
					"type": "address"
				}
			],
			"name": "allowance",
			"outputs": [
				{
					"internalType": "uint256",
					"name": "",
					"type": "uint256"
				}
			],
			"stateMutability": "view",
			"type": "function"
		},
		{
			"inputs": [
				{
					"internalType": "address payable",
					"name": "_to",
					"type": "address"
				},
				{
					"internalType": "uint256",
					"name": "_amount",
					"type": "uint256"
				},
				{
					"internalType": "string",
					"name": "_description",
					"type": "string"
				}
			],
			"name": "withdrawMoney",
			"outputs": [],
			"stateMutability": "nonpayable",
			"type": "function"
		},
		{
			"stateMutability": "payable",
			"type": "receive"
		}
	]
}